:020000040000FA
:1000000008102020D5000000D9000000DB0000000F
:1000100000000000000000000000000000000000E0
:10002000000000000000000000000000DD000000F3
:100030000000000000000000DF0000002D060000AE
:10004000E3000000E3000000E3000000E300000024
:10005000E3000000E3000000E3000000E300000014
:1000600000000000E3000000E300000000000000CA
:1000700000000000E3000000E3000000E3000000D7
:10008000E3000000E3000000E3000000E3000000E4
:10009000E3000000E300000000000000000000009A
:1000A000E3000000E300000000000000000000008A
:1000B000E300000000000000E3000000E300000097
:1000C0000348854600F010F8004800474D0700003F
:1000D0000810202003480047FEE7FEE7FEE7FEE7A2
:1000E000FEE7FEE7C10000001CB509480090094882
:1000F000019005460126009C05E0E36807CC3343E8
:100100000C3C98471034AC42F7D3FFF7DDFF0000FA
:10011000F808000008090000811E091F00BFFCD27A
:10012000704784B003900291019203980068009098
:10013000009801998843009000980299019A114013
:1001400008430399086004B07047000082B0019032
:10015000009100980199024A885002B07047C04649
:10016000D012000081B0009000990120C202954891
:10017000885001B07047C04681B00090009881005F
:100180000F4A8120885001B07047C04682B001906C
:10019000009100980349084301998900084A885052
:1001A00002B070478000040082B001900091009876
:1001B0008021084301998900014A885002B07047A4
:1001C0000480424081B0009000999F4A9F48885027
:1001D00001B0704782B00190009100980199024AE5
:1001E000885002B07047C0469012000082B0019063
:1001F000009100980199024A885002B07047C046A9
:10020000B0120000F0B584B001242202344B19680A
:1002100003929143196056490D686D04FCD5457EE3
:1002200025409E69A64374199C612024045D032522
:100230002C40DE69AE433419DC611F4C256805266D
:100240002660466A37681F6276685E6207262E401F
:100250002660C4697F252D02DE69AE436406640C06
:100260003419DC610768456882680092C6680269D3
:100270000192426902929A69104C14403A07120B9B
:100280002D03ADB2AA183243009D2D072D0D154345
:10029000019A1543029A1543007E2843084A0240FA
:1002A000101998611868039A10431860086880054F
:1002B000FCD504B0F0BDC046001340408D00F0FFF7
:1002C00072FF0F00064908680122904308607047DA
:1002D0000349086801221202904308607047C04633
:1002E00008010B4081B00146684601700078024960
:1002F000086001B07047C04608030B4080B582B06B
:10030000014601A8018001880F2002021748FFF76B
:1003100008FF02B080BDC04680B582B0014601A88A
:100320000170017802480322FFF7FBFE02B080BD96
:1003300000010B4080B582B0014601A80170017830
:100340000A483022FFF7EDFE02B080BD0749886001
:10035000074802689202FCD5012212040B6813437D
:100360000B600168C906FCD57047C04604010B400C
:1003700004020B40AC490868022210430860704731
:1003800081B000900099112002028858012318437F
:10039000885001B0704781B000900099112002028E
:1003A000885801235B041843885001B0704700004F
:1003B00081B0009000990120C2020248885001B02B
:1003C0007047C04601000026B0B5112212028358C2
:1003D0000124A34383500B888C781C438B882343D0
:1003E000094C1C408358094D1D40631983508B797B
:1003F000CC791C43097A21437E2319408018426836
:100400009A4351184160B0BD18670000E798FDFF9E
:1004100081B0009000984449405804210840800869
:1004200001B0704781B00090009802494058C0B2B6
:1004300001B070472411000081B000900099024A79
:100440000248885001B0704704080000030000B162
:1004500080B584B003900291019203980B49401833
:1004600002990B4AFFF75DFE03980A49401801996B
:100470003F22FFF756FE0399074A88188958012240
:100480001140FFF74EFE04B080BDC04610110000C1
:10049000FFFF0000141100000411000010B501223C
:1004A000120383180C789C604978815010BD80B588
:1004B00082B0019000910198112109024018009921
:1004C0000322D203FFF72DFE02B080BD80B584B0B9
:1004D000019101460198039102A9087003980D4A01
:1004E000801809787022FFF71CFE04B080BDC0465A
:1004F00080B584B0019101460198039102A908706A
:100500000398044A801809780722FFF70AFE04B00E
:1005100080BDC0460C110000034A80180268120614
:10052000FCD481617047C0460811000080B588B0D6
:1005300028480190FFF746FEA8480390FFF742FEC7
:10054000A0480590FFF778FFA0480790FFF774FFD9
:100550000198FFF707FE0398FFF704FE0598FFF7E1
:1005600027FF0798FFF724FF1020FFF7D5FD00F0C5
:10057000A5F8142002210291FFF716FE029915201A
:100580000690FFF703FE02991620FFF70DFE029971
:100590001720FFF7FBFD1920FFF7EEFD039801215F
:1005A00049020491FFF716FE03980499FFF7CEFD68
:1005B000059806992D2200F09FF80798412189009F
:1005C0001B2200F099F8044800F008F8FFF7D2FE6B
:1005D00008B080BD00000A408038010080B584B0BA
:1005E00002900298401E000E002803D0FFE7012071
:1005F000039011E00298401E094908600020019014
:10060000C043032100F018F8019806490860064A23
:10061000072111600390FFE7039804B080BDC04636
:1006200014E000E018E000E010E000E0684908682D
:10063000401C08607047C04670B582B0024601A8F1
:100640000270009100214056002816D4FFE70024D4
:1006500001A908570322D3431840174A8058095765
:100660008C07E50EFF24AC40A043009CA401E4B23B
:10067000AC402043194088501AE001A908780F24A3
:10068000204008380322D34318400A4A80580025E6
:1006900049578D07EE0EFF25B540A843009DAD01DB
:1006A000EDB2B54028432140083919408850FFE792
:1006B00002B070BD1CED00E000E400E080B582B047
:1006C00000200190FFF70EFE01204002FFF716FE0A
:1006D0000198FFF721FEFFF7F5FDFFF7F9FD05484B
:1006E000FFF790FD1020FFF725FE0198FFF72EFE83
:1006F00002B080BD4808000080B584B0039002912C
:10070000019203980F49FFF7C9FE03980E49FFF7BE
:100710005BFE03980021FFF7CAFE03980299019A35
:10072000FFF796FE0398FFF736FE03987021FFF758
:10073000CDFE03980221FFF7DBFE0398FFF720FEB2
:1007400004B080BD700800007208000080B582B05F
:10075000002001900090FFF7E9FE62B618491948A1
:1007600000F04CF81849194800F048F8FFE7FFE797
:100770001648FFF74DFE002808D1FFE71348FFF7A2
:1007800051FE01460F4800F02BF8F1E710480068D1
:100790000099401AC0087D2811D3FFE70C48006873
:1007A00000900C49094800F029F80B49054800F071
:1007B00025F8012041020948FFF718FDFFE7D6E7B9
:1007C0007C08000000801040E3080000000010409A
:1007D00000002020D0080000C808000000200A40C7
:1007E00080B584B0019101460198039102A9087077
:1007F00003980978FFF790FE04B080BD80B582B001
:1008000001900091FFE700980078002809D0FFE7E9
:10081000019800990978FFF7E3FF0098401C0090C9
:10082000F1E702B080BD02E008C8121F08C1002A2B
:10083000FAD170477047002001E001C1121F002A61
:10084000FBD17047FFFFFFFF010000000000000028
:100850000000000040000000000000000000000058
:100860000200000004000000010000002C00C44150
:100870000800000018000000003000000D0A43309E
:10088000374120426C7565746F6F74682055415212
:1008900054207465737420737461727465642E0DD2
:1008A0000A55415254313A20504236285458292C86
:1008B00020504237285258292C20393630302D38D4
:1008C0002D4E2D312E0D0A005B42542054585D20D0
:1008D0004341525F4D41535445523A48454C4C4F69
:1008E0000D0A004341525F4D41535445523A424F25
:1008F0004F540D0A000000000809000000002020ED
:08090000081000003608000099
:04000005000000C136
:00000001FF
