:020000040000FA
:10000000A80620206D0100007101000073010000AE
:1000100000000000000000000000000000000000E0
:10002000000000000000000000000000750100005A
:1000300000000000000000007701000079010000CE
:100040007B010000E51C00007B0100007B0100003B
:100050007B0100007B0100007B0100007B010000B0
:10006000000000007B0100007B0100000000000098
:1000700000000000255300007B0100007B01000010
:10008000D55200007B0100007B0100007B010000D5
:10009000ED5200007B0100000000000000000000A5
:1000A0007B0100007B010000000000000000000058
:1000B0007B010000000000007B0100007B010000CC
:1000C00000F002F800F042F812A030C808382418F6
:1000D0002D18AC4201D100F039F80FCCA246AB4646
:1000E0000CA730CF2D1B083F3F197C427F1E544484
:1000F0002D090426F441641EAC4201D300F026F819
:100100000126334200D0FB1A3343984754465D46DC
:10011000DFE700006C6000007C6000000000000071
:100120007047000000000000002300240025002686
:10013000103A01D378C1FBD8520700D330C100D5A3
:100140000B6070471FB51FBD10B510BD00F05CFA05
:100150001146FFF7F7FF05F001F900F074FA03B458
:10016000FFF7F2FF03BC00F0C9FA000006480047A1
:10017000FEE7FEE7FEE7FEE7FEE7FEE70348044989
:10018000024A044B70470000C1000000A802202072
:10019000A8062020A8022020002203098B4273D346
:1001A000030A8B4258D3030B8B423CD3030C8B4284
:1001B00021D312E003460B437FD4002243088B4235
:1001C00074D303098B425FD3030A8B4244D3030BDE
:1001D0008B4228D3030C8B420DD30902FF2212BAA3
:1001E000030C8B4202D31212090265D0030B8B421F
:1001F00019D300E0090AC30B8B4201D3CB03C01A09
:100200005241830B8B4201D38B03C01A5241430BE3
:100210008B4201D34B03C01A5241030B8B4201D3D3
:100220000B03C01A5241C30A8B4201D3CB02C01A3E
:100230005241830A8B4201D38B02C01A5241430AB6
:100240008B4201D34B02C01A5241030A8B4201D3A5
:100250000B02C01A5241CDD2C3098B4201D3CB014C
:10026000C01A524183098B4201D38B01C01A5241FB
:1002700043098B4201D34B01C01A524103098B42FF
:1002800001D30B01C01A5241C3088B4201D3CB00EA
:10029000C01A524183088B4201D38B00C01A5241CD
:1002A00043088B4201D34B00C01A5241411A00D27D
:1002B00001465241104670475DE0CA0F00D04942E6
:1002C000031000D3404253409C46002203098B4256
:1002D0002DD3030A8B4212D38901FC2212BA030ADE
:1002E0008B420CD3890192118B4208D38901921160
:1002F0008B4204D389013AD0921100E08909C309E5
:100300008B4201D3CB01C01A524183098B4201D3E6
:100310008B01C01A524143098B4201D34B01C01AD1
:10032000524103098B4201D30B01C01A5241C30849
:100330008B4201D3CB00C01A524183088B4201D3B8
:100340008B00C01A5241D9D243088B4201D34B00D3
:10035000C01A5241411A00D201465241104663462A
:100360005B1001D34042002B00D5494270476346E1
:100370005B1000D3404201B50449002802DC491C4F
:10038000084000E00846C046C04602BDFFFFFF7FB0
:100390007047704770470000F0B5FF252D04C6096F
:1003A000C209FF2704462E400137CB093E4348408F
:1003B0002A402B400746002A6BD0002B69D0AA4266
:1003C00067D0AB4265D0002800DA32460125ED0542
:1003D00029432C4309022002090AD21A4B0C7F241C
:1003E000E31A434C000A7C44E35C7D242404121984
:1003F00014145B00A218884201D3521C00E0400094
:1004000049420C465C4324115C43DB016415E3184C
:10041000040A5C43C502200D0C4644436419250AB6
:100420005D432303EC0C0D46654300030019EB18F4
:100430004C42A34201D35B18401CD4052018002B6A
:1004400007D05B00C91804D3401C002901D1400823
:1004500040003F2189048A4209D3002A08DC1106A2
:10046000090F04D0032149074018C00FC007F0BD91
:1004700001224100120689187F2252069142F6D2CB
:1004800005214907C84201D59010F0BDFF20C005E5
:10049000F0BD002F00DA32461648AA4207D2AB421E
:1004A00005D21902090E17D0F80FC007F0BDFF25BD
:1004B00063002D06AB42F9D84900A942F6D8AB42F9
:1004C00001D1A942F2D0A94201D1002101E061008D
:1004D0004908D0050843F0BD1102090EFBD0FF20EA
:1004E0000243D005F0BD0A460146104654E700001D
:1004F000A25B00000000C07F10B501469E240002F0
:10050000CA15A307002A02D01843002A04DBA21A46
:10051000002A0CDDD04010BD1206120E01D14000A1
:100520004008A21A03D4D04040420028F3DDFF2245
:1005300048001206904201D9002010BDC817C043E0
:10054000584010BD1F22030C02D10F2200041CD002
:10055000030E01D10002083A030F01D10001121F5E
:10056000830F01D18000921E002801DB4000521E43
:10057000D2055118021251181922904004D3491C77
:10058000002801D14908490008467047C10FC90732
:1005900000D04042012292071143D3E7012189078D
:1005A000D0E7000010B5FF231B0644009C421DD875
:1005B0004C009C421AD80346124A0B4307D4401AF7
:1005C00002D3EFF3008010BDEFF3008010BD081AD6
:1005D00003D3EFF30080904305E0EFF300800121A7
:1005E0009043C907084380F3008810BD0D231B0406
:1005F0001A4204D01146002000F02DF810BD00F082
:1006000041F810BD00000090754600F043F8AE467A
:10061000050069465346C008C000854618B020B59D
:10062000FFF7ACFD60BCB64600260027C0C5C0C5BC
:10063000C0C5C0C5C0C5C0C5C0C5C0C5403D4908CE
:1006400049008D46704710B50446C046C046204656
:10065000FFF785FD10BDC80212D54803400F0028E2
:1006600004D0C803C043012188407047EFF30080E5
:100670000001000903210907084380F3008870473F
:100680000020704710B5024800F008F810BD0000C7
:100690000000C07F004870470000202010B50C46C5
:1006A0001107090F092904D00A290AD008290CD1F9
:1006B00004E011460820FFF7CEFF06E0510606D5FC
:1006C00001E0510601D50120C007214610BDD10629
:1006D00007D501010909CC084907000E00060443AB
:1006E00009E0410F20024907000A0143200E0006DD
:1006F0001D22D14101430846E7E7000001491820C7
:10070000ABBEFEE72600020070470000464800210D
:1007100001704748017045480160134801807047E7
:1007200041480078411F484248417047B0B50446EF
:100730003E48002505603E48047000F08BF8012C0F
:100740000AD0032C04D0022C0BD10425002005E094
:1007500005480088042501E03220254600B200F05B
:1007600099F831480570B0BDE4012020F0B581B0A2
:1007700004462D4E3078002854D0052852D020460B
:1007800000F08CF8294F3868002800D13C6000F058
:100790007DF8054600F068F825490978012941D11E
:1007A000317803291DD0022910D001293AD1002D1A
:1007B0002AD0093080B2132826D23120C04300F05D
:1007C00069F83C600220307020461EE0002D13D0F6
:1007D000093080B213280FD23C60032030702046CD
:1007E0000BE03868201AFF21F63188421AD3052021
:1007F000307000F021F815E03868201A0D49884261
:1008000010D93C6003200AE03868201A0949884260
:1008100008D93120C04300F03DF83C600220307020
:1008200001B0F0BD01B0F0BDA4012020480220209D
:1008300042022020B80B000080B55149002008700A
:100840004E4908705949088004F0B0FC04F04EFC91
:1008500080BDC04680B54D48002101604748012158
:10086000017004F05DFC80BD00204749085E7047C0
:1008700045480021018043480180444801603F48C9
:1008800001703F4801704948018070473C4800783A
:100890007047C0463B4908807047C046F0B581B0FC
:1008A00036490978012966D1054600F045FA044623
:1008B0009621284600F05EFA002853D030480121E6
:1008C000017020882F490988081A2F49088000B232
:1008D000FFF75CFE05462D480068294605F0FCF947
:1008E00007462B4E314605F0D3F9002800D13E468D
:1008F000284F3046394605F0E3F9002800D1374645
:10090000224807602449384605F080FA0646234904
:10091000284605F07BFA314605F0DEF9054602204F
:10092000205EFFF733FE1E4905F070FA014605F020
:10093000D3F9294605F0D0F905461A4C214605F0B1
:10094000A7F9002800D12C46174D2046294605F06E
:10095000B7F9002800D125462846FFF7CDFD1349F9
:10096000088006E011490020088005490870074901
:10097000086004F01BFC01B0F0BDC046EC01202073
:10098000A4022020A2022020EE0120200C02202020
:100990000000FA430000FAC3CDCCCC3D0000A040DB
:1009A0000AD7A3BC00803B4500803BC54402202001
:1009B000002801D0002070473549087800220A70CD
:1009C0007047C0462D48002101602E4801702F4815
:1009D00001602F480170274800682B4A11704003BE
:1009E000C00F2749087024490870704710B5214985
:1009F00009684903C90F204A137899421AD1204B3C
:100A00001A7891421BD01D4C2468041B1E2C2BD33A
:100A10001970002913D1002A11D01A490A78FF2A27
:100A200001D0521C0A70184901220A701749086047
:100A3000002104E0114B1860117011490978124A25
:100A40001378012B15D1002913D110490968401AD8
:100A500080084B280DD3002010700A490A780870CE
:100A6000012A03D8012002E01146E8E702200849E4
:100A7000087010BD80130A40B8012020BC0120205E
:100A8000B4012020C0012020C8012020C401202062
:100A9000CC012020F0B583B0B24B1A68521C1A600A
:100AA000B14C2278032A34D87A4412795200974400
:100AB00001250B11AA2800D094E0012020709D4848
:100AC000AA21017003B0F0BD012872D0022877D1AD
:100AD00006216FE097498A78012A62D0012282427A
:100AE00062D01A69521C1A610022AA28104602D14B
:100AF000AA20087001209D490A706EE0AA2871D0D2
:100B000055286DD1022020708A485521417003B0CC
:100B1000F0BD884DA854501C2070944A1278C0B281
:100B2000904200D204E1D51E019102925FD00120D3
:100B3000294601400091042A00D08EE00024274677
:100B40000098002854D07B480019817879404C00E7
:100B5000072049B2002900D54440610062B2002A52
:100B600000D541404A0049B2002900D54240510019
:100B700052B2002A00D541404A0049B2002900D5AE
:100B80004240510052B2002A00D541404A0049B2C9
:100B9000002900D54240570051B2002928D54740CE
:100BA00026E0072282429CD104222270C87003B042
:100BB000F0BD0C215F4A90706C48017003200CE07E
:100BC0001969491C19610021AA28084603D159480E
:100BD000AA2202700120654A1170207003B0F0BD96
:100BE000002020701869401C186103B0F0BD002778
:100BF0000298504A8018401E0078F9B281422AD1EA
:100C00009078012800D08AE01479594801780129A8
:100C100009D168494979611AC9B2022903D35A69CD
:100C20008918491E5961634D6C7101210170019849
:100C3000A860E9713F4A50792871907AA87190793B
:100C4000D179090208182880107A517A0902081807
:100C500068801B1D64E00C3362E085430024274656
:100C600003E0A41CA54200D16AE7294631480519D2
:100C7000AA787A405700072052B2002A00D5474090
:100C80007A007EB2002E00D54240570052B2002AB0
:100C900000D547407A007EB2002E00D54240570072
:100CA00052B2002A00D547407A007EB2002E00D50D
:100CB0004240560052B2002A00D54640770072B238
:100CC000002A00D54740ED787D406A006DB2002DC6
:100CD00000D54240550052B2002A00D545406A0076
:100CE0006DB2002D00D54240550052B2002A00D509
:100CF00045406A006DB2002D00D54240550052B209
:100D0000002A00D545406A006DB2002D00D5424052
:100D10000D46570052B2002AA3D54740A1E7083339
:100D2000114900200870114908701868401C1860AB
:100D300003B0F0BDA50120201E4870471D490020CA
:100D40000860486088600749086048608860C8603B
:100D500008614861886104490870044908700449C1
:100D6000087070478402202001022020F00120201A
:100D7000080220200F4A9368C01A884203D21079D3
:100D80004007C00F00E00020D179002900D10846BB
:100D90007047C04610B50246064BD879441EA041A4
:100DA0009B68D21A8A4202D30021084010BD01215B
:100DB000084010BDD8012020534800687047C04645
:100DC000524800787047C0464D4800787047C0468A
:100DD0004B48002101704D4801704A4801604A4863
:100DE0000160704770B5044600252846FFF7E0FD16
:100DF000434E3178022919D001291BD105464148BB
:100E00000068201A40490860204600F0EFFF2046A5
:100E1000FFF7ACFC00F0CCFF00282BD0002000F046
:100E200021F9FFF709FD0220307070BD01282BD198
:100E3000357070BD022828D0012825D132480560C0
:100E400030480460012030703048007878440079E0
:100E500040008744024E313D2600002000F0E6F8B5
:100E60002D4800F0D5F8022000F0FCF8012000F039
:100E7000A5FF70BD25480078012803D1FFF750FC7D
:100E80000028CBD1012DC9D070BD20480178491C64
:100E9000CAB2CD2353439A0A05235343C91A01709A
:100EA00070BD012000F0C2F8194800F0B1F802202E
:100EB00000F0D8F8032409E0002000F0B7F8154846
:100EC00000F0A6F80224204600F0CCF820460AE004
:100ED000012000F0ABF80E4800F09AF802242046FA
:100EE00000F0C0F8032000F069FF2046FFF71EFC69
:100EF00070BD002000F0B6F80120FFF717FC70BDB0
:100F0000800220207C022020E801202040022020B6
:100F1000E6A57E42B7AF90429A8FCA423A4800682F
:100F20007047C046274800687047C0462A48006896
:100F30007047C0462C4800687047C0463348006878
:100F40007047C046204800687047C0462348006884
:100F50007047C046254800687047C04680B54D4977
:100F6000002008703D4908702F4908604A49086010
:100F70004A4908602449086024490860114908600A
:100F80001149086011490860114908601149087049
:100F90001149086011490860114908601149086049
:100FA000114908603E4908603E4908603E490860B2
:100FB0000E4908602A4908800D49086001F01EFBAF
:100FC00080BDC04628022020680220202C0220205C
:100FD0006C02202078022020300220207002202085
:100FE000200220206002202038022020D001202072
:100FF000D4012020EFF3108072B603480021016075
:101000000248016062B670471C0220205C0220206A
:1010100010B50446002104F03BFE002800D1044630
:101020000148046010BDC0469C012020411E48427A
:101030004841EFF3108172B608490A7882420AD01B
:10104000154A00231360154A1360154A1360164AA7
:101050001360034A1380087062B670473E02202076
:101060003C02202080B50B490A7890420AD00A4AF7
:1010700000231360094A1360094A1360094A136088
:10108000094A13600870002800D080BD01F040FAC2
:1010900080BDC0464302202024022020640220207C
:1010A000540220205002202010022020F0B587B0EA
:1010B000E64800780390E6480168491C016001F0A9
:1010C0006DF906A805A900F0FFFDE24E306805990C
:1010D00040183060E04B1868069A801A1860DF4BA1
:1010E000186840181860DE4D2868801A2860DD49AD
:1010F0000878401C0870C0B202282AD3D74800687C
:101100001424214600F0BEFDD74E306028682146E9
:1011100000F0B8FDD54F38603068002104F0ADFD17
:10112000002804D10120C00731684140316038688F
:101130000024214604F0A1FD002804D10120C007AD
:10114000396841403960C54804602C60C548047066
:10115000C04E04A800F016FFC54F3870387800283C
:1011600008D0049C0021204604F0AAFD002805D1E7
:101170003F2004E000200490044606E0BF20010662
:10118000204604F0A9FDFFF7B7F9BA490860BA484C
:101190000178002928D0007801283BD13068AE4979
:1011A0000968441AB548066804602046FFF7EEF95E
:1011B0000546A01BFFF7EAF9B14904F027FE0446F3
:1011C000B049284604F022FE214604F085FD04467D
:1011D000AD4E3068214604F071FE05463068214668
:1011E00004F07AFD0446CDE0A84800210160A8483B
:1011F0000160A8480160A8480160A8480160A848AB
:1012000001609648016029609648017001F080F9FC
:1012100007B0F0BD3878002807D0A2480168046004
:101220000398012815D0A04D14E0A0480188A04AD9
:10123000914202D00188491C018000889D4C25689C
:1012400003285FD38E49284604F0E0FD206025681E
:1012500058E0994D204604F031FE0146284604F03E
:10126000D5FD05460398012801D0944800E0944834
:10127000214604F0CBFD294604F02EFD04460398D8
:10128000012801D08F4D01E08320C5052046294665
:1012900004F0FEFC00282E4600D126460120C0079F
:1012A00002902D182046294604F00AFD002800D19E
:1012B0003546FE4804682846214604F0FFFD0746EF
:1012C0000398012801D0FB4E00E0F94E3846314624
:1012D00004F0E9FC002804D13046214604F0FCFC6F
:1012E0000AE002983118384604F0C7FC002804D1FF
:1012F0002046314604F0E2FD0546EC480560EE4824
:10130000002101800398012801D0E74901E08320F2
:10131000C1050120C20728469043FFF73DF8E84980
:1013200004F074FD7F21C90504F0D6FC0646E34CA9
:10133000214604F0C5FC002800D13446E14800688D
:10134000214604F063FDE04908600E6808682946FC
:1013500004F0B4FD07460398012801D0DB4900E002
:10136000D049DB48006804F0A9FD04463846214610
:1013700004F0A6FC002800D13C462846314604F083
:10138000ABFC054600262846314604F081FC0028C7
:1013900000D10546CF4805602046314604F078FC70
:1013A000002800D10446CA4802940460BF4C20685B
:1013B000314604F085FC0399012902D041210E0633
:1013C00000E0C54E2768002802D00120C007474032
:1013D0003846314604F051FCAF490C780443601E96
:1013E00084413846314604F06BFC002814D1BB4FD1
:1013F0003868BD4E314604F009FD3860BC4F38688E
:10140000314604F003FD3860A4480168284604F022
:1014100055FDB2490E6808E0A0480168284604F06E
:101420004DFDAE490E68002C4ED09E4904F0EEFCF6
:10143000074621204106284604F0E8FC394604F01E
:101440004BFC0546A849304688E0C0463E022020B5
:10145000D00120201C0220205C0220202C02202011
:101460006C02202078022020280220206802202000
:101470003F0220203802202043022020500220205A
:101480003333333FCDCC4C3E9C012020240220201E
:101490006402202030022020700220202002202020
:1014A00060022020540220200000C0403C02202086
:1014B000FFFF000010022020333373400000204162
:1014C0009A99C9400000C8410968039004F004FCDF
:1014D0000746834E314604F0DBFB002800D13E4630
:1014E000804F3046394604F0D3FB002800D13E46F9
:1014F0007D490196304604F089FC07466949039806
:1015000004F084FC064621204106284604F07EFCB7
:10151000314604F0E1FB05463846294604F0DCFB81
:101520000746724904F0CCFB002805D1002103983E
:1015300004F0AEFB00280ED10021384604F0A8FBD1
:10154000002805D10021039804F0BAFB002802D13D
:1015500062480199016061480068634904F056FCE3
:10156000294604F0B9FB0646604D294604F090FB7D
:10157000002800D135460021284604F089FB0028C8
:1015800000D105462846FEF7B7FF5A49086044488F
:101590000168029F384604F091FC054654480668ED
:1015A000002C10D03F49284604F030FC054621208D
:1015B0004106384604F02AFC294604F08DFB044617
:1015C0004949304647E00168284604F085FB074654
:1015D000434E314604F05CFB002800D13E46414FAB
:1015E0003046394604F054FB002800D13E463E49BF
:1015F000304604F00BFC07462A49284604F006FC56
:10160000044621204106029804F000FC214604F023
:1016100063FB04463846214604F05EFB0746334927
:1016200004F04EFB002805D10021284604F030FBD1
:1016300000280DD10021384604F02AFB002805D1EE
:101640000021284604F03CFB002801D12848066010
:1016500027480068244904F0D9FB214604F03CFBEC
:101660000546224C214604F013FB002800D12C46ED
:101670000021204604F00CFB002800D1044620463F
:10168000FEF73AFF1C4908601A480068096800F034
:1016900071FF07B0F0BDC04678022020280220204C
:1016A00068022020000020410000C84110022020D4
:1016B000000040410000A0413C0220203333333F72
:1016C0009A9999BE9C012020D401202000007041ED
:1016D00070022020300220200000A04024022020A0
:1016E0000000C8430000C8C36666663F00C0F345FB
:1016F000640220202002202060022020B0B50A7859
:10170000032313400B4A84580B4D2540EB18A924A2
:1017100024061B198350072212064B68134011241C
:10172000240205599543EA180251001949780161CC
:10173000B0BDC04608080000FCFFFF00811E091F65
:1017400000BFFCD2704710B5002A0FD091235B0177
:10175000C3180020DC692405240F05D00C5C1C6034
:10176000401C8242F6D1104680B210BD002080B2EB
:1017700010BD0000084A835880210B438350801815
:101780000F221202436813400122D2029342F7D182
:1017900002688A43026070473812000070B50A7808
:1017A0000C231A400124240305196E689E43B218C5
:1017B0006A6049780722114003599343591801512F
:1017C00070BD0000F0B584B0012422022A4B1968D4
:1017D00003929143196035490D686D04FCD5457E2F
:1017E00025409E69A64374199C612024045D03254D
:1017F0002C40DE69AE433419DC61204C2568052697
:101800002660466A37681F6276685E6207262E4049
:101810002660C4697F252D02DE69AE436406640C30
:101820003419DC610768456882680092C6680269FD
:101830000192426902929A69114C14403A07120BC4
:101840002D03ADB2AA183243009D2D072D0D15436F
:10185000019A1543029A1543007E2843094A024023
:10186000101998611868039A104318600868800579
:10187000FCD504B0F0BDC04608010B400013404049
:101880008D00F0FF72FF0F0007498860074802686B
:101890009202FCD5012212040B6813430B6001680D
:1018A000C906FCD57047C04604010B4004020B403A
:1018B00070B582B00B794A79002A25D0184A202BBE
:1018C00002D00524E40100E07A4C8218002B00D1FC
:1018D0008824156C764E35402D191564556C3540AD
:1018E0002C1954641468B14D2C40146054682C4079
:1018F00054600024146254628F24E443156D254023
:101900001565556D254055656A4613718B79537180
:1019100009680091114600F073F802B070BDC0462E
:1019200038180000F0B585B02F4A85181122120230
:10193000821803924A7A521ED3B201260024022B47
:10194000019400960DD852B2920028A4A7584924B9
:10195000E60134465C43A4190294274CA2585B1C50
:1019600003E002222346029437464C6804956C60DB
:10197000CE688F252E4016433122D20184189B0059
:10198000E258AA433243E250CD688E263540BA0071
:10199000A758B743ED19009E3543A5508A4C00194E
:1019A000C458824D2C40154EA419641CC450835851
:1019B0002B409B1983500398019A026008780128F4
:1019C00001D0029A02E02020029A0243087ABD2147
:1019D00001401143049B1868384A02400A43022020
:1019E0001043186005B0F0BD0418000000000000AE
:1019F0000300000002000000CC5F000001000200B4
:101A0000F0B5684A8218294BC318087920280DD0F0
:101A100000281DD10C68641E5460D56E244C2540EE
:101A20008835D5661646703688251DE00C68641E1C
:101A30005460D46E1E4D2C401E4EA419D466146FF3
:101A40002C40A4191467012465071B4C16460BE0B3
:101A50000C6864085460D66E154C26400525ED01CF
:101A60007619D66616467036376827402F4337609A
:101A7000D46A4E4D2C40D462146B2C401463002465
:101A8000D46414658F24E443D56F2540D5671D6861
:101A900025401D6049790143BD2008401168074B6E
:101AA0000B40C018801C1060F0BDC04684180000B8
:101AB00024493E0001040000FFFFFFCF4000FFCF9C
:101AC000B0B54A68364BC250364A80180A78222A86
:101AD00058D8930001A4E3589F46C0467B1B0000E2
:101AE000851B00007B1B0000851B0000851B000080
:101AF000851B0000851B0000851B0000851B000066
:101B0000851B0000851B0000851B0000851B000055
:101B1000851B0000851B0000851B0000691B000061
:101B2000851B0000691B0000851B0000851B000051
:101B3000851B0000851B0000851B0000851B000025
:101B4000851B0000851B0000851B0000851B000015
:101B5000851B0000851B0000851B0000691B000021
:101B6000851B0000691B000003231B0704689C43BE
:101B700001235B07E318036004E003231B070468E9
:101B80009C4304600B69C360CB68074C1C40C36A6C
:101B9000064D1D402B19C362097A11430160B0BD87
:101BA0000818000004180000777702008888FDFFFD
:101BB00010B507239B04194092008018024A8458EC
:101BC0009C436118815010BD3018000010B5029C74
:101BD000A400001911431943014A815010BDC046A9
:101BE0005018000092008018014A81507047C0468A
:101BF0001018000010B50122120383180C789C60A5
:101C00004B7883508978014A815010BD0C11000037
:101C1000B0B51122120283580124A34383500B88CC
:101C20008C781C438B882343094C1C408358094DF6
:101C30001D40631983508B79CC791C43097A214369
:101C40007E231940801842689A4351184160B0BD04
:101C500018670000E798FDFF10B5012212038318F2
:101C60000C789C604978815010BD000010B50C467E
:101C7000FEF78CFC0146204604F0C8F80E49FEF73A
:101C80008BFB10BDB0B5002911D00C46FEF77EFCD1
:101C9000084904F0BBF805462046FEF77FFC0649DC
:101CA00004F0B4F801462846FEF776FBB0BD0020EC
:101CB000B0BDC04600606A4700004344324800217E
:101CC0000160334801607047EFF3108272B62E4A0C
:101CD000136803602E4803680B60002111600160E7
:101CE00062B67047F0B50124A706244910390E6882
:101CF00035463D400021CA43214B103B1B68B601CD
:101D0000204E08D530683842174600D027461E4876
:101D1000016879180160002D0AD06006316801421F
:101D200001D0144600E001241748016861180160E1
:101D300001242606D802154D08D5286830421746DA
:101D400000D027461248016879180160334208D054
:101D500020052968014200D101220D48016851186F
:101D6000016003204006054A1168014311601120FB
:101D70000005034A116801431160F0BD48100A4094
:101D800048300A4080130A409401202080330A40E2
:101D9000980120206F48002101707048017075483B
:101DA00001706B4801606C480160714801607047C8
:101DB00068480078011F48424841704710B5044602
:101DC000644801210170654804706A48002101706F
:101DD0005F4801606048016000F0D0F86449086025
:101DE000002C01D0FFF706F910BDC046F0B581B058
:101DF000584F3978FB22114200D1A6E0544A1368AB
:101E0000984200D1A1E01060032968D002292BD0AC
:101E1000012900D099E0514800780226012800D01D
:101E200092E0FFF77BF8504D2946FFF71FFF04466D
:101E3000FFF784F82946FFF719FF4C490C40014091
:101E4000204603F049FF3F21090603F0DFFF4A491E
:101E500003F029FF002878D146480021017000F0E6
:101E60008DF8434908606FE03C490A78012A06462C
:101E70003CD100F083F83E490A68904265D0086082
:101E80003C4D2C7800F084FA7821014078394A42A0
:101E90004A413C2101403C394B424B4113431E22F5
:101EA00010401E384142414119436000024053181E
:101EB0002B704AD0012B0FD001231C406118042A3B
:101EC0000AD34307DB0F5918082A05D30007C00FB0
:101ED0004118100900D0411802292FD235E01E49BF
:101EE0000968401A962830D304262DE00021032AE1
:101EF00001D00C4600E01A4C022A00D1194C2046B1
:101F000003F0D1FE002820D1FFF708F81649FFF7AB
:101F1000ADFE0546FFF712F81349FFF7A7FE134978
:101F20000D400140284603F0D7FE3F21090603F08B
:101F30006DFF214603F0C4FE002806D10020FFF704
:101F400091F80548066003263E7001B0F0BDC0461A
:101F50001802202034022020A0012020410220204D
:101F60009AD928440000344342E0A541FFFFFF7F97
:101F700014022020A00220209A99F54350480068BE
:101F80007047C046F0B581B0002500280AD0056032
:101F90004A490E7871B2002E03D0FF2E05D10125DB
:101FA00000E00D46E8B201B0F0BD02462027374000
:101FB00035480840CBB2DC097306009208D40029EA
:101FC00021DA0023002F21D000290AD50025E9E7D6
:101FD0002E4903F081FE641C002F02D1F106E1D1ED
:101FE00047E02B4903F078FE641C00210123F7062B
:101FF0000FD40B46370717D4194677071FD40B4663
:10200000B70727D42DE00123002FDDD11946F706AD
:10201000EFD5002BC6D0BF21090603F05DFE641C7E
:10202000002301213707E7D50029BBD03F2109064E
:1020300003F052FE641C002101237707DFD5002B3B
:10204000B0D0FF21890503F047FE641C0023012165
:10205000B70706D50029A5D00E4903F03DFE641C44
:102060000123F10705D0002B9CD00B4903F034FE6F
:10207000641C05462046FEF791FA01462846FEF705
:102080008BF9009908608AE70000A0C0000040C0FA
:102090000000C0BF000040400000A040BE4800213A
:1020A000017005480160416004480170B64805228E
:1020B0000270B64801607047F8012020000220201D
:1020C00074022020B0480078052801D30020704712
:1020D00001207047F0B581B0684605210170A44E1B
:1020E000A44F3846316889064AD43168890647D4F6
:1020F0003168890644D43168890641D4316889063B
:102100003ED4316889063BD43168890638D43168B9
:10211000890635D43168890632D4316889062FD4CE
:10212000316889062CD43168890629D4316889063A
:1021300026D43168890623D43168890620D43168D1
:1021400089061DD4316889061AD43168890617D4E6
:102150003168890614D43168890611D4316889063A
:102160000ED4316889060BD43168890608D43168E9
:10217000890605D43168890602D41930B2D1CBE082
:102180007D4D2846FFF7F6FA694601242846224687
:10219000FFF7D9FA304608380168784A1140BA3159
:1021A0000160311F0A68764B1A40764D52190A6059
:1021B0003A4633685B064AD533685B0647D53368D1
:1021C0005B0644D533685B0641D533685B063ED574
:1021D00033685B063BD533685B0638D533685B06EE
:1021E00035D533685B0632D533685B062FD5336847
:1021F0005B062CD533685B0629D533685B0626D58C
:1022000033685B0623D533685B0620D533685B06ED
:102210001DD533685B061AD533685B0617D533685E
:102220005B0614D533685B0611D533685B060ED5A3
:1022300033685B060BD533685B0608D533685B06ED
:1022400005D533685B0602D51932B2D164E0326835
:10225000920761D43A4633689B064AD433689B069A
:1022600047D433689B0644D433689B0641D4336813
:102270009B063ED433689B063BD433689B0638D418
:1022800033689B0635D433689B0632D433689B068B
:102290002FD433689B062CD433689B0629D433682B
:1022A0009B0626D433689B0623D433689B0620D430
:1022B00033689B061DD433689B061AD433689B068B
:1022C00017D433689B0614D433689B0611D4336843
:1022D0009B060ED433689B060BD433689B0608D448
:1022E00033689B0605D433689B0602D41932B2D1F9
:1022F00012E00268214B1A40BB23134303600868B5
:102300001F4A104028430860706A000711D17F1CE3
:1023100002D230688007F7D51B49087800240428CA
:1023200022D8421C0A7004281ED17648002404706A
:102330001AE070680107090EC0B200094018810850
:1023400033221140104080000818410855221140E6
:102350001040400008186B4908700B4800210170BC
:102360000A480168491C0160204601B0F0BDC04622
:1023700018120F40E0B1FFFF00000F4000F8FFFF10
:10238000F8FF00F007000100F10120207402202076
:102390005C4800787047C04658022020B0B5002045
:1023A00058490D56EBB2584A147858480178002D18
:1023B00008D4002C03D0641E147024060CD17F2492
:1023C000214008E0022C03D8651C1570022C03D1B3
:1023D0007F24E4432143017054785D0608D4002C27
:1023E00003D0641E547024060BD1BF24214007E0A3
:1023F000022C03D8651C5570022C02D140242143C5
:10240000017094789D0608D4002C03D0641E94704B
:1024100024060BD1DF24214007E0022C03D8651CE1
:102420009570022C02D1202421430170D478DD065E
:1024300008D4002C03D0641ED47024060BD1EF24E2
:10244000214007E0022C03D8651CD570022C02D174
:1024500010242143017014791D0708D4002C03D0E7
:10246000641E147124060BD1F724214007E0022CCE
:1024700003D8651C1571022C02D108242143017078
:1024800054795D0708D4002C03D0641E54712406CF
:102490000BD1FB24214007E0022C03D8651C5571A9
:1024A000022C02D104242143017094799D0708D4A1
:1024B000002C03D0641E947124060BD1FD2421400E
:1024C00007E0022C03D8651C9571022C02D102246E
:1024D00021430170D479DB0706D1002C0ED0631E96
:1024E000D3711A060AD0B0BD022C03D8631CD37175
:1024F000022CF8D1012211430170B0BDFE2211401F
:102500000170B0BD58022020F801202000022020D8
:1025100070B5464C0025204629462A46FFF762FB47
:102520000126204629463246FFF75CFBB0030449EA
:10253000086070030860300408607004086070BDB3
:1025400090120A4070B5394C0025204629462A468B
:10255000FFF748FB0126204629463246FFF742FB9B
:10256000B00392490860700308603004086070048A
:10257000086070BDF0B581B005460124A2038B4808
:10258000012904DB0346103B1A60024605E00260A5
:102590000029024601D00246103A63031360220468
:1025A000012D03DB0346103B1A6003E00260002D9F
:1025B00000D01038620402600E4FB94200DC394688
:1025C0000D4EB14200DB3146C8174140091A174889
:1025D0000022FFF707FBBD4200DC3D46B54200DBB1
:1025E0003546E8174540291A10482246FFF7FAFAFF
:1025F00001B0F0BD88E1FFFF781E000070B50B4C04
:102600000025204629462A46FFF7ECFA01262046F7
:1026100029463246FFF7E6FAB003644908607003C2
:102620000860300408607004086070BD00208640B7
:10263000F0B587B0012007070490C50700245B4E62
:10264000204605E00298401C0199072900D3AAE022
:102650000290C1B22046019102F0E0FE204606E061
:10266000176062B60398401C40B20028EAD4039079
:10267000EFF3108172B60498C1034D480160234600
:1026800004E08B1C049801430729E9D219463760FE
:1026900035600594059A172A1BD800BF059A521C6D
:1026A0000592059A172A14D800BF059A521C059264
:1026B000059A172A0DD800BF059A521C0592059A53
:1026C000172A06D800BF059A521C0592059A182AA7
:1026D000E3D33246103A1760002306930698172872
:1026E0001BD800BF0698401C06900698172814D8DF
:1026F00000BF0698401C0690069817280DD800BF0A
:102700000698401C06900698172806D800BF069821
:10271000401C069006981828E3D33760356005936F
:10272000059817281BD800BF0598401C05900598F0
:10273000172814D800BF0598401C05900598172845
:102740000DD800BF0598401C05900598172806D89D
:1027500000BF0598401C059005981828E3D3176022
:102760000693069817288CD800BF0698401C069040
:102770000698172885D800BF0698401C0690069832
:10278000172800D97DE700BF0698401C06900698E0
:10279000172800D975E700BF0698401C06900698D8
:1027A0001828E1D36DE707B0F0BDC046A0120A407B
:1027B00090320A40F0B583B0E34D103D0126B703D7
:1027C0002F60E24C2046FEF7B9FF2046FEF7B6FF29
:1027D0002046FEF7B3FF2046FEF7B0FF2046FEF787
:1027E000ADFF2046FEF7AAFF2046FEF7A7FF2046D2
:1027F000FEF7A4FF2046FEF7A1FF2046FEF79EFF4E
:10280000D14807602046FEF799FF2046FEF796FF65
:102810002046FEF793FF2046FEF790FF2046FEF786
:102820008DFF2046FEF78AFF2046FEF787FF2046F1
:10283000FEF784FF2046FEF781FF2046FEF77EFF6D
:102840002046FEF77BFF2046FEF778FF2046FEF786
:1028500075FF2046FEF772FF2046FEF76FFF204609
:10286000FEF76CFF2046FEF769FF2046FEF766FF85
:102870002046FEF763FF2046FEF760FF2F602046EC
:10288000FEF75CFF2046FEF759FF2046FEF756FF95
:102890002046FEF753FF2046FEF750FF2046FEF786
:1028A0004DFF2046FEF74AFF2046FEF747FF204631
:1028B000FEF744FF2046FEF741FF2046FEF73EFFAD
:1028C0002046FEF73BFF2046FEF738FF2046FEF786
:1028D00035FF2046FEF732FF2046FEF72FFF204649
:1028E000FEF72CFF2046FEF729FF2046FEF726FFC5
:1028F0002046FEF723FFEFF3108072B6F00301903D
:10290000914908603007F107AE240023904A03E0A4
:102910007B1C6400072F4CD21F46106163B2002B52
:1029200001DA134601E013461033196000250295C1
:10293000029B172B1BD800BF029B5B1C0293029BC0
:10294000172B14D800BF029B5B1C0293029B172B12
:102950000DD800BF029B5B1C0293029B172B06D86D
:1029600000BF029B5B1C0293029B182BE3D31060F9
:102970000295029B172BCBD800BF029B5B1C0293D6
:10298000029B172BC4D800BF029B5B1C0293029BC7
:10299000172BBDD800BF029B5B1C0293029B172B19
:1029A000B6D800BF029B5B1C0293029B182BE3D39B
:1029B000AEE7106062B6EFF3108372B6624B019C13
:1029C0001C60202403E05D1C6400072B4CD22B46C6
:1029D000106165B2002D01DA154601E0154610358B
:1029E000296000270297029D172D1BD800BF029D6A
:1029F0006D1C0295029D172D14D800BF029D6D1C01
:102A00000295029D172D0DD800BF029D6D1C0295E9
:102A1000029D172D06D800BF029D6D1C0295029DD8
:102A2000182DE3D310600297029D172DCBD800BF5D
:102A3000029D6D1C0295029D172DC4D800BF029DFA
:102A40006D1C0295029D172DBDD800BF029D6D1C07
:102A50000295029D172DB6D800BF029D6D1C0295F0
:102A6000029D182DE3D3AEE7106062B6EFF310833A
:102A700072B6354B019C1C60102403E05F1C64009F
:102A8000072B4CD23B46106165B2002D01DA15468A
:102A900001E015461035296000250295029F172F89
:102AA0001BD800BF029F7F1C0297029F172F14D8CC
:102AB00000BF029F7F1C0297029F172F0DD800BFF7
:102AC000029F7F1C0297029F172F06D800BF029F0C
:102AD0007F1C0297029F182FE3D310600295029F7C
:102AE000172FCBD800BF029F7F1C0297029F172F82
:102AF000C4D800BF029F7F1C0297029F172FBDD82A
:102B000000BF029F7F1C0297029F172FB6D800BFFD
:102B1000029F7F1C0297029F182FE3D3AEE710603D
:102B200062B6EFF3108372B6074B019C1C60B024B1
:102B300003E05D1C6400072B52D22B46106165B286
:102B4000002D07DA154607E0A0320A408038010060
:102B500090120A4015461035296000270297029D01
:102B6000172D1BD800BF029D6D1C0295029D172DCD
:102B700014D800BF029D6D1C0295029D172D0DD823
:102B800000BF029D6D1C0295029D172D06D800BF47
:102B9000029D6D1C0295029D182DE3D310600297D3
:102BA000029D172DC5D800BF029D6D1C0295029D88
:102BB000172DBED800BF029D6D1C0295029D172DDA
:102BC000B7D800BF029D6D1C0295029D172DB0D88D
:102BD00000BF029D6D1C0295029D182DE3D3A8E74E
:102BE000106062B6EFF3108372B6DD4B019C1C607F
:102BF000C82503E05F1C6D00072B4CD23B461061DB
:102C00006CB2002C01DA144601E014461034216045
:102C100000240294029F172F1BD800BF029F7F1C25
:102C20000297029F172F14D800BF029F7F1C0297A4
:102C3000029F172F0DD800BF029F7F1C0297029F93
:102C4000172F06D800BF029F7F1C0297029F182FE4
:102C5000E3D310600294029F172FCBD800BF029FCE
:102C60007F1C0297029F172FC4D800BF029F7F1CB2
:102C70000297029F172FBDD800BF029F7F1C0297AB
:102C8000029F172FB6D800BF029F7F1C0297029F9A
:102C9000182FE3D3AEE7106062B6EFF3108372B67D
:102CA000AF4B019D1D60234604E0BB1C3743072F3B
:102CB00000D38AE01F46106111610294029B172B1A
:102CC0001BD800BF029B5B1C0293029B172B14D8DE
:102CD00000BF029B5B1C0293029B172B0DD800BF09
:102CE000029B5B1C0293029B172B06D800BF029B22
:102CF0005B1C0293029B182BE3D310600025029506
:102D0000029B172B1BD800BF029B5B1C0293029BEC
:102D1000172B14D800BF029B5B1C0293029B172B3E
:102D20000DD800BF029B5B1C0293029B172B06D899
:102D300000BF029B5B1C0293029B182BE3D3106124
:102D400011610295029B172B1BD800BF029B5B1CD5
:102D50000293029B172B14D800BF029B5B1C0293AB
:102D6000029B172B0DD800BF029B5B1C0293029B9A
:102D7000172B06D800BF029B5B1C0293029B182BEB
:102D8000E3D310600295029B172B8ED800BF029BE5
:102D90005B1C0293029B172B87D800BF029B5B1C16
:102DA0000293029B172B00D97FE700BF029B5B1C9D
:102DB0000293029B172B00D977E700BF029B5B1C95
:102DC0000293029B182BE1D36FE7106062B6EFF31A
:102DD000108372B6624B019C1C60102403E05D1CE2
:102DE0006400072B4CD22B46106165B2002D01DA2E
:102DF000154601E015461035296000270297029D0F
:102E0000172D1BD800BF029D6D1C0295029D172D2A
:102E100014D800BF029D6D1C0295029D172D0DD880
:102E200000BF029D6D1C0295029D172D06D800BFA4
:102E3000029D6D1C0295029D182DE3D31060029730
:102E4000029D172DCBD800BF029D6D1C0295029DDF
:102E5000172DC4D800BF029D6D1C0295029D172D31
:102E6000BDD800BF029D6D1C0295029D172DB6D8DE
:102E700000BF029D6D1C0295029D182DE3D3AEE7A5
:102E8000106062B6EFF3108372B6354B019C1C6084
:102E9000402403E05F1C6400072B4CD23B461061CA
:102EA00065B2002D01DA154601E01546103529609E
:102EB00000250295029F172F1BD800BF029F7F1C81
:102EC0000297029F172F14D800BF029F7F1C029702
:102ED000029F172F0DD800BF029F7F1C0297029FF1
:102EE000172F06D800BF029F7F1C0297029F182F42
:102EF000E3D310600295029F172FCBD800BF029F2B
:102F00007F1C0297029F172FC4D800BF029F7F1C0F
:102F10000297029F172FBDD800BF029F7F1C029708
:102F2000029F172FB6D800BF029F7F1C0297029FF7
:102F3000182FE3D3AEE7106062B6EFF3108372B6DA
:102F4000074B019C1C60812403E05D1C6400072B7F
:102F50004ED22B46106165B2002D03DA154603E010
:102F6000A0320A4015461035296000270297029DBD
:102F7000172D1BD800BF029D6D1C0295029D172DB9
:102F800014D800BF029D6D1C0295029D172D0DD80F
:102F900000BF029D6D1C0295029D172D06D800BF33
:102FA000029D6D1C0295029D182DE3D310600297BF
:102FB000029D172DC9D800BF029D6D1C0295029D70
:102FC000172DC2D800BF029D6D1C0295029D172DC2
:102FD000BBD800BF029D6D1C0295029D172DB4D871
:102FE00000BF029D6D1C0295029D182DE3D3ACE736
:102FF000106062B6EFF3108372B6EB4B019C1C605D
:103000007F2403E05F1C6400072B4CD23B46106119
:1030100065B2002D01DA154601E01546103529602C
:1030200000250295029F172F1BD800BF029F7F1C0F
:103030000297029F172F14D800BF029F7F1C029790
:10304000029F172F0DD800BF029F7F1C0297029F7F
:10305000172F06D800BF029F7F1C0297029F182FD0
:10306000E3D310600295029F172FCBD800BF029FB9
:103070007F1C0297029F172FC4D800BF029F7F1C9E
:103080000297029F172FBDD800BF029F7F1C029797
:10309000029F172FB6D800BF029F7F1C0297029F86
:1030A000182FE3D3AEE7106062B6EFF3108372B669
:1030B000BD4B019C1C60A12403E05D1C6400072B38
:1030C0004CD22B46106165B2002D01DA154601E0A5
:1030D00015461035296000270297029D172D1BD831
:1030E00000BF029D6D1C0295029D172D14D800BFD4
:1030F000029D6D1C0295029D172D0DD800BF029DEB
:103100006D1C0295029D172D06D800BF029D6D1CF7
:103110000295029D182DE3D310600297029D172D92
:10312000CBD800BF029D6D1C0295029D172DC4D8FF
:1031300000BF029D6D1C0295029D172DBDD800BFDA
:10314000029D6D1C0295029D172DB6D800BF029DF1
:103150006D1C0295029D182DE3D3AEE7106062B698
:10316000EFF3108372B6904B019C1C60A62403E021
:103170005F1C6400072B4CD23B46106165B2002DEA
:1031800001DA154601E01546103529600025029543
:10319000029F172F1BD800BF029F7F1C0297029F20
:1031A000172F14D800BF029F7F1C0297029F172F72
:1031B0000DD800BF029F7F1C0297029F172F06D8D1
:1031C00000BF029F7F1C0297029F182FE3D310605D
:1031D0000295029F172FCBD800BF029F7F1C02973A
:1031E000029F172FC4D800BF029F7F1C0297029F27
:1031F000172FBDD800BF029F7F1C0297029F172F79
:10320000B6D800BF029F7F1C0297029F182FE3D3FE
:10321000AEE7106062B6EFF3108372B6624B019CAA
:103220001C60A82403E05D1C6400072B4CD22B46D5
:10323000106165B2002D01DA154601E01546103522
:10324000296000270297029D172D1BD800BF029D01
:103250006D1C0295029D172D14D800BF029D6D1C98
:103260000295029D172D0DD800BF029D6D1C029581
:10327000029D172D06D800BF029D6D1C0295029D70
:10328000182DE3D310600297029D172DCBD800BFF5
:10329000029D6D1C0295029D172DC4D800BF029D92
:1032A0006D1C0295029D172DBDD800BF029D6D1C9F
:1032B0000295029D172DB6D800BF029D6D1C029588
:1032C000029D182DE3D3AEE7106062B6EFF31083D2
:1032D00072B6354B019C1C603F2403E05F1C640008
:1032E000072B4CD23B46106165B2002D01DA154622
:1032F00001E015461035296000250295029F172F21
:103300001BD800BF029F7F1C0297029F172F14D863
:1033100000BF029F7F1C0297029F172F0DD800BF8E
:10332000029F7F1C0297029F172F06D800BF029FA3
:103330007F1C0297029F182FE3D310600295029F13
:10334000172FCBD800BF029F7F1C0297029F172F19
:10335000C4D800BF029F7F1C0297029F172FBDD8C1
:1033600000BF029F7F1C0297029F172FB6D800BF95
:10337000029F7F1C0297029F182FE3D3AEE71060D5
:1033800062B6EFF3108372B6074B019C1C60A42455
:1033900003E05D1C6400072B4ED22B46106165B222
:1033A000002D03DA154603E0A0320A401546103519
:1033B000296000270297029D172D1BD800BF029D90
:1033C0006D1C0295029D172D14D800BF029D6D1C27
:1033D0000295029D172D0DD800BF029D6D1C029510
:1033E000029D172D06D800BF029D6D1C0295029DFF
:1033F000182DE3D310600297029D172DC9D800BF86
:10340000029D6D1C0295029D172DC2D800BF029D22
:103410006D1C0295029D172DBBD800BF029D6D1C2F
:103420000295029D172DB4D800BF029D6D1C029518
:10343000029D182DE3D3ACE7106062B6EFF3108362
:1034400072B6F64B019C1C60D32503E05F1C6D0037
:10345000072B4CD23B4610616CB2002C01DA1446AB
:1034600001E014461034216000240294029F172FBB
:103470001BD800BF029F7F1C0297029F172F14D8F2
:1034800000BF029F7F1C0297029F172F0DD800BF1D
:10349000029F7F1C0297029F172F06D800BF029F32
:1034A0007F1C0297029F182FE3D310600294029FA3
:1034B000172FCBD800BF029F7F1C0297029F172FA8
:1034C000C4D800BF029F7F1C0297029F172FBDD850
:1034D00000BF029F7F1C0297029F172FB6D800BF24
:1034E000029F7F1C0297029F182FE3D3AEE7106064
:1034F00062B6EFF3108372B6C84B019D1D60234680
:1035000004E0BB1C3743072F00D38AE01F4610613D
:1035100011610294029B172B1BD800BF029B5B1CFE
:103520000293029B172B14D800BF029B5B1C0293D3
:10353000029B172B0DD800BF029B5B1C0293029BC2
:10354000172B06D800BF029B5B1C0293029B182B13
:10355000E3D3106000250295029B172B1BD800BFF8
:10356000029B5B1C0293029B172B14D800BF029B8B
:103570005B1C0293029B172B0DD800BF029B5B1CA8
:103580000293029B172B06D800BF029B5B1C029381
:10359000029B182BE3D3106111610295029B172B3C
:1035A0001BD800BF029B5B1C0293029B172B14D8F5
:1035B00000BF029B5B1C0293029B172B0DD800BF20
:1035C000029B5B1C0293029B172B06D800BF029B39
:1035D0005B1C0293029B182BE3D310600295029BA5
:1035E000172B8ED800BF029B5B1C0293029B172BEC
:1035F00087D800BF029B5B1C0293029B172B00D94C
:103600007FE700BF029B5B1C0293029B172B00D934
:1036100077E700BF029B5B1C0293029B182BE1D350
:103620006FE7106062B6EFF3108372B67B4B019CBC
:103630001C60D52403E05D1C6400072B4CD22B4694
:10364000106165B2002D01DA154601E0154610350E
:10365000296000270297029D172D1BD800BF029DED
:103660006D1C0295029D172D14D800BF029D6D1C84
:103670000295029D172D0DD800BF029D6D1C02956D
:10368000029D172D06D800BF029D6D1C0295029D5C
:10369000182DE3D310600297029D172DCBD800BFE1
:1036A000029D6D1C0295029D172DC4D800BF029D7E
:1036B0006D1C0295029D172DBDD800BF029D6D1C8B
:1036C0000295029D172DB6D800BF029D6D1C029574
:1036D000029D182DE3D3AEE7106062B6EFF31083BE
:1036E00072B64E4B019C1C603B4605E0AF1C354357
:1036F000072D334600D393E03D461061DB0701D12F
:10370000134601E013461033196000240294029B13
:10371000172B1BD800BF029B5B1C0293029B172B2D
:1037200014D800BF029B5B1C0293029B172B0DD881
:1037300000BF029B5B1C0293029B172B06D800BFA5
:10374000029B5B1C0293029B182BE3D31060029434
:10375000029B172B1BD800BF029B5B1C0293029B92
:10376000172B14D800BF029B5B1C0293029B172BE4
:103770000DD800BF029B5B1C0293029B172B06D83F
:1037800000BF029B5B1C0293029B182BE3D31061CA
:1037900011610294029B172B1BD800BF029B5B1C7C
:1037A0000293029B172B14D800BF029B5B1C029351
:1037B000029B172B0DD800BF029B5B1C0293029B40
:1037C000172B06D800BF029B5B1C0293029B182B91
:1037D000E3D310600294029B172B87D800BF029B93
:1037E0005B1C0293029B172B00D97FE700BF029B53
:1037F0005B1C0293029B172B00D977E700BF029B4B
:103800005B1C0293029B172B00D96FE700BF029B42
:103810005B1C0293029B182BE0D367E7A0320A409F
:10382000106062B6EFF3108372B6EB4B019D1D6022
:10383000D92503E05C1C6D00072B4CD22346106198
:103840006CB2002C01DA144601E0144610342160F9
:1038500000260296029C172C1BD800BF029C641CF9
:103860000294029C172C14D800BF029C641C029482
:10387000029C172C0DD800BF029C641C0294029C71
:10388000172C06D800BF029C641C0294029C182CC2
:10389000E3D310600296029C172CCBD800BF029C89
:1038A000641C0294029C172CC4D800BF029C641CA8
:1038B0000294029C172CBDD800BF029C641C029489
:1038C000029C172CB6D800BF029C641C0294029C78
:1038D000182CE3D3AEE7106062B6EFF3108372B634
:1038E000BD4B019C1C60222403E05E1C6400072B7E
:1038F0004CD23346106165B2002D01DA154601E065
:1039000015461035296000250295029E172E1BD8FA
:1039100000BF029E761C0296029E172E14D800BF8E
:10392000029E761C0296029E172E0DD800BF029EA4
:10393000761C0296029E172E06D800BF029E761CA9
:103940000296029E182EE3D310600295029E172E57
:10395000CBD800BF029E761C0296029E172EC4D8BA
:1039600000BF029E761C0296029E172EBDD800BF95
:10397000029E761C0296029E172EB6D800BF029EAB
:10398000761C0296029E182EE3D3AEE7106062B654
:10399000EFF3108372B6904B019C1C60DA2403E0B5
:1039A0005D1C6400072B4CD22B46106165B2002DC4
:1039B00001DA154601E01546103529600026029609
:1039C000029D172D1BD800BF029D6D1C0295029D04
:1039D000172D14D800BF029D6D1C0295029D172D56
:1039E0000DD800BF029D6D1C0295029D172D06D8B3
:1039F00000BF029D6D1C0295029D182DE3D310603F
:103A00000296029D172DCBD800BF029D6D1C02951A
:103A1000029D172DC4D800BF029D6D1C0295029D0A
:103A2000172DBDD800BF029D6D1C0295029D172D5C
:103A3000B6D800BF029D6D1C0295029D182DE3D3E0
:103A4000AEE7106062B6EFF3108372B6624B019C72
:103A50001C60122403E05E1C6400072B4CD233462A
:103A6000106165B2002D01DA154601E015461035EA
:103A7000296000250295029E172E1BD800BF029ECA
:103A8000761C0296029E172E14D800BF029E761C4A
:103A90000296029E172E0DD800BF029E761C02963B
:103AA000029E172E06D800BF029E761C0296029E2A
:103AB000182EE3D310600295029E172ECBD800BFBC
:103AC000029E761C0296029E172EC4D800BF029E4C
:103AD000761C0296029E172EBDD800BF029E761C51
:103AE0000296029E172EB6D800BF029E761C029642
:103AF000029E182EE3D3AEE7106062B6EFF3108398
:103B000072B6E44B019C1C60DB2403E05D1C640086
:103B1000072B4CD22B46106165B2002D01DA1546F9
:103B200001E015461035296000260296029D172DEA
:103B30001BD800BF029D6D1C0295029D172D14D845
:103B400000BF029D6D1C0295029D172D0DD800BF70
:103B5000029D6D1C0295029D172D06D800BF029D87
:103B60006D1C0295029D182DE3D310600296029DF4
:103B7000172DCBD800BF029D6D1C0295029D172DFD
:103B8000C4D800BF029D6D1C0295029D172DBDD8A3
:103B900000BF029D6D1C0295029D172DB6D800BF77
:103BA000029D6D1C0295029D182DE3D3AEE71060B7
:103BB00062B6EFF3108372B6B64B019C1C602024F2
:103BC00003E05E1C6400072B4ED23346106165B2E1
:103BD000002D03DA154603E0A0320A4015461035E1
:103BE000296000250295029E172E1BD800BF029E59
:103BF000761C0296029E172E14D800BF029E761CD9
:103C00000296029E172E0DD800BF029E761C0296C9
:103C1000029E172E06D800BF029E761C0296029EB8
:103C2000182EE3D310600295029E172EC9D800BF4C
:103C3000029E761C0296029E172EC2D800BF029EDC
:103C4000761C0296029E172EBBD800BF029E761CE1
:103C50000296029E172EB4D800BF029E761C0296D2
:103C6000029E182EE3D3ACE7106062B6EFF3108328
:103C700072B6884B019C1C608D2403E05D1C6400BF
:103C8000072B4CD22B46106165B2002D01DA154688
:103C900001E015461035296000260296029D172D79
:103CA0001BD800BF029D6D1C0295029D172D14D8D4
:103CB00000BF029D6D1C0295029D172D0DD800BFFF
:103CC000029D6D1C0295029D172D06D800BF029D16
:103CD0006D1C0295029D182DE3D310600296029D83
:103CE000172DCBD800BF029D6D1C0295029D172D8C
:103CF000C4D800BF029D6D1C0295029D172DBDD832
:103D000000BF029D6D1C0295029D172DB6D800BF05
:103D1000029D6D1C0295029D182DE3D3AEE7106045
:103D200062B6EFF3108372B65A4B019C1C601424E8
:103D300003E05E1C6400072B4CD23346106165B271
:103D4000002D01DA154601E01546103529600025E1
:103D50000295029E172E1BD800BF029E761C02966B
:103D6000029E172E14D800BF029E761C0296029E59
:103D7000172E0DD800BF029E761C0296029E172EAB
:103D800006D800BF029E761C0296029E182EE3D330
:103D900010600295029E172ECBD800BF029E761CA3
:103DA0000296029E172EC4D800BF029E761C029671
:103DB000029E172EBDD800BF029E761C0296029E60
:103DC000172EB6D800BF029E761C0296029E182EB1
:103DD000E3D3AEE7106062B6EFF3108372B62D4BFB
:103DE000019C1C60AF2303E0651C5B00072C4CD2D8
:103DF0002C4610615DB2002D01DA154601E0154632
:103E00001035296000250295029E172E1BD800BF91
:103E1000029E761C0296029E172E14D800BF029EA8
:103E2000761C0296029E172E0DD800BF029E761CAD
:103E30000296029E172E06D800BF029E761C02969E
:103E4000029E182EE3D310600295029D172DCBD849
:103E500000BF029D6D1C0295029D172DC4D800BFA6
:103E6000029D6D1C0295029D172DBDD800BF029DBD
:103E70006D1C0295029D172DB6D800BF029D6D1CCA
:103E80000295029D182DE3D3AEE7106062B603B031
:103E9000F0BDC046A0320A40F0B585B01346303BB5
:103EA000DBB2092B03D805225A43A54B08E0134681
:103EB000413BDBB2192B00D902E105225A439F4B4B
:103EC0009A1802920EE1196062B6401C05285AD079
:103ED000029C255CEFF3108472B6039C9A4E34600A
:103EE000019E03E07E1C6D00072FECD2374619615E
:103EF0006CB2002C01DA1C4601E01C461034226032
:103F000000240494049E172E1BD800BF049E761C28
:103F10000496049E172E14D800BF049E761C0496A7
:103F2000049E172E0DD800BF049E761C0496049E96
:103F3000172E06D800BF049E761C0496049E182EE9
:103F4000E3D319600494049E172ECBD800BF049EBF
:103F5000761C0496049E172EC4D800BF049E761CBF
:103F60000496049E172EBDD800BF049E761C0496AE
:103F7000049E172EB6D800BF049E761C0496049E9D
:103F8000182EE3D3AEE7EFF3108072B603986E4DB0
:103F900028602046009F04E0A81C3D43072D00D365
:103FA0008AE0054619611A610494049817281BD801
:103FB00000BF0498401C04900498172814D800BF30
:103FC0000498401C0490049817280DD800BF04984A
:103FD000401C04900498172806D800BF0498401C81
:103FE000049004981828E3D3196000200490049EDC
:103FF000172E1BD800BF049E761C0496049E172E15
:1040000014D800BF049E761C0496049E172E0DD86B
:1040100000BF049E761C0496049E172E06D800BF8F
:10402000049E761C0496049E182EE3D319611A612F
:104030000490049E172E1BD800BF049E761C049685
:10404000049E172E14D800BF049E761C0496049E6E
:10405000172E0DD800BF049E761C0496049E172EC2
:1040600006D800BF049E761C0496049E182EE3D347
:1040700019600490049817288ED800BF0498401C3B
:1040800004900498172887D800BF0498401C049017
:104090000498172800D97FE700BF0498401C0490BB
:1040A0000498172800D977E700BF0498401C0490B3
:1040B00004981828E1D36FE7196062B605B0F0BD27
:1040C0002B3A0F2A1CD812A30293C0467A441279C5
:1040D00052009744131517191B15151515151515AD
:1040E0001515150701F09AF90120C1030391010785
:1040F0000090C2070020134B0190E9E606A2E0E61B
:104100000D4ADEE606A2DCE609A2DAE606A2D8E659
:10411000003636000000000008083E0808000000D5
:104120000808080808000000201008040200000029
:104130000060600000000000D85F00000F60000019
:10414000DD5F000090120A4090320A40F0B58FB057
:10415000039314460D4604900A271046394601F091
:1041600091FC4743E11B302739430CAA117001260B
:104170000A2C02D20B96049F89E00A21FCF70CF866
:104180000A9739430CA84170642C049F6ED36421B4
:10419000204601F077FC0A21FBF7FEFF0A98014355
:1041A0000CA88170E0087D2863D37D20C1002046E3
:1041B00001F068FC0A21FBF7EFFF0A9801430CA805
:1041C000C1700026BF4884420B9655D3BD49204696
:1041D00001F058FC0A21FBF7DFFF0A9801430CA805
:1041E0000171B948844249D3B749204601F04AFCDD
:1041F0000A21FBF7D1FF0A9801430CA84171B3488B
:1042000084423DD3B149204601F03CFC0A21FBF732
:10421000C3FF0A9801430CA88171AD48844231D391
:10422000AB49204601F02EFC0A21FBF7B5FF0A98A6
:1042300001430CA8C171A748844225D3A549204653
:1042400001F020FC0A263146FBF7A6FF0A9801433D
:104250000CA80172A048844218D39F49204601F05F
:1042600011FC0A9908430CA9487210E00B9602262B
:104270000DE00B9603260AE0042608E0052606E07A
:10428000062604E0072602E0082600E009260A2C9C
:104290002CD30CA83118491E0A780C9B02700B70A5
:1042A0000B98002822D170080CA97218921E13785E
:1042B0004C784B701470022818D00CA97218D21EBA
:1042C00013788C788B70147003280FD00CA9721897
:1042D000121F1378CC78CB701470042806D00CA869
:1042E0003118491F0A780D9B02710B700399B14276
:1042F00000D8CCE002958C1B01202246024001929E
:1043000049427140491C721E079200297ED08443A5
:104310000CA8001F0590002337460A9306940AE074
:104320000CA8089901709B1C0A98801C0A90B61C66
:10433000BF1CA3426DD003213A460A403546384699
:104340000B9618D0751E0CA8465D0B9C06550B9E4F
:10435000012A01D1781E0EE0B41E0CA8065D465558
:10436000022A02D1B81E254605E00B98C51E0CA8EE
:10437000425D0255F81E079A0A9C12190992D6B29C
:10438000032E0DD3059A5519EE782E71AE786A7802
:10439000AA70EE702A786A702D1F001F0206F3D1F2
:1043A0000CA8202208920270781C01400B9E751CFC
:1043B00000290FD00CA8825D4255012935463846A8
:1043C000069C0FD0751E0CA8425D8255022903D1B0
:1043D000781E07E0069C05E0B11E0CA8425C425521
:1043E000B81E0D460999491CC9B2032998D30599ED
:1043F0004919CA780A718A784D788D70CA700A781E
:104400004A70091F001F0206F3D189E700200A90B5
:1044100037460198002802D102AFE0CF37E00322EF
:104420003A4007980A994018002A029D07D0711E49
:104430000CAB5C5C9C55012A03D17F1E10E0314619
:104440000EE0B31E0CACE55C6554022A02D1BF1E1F
:10445000194604E0F11E0CAA545CD454FF1E029DC0
:10446000C0B20328039E0ED30CA80818001FC17801
:104470000171817842788270C17001784170001FAB
:104480003F1F3906F3D10CA820210170049F0CA80E
:1044900000218155142F12D8007800280FD00CA9C4
:1044A0004C1CFEB2C2B230462946FFF7F5FC132E73
:1044B00005D8611C7F1C207800280C46F1D10FB074
:1044C000F0BDC04610270000A086010040420F004A
:1044D0008096980000E1F50500CA9A3BF0B591B0CE
:1044E000029303910790002A01D42B2000E02D2095
:1044F0000EAD2870D0174240171A0A2638463146AA
:1045000001F0C0FA4643B91B3024214369700123EE
:104510000A2F04D21E46079D0A2F63D287E00D930F
:104520000A21FBF739FE21430EA88170642F079DF5
:1045300052D36421384601F0A5FA0A21FBF72CFE7C
:1045400021430EA8C170F8087D2847D37D20C10003
:10455000384601F097FA0A21FBF71EFE21430EA808
:1045600001710023B64887425ED30D93B4493846A3
:1045700001F088FA0A21FBF70FFE21430EA84171D2
:10458000B048874200D254E1AE49384601F07AFA89
:104590000A21FBF701FE21430EA88171AA48874238
:1045A00000D248E1A849384601F06CFA0A21FBF72D
:1045B000F3FD21430EA8C171A448874200D23CE11B
:1045C000A249384601F05EFA0A21FBF7E5FD2143D6
:1045D0000EA80172082602E0022600E003260D9BC9
:1045E0000A2F24D30EA8815D427841708255002B9A
:1045F0001DD170080EA97218521E13788C788B701A
:104600001470022813D00EA97218921E1378CC7859
:10461000CB70147003280AD00EA83118C91E0A786E
:104620000F9B02710B7002E004260A2FDAD2029966
:10463000B142039F00D89AE08B1B01201A4602402A
:10464000019249427140491C721E0692002900D114
:104650008FE083430EA8401C0490002034460C9049
:10466000014605930FE00EA8089941700A99891C2C
:104670000C98801C0C900B9EB61C0D9CA41C059BDA
:104680009942079D78D00A9103222346134037466A
:10469000214617D00EA98F19895D7970771E012BDD
:1046A00001D1611E0EE00EA9CF5D8F55B71E022B02
:1046B00001D1A11E06E00EA9CB5D7118491E0B7039
:1046C000F71EE11E0D940B9606980C9BC0180990DE
:1046D000C3B2032B10D30498C3195F1E3D781D701D
:1046E0009D1E2C78DE1E307828703C701B1F1878B9
:1046F0003070091F0806F0D10EA8202108914170E2
:104700000D9D691C0A400B9C631C002A10D00EA84A
:104710002118C05C8870012A2746294610D00EA8AF
:10472000015DC154671E022A04D10D98411E07E0A5
:104730001F4605E00EA8C15D0155A71E0D98811EFC
:104740000998401CC0B203288DD30498C219501E8A
:1047500003781370931E1C78D51E2E781E7004707B
:10476000121F10782870091F0806F0D17BE7314628
:1047700044E000200C9034460198002801D1039FAA
:104780003BE00323234006980C994118002B039F1C
:1047900008D00EA88219805D5070721E012B03D1C3
:1047A000641E10E032460EE00EA8825C8255B21EF6
:1047B000022B01D1A41E06E00EA8825C3018401E18
:1047C0000270F21EE41EC8B2032812D30EA81018FD
:1047D000411C481E02780A708A1E13782646CC1E99
:1047E000257815700370091F08782070341F200683
:1047F000EFD10EA820214170079D02990EA809183B
:1048000000224A70142D12D8007800280FD00EA96B
:104810004C1CEEB2C2B230463946FFF73DFB132EB8
:1048200005D8611C6D1C207800280C46F1D111B010
:10483000F0BD0526D3E60626D1E60726CFE6C0461C
:1048400010270000A086010040420F0080969800CB
:10485000F0B581B005461078002810D0142D0ED880
:104860000C46571CEEB2C2B230462146FFF714FB8D
:104870003878002803D07F1C6D1C142EF2D301B0B1
:10488000F0BD0000F0B595B016460F460690002A20
:10489000079301D4002504E011A82D210170764270
:1048A00001250A243046214601F0ECF804900594D5
:1048B0002146FBF771FC11A84019302421430170F7
:1048C0000120642E0F95109002D22A46054642E040
:1048D0006421304601F0D6F80A21FBF75DFC0F9AFF
:1048E00011A8101821434170F0087D282ED37D2097
:1048F000C100304601F0C6F80A21FBF74DFC0F9AC3
:1049000011A8801821438170B748864220D3B64948
:10491000304601F0B7F80A21FBF73EFC0F9A11A8C8
:1049200010182143C17000201090B048864211D366
:10493000AE49304601F0A6F80A21FBF72DFC0F9A8C
:1049400011A8801821430171052504E0022502E029
:10495000032500E00425642E079B24D311A90F989A
:104960000A1810780E900F9840190D904118491EA2
:104970001846234634460E7816700F9A26461C4673
:1049800003460E980870109800280CD111A90F98B2
:104990004218507810900D984018801E0178517080
:1049A0000F9A10990170AB4200D8F4E001A8D0C072
:1049B0005C1B012021460140009159426940491C7D
:1049C0006B1E0B93531E0993002900D18FE0844383
:1049D00011A81018001F0A900021284610910E46B9
:1049E000234608940DE011A90F9A89180C9C0C70AD
:1049F0000E9EB61C1099891C1091AD1C801C9E4205
:104A000078D00E960326044634402F4601461ED029
:104A10005119099B5F1911AAD75D57546F1E012CBC
:104A200001D1411E12E00F99C919DA1911AFBA5C10
:104A30007A54AF1E022C01D1811E07E00F99C919CB
:104A4000DA1911ACA25C6254EF1EC11E089B0B9ACE
:104A5000109C12190D92D2B2032A0DD30A9AD419BE
:104A6000E2782271A2786778A770E270227862708B
:104A7000241F091F0A06F3D111A90F9A89182024AF
:104A80000C940C70411C0E406C1C002E1BD0111994
:104A9000571911AAD45D5454012E2C46014612D048
:104AA000099B591911AA515CD1556C1E022E01D1D6
:104AB000411E07E00F9909191A1911ACA25C625442
:104AC000AC1E811E089B0D9A521CD2B2032A8AD3B7
:104AD0000A9A1419E2782271A2786678A670E270B8
:104AE00022786270241F091F0A06F3D17BE7002099
:104AF000109028460099002903D1079D01AFD0CF1F
:104B000049E0032303400B99109C0919002B039FD4
:104B10000CD0109111465219099C641911AE345DE4
:104B2000B4546A1E012B06D1401E17E02A46029E8D
:104B3000079D019C16E08C18099EB21811AEB25C5C
:104B40003255AA1E022B01D1801E07E08B1809994D
:104B50008A1811ACA25CE254EA1EC01E029E079D98
:104B6000019C1099C9B2032910D30F99511811AAA9
:104B70008918091FCA780A718A784B788B70CA70B5
:104B80000A784A70091F001F0206F3D111A80F9A74
:104B9000801820210170A918CAB211A82E238354AD
:104BA000059A049B5A43B21A22434B1CDBB2C254EF
:104BB000891CC9B200224254069D142D12D80078D7
:104BC00000280FD011A94C1CEEB2C2B230463946B3
:104BD000FFF762F9132E05D8611C6D1C20780028A0
:104BE0000C46F1D115B0F0BD10270000A0860100E1
:104BF00080B507480749FCF781FD0748002101609F
:104C0000064807494161016801220A43026080BDEC
:104C100000200040946000008031004000310040DE
:104C200071020000B0B52F4988228A632E48042300
:104C30000360CA63082202602C4A862313600124A1
:104C4000230403602A4B9D1CD5665D1C0D604D60DE
:104C500064060D6825430D604D6825434D60822430
:104C60000C654B658C65CB65224BD361224B0B6683
:104C700081244C66D460946054619461936593661A
:104C8000D363D3648C67CC678C604C61946254604E
:104C900093635365CB641949194A0A600A63052175
:104CA0008904184A13680B43136003214906164A06
:104CB000136A0B43136213680B43136001463039C8
:104CC000124A0A60026012480168124A0A430260EE
:104CD0001120000510490A6A02430A620A68024369
:104CE0000A60B0BD04804240D0320A408480424015
:104CF000820004008100050081000600A0120A4025
:104D000000700390A0130A4028100A4000C202005D
:104D1000A0330A400001010028300A4010B51A4CA7
:104D20001A492046FCF798FF19492046FCF770FF06
:104D30000320C103174802688A4302600169B54A2B
:104D40000A401532026141692D220A4312218A4329
:104D50004261426801210A4043688B439A184260CD
:104D60004A04036813430360C2682023134350229C
:104D70009343C360C2680223134305229343C36075
:104D800002680A43026010BD000010409C600000F1
:104D90009E6000000011104080B511481149FCF7D9
:104DA000FDFC03204102104802680A430260012111
:104DB0000A0203681343036000224261092242622F
:104DC000826B07239A4382631A02836B9343836344
:104DD000826A042313438362826A0A43826280BD2B
:104DE00000000F40A860000000120F4070B582B0B4
:104DF000194C1A492046FCF7FDFE19492046FCF7DC
:104E000057FD00250095204629462A462B46FCF7EB
:104E1000DDFE204629462A46FCF7CAFE20462946E2
:104E20002A46FCF7DFFE01260096204629462A4640
:104E30002B46FCF7CBFE204629463246FCF7B8FE4F
:104E4000204629463246FCF7CDFE064886600321FF
:104E5000016002B070BDC04600208640AA6000001C
:104E6000B060000000318640B0B582B0CB4D14492F
:104E70002846FCF7BFFE13492846FCF7C1FD012474
:104E80000094002128460A460B46FCF79FFEA10429
:104E900028462246FCF78CFE7D20810028462246CB
:104EA000FCF7A0FE084801461C390C600146243975
:104EB00002220A6001682143016002B0B0BDC04611
:104EC000B8600000BC60000024B1864010B5094CF9
:104ED00009492046FCF78EFE08492046FCF722FDD2
:104EE0000748016811220A43026006480121016057
:104EF00010BDC04600000940D4600000C46000003E
:104F0000281009400811094070B5184800240460B1
:104F10000F200002164D29688143012670020818EF
:104F200028600320C043291F0A6802400A6068689D
:104F3000B043686030026968814369600D48FCF7DE
:104F400041FC28681021014320208143296030035F
:104F50002968014329602046FCF796FCFF200002E7
:104F600005490A6882430A6070BDC04608030B40C9
:104F700004010B40D860000000E400E0704700002E
:104F800010B5084C08492046FCF734FE0749204676
:104F9000FCF796FD064801680122114301600548AF
:104FA000026010BD00400840006100000461000084
:104FB000285008400851084010B5124C12492046AC
:104FC000FCF74AFE11492046FCF722FE0320C103EC
:104FD0000F4802688A43026001690E4A0A4015328E
:104FE000026141692D220A4312218A4342614168CC
:104FF00001221140436893435918416001681143ED
:10500000016010BD00801040186100001A610000AE
:10501000009110400000FFFF80B500F023F8FFF77B
:1050200001FEFFF771FFFFF7E1FEFFF71DFFFFF73E
:105030004DFFFFF7A5FFFFF7AFFEFFF7BDFFFFF73F
:105040006DFEFFF7D5FDFFF799FF7420034900229D
:105050000A54B82002490A5480BDC0461C012020D1
:1050600060002020F0B581B01448154A4260154810
:1050700042601548426015484260154D6A60154E01
:105080007260154F7A60154B5A6015494A60154891
:105090004260154A094C22600A4C22600A4C226088
:1050A0000A4C22602A6032603A601A600A6002602C
:1050B0001020FCF743FB01B0F0BDC04600080A40D9
:1050C000030000B100280A400028864000A886405E
:1050D000000809400048084000080F4000881040C0
:1050E00000081040002800400100002670B5724EF4
:1050F00000240125304621462A46FCF759FD30465A
:1051000021462A46FCF76EFD6C480168A943016000
:10511000824804706A48046028032149086070BD11
:1051200001200003014908607047C04690120A4000
:10513000F0B581B07A480025056061480560774F79
:105140003D7001246004144908605B4E30462946D6
:105150002246FCF72DFD304629462246FCF742FD4B
:1051600056480168A14301603D7055480560200321
:105170000B4908600B480168C0220A433F218A435B
:10518000026009480168214301602005A0490860C8
:10519000A049086001B0F0BDA0320A4000A08640DE
:1051A000A0120A4014E400E028B08640F0B581B0B7
:1051B000064600281FDD0122304642498842044647
:1051C00000D30C460F2817D95448007882422AD1C0
:1051D0003B4D286884420CD03D48214600F052FCEB
:1051E000401E36494860410833480122FCF7FAFC6A
:1051F0002C6001B0F0BD5CD42F4D00240126284660
:1052000021463246FCF7D4FC284621463246FCF7BC
:10521000E9FC2A480168B14301604048047028480D
:10522000046001B0F0BD00922348002701253946F3
:105230002A46FCF7BDFC204839462A46FCF7D2FC3A
:10524000E8431E4A11680140116034490F701C493F
:105250000F601D49002E00DC10316A040A601B4AF1
:10526000116801401160144839462A46FCF7A0FC39
:105270001748214600F006FC401E104E70604108A1
:105280000D482A46FCF7AEFC301F0760A9040A4807
:105290002A46FCF78DFC0D490868284308600098F1
:1052A0001E4908700648046030682843306001B029
:1052B000F0BD7042FF2280E700A0864004B886401F
:1052C000040220208813000090320A4024B1864056
:1052D00040420F0080B504480068C0B2012801D1E7
:1052E000FBF7E4FE80BDC046205008400A48006835
:1052F000C0B201280DD1002008490A56002A05DD58
:10530000012007490A6810180860704709560029EB
:1053100000D47047C043F4E720B08640E601202067
:105320004C022020B0B50B480068C0B20B280FD14A
:10533000FBF710FE084D2968490709D40A244443A5
:10534000E869C0B22146FBF7A5FB28684007F7D5FE
:10535000B0BDC0462010104008111040FFF75CFEA1
:105360002A480168012421430160FCF797FEFCF7FD
:10537000A5FCFDF7E7F8FBF7F1FDFFF7D9FEFBF71A
:10538000DDFCFBF775FAFBF71DFBFCF703FDFBF7F4
:10539000BDF9FBF71DFDFDF70DFAFDF749F900F02A
:1053A00069F91B4902220A601A4802600A60026019
:1053B00022040A600260A102174A13680B431360BB
:1053C00061030160FCF786FE00252E462F4600E0B3
:1053D00030BFFBF7BFFD0A244443601B0A2803D3F8
:1053E0002046FBF703FB25462046FBF7FBFCA01BF2
:1053F000052802D3FCF76EFE2646E01B80084B28EA
:10540000E6D300F037F92746E2E7C0460438864085
:1054100080E200E000E100E028101040F0B582B02A
:10542000EFF3108272B60122D303904C00932360F5
:10543000072900D307214F23DE430E431107D2076C
:1054400000248B4B03E06C1C7600072D4CD22546C4
:10545000196174B2002C01DA1C4601E01C461034BC
:10546000226000270197019C172C1BD800BF019CCC
:10547000641C0194019C172C14D800BF019C641C6F
:105480000194019C172C0DD800BF019C641C019451
:10549000019C172C06D800BF019C641C0194019C40
:1054A000182CE3D319600197019C172CCBD800BFAF
:1054B000019C641C0194019C172CC4D800BF019C62
:1054C000641C0194019C172CBDD800BF019C641C76
:1054D0000194019C172CB6D800BF019C641C019458
:1054E000019C182CE3D3AEE7196062B6EFF3108489
:1054F00072B6009C5D4D2C60142800D31420062643
:1055000046430E20304003E0671C4000072C4CD27D
:105510003C46196145B2002D01DA1D4601E01D46E9
:1055200010352A6000250195019F172F1BD800BF59
:10553000019F7F1C0197019F172F14D800BF019F67
:105540007F1C0197019F172F0DD800BF019F7F1C63
:105550000197019F172F06D800BF019F7F1C01975D
:10556000019F182FE3D319600195019F172FCBD806
:1055700000BF019F7F1C0197019F172FC4D800BF58
:10558000019F7F1C0197019F172FBDD800BF019F6E
:105590007F1C0197019F172FB6D800BF019F7F1C6A
:1055A0000197019F182FE3D3AEE7196062B6EFF3BE
:1055B000108072B600982D4C2060F0B200091030B7
:1055C00003E0651C4000072C4CD22C46196145B203
:1055D000002D01DA1D4601E01D4610352A60002528
:1055E0000195019E172E1BD800BF019E761C0196C7
:1055F000019E172E14D800BF019E761C0196019EB5
:10560000172E0DD800BF019E761C0196019E172E05
:1056100006D800BF019E761C0196019E182EE3D38A
:1056200019600195019D172DCBD800BF019D6D1C00
:105630000195019D172DC4D800BF019D6D1C0195DA
:10564000019D172DBDD800BF019D6D1C0195019DC9
:10565000172DB6D800BF019D6D1C0195019D182D19
:10566000E3D3AEE7196062B602B0F0BDA0320A40E3
:1056700090120A40F0B587B0FBF7A2FB0446FBF797
:10568000A3FB0746FBF798FB06460025D9A2284650
:105690002946FFF7DDF86421304600F0F3F9002FCA
:1056A0000190024600D13A46052003232946FFF720
:1056B000E9F80A26D1A230462946FFF7C9F8042C9A
:1056C00006D8A000D0A10A5800200221FFF7C0F898
:1056D000022F03D8B800D3A10A5800E0CFA20025BA
:1056E00003212846FFF7B4F8FBF726FB0446FBF737
:1056F00031FC7043C821FBF74DFB0028049714D000
:105700002079400717D407200325C9A22946FFF7AF
:105710009FF8A2790B2029462B46FEF717FD0E2095
:10572000C5A22946FFF794F827E007200321C3A26A
:10573000FFF78EF821E0072003264B223146FEF7C3
:10574000ABFB20792027C00701D03A4600E0702249
:1057500008203146FEF7A0FB625F09200423314692
:10576000FEF7BCFE0E2031463A46FEF795FBA279C5
:105770000F2002233146FEF7E9FC00260424B2A2E2
:1057800030462146FFF764F8FBF7CCFBAF4900F049
:105790003DFBAF4900F03AFBAE49FAF7FDFD054687
:1057A000314600F06AFA3F210A06BF210906059139
:1057B00000280692114600D10599284600F08CFA7F
:1057C000FAF79AFE02460225284621462B46FFF7A5
:1057D00059F80820A04A03902146FFF739F8FBF753
:1057E000A5FB9A4900F012FB994900F00FFB99497B
:1057F000FAF7D2FD0746314600F03FFA0028069935
:1058000000D10599384600F067FAFAF775FE0246AE
:105810000A20029021462B46FFF734F805248FA278
:1058200030462146FFF714F8FBF78CFB874900F060
:10583000EDFA874900F0EAFA8649FAF7ADFD074626
:10584000314600F01AFA0028069900D10599384629
:1058500000F042FAFAF750FE0246284621462B464F
:10586000FFF710F8039821467B4AFEF7F1FFFBF79C
:105870006DFB764900F0CAFA754900F0C7FA754920
:10588000FAF78AFD0746314600F0F7F9002801D102
:10589000059806903846069900F01EFAFAF72CFE95
:1058A0000246029821462B46FEF7ECFF0498401E64
:1058B00001280FD800200624674A2146FEF7C8FFBA
:1058C000022003232146019AFEF7DCFF082069A28B
:1058D000214602E00020062161A2FEF7B9FFFCF795
:1058E00057FD04460020072164A2FEF7B1FFFCF734
:1058F000E9FB00283FD064B230253127002C2A462E
:1059000000DA3A46032007263146FEF7C5FA60065C
:105910002A4600D53A4604203146FEF7BDFAA006D5
:105920002A4600D53A4605203146FEF7B5FAE0068C
:105930002A4600D53A4606203146FEF7ADFA200742
:105940002A4600D53A4630463146FEF7A5FA6007AA
:105950002A4600D53A4608203146FEF79DFAA007B0
:1059600000D53D46092031462A46FEF795FA01202A
:105970000440303424E0032007252D242946224604
:10598000FEF78AFA042029462246FEF785FA05200A
:1059900029462246FEF780FA062029462246FEF7CF
:1059A0007BFA284629462246FEF776FA0820294641
:1059B0002246FEF771FA092029462246FEF76CFAC4
:1059C0000A20072529462246FEF766FA0B202022E8
:1059D0002946FEF761FA0C2029A22946FEF738FF76
:1059E000FBF7A8FA02460E2002232946FEF776FDB1
:1059F00007B0F0BD54494D453A0000005320202027
:105A0000202020202020200046610000606100004E
:105A1000396100006D610000536100003F3F3F208D
:105A2000202000002B610000246100003261000092
:105A30004B3F3F2000000000202020004B2D2D2058
:105A40002D2D2D20202000004C3A000042E0A541E1
:105A500000002041000070427A610000523A0000CC
:105A600031434C4B3A52554E2032434C4B3A5357EC
:105A700000000000532020202020200049523A003E
:105A8000453A000043088B421AD3002203098B4297
:105A900079D3030A8B425ED3030B8B4242D3030CB0
:105AA0008B4227D30902FF2212BA030C8B4202D386
:105AB0001212090203D0030B8B4233D31AE0D3E056
:105AC000411A8041401C704703460B4371D4430880
:105AD0008B42F5D3002203098B4254D3030A8B4235
