:020000040000FA
:10000000180720206D01000071010000730100003D
:1000100000000000000000000000000000000000E0
:10002000000000000000000000000000750100005A
:1000300000000000000000007701000079010000CE
:100040007B010000C1200000515A00007B0100002C
:100050007B0100007B0100007B0100007B010000B0
:10006000000000007B0100007B0100000000000098
:1000700000000000DD5A00007B0100007B01000051
:10008000A55900007B0100007B0100007B010000FE
:10009000BD5900007B0100000000000000000000CE
:1000A0007B0100007B010000000000000000000058
:1000B0007B010000000000007B0100007B010000CC
:1000C00000F002F800F042F812A030C808382418F6
:1000D0002D18AC4201D100F039F80FCCA246AB4646
:1000E0000CA730CF2D1B083F3F197C427F1E544484
:1000F0002D090426F441641EAC4201D300F026F819
:100100000126334200D0FB1A3343984754465D46DC
:10011000DFE700001C6A00002C6A000000000000FD
:100120007047000000000000002300240025002686
:10013000103A01D378C1FBD8520700D330C100D5A3
:100140000B6070471FB51FBD10B510BD00F05CFA05
:100150001146FFF7F7FF05F0DDFC00F074FA03B479
:10016000FFF7F2FF03BC00F0C9FA000006480047A1
:10017000FEE7FEE7FEE7FEE7FEE7FEE70348044989
:10018000024A044B70470000C10000001803202001
:100190001807202018032020002203098B4273D364
:1001A000030A8B4258D3030B8B423CD3030C8B4284
:1001B00021D312E003460B437FD4002243088B4235
:1001C00074D303098B425FD3030A8B4244D3030BDE
:1001D0008B4228D3030C8B420DD30902FF2212BAA3
:1001E000030C8B4202D31212090265D0030B8B421F
:1001F00019D300E0090AC30B8B4201D3CB03C01A09
:100200005241830B8B4201D38B03C01A5241430BE3
:100210008B4201D34B03C01A5241030B8B4201D3D3
:100220000B03C01A5241C30A8B4201D3CB02C01A3E
:100230005241830A8B4201D38B02C01A5241430AB6
:100240008B4201D34B02C01A5241030A8B4201D3A5
:100250000B02C01A5241CDD2C3098B4201D3CB014C
:10026000C01A524183098B4201D38B01C01A5241FB
:1002700043098B4201D34B01C01A524103098B42FF
:1002800001D30B01C01A5241C3088B4201D3CB00EA
:10029000C01A524183088B4201D38B00C01A5241CD
:1002A00043088B4201D34B00C01A5241411A00D27D
:1002B00001465241104670475DE0CA0F00D04942E6
:1002C000031000D3404253409C46002203098B4256
:1002D0002DD3030A8B4212D38901FC2212BA030ADE
:1002E0008B420CD3890192118B4208D38901921160
:1002F0008B4204D389013AD0921100E08909C309E5
:100300008B4201D3CB01C01A524183098B4201D3E6
:100310008B01C01A524143098B4201D34B01C01AD1
:10032000524103098B4201D30B01C01A5241C30849
:100330008B4201D3CB00C01A524183088B4201D3B8
:100340008B00C01A5241D9D243088B4201D34B00D3
:10035000C01A5241411A00D201465241104663462A
:100360005B1001D34042002B00D5494270476346E1
:100370005B1000D3404201B50449002802DC491C4F
:10038000084000E00846C046C04602BDFFFFFF7FB0
:100390007047704770470000F0B5FF252D04C6096F
:1003A000C209FF2704462E400137CB093E4348408F
:1003B0002A402B400746002A6BD0002B69D0AA4266
:1003C00067D0AB4265D0002800DA32460125ED0542
:1003D00029432C4309022002090AD21A4B0C7F241C
:1003E000E31A434C000A7C44E35C7D242404121984
:1003F00014145B00A218884201D3521C00E0400094
:1004000049420C465C4324115C43DB016415E3184C
:10041000040A5C43C502200D0C4644436419250AB6
:100420005D432303EC0C0D46654300030019EB18F4
:100430004C42A34201D35B18401CD4052018002B6A
:1004400007D05B00C91804D3401C002901D1400823
:1004500040003F2189048A4209D3002A08DC1106A2
:10046000090F04D0032149074018C00FC007F0BD91
:1004700001224100120689187F2252069142F6D2CB
:1004800005214907C84201D59010F0BDFF20C005E5
:10049000F0BD002F00DA32461648AA4207D2AB421E
:1004A00005D21902090E17D0F80FC007F0BDFF25BD
:1004B00063002D06AB42F9D84900A942F6D8AB42F9
:1004C00001D1A942F2D0A94201D1002101E061008D
:1004D0004908D0050843F0BD1102090EFBD0FF20EA
:1004E0000243D005F0BD0A460146104654E700001D
:1004F0000A6500000000C07F10B501469E2400027E
:10050000CA15A307002A02D01843002A04DBA21A46
:10051000002A0CDDD04010BD1206120E01D14000A1
:100520004008A21A03D4D04040420028F3DDFF2245
:1005300048001206904201D9002010BDC817C043E0
:10054000584010BD1F22030C02D10F2200041CD002
:10055000030E01D10002083A030F01D10001121F5E
:10056000830F01D18000921E002801DB4000521E43
:10057000D2055118021251181922904004D3491C77
:10058000002801D14908490008467047C10FC90732
:1005900000D04042012292071143D3E7012189078D
:1005A000D0E7000010B5FF231B0644009C421DD875
:1005B0004C009C421AD80346124A0B4307D4401AF7
:1005C00002D3EFF3008010BDEFF3008010BD081AD6
:1005D00003D3EFF30080904305E0EFF300800121A7
:1005E0009043C907084380F3008810BD0D231B0406
:1005F0001A4204D01146002000F02DF810BD00F082
:1006000041F810BD00000090754600F043F8AE467A
:10061000050069465346C008C000854618B020B59D
:10062000FFF7ACFD60BCB64600260027C0C5C0C5BC
:10063000C0C5C0C5C0C5C0C5C0C5C0C5403D4908CE
:1006400049008D46704710B50446C046C046204656
:10065000FFF785FD10BDC80212D54803400F0028E2
:1006600004D0C803C043012188407047EFF30080E5
:100670000001000903210907084380F3008870473F
:100680000020704710B5024800F008F810BD0000C7
:100690000000C07F004870470000202010B50C46C5
:1006A0001107090F092904D00A290AD008290CD1F9
:1006B00004E011460820FFF7CEFF06E0510606D5FC
:1006C00001E0510601D50120C007214610BDD10629
:1006D00007D501010909CC084907000E00060443AB
:1006E00009E0410F20024907000A0143200E0006DD
:1006F0001D22D14101430846E7E7000001491820C7
:10070000ABBEFEE726000200704700005A480021F9
:1007100001705A4801705D4801605B4801601548EE
:100720000180704754480078411F48424841704753
:10073000B0B504465548002505605048047052483D
:10074000056000F0BBF8012C0AD0032C04D0022C69
:100750000BD10425002005E006480088042501E0AF
:100760000348254600B200F017F943480570B0BDB4
:10077000CEFF0000F0012020F0B581B004463E4FCE
:100780003878002875D0204600F010F93878052810
:100790006FD000F0E3F8054600F0ACF8064600F034
:1007A000A5F836490978012963D1397803293FD062
:1007B000022925D001295CD1002D5AD0334A116875
:1007C000002901D1146021460B3EB3B22D4D012208
:1007D0000026AB42134600D333461F3880B2284D63
:1007E000A84200D33246134303D0601A00097D2883
:1007F0003FD3322000F0D0F824480460022037E0D4
:100800001F3881B21E4B012000229942014600D3BD
:1008100011460B3EB3B21B4EB34200D31046084301
:1008200069426941014324D11748046003201FE055
:100830001F3881B2124B012000229942014600D399
:1008400011460B3EB3B20F4EB34200D310460843DD
:100850006942694101430C48012903D1002101602B
:10086000022005E00068201A80087D2801D30520B9
:10087000387001B0F0BDC046A80120206A022020D7
:10088000C3FF0000EBFF0000C40220207002202004
:1008900080B5BE4900200870A9490870BE4908808B
:1008A000B8490880A74908704B218900B64A1160F1
:1008B00004F0DCFF04F068FF80BDC04680B5A848A6
:1008C000002101609E4801220270B0480170B248C8
:1008D0000180AC4801809C4801609A4801704B201F
:1008E0008000A949086004F069FF80BD0020A54987
:1008F000085E704700209849085E70470020A649AE
:10090000085E704700209149085E70479E48006865
:100910007047C0469049002008808C490880904963
:10092000086087490870994908709B490880954973
:10093000088085490860834908708D49134A0A6018
:100940008A49114A0A608B49114A0A6011490870A4
:100950004B2080008C4908607047C0468B48007867
:100960007047C0468149084A0A608149074A0A60BF
:100970008049074A0A607A4A00211160042800D39E
:100980000846044908707047CDCCCC3D3333333F23
:100990009A99993E740220206C490A8883B2934246
:1009A00002D06F4A0023136008807047F0B58BB007
:1009B00063490978012900D0BFE062490A78012A19
:1009C00005D1614A1268821A142A00D2B5E00125C5
:1009D0000D705D490860044600F0D0FA0646962185
:1009E000204600F0EBFA04464B208100002C55D045
:1009F00003910020315E554A105E401A54498842E6
:100A000000DB0846019600955249884200DC084602
:100A100051490880FFF7BAFD0746504905F0AAFE84
:100A20004F49096805F00CFE06464E4D294605F073
:100A3000E3FD002800D135464B4E2846314605F0EF
:100A4000F3FD002800D12E46484800680296314642
:100A500005F090FE054646480068394605F08AFED6
:100A6000294605F0EDFD054601984088019000B249
:100A7000FFF78CFD01463F48006805F07BFE01460C
:100A8000284605F0CFFE07463B4E314605F0CCFD2B
:100A9000002806D10098C007474003E000231A460B
:100AA00017E0364F3846314605F0BEFD002800D12C
:100AB0003E463046FFF720FDF921C943884200DC5D
:100AC00008462F498842029A019B00DB0846039999
:100AD00041182C480380224802602B4D2960601E7B
:100AE00084412A48047004A804F00EFD2868049983
:100AF000401AFFF74BFD4121090605F03BFE054674
:100B0000234C214605F078FD002800D12C46214DCC
:100B10002046294605F088FD002800D125462846B4
:100B2000FFF7EAFC044604F0B5FD002800D10446B6
:100B300019480480204604F099FE0BB0F0BDC04671
:100B4000F801202006032020280220200403202072
:100B5000FF7F00000080FFFFFA0120200AD7A33C9E
:100B6000180220200000FA430000FAC37C02202073
:100B7000800220201403202000007AC300007A4362
:100B8000EE0200009C01202000032020070320200B
:100B90000080BB440080BBC46C022020002801D030
:100BA000002070474949087800220A707047C04603
:100BB0003F480021016041480170424801604248BD
:100BC000016042480170384800683D4A11703A4A55
:100BD00011704003C00F37490870344908707047DE
:100BE00010B5314909684903C90F304A1378994251
:100BF00013D1304B1A78914214D02D4C2468041B29
:100C00001E2C22D31970002921D0002A1FD12A4975
:100C100000220A702C4908600AE0254B1860117008
:100C20002449097800291AD02349097800292ED1AE
:100C300025490968401AC0087D2828D31E4801218B
:100C400001702248032101701CE01146EAE70029E7
:100C5000E8D1002AE6D018490978002918D01849A7
:100C60000978012913D117490968401A80084B28CF
:100C70000DD312480078012801D8012000E002209D
:100C8000124908700E48002101700C48017010BD17
:100C90000A490A78FF2A01D0521C0A700849012229
:100CA0000A7008490860DEE780130A40BC01202072
:100CB000C0012020B8012020D4012020C401202020
:100CC000CC012020C8012020D0012020D8012020E4
:100CD000F0B583B0B54B1A68521C1A60B44C227838
:100CE000032A37D87A4412795200974401250B1110
:100CF000AA2800D097E0012020709F48AA21017007
:100D000003B0F0BD012875D002287AD1062172E027
:100D100099498A78012A65D00122824265D05A69B0
:100D2000521C5A610022AA28104602D1AA2008703B
:100D30000120A0490A7071E0AA2874D0552870D10A
:100D40008D4855214170022020705868401C586021
:100D500003B0F0BD884DA854501C2070954A1278FD
:100D6000C0B2904200D204E1D51E019102925FD040
:100D70000120294601400091042A00D08EE0002481
:100D800027460098002854D07B4800198178794084
:100D90004C00072049B2002900D54440610062B2EE
:100DA000002A00D541404A0049B2002900D54240FE
:100DB000510052B2002A00D541404A0049B20029F0
:100DC00000D54240510052B2002A00D541404A00AD
:100DD00049B2002900D54240570051B2002928D518
:100DE000474026E00722824299D104222270C8702F
:100DF00003B0F0BD0C21604A90706E480170032072
:100E00000CE05969491C59610021AA28084603D100
:100E10005948AA2202700120664A1170207003B05E
:100E2000F0BD002020705869401C586103B0F0BD2F
:100E300000270298504A8018401E0078F9B281427B
:100E40002AD19078012800D08AE014795A48017894
:100E5000012909D169494979611AC9B2022903D323
:100E60009A698918491E9961644D6C71012101705C
:100E70000198A860E971404A50792871907AA87168
:100E80009079D179090208182880107A517A0902DC
:100E900008186880083364E0103362E0854300245A
:100EA000274603E0A41CA54200D16AE72946324840
:100EB0000519AA787A405700072052B2002A00D5B7
:100EC00047407A007EB2002E00D54240570052B211
:100ED000002A00D547407A007EB2002E00D542405D
:100EE000570052B2002A00D547407A007EB2002E49
:100EF00000D54240560052B2002A00D54640770045
:100F000072B2002A00D54740ED787D406A006DB28C
:100F1000002D00D54240550052B2002A00D5454070
:100F20006A006DB2002D00D54240550052B2002A31
:100F300000D545406A006DB2002D00D542405500F5
:100F400052B2002A00D545406A006DB2002D00D58E
:100F500042400D46570052B2002AA3D54740A1E7B0
:100F60000C33134900200870124908701868401C9F
:100F7000186003B0F0BDC046A90120201F4870478B
:100F80001E49002008604860886008490860486081
:100F90008860C860086148618861C8610449087058
:100FA00004490870044908707047C046DC022020DC
:100FB00009022020FC012020100220200F4A936803
:100FC000C01A884203D210794007C00F00E0002009
:100FD000D179002900D108467047C04610B50246B5
:100FE000064BD879441EA0419B68D21A8A4202D38C
:100FF0000021084010BD0121084010BDE40120205F
:101000008B4800687047C046874800787047C046E4
:10101000844800787047C0468448002101608448B5
:10102000016084480160864801607E4801707E4806
:101030000170824801700120400201490860704738
:10104000A0320A40F0B587B0044600252846FFF7D5
:10105000A5FD744E3178C0467944097949008F4422
:10106000024E333A1F00012800D195E0032872D0C8
:10107000022800D097E06C480178491CCAB2CD2301
:1010800053439A0A05235343C91A017008066E4850
:1010900000D110304B218900D431016007B0F0BD80
:1010A000614F3978012905D106462046FFF764FBD8
:1010B00030465C4E012876D13878012801D1FFF7FF
:1010C000E7FB357007B0F0BD01286CD1204605F074
:1010D000FDF807B0F0BD054654480068201A544991
:1010E0000860514F387801281DD12046FFF744FB96
:1010F000FFF718FB00281CD00420307019E00128ED
:1011000005D04C480068201A80097D284DD3284618
:1011100004F0ACFB04F038FB04F0E8F93570474804
:10112000057007B0F0BD204601F05AF82046FFF7E1
:1011300023FB3878012803D001F034F8002801D1CE
:10114000012D30D1002000F019F9FFF7A1FB042098
:10115000307007B0F0BD0320C04333490978491F00
:10116000814220D3284600F009F9FFF791FB354969
:10117000284604F0EFFA04F075FB04F01FFB284644
:1011800004F074FB2E4805602A4804602B48057063
:10119000274805600120DBE70420C0432249097885
:1011A000491F814292D907B0F0BD684604F0ACF9FE
:1011B000214800990A18D21C062A1AD8002004F0E7
:1011C00055FB1E480178002925D01D480068211ACA
:1011D0004B208000421E9142E5D904F08BFA322068
:1011E000184904F0B7FA04F03DFB04F0E7FA0220D6
:1011F000AEE7124A15704B229400A14200DB044670
:10120000204604F047FA002800D10446204604F0A6
:101210002DFB07B0F0BD0A490C600121017007B039
:10122000F0BDC046D802202068022020CC02202039
:10123000F401202050022020D4FEFFFF480220208D
:101240004C0220201A04000090320A403448006802
:101250007047C0462A4800687047C0463148006859
:101260007047C046274800687047C04680B5574958
:10127000002008703F4908703149086054490860EF
:1012800054490860264908602649086013490860E7
:10129000134908601349086013490860134908702E
:1012A000134908601349086013490860134908602E
:1012B000134908604849086048490860484908607F
:1012C000104908602C4908800F4908604D490860A2
:1012D0004D49086001F08CFB80BDC0463C022020D7
:1012E000B402202040022020B8022020C802202082
:1012F00044022020BC02202034022020AC02202006
:1013000058022020DC012020E0012020EFF3108093
:1013100072B60348002101600248016062B670475E
:1013200030022020A802202010B50446002105F03C
:1013300063F9002800D104460148046010BDC0468E
:10134000A0012020411E48424841EFF3108172B6AF
:1013500008490A7882420AD01D4A002313601D4AB8
:1013600013601D4A13601E4A1360034A13800870FD
:1013700062B670475E0220205C02202010B5134A3E
:101380001178137898420AD0114B00241C60114B3D
:101390001C60114B1C60114B1C60114B1C601070C9
:1013A000002802D0002906D010BD17480021016096
:1013B00001F0A8FA10BD13480068002801D00020F1
:1013C00001E07F20C0051049086010BD6B0220209D
:1013D00038022020B00220208C0220208802202009
:1013E00020022020EFF3108172B606490860002821
:1013F00001D0002001E07F20C0050349086062B6EB
:101400007047C046D0022020D4022020F0B587B01B
:10141000F24800780390F2480168491C016001F02D
:10142000B7F906A805A900F03DFEEE4A1068059937
:1014300040181060EC4B1868069A801A1860EB4B45
:10144000186840181860EA4E3068801A3060E94D1C
:101450002878401C2870C0B2022829D3E3480068CD
:101460001424214600F0FCFDE34D2860306821463D
:1014700000F0F6FDE14F38602868002105F0B1F872
:10148000002804D10120C00729684140296038683C
:101490000024214605F0A5F8002804D10120C0074A
:1014A000396841403960D14804603460D14D2C70B6
:1014B00004A800F061FFD24908700878002808D01D
:1014C000049C0021204605F0AFF8002805D13F20FC
:1014D00004E000200490044606E0BF2001062046F8
:1014E00005F0AEF8FFF708F8C6490860C64F38782F
:1014F00000284DD0C54E306800281BD0C448006875
:101500007F21CD05294605F06CF8002816D13068FA
:10151000FFF744F80146BF48FEF73EFF0146BC4EC8
:10152000306805F08DF830603068294605F06FF8B6
:10153000002803D17F20C005B5490860387801280C
:101540003DD1A8480068A8490968441AB24806680D
:1015500004602046FFF71AF80546A01BFFF716F8AF
:10156000AE4905F007F90446AD49284605F002F9F1
:10157000214605F065F80546AA4E3068294605F073
:1015800051F904463068294605F05AF80646CFE07E
:10159000A54800210160A5480160A5480160A54853
:1015A0000160A5480160A548016090480160316074
:1015B00029709748016001F0A5F907B0F0BD904887
:1015C0000078002807D09E4801680460039801282D
:1015D00015D09C4D14E09C4801889C4A914202D051
:1015E0000188491C01800088994D2C6803285FD32D
:1015F0008A49204605F0BEF828602C6858E0954DD1
:10160000204605F00FF90146284605F0B3F80546D7
:101610000398012801D07F4800E08F48214605F05B
:10162000A9F8294605F00CF805460398012801D0D1
:101630008A4C01E08320C4052846214604F0DCFFE3
:101640000028264600D12E460120C007029024180B
:101650002846214604F0E8FF002800D134467C48A3
:1016600005682046294605F0DDF80746039801285D
:1016700001D0FC4E00E0FC4E3846314604F0C7FF76
:10168000002804D13046294604F0DAFF0AE0029827
:101690003118384604F0A5FF002804D12846314609
:1016A00005F0C0F80446F7480460F74800210180BF
:1016B0000398012801D0F24901E08320C1050120EF
:1016C000C20720469043FEF767FEF14905F052F845
:1016D0007F21C90504F0B4FF0646EC4D294604F00D
:1016E000A3FF002800D13546EA480068294605F0E6
:1016F00041F8E94908600D680868214605F092F84C
:1017000007460398012801D0E44900E0DB49E4489A
:10171000006805F087F806463846314604F084FF35
:10172000002800D13E462046294604F089FF0446A1
:1017300000272046394604F05FFF002800D1044608
:10174000CD4D2968204605F015F82C68D549019043
:1017500008603046394604F04FFF002800D10646A5
:101760003046214605F006F8CD4902900860C54C88
:101770002068394604F058FF03990129BB4D02D077
:1017800041210E0600E0C84E2768002802D0012043
:10179000C00747403846314604F023FF2C78044305
:1017A000601E84413846314604F03EFF002857D180
:1017B000BE4F3868C04E314604F0DCFF3860C04D83
:1017C0002868314604F0D6FF2860A9480168019DC9
:1017D000284605F027F83E684CE0C0465E0220200F
:1017E000DC01202030022020A802202040022020FE
:1017F000B8022020C80220203C022020B402202071
:101800005F022020580220206B022020D0022020DE
:10181000D402202000002041880220203333333FAF
:10182000CDCC4C3EA001202038022020B002202048
:1018300044022020BC02202034022020AC022020C0
:101840008C0220200000C0405C022020FFFF00002E
:1018500020022020333373409A99C9400000C841C8
:1018600083480168019D284604F0DCFF8F490E681B
:10187000002C0FD0814904F07DFF0746212041064E
:10188000284604F077FF394604F0DAFE05468A4917
:10189000304649E00968039004F0D2FE0746844EC2
:1018A000314604F0A9FE002800D13E46814F304663
:1018B000394604F0A1FE002800D13E467E4900963C
:1018C000304604F057FF07466C49039804F052FF76
:1018D000064621204106284604F04CFF314604F01C
:1018E000AFFE05463846294604F0AAFE074673496E
:1018F00004F09AFE002805D10021039804F07CFE34
:1019000000280ED10021384604F076FE002805D1CB
:101910000021039804F088FE002802D16348009952
:10192000016062480068644904F024FF294604F01D
:1019300087FE0646614D294604F05EFE0028029FA0
:1019400000D135460021284604F056FE002800D17B
:1019500005462846FEF7D0FD5A490860454801680B
:10196000384604F05FFF054655480668002C10D045
:101970004249284604F0FEFE04462120410638462E
:1019800004F0F8FE214604F05BFE04464A49304666
:1019900047E00168284604F053FE0746444E3146AE
:1019A00004F02AFE002800D13E46424F3046394618
:1019B00004F022FE002800D13E463F49304604F0A4
:1019C000D9FE07462D49284604F0D4FE04462120BE
:1019D0004106029804F0CEFE214604F031FE044692
:1019E0003846214604F02CFE0746344904F01CFE1C
:1019F000002805D10021284604F0FEFD00280DD165
:101A00000021384604F0F8FD002805D100212846C1
:101A100004F00AFE002801D1294806602848006821
:101A2000254904F0A7FE214604F00AFE0546234C92
:101A3000214604F0E1FD002800D12C46002120467B
:101A400004F0DAFD002800D104462046FEF754FDDC
:101A50001D4908601B480068096800F085FF07B051
:101A6000F0BDC0460000A04100004041C802202057
:101A70003C022020B4022020D4022020000020417B
:101A80000000C841200220205C0220203333333F75
:101A90009A9999BEA0012020E00120200000704109
:101AA000BC022020440220200000A0403802202058
:101AB0000000C8430000C8C36666663F00C0F34527
:101AC000B002202034022020AC022020B0B50A78D9
:101AD000032313400B4A84580B4D2540EB18A924CF
:101AE00024061B198350072212064B681340112449
:101AF000240205599543EA180251001949780161F9
:101B0000B0BDC04608080000FCFFFF00811E091F91
:101B100000BFFCD2704710B5002A0FD091235B01A3
:101B2000C3180020DC692405240F05D00C5C1C6060
:101B3000401C8242F6D1104680B210BD002080B217
:101B400010BD0000084A835880210B438350801841
:101B50000F221202436813400122D2029342F7D1AE
:101B600002688A43026070473812000070B50A7834
:101B70000C231A400124240305196E689E43B218F1
:101B80006A6049780722114003599343591801515B
:101B900070BD0000F0B584B0012422022A4B196800
:101BA00003929143196035490D686D04FCD5457E5B
:101BB00025409E69A64374199C612024045D032579
:101BC0002C40DE69AE433419DC61204C25680526C3
:101BD0002660466A37681F6276685E6207262E4076
:101BE0002660C4697F252D02DE69AE436406640C5D
:101BF0003419DC610768456882680092C66802692A
:101C00000192426902929A69114C14403A07120BF0
:101C10002D03ADB2AA183243009D2D072D0D15439B
:101C2000019A1543029A1543007E2843094A02404F
:101C3000101998611868039A1043186008688005A5
:101C4000FCD504B0F0BDC04608010B400013404075
:101C50008D00F0FF72FF0F00074988600748026897
:101C60009202FCD5012212040B6813430B60016839
:101C7000C906FCD57047C04604010B4004020B4066
:101C800070B582B00B794A79002A25D0184A202BEA
:101C900002D00524E40100E07D4C8218002B00D125
:101CA0008824156C794E35402D191564556C3540D6
:101CB0002C1954641468B44D2C40146054682C40A2
:101CC00054600024146254628F24E443156D25404F
:101CD0001565556D254055656A4613718B795371AD
:101CE00009680091114600F079F802B070BDC04655
:101CF0003818000089004018B44940587047C04661
:101D0000F0B585B02F4A851811221202821803926D
:101D10004A7A521ED3B201260024022B0194009667
:101D20000DD852B2920028A4A7584924E60134469F
:101D30005C43A4190294274CA2585B1C03E00222C6
:101D40002346029437464C6804956C60CE688F2514
:101D50002E4016433122D20184189B00E258AA4338
:101D60003243E250CD688E263540BA00A758B743BB
:101D7000ED19009E3543A5508A4C0019C458824D78
:101D80002C40154EA419641CC45083582B409B1939
:101D900083500398019A02600878012801D0029AC2
:101DA00002E02020029A0243087ABD21014011433B
:101DB000049B1868384A02400A4302201043186006
:101DC00005B0F0BD04180000000000000300000092
:101DD000020000003469000001000200F0B5684A0A
:101DE0008218294BC318087920280DD000281DD14E
:101DF0000C68641E5460D56E244C25408835D56629
:101E00001646703688251DE00C68641E5460D46E3A
:101E10001E4D2C401E4EA419D466146F2C40A419DC
:101E20001467012465071B4C16460BE00C68640818
:101E30005460D66E154C26400525ED017619D66600
:101E400016467036376827402F433760D46A4E4DA8
:101E50002C40D462146B2C4014630024D4641465A9
:101E60008F24E443D56F2540D5671D6825401D604C
:101E700049790143BD2008401168074B0B40C01849
:101E8000801C1060F0BDC0468418000024493E004C
:101E900001040000FFFFFFCF4000FFCFB0B54A684C
:101EA000364BC250364A80180A78222A58D89300F6
:101EB00001A4E3589F46C046571F0000611F000061
:101EC000571F0000611F0000611F0000611F00001C
:101ED000611F0000611F0000611F0000611F000002
:101EE000611F0000611F0000611F0000611F0000F2
:101EF000611F0000611F0000451F0000611F0000FE
:101F0000451F0000611F0000611F0000611F0000ED
:101F1000611F0000611F0000611F0000611F0000C1
:101F2000611F0000611F0000611F0000611F0000B1
:101F3000611F0000611F0000451F0000611F0000BD
:101F4000451F000003231B0704689C4301235B0714
:101F5000E318036004E003231B0704689C43046048
:101F60000B69C360CB68074C1C40C36A064D1D401B
:101F70002B19C362097A11430160B0BD0818000033
:101F800004180000777702008888FDFF10B507234A
:101F90009B04194092008018024A84589C4361189F
:101FA000815010BD3018000010B5029CA40000192B
:101FB00011431943014A815010BDC046501800001A
:101FC00092008018014A81507047C04610180000E6
:101FD00010B50122120383180C789C604B78835053
:101FE0008978014A815010BD0C110000B0B5112252
:101FF000120283580124A34383500B888C781C431E
:102000008B882343094C1C408358094D1D4063199C
:1020100083508B79CC791C43097A21437E23194064
:10202000801842689A4351184160B0BD186700009B
:10203000E798FDFF10B50122120383180C789C600D
:102040004978815010BD000010B50C46FEF79EFA8D
:102050000146204604F08EFB0E49FEF79DF910BDA7
:10206000B0B5002911D00C46FEF790FA084904F0EB
:1020700081FB05462046FEF791FA064904F07AFBFB
:1020800001462846FEF788F9B0BD0020B0BDC04625
:1020900000606A4700004344374800210160384827
:1020A00001607047EFF3108272B6334A1368036021
:1020B000334803680B6000211160016062B670470D
:1020C000F0B581B02849084610380068274B034016
:1020D000274C2246103A12680D681D430D601121ED
:1020E0000905114025680D4325600124A60600213D
:1020F000C94385011F4D0AD52F6837420F4600D0CE
:1021000027461D4D2D687D191B4F3D60194DB3426B
:102110000AD363062C681C4201D00B4600E0012361
:10212000154C25685B19236001231D06D402134C4E
:1021300009D526682E420E4600D01E46104F3C6838
:1021400034193C600D4C2A4208D01A05236813420A
:1021500000D101210A4A1368C918116009490840D1
:1021600003F000FA01B0F0BD48100A400002400739
:1021700048300A4080130A409401202080330A40EE
:1021800098012020000240016F4800210170704832
:102190000170754801706B4801606C4801607148BE
:1021A0000160704768480078011F48424841704705
:1021B00010B50446644801210170654804706A48FE
:1021C000002101705F4801606048016000F0D0F8B4
:1021D00064490860002C01D0FFF798F810BDC04694
:1021E000F0B581B0584F3978FB22114200D1A6E0FA
:1021F000544A1368984200D1A1E01060032968D0C6
:1022000002292BD0012900D099E0514800780226FC
:10221000012800D092E0FFF719F8504D2946FFF74A
:1022200013FF0446FFF71AF82946FFF70DFF4C4944
:102230000C400140204604F003FA3F21090604F057
:1022400099FA4A4904F0E3F9002878D14648002178
:10225000017000F08DF8434908606FE03C490A784E
:10226000012A06463CD100F083F83E490A689042B4
:1022700065D008603C4D2C7800F084FA782101404C
:1022800078394A424A413C2101403C394B424B415A
:1022900013431E2210401E38414241411943600041
:1022A000024053182B704AD0012B0FD001231C4041
:1022B0006118042A0AD34307DB0F5918082A05D3EB
:1022C0000007C00F4118100900D0411802292FD271
:1022D00035E01E490968401A962830D304262DE0BF
:1022E0000021032A01D00C4600E01A4C022A00D13A
:1022F000194C204604F08BF9002820D1FEF7A6FFE8
:102300001649FFF7A1FE0546FEF7A8FF1349FFF7A0
:102310009BFE13490D400140284604F091F93F21EE
:10232000090604F027FA214604F07EF9002806D1B8
:102330000020FFF723F80548066003263E7001B031
:10234000F0BDC0462C02202054022020A4012020F1
:10235000690220209AD928440000344342E0A54174
:10236000FFFFFF7F24022020FC0220209A99F543E2
:10237000504800687047C046F0B581B0002500287D
:102380000AD005604A490E7871B2002E03D0FF2EA4
:1023900005D1012500E00D46E8B201B0F0BD0246CE
:1023A0002027374035480840CBB2DC09730600923D
:1023B00008D4002921DA0023002F21D000290AD5D2
:1023C0000025E9E72E4904F03BF9641C002F02D1F7
:1023D000F106E1D147E02B4904F032F9641C0021F9
:1023E0000123F7060FD40B46370717D41946770792
:1023F0001FD40B46B70727D42DE00123002FDDD1D2
:102400001946F706EFD5002BC6D0BF21090604F008
:1024100017F9641C002301213707E7D50029BBD039
:102420003F21090604F00CF9641C00210123770701
:10243000DFD5002BB0D0FF21890504F001F9641C21
:1024400000230121B70706D50029A5D00E4904F0C5
:10245000F7F8641C0123F10705D0002B9CD00B4931
:1024600004F0EEF8641C05462046FEF797F8014696
:102470002846FDF791FF009908608AE70000A0C098
:10248000000040C00000C0BF000040400000A0406D
:10249000BE48002101700548016041600448017098
:1024A000B64805220270B64801607047000220203D
:1024B00008022020C0022020B0480078052801D35F
:1024C0000020704701207047F0B581B068460521B3
:1024D0000170A44EA44F3846316889064AD4316849
:1024E000890647D43168890644D43168890641D4C5
:1024F000316889063ED4316889063BD43168890643
:1025000038D43168890635D43168890632D43168C7
:1025100089062FD4316889062CD43168890629D4DC
:102520003168890626D43168890623D43168890642
:1025300020D4316889061DD4316889061AD43168DF
:10254000890617D43168890614D43168890611D4F4
:10255000316889060ED4316889060BD43168890642
:1025600008D43168890605D43168890602D4193047
:10257000B2D1CBE07D4D2846FFF7E4FA694601244D
:1025800028462246FFF7C7FA304608380168784ADD
:102590001140BA310160311F0A68764B1A40764DFE
:1025A00052190A603A4633685B064AD533685B06BF
:1025B00047D533685B0644D533685B0641D533683D
:1025C0005B063ED533685B063BD533685B0638D582
:1025D00033685B0635D533685B0632D533685B06F6
:1025E0002FD533685B062CD533685B0629D5336855
:1025F0005B0626D533685B0623D533685B0620D59A
:1026000033685B061DD533685B061AD533685B06F5
:1026100017D533685B0614D533685B0611D533686C
:102620005B060ED533685B060BD533685B0608D5B1
:1026300033685B0605D533685B0602D51932B2D123
:1026400064E03268920761D43A4633689B064AD404
:1026500033689B0647D433689B0644D433689B0693
:1026600041D433689B063ED433689B063BD4336821
:102670009B0638D433689B0635D433689B0632D426
:1026800033689B062FD433689B062CD433689B0693
:1026900029D433689B0626D433689B0623D4336839
:1026A0009B0620D433689B061DD433689B061AD43E
:1026B00033689B0617D433689B0614D433689B0693
:1026C00011D433689B060ED433689B060BD4336851
:1026D0009B0608D433689B0605D433689B0602D456
:1026E0001932B2D112E00268214B1A40BB231343C6
:1026F000036008681F4A104028430860706A00079A
:1027000011D17F1C02D230688007F7D51B490878A9
:102710000024042822D8421C0A7004281ED17648BE
:10272000002404701AE070680107090EC0B20009A5
:1027300040188108332211401040800008184108D9
:10274000552211401040400008186B4908700B4892
:10275000002101700A480168491C0160204601B04F
:10276000F0BDC04618120F40E0B1FFFF00000F405F
:1027700000F8FFFFF8FF00F007000100FD01202036
:10278000C00220205C4800787047C046A402202088
:10279000B0B5002058490D56EBB2584A1478584845
:1027A0000178002D08D4002C03D0641E1470240678
:1027B0000CD17F24214008E0022C03D8651C157041
:1027C000022C03D17F24E4432143017054785D0639
:1027D00008D4002C03D0641E547024060BD1BF24EF
:1027E000214007E0022C03D8651C5570022C02D151
:1027F00040242143017094789D0608D4002C03D016
:10280000641E947024060BD1DF24214007E0022CC3
:1028100003D8651C9570022C02D12024214301703D
:10282000D478DD0608D4002C03D0641ED4702406AE
:102830000BD1EF24214007E0022C03D8651CD57092
:10284000022C02D110242143017014791D0708D4F1
:10285000002C03D0641E147124060BD1F7242140F0
:1028600007E0022C03D8651C1571022C02D1082444
:102870002143017054795D0708D4002C03D0641EF5
:10288000547124060BD1FB24214007E0022C03D80D
:10289000651C5571022C02D10424214301709479E6
:1028A0009D0708D4002C03D0641E947124060BD11C
:1028B000FD24214007E0022C03D8651C9571022CF1
:1028C00002D1022421430170D479DB0706D1002C08
:1028D0000ED0631ED3711A060AD0B0BD022C03D8E5
:1028E000631CD371022CF8D1012211430170B0BDD9
:1028F000FE2211400170B0BDA40220200002202061
:102900000802202070B5464C0025204629462A465C
:10291000FFF756FB0126204629463246FFF750FBBB
:10292000B003044908607003086030040860700454
:10293000086070BD90120A4070B5394C00252046E1
:1029400029462A46FFF73CFB012620462946324607
:10295000FFF736FBB003924908607003086030044B
:1029600008607004086070BDF0B581B005460124B0
:10297000A2038B48012904DB0346103B1A60024680
:1029800005E002600029024601D00246103A6303C6
:1029900013602204012D03DB0346103B1A6003E0A1
:1029A0000260002D00D01038620402600E4FB94260
:1029B00000DC39460D4EB14200DB3146C8174140BC
:1029C000091A17480022FFF7FBFABD4200DC3D461A
:1029D000B54200DB3546E8174540291A1048224623
:1029E000FFF7EEFA01B0F0BD88E1FFFF781E0000AE
:1029F00070B50B4C0025204629462A46FFF7E0FA21
:102A00000126204629463246FFF7DAFAB003644928
:102A1000086070030860300408607004086070BDCE
:102A200000208640F0B587B0012007070490C50755
:102A300000245B4E204605E00298401C01990729BE
:102A400000D3AAE00290C1B22046019103F0C4F87D
:102A5000204606E0176062B60398401C40B200288A
:102A6000EAD40390EFF3108172B60498C1034D4885
:102A70000160234604E08B1C049801430729E9D236
:102A80001946376035600594059A172A1BD800BF90
:102A9000059A521C0592059A172A14D800BF059A68
:102AA000521C0592059A172A0DD800BF059A521C90
:102AB0000592059A172A06D800BF059A521C05925E
:102AC000059A182AE3D33246103A1760002306937A
:102AD000069817281BD800BF0698401C0690069839
:102AE000172814D800BF0698401C0690069817288F
:102AF0000DD800BF0698401C06900698172806D8E7
:102B000000BF0698401C069006981828E3D337604B
:102B100035600593059817281BD800BF0598401C01
:102B200005900598172814D800BF0598401C0590FB
:102B3000059817280DD800BF0598401C05900598EA
:102B4000172806D800BF0598401C0590059818283E
:102B5000E3D317600693069817288CD800BF069811
:102B6000401C06900698172885D800BF0698401C80
:102B700006900698172800D97DE700BF0698401CEC
:102B800006900698172800D975E700BF0698401CE4
:102B9000069006981828E1D36DE707B0F0BDC0464F
:102BA000A0120A4090320A40F0B583B0E34D103DC8
:102BB0000126B7032F60E24C2046FEF7A7FF204610
:102BC000FEF7A4FF2046FEF7A1FF2046FEF79EFF7A
:102BD0002046FEF79BFF2046FEF798FF2046FEF7B3
:102BE00095FF2046FEF792FF2046FEF78FFF204616
:102BF000FEF78CFFD14807602046FEF787FF20468E
:102C0000FEF784FF2046FEF781FF2046FEF77EFF99
:102C10002046FEF77BFF2046FEF778FF2046FEF7B2
:102C200075FF2046FEF772FF2046FEF76FFF204635
:102C3000FEF76CFF2046FEF769FF2046FEF766FFB1
:102C40002046FEF763FF2046FEF760FF2046FEF7B2
:102C50005DFF2046FEF75AFF2046FEF757FF20464D
:102C6000FEF754FF2046FEF751FF2046FEF74EFFC9
:102C70002F602046FEF74AFF2046FEF747FF20461A
:102C8000FEF744FF2046FEF741FF2046FEF73EFFD9
:102C90002046FEF73BFF2046FEF738FF2046FEF7B2
:102CA00035FF2046FEF732FF2046FEF72FFF204675
:102CB000FEF72CFF2046FEF729FF2046FEF726FFF1
:102CC0002046FEF723FF2046FEF720FF2046FEF7B2
:102CD0001DFF2046FEF71AFF2046FEF717FF20468D
:102CE000FEF714FF2046FEF711FFEFF3108072B6D7
:102CF000F0030190914908603007F107AE240023EA
:102D0000904A03E07B1C6400072F4CD21F461061E1
:102D100063B2002B01DA134601E013461033196049
:102D200000250295029B172B1BD800BF029B5B1C42
:102D30000293029B172B14D800BF029B5B1C0293CB
:102D4000029B172B0DD800BF029B5B1C0293029BBA
:102D5000172B06D800BF029B5B1C0293029B182B0B
:102D6000E3D310600295029B172BCBD800BF029BC8
:102D70005B1C0293029B172BC4D800BF029B5B1CF9
:102D80000293029B172BBDD800BF029B5B1C0293D2
:102D9000029B172BB6D800BF029B5B1C0293029BC1
:102DA000182BE3D3AEE7106062B6EFF3108372B670
:102DB000624B019C1C60202403E05D1C6400072B17
:102DC0004CD22B46106165B2002D01DA154601E0A8
:102DD00015461035296000270297029D172D1BD834
:102DE00000BF029D6D1C0295029D172D14D800BFD7
:102DF000029D6D1C0295029D172D0DD800BF029DEE
:102E00006D1C0295029D172D06D800BF029D6D1CFA
:102E10000295029D182DE3D310600297029D172D95
:102E2000CBD800BF029D6D1C0295029D172DC4D802
:102E300000BF029D6D1C0295029D172DBDD800BFDD
:102E4000029D6D1C0295029D172DB6D800BF029DF4
:102E50006D1C0295029D182DE3D3AEE7106062B69B
:102E6000EFF3108372B6354B019C1C60102403E015
:102E70005F1C6400072B4CD23B46106165B2002DED
:102E800001DA154601E01546103529600025029546
:102E9000029F172F1BD800BF029F7F1C0297029F23
:102EA000172F14D800BF029F7F1C0297029F172F75
:102EB0000DD800BF029F7F1C0297029F172F06D8D4
:102EC00000BF029F7F1C0297029F182FE3D3106060
:102ED0000295029F172FCBD800BF029F7F1C02973D
:102EE000029F172FC4D800BF029F7F1C0297029F2A
:102EF000172FBDD800BF029F7F1C0297029F172F7C
:102F0000B6D800BF029F7F1C0297029F182FE3D301
:102F1000AEE7106062B6EFF3108372B6074B019C08
:102F20001C60B02403E05D1C6400072B52D22B46CA
:102F3000106165B2002D07DA154607E0A0320A409D
:102F40008038010090120A4015461035296000278C
:102F50000297029D172D1BD800BF029D6D1C029584
:102F6000029D172D14D800BF029D6D1C0295029D75
:102F7000172D0DD800BF029D6D1C0295029D172DC7
:102F800006D800BF029D6D1C0295029D182DE3D34B
:102F900010600297029D172DC5D800BF029D6D1CC1
:102FA0000295029D172DBED800BF029D6D1C029593
:102FB000029D172DB7D800BF029D6D1C0295029D82
:102FC000172DB0D800BF029D6D1C0295029D182DD3
:102FD000E3D3A8E7106062B6EFF3108372B6DD4B5F
:102FE000019C1C60C82503E05F1C6D00072B4CD2C0
:102FF0003B4610616CB2002C01DA144601E0144625
:103000001034216000240294029F172F1BD800BFA8
:10301000029F7F1C0297029F172F14D800BF029FA8
:103020007F1C0297029F172F0DD800BF029F7F1CA5
:103030000297029F172F06D800BF029F7F1C02979E
:10304000029F182FE3D310600294029F172FCBD852
:1030500000BF029F7F1C0297029F172FC4D800BF9A
:10306000029F7F1C0297029F172FBDD800BF029FAF
:103070007F1C0297029F172FB6D800BF029F7F1CAC
:103080000297029F182FE3D3AEE7106062B6EFF30A
:10309000108372B6AF4B019D1D60234604E0BB1C3C
:1030A0003743072F00D38AE01F4610611161029455
:1030B000029B172B1BD800BF029B5B1C0293029B39
:1030C000172B14D800BF029B5B1C0293029B172B8B
:1030D0000DD800BF029B5B1C0293029B172B06D8E6
:1030E00000BF029B5B1C0293029B182BE3D3106072
:1030F00000250295029B172B1BD800BF029B5B1C6F
:103100000293029B172B14D800BF029B5B1C0293F7
:10311000029B172B0DD800BF029B5B1C0293029BE6
:10312000172B06D800BF029B5B1C0293029B182B37
:10313000E3D3106111610295029B172B1BD800BFCE
:10314000029B5B1C0293029B172B14D800BF029BAF
:103150005B1C0293029B172B0DD800BF029B5B1CCC
:103160000293029B172B06D800BF029B5B1C0293A5
:10317000029B182BE3D310600295029B172B8ED86D
:1031800000BF029B5B1C0293029B172B87D800BFDA
:10319000029B5B1C0293029B172B00D97FE700BFA9
:1031A000029B5B1C0293029B172B00D977E700BFA1
:1031B000029B5B1C0293029B182BE1D36FE710600C
:1031C00062B6EFF3108372B6624B019C1C60102450
:1031D00003E05D1C6400072B4CD22B46106165B2E6
:1031E000002D01DA154601E015461035296000274B
:1031F0000297029D172D1BD800BF029D6D1C0295E2
:10320000029D172D14D800BF029D6D1C0295029DD2
:10321000172D0DD800BF029D6D1C0295029D172D24
:1032200006D800BF029D6D1C0295029D182DE3D3A8
:1032300010600297029D172DCBD800BF029D6D1C18
:103240000295029D172DC4D800BF029D6D1C0295EA
:10325000029D172DBDD800BF029D6D1C0295029DD9
:10326000172DB6D800BF029D6D1C0295029D182D2A
:10327000E3D3AEE7106062B6EFF3108372B6354B5E
:10328000019C1C60402403E05F1C6400072B4CD2AF
:103290003B46106165B2002D01DA154601E0154686
:1032A0001035296000250295029F172F1BD800BFFB
:1032B000029F7F1C0297029F172F14D800BF029F06
:1032C0007F1C0297029F172F0DD800BF029F7F1C03
:1032D0000297029F172F06D800BF029F7F1C0297FC
:1032E000029F182FE3D310600295029F172FCBD8AF
:1032F00000BF029F7F1C0297029F172FC4D800BFF8
:10330000029F7F1C0297029F172FBDD800BF029F0C
:103310007F1C0297029F172FB6D800BF029F7F1C09
:103320000297029F182FE3D3AEE7106062B6EFF367
:10333000108372B6074B019C1C60812403E05D1C66
:103340006400072B4ED22B46106165B2002D03DAC4
:10335000154603E0A0320A401546103529600027C3
:103360000297029D172D1BD800BF029D6D1C029570
:10337000029D172D14D800BF029D6D1C0295029D61
:10338000172D0DD800BF029D6D1C0295029D172DB3
:1033900006D800BF029D6D1C0295029D182DE3D337
:1033A00010600297029D172DC9D800BF029D6D1CA9
:1033B0000295029D172DC2D800BF029D6D1C02957B
:1033C000029D172DBBD800BF029D6D1C0295029D6A
:1033D000172DB4D800BF029D6D1C0295029D182DBB
:1033E000E3D3ACE7106062B6EFF3108372B6EB4B39
:1033F000019C1C607F2403E05F1C6400072B4CD2FF
:103400003B46106165B2002D01DA154601E0154614
:103410001035296000250295029F172F1BD800BF89
:10342000029F7F1C0297029F172F14D800BF029F94
:103430007F1C0297029F172F0DD800BF029F7F1C91
:103440000297029F172F06D800BF029F7F1C02978A
:10345000029F182FE3D310600295029F172FCBD83D
:1034600000BF029F7F1C0297029F172FC4D800BF86
:10347000029F7F1C0297029F172FBDD800BF029F9B
:103480007F1C0297029F172FB6D800BF029F7F1C98
:103490000297029F182FE3D3AEE7106062B6EFF3F6
:1034A000108372B6BD4B019C1C60A12403E05D1C1F
:1034B0006400072B4CD22B46106165B2002D01DA57
:1034C000154601E015461035296000270297029D38
:1034D000172D1BD800BF029D6D1C0295029D172D54
:1034E00014D800BF029D6D1C0295029D172D0DD8AA
:1034F00000BF029D6D1C0295029D172D06D800BFCE
:10350000029D6D1C0295029D182DE3D31060029759
:10351000029D172DCBD800BF029D6D1C0295029D08
:10352000172DC4D800BF029D6D1C0295029D172D5A
:10353000BDD800BF029D6D1C0295029D172DB6D807
:1035400000BF029D6D1C0295029D182DE3D3AEE7CE
:10355000106062B6EFF3108372B6904B019C1C6052
:10356000A62403E05F1C6400072B4CD23B4610618D
:1035700065B2002D01DA154601E0154610352960C7
:1035800000250295029F172F1BD800BF029F7F1CAA
:103590000297029F172F14D800BF029F7F1C02972B
:1035A000029F172F0DD800BF029F7F1C0297029F1A
:1035B000172F06D800BF029F7F1C0297029F182F6B
:1035C000E3D310600295029F172FCBD800BF029F54
:1035D0007F1C0297029F172FC4D800BF029F7F1C39
:1035E0000297029F172FBDD800BF029F7F1C029732
:1035F000029F172FB6D800BF029F7F1C0297029F21
:10360000182FE3D3AEE7106062B6EFF3108372B603
:10361000624B019C1C60A82403E05D1C6400072B26
:103620004CD22B46106165B2002D01DA154601E03F
:1036300015461035296000270297029D172D1BD8CB
:1036400000BF029D6D1C0295029D172D14D800BF6E
:10365000029D6D1C0295029D172D0DD800BF029D85
:103660006D1C0295029D172D06D800BF029D6D1C92
:103670000295029D182DE3D310600297029D172D2D
:10368000CBD800BF029D6D1C0295029D172DC4D89A
:1036900000BF029D6D1C0295029D172DBDD800BF75
:1036A000029D6D1C0295029D172DB6D800BF029D8C
:1036B0006D1C0295029D182DE3D3AEE7106062B633
:1036C000EFF3108372B6354B019C1C603F2403E07E
:1036D0005F1C6400072B4CD23B46106165B2002D85
:1036E00001DA154601E015461035296000250295DE
:1036F000029F172F1BD800BF029F7F1C0297029FBB
:10370000172F14D800BF029F7F1C0297029F172F0C
:103710000DD800BF029F7F1C0297029F172F06D86B
:1037200000BF029F7F1C0297029F182FE3D31060F7
:103730000295029F172FCBD800BF029F7F1C0297D4
:10374000029F172FC4D800BF029F7F1C0297029FC1
:10375000172FBDD800BF029F7F1C0297029F172F13
:10376000B6D800BF029F7F1C0297029F182FE3D399
:10377000AEE7106062B6EFF3108372B6074B019CA0
:103780001C60A42403E05D1C6400072B4ED22B4672
:10379000106165B2002D03DA154603E0A0320A403D
:1037A00015461035296000270297029D172D1BD85A
:1037B00000BF029D6D1C0295029D172D14D800BFFD
:1037C000029D6D1C0295029D172D0DD800BF029D14
:1037D0006D1C0295029D172D06D800BF029D6D1C21
:1037E0000295029D182DE3D310600297029D172DBC
:1037F000C9D800BF029D6D1C0295029D172DC2D82D
:1038000000BF029D6D1C0295029D172DBBD800BF05
:10381000029D6D1C0295029D172DB4D800BF029D1C
:103820006D1C0295029D182DE3D3ACE7106062B6C3
:10383000EFF3108372B6F64B019C1C60D32503E0B6
:103840005F1C6D00072B4CD23B4610616CB2002C04
:1038500001DA144601E01446103421600024029479
:10386000029F172F1BD800BF029F7F1C0297029F49
:10387000172F14D800BF029F7F1C0297029F172F9B
:103880000DD800BF029F7F1C0297029F172F06D8FA
:1038900000BF029F7F1C0297029F182FE3D3106086
:1038A0000294029F172FCBD800BF029F7F1C029764
:1038B000029F172FC4D800BF029F7F1C0297029F50
:1038C000172FBDD800BF029F7F1C0297029F172FA2
:1038D000B6D800BF029F7F1C0297029F182FE3D328
:1038E000AEE7106062B6EFF3108372B6C84B019D6D
:1038F0001D60234604E0BB1C3743072F00D38AE03A
:103900001F46106111610294029B172B1BD800BF48
:10391000029B5B1C0293029B172B14D800BF029BD7
:103920005B1C0293029B172B0DD800BF029B5B1CF4
:103930000293029B172B06D800BF029B5B1C0293CD
:10394000029B182BE3D3106000250295029B172BD6
:103950001BD800BF029B5B1C0293029B172B14D841
:1039600000BF029B5B1C0293029B172B0DD800BF6C
:10397000029B5B1C0293029B172B06D800BF029B85
:103980005B1C0293029B182BE3D31061116102951B
:10399000029B172B1BD800BF029B5B1C0293029B50
:1039A000172B14D800BF029B5B1C0293029B172BA2
:1039B0000DD800BF029B5B1C0293029B172B06D8FD
:1039C00000BF029B5B1C0293029B182BE3D3106089
:1039D0000295029B172B8ED800BF029B5B1C0293A3
:1039E000029B172B87D800BF029B5B1C0293029B94
:1039F000172B00D97FE700BF029B5B1C0293029B41
:103A0000172B00D977E700BF029B5B1C0293029B38
:103A1000182BE1D36FE7106062B6EFF3108372B634
:103A20007B4B019C1C60D52403E05D1C6400072BCC
:103A30004CD22B46106165B2002D01DA154601E02B
:103A400015461035296000270297029D172D1BD8B7
:103A500000BF029D6D1C0295029D172D14D800BF5A
:103A6000029D6D1C0295029D172D0DD800BF029D71
:103A70006D1C0295029D172D06D800BF029D6D1C7E
:103A80000295029D182DE3D310600297029D172D19
:103A9000CBD800BF029D6D1C0295029D172DC4D886
:103AA00000BF029D6D1C0295029D172DBDD800BF61
:103AB000029D6D1C0295029D172DB6D800BF029D78
:103AC0006D1C0295029D182DE3D3AEE7106062B61F
:103AD000EFF3108372B64E4B019C1C603B4605E031
:103AE000AF1C3543072D334600D393E03D461061AC
:103AF000DB0701D1134601E013461033196000249F
:103B00000294029B172B1BD800BF029B5B1C0293E5
:103B1000029B172B14D800BF029B5B1C0293029BD5
:103B2000172B0DD800BF029B5B1C0293029B172B27
:103B300006D800BF029B5B1C0293029B182BE3D3A9
:103B400010600294029B172B1BD800BF029B5B1CCA
:103B50000293029B172B14D800BF029B5B1C02939D
:103B6000029B172B0DD800BF029B5B1C0293029B8C
:103B7000172B06D800BF029B5B1C0293029B182BDD
:103B8000E3D3106111610294029B172B1BD800BF75
:103B9000029B5B1C0293029B172B14D800BF029B55
:103BA0005B1C0293029B172B0DD800BF029B5B1C72
:103BB0000293029B172B06D800BF029B5B1C02934B
:103BC000029B182BE3D310600294029B172B87D81B
:103BD00000BF029B5B1C0293029B172B00D97FE75F
:103BE00000BF029B5B1C0293029B172B00D977E757
:103BF00000BF029B5B1C0293029B172B00D96FE74F
:103C000000BF029B5B1C0293029B182BE0D367E76B
:103C1000A0320A40106062B6EFF3108372B6EB4B2D
:103C2000019D1D60D92503E05C1C6D00072B4CD263
:103C3000234610616CB2002C01DA144601E01446F0
:103C40001034216000260296029C172C1BD800BF5E
:103C5000029C641C0294029C172C14D800BF029C86
:103C6000641C0294029C172C0DD800BF029C641C9B
:103C70000294029C172C06D800BF029C641C02947C
:103C8000029C182CE3D310600296029C172CCBD810
:103C900000BF029C641C0294029C172CC4D800BF75
:103CA000029C641C0294029C172CBDD800BF029C8D
:103CB000641C0294029C172CB6D800BF029C641CA2
:103CC0000294029C182CE3D3AEE7106062B6EFF3C7
:103CD000108372B6BD4B019C1C60222403E05E1C65
:103CE0006400072B4CD23346106165B2002D01DA17
:103CF000154601E015461035296000250295029E03
:103D0000172E1BD800BF029E761C0296029E172E0D
:103D100014D800BF029E761C0296029E172E0DD864
:103D200000BF029E761C0296029E172E06D800BF88
:103D3000029E761C0296029E182EE3D31060029516
:103D4000029E172ECBD800BF029E761C0296029EC2
:103D5000172EC4D800BF029E761C0296029E172E14
:103D6000BDD800BF029E761C0296029E172EB6D8C2
:103D700000BF029E761C0296029E182EE3D3AEE789
:103D8000106062B6EFF3108372B6904B019C1C601A
:103D9000DA2403E05D1C6400072B4CD22B46106133
:103DA00065B2002D01DA154601E01546103529608F
:103DB00000260296029D172D1BD800BF029D6D1C88
:103DC0000295029D172D14D800BF029D6D1C02950F
:103DD000029D172D0DD800BF029D6D1C0295029DFE
:103DE000172D06D800BF029D6D1C0295029D182D4F
:103DF000E3D310600296029D172DCBD800BF029D21
:103E00006D1C0295029D172DC4D800BF029D6D1C2C
:103E10000295029D172DBDD800BF029D6D1C029515
:103E2000029D172DB6D800BF029D6D1C0295029D04
:103E3000182DE3D3AEE7106062B6EFF3108372B6CD
:103E4000624B019C1C60122403E05E1C6400072B83
:103E50004CD23346106165B2002D01DA154601E0FF
:103E600015461035296000250295029E172E1BD895
:103E700000BF029E761C0296029E172E14D800BF29
:103E8000029E761C0296029E172E0DD800BF029E3F
:103E9000761C0296029E172E06D800BF029E761C44
:103EA0000296029E182EE3D310600295029E172EF2
:103EB000CBD800BF029E761C0296029E172EC4D855
:103EC00000BF029E761C0296029E172EBDD800BF30
:103ED000029E761C0296029E172EB6D800BF029E46
:103EE000761C0296029E182EE3D3AEE7106062B6EF
:103EF000EFF3108372B6E44B019C1C60DB2403E0FB
:103F00005D1C6400072B4CD22B46106165B2002D5E
:103F100001DA154601E015461035296000260296A3
:103F2000029D172D1BD800BF029D6D1C0295029D9E
:103F3000172D14D800BF029D6D1C0295029D172DF0
:103F40000DD800BF029D6D1C0295029D172D06D84D
:103F500000BF029D6D1C0295029D182DE3D31060D9
:103F60000296029D172DCBD800BF029D6D1C0295B5
:103F7000029D172DC4D800BF029D6D1C0295029DA5
:103F8000172DBDD800BF029D6D1C0295029D172DF7
:103F9000B6D800BF029D6D1C0295029D182DE3D37B
:103FA000AEE7106062B6EFF3108372B6B64B019CB9
:103FB0001C60202403E05E1C6400072B4ED23346B5
:103FC000106165B2002D03DA154603E0A0320A4005
:103FD00015461035296000250295029E172E1BD824
:103FE00000BF029E761C0296029E172E14D800BFB8
:103FF000029E761C0296029E172E0DD800BF029ECE
:10400000761C0296029E172E06D800BF029E761CD2
:104010000296029E182EE3D310600295029E172E80
:10402000C9D800BF029E761C0296029E172EC2D8E7
:1040300000BF029E761C0296029E172EBBD800BFC0
:10404000029E761C0296029E172EB4D800BF029ED6
:10405000761C0296029E182EE3D3ACE7106062B67F
:10406000EFF3108372B6884B019C1C608D2403E033
:104070005D1C6400072B4CD22B46106165B2002DED
:1040800001DA154601E01546103529600026029632
:10409000029D172D1BD800BF029D6D1C0295029D2D
:1040A000172D14D800BF029D6D1C0295029D172D7F
:1040B0000DD800BF029D6D1C0295029D172D06D8DC
:1040C00000BF029D6D1C0295029D182DE3D3106068
:1040D0000296029D172DCBD800BF029D6D1C029544
:1040E000029D172DC4D800BF029D6D1C0295029D34
:1040F000172DBDD800BF029D6D1C0295029D172D86
:10410000B6D800BF029D6D1C0295029D182DE3D309
:10411000AEE7106062B6EFF3108372B65A4B019CA3
:104120001C60142403E05E1C6400072B4CD2334651
:10413000106165B2002D01DA154601E01546103513
:10414000296000250295029E172E1BD800BF029EF3
:10415000761C0296029E172E14D800BF029E761C73
:104160000296029E172E0DD800BF029E761C029664
:10417000029E172E06D800BF029E761C0296029E53
:10418000182EE3D310600295029E172ECBD800BFE5
:10419000029E761C0296029E172EC4D800BF029E75
:1041A000761C0296029E172EBDD800BF029E761C7A
:1041B0000296029E172EB6D800BF029E761C02966B
:1041C000029E182EE3D3AEE7106062B6EFF31083C1
:1041D00072B62D4B019C1C60AF2303E0651C5B0095
:1041E000072C4CD22C4610615DB2002D01DA154629
:1041F00001E015461035296000250295029E172E14
:104200001BD800BF029E761C0296029E172E14D861
:1042100000BF029E761C0296029E172E0DD800BF8C
:10422000029E761C0296029E172E06D800BF029EA2
:10423000761C0296029E182EE3D310600295029D12
:10424000172DCBD800BF029D6D1C0295029D172D26
:10425000C4D800BF029D6D1C0295029D172DBDD8CC
:1042600000BF029D6D1C0295029D172DB6D800BFA0
:10427000029D6D1C0295029D182DE3D3AEE71060E0
:1042800062B603B0F0BDC046A0320A40F0B585B0BA
:104290001346303BDBB2092B03D805225A43A54B0A
:1042A00008E01346413BDBB2192B00D902E105229D
:1042B0005A439F4B9A1802920EE1196062B6401C55
:1042C00005285AD0029C255CEFF3108472B6039C3B
:1042D0009A4E3460019E03E07E1C6D00072FECD2E5
:1042E000374619616CB2002C01DA1C4601E01C460D
:1042F0001034226000240494049E172E1BD800BFA3
:10430000049E761C0496049E172E14D800BF049EAB
:10431000761C0496049E172E0DD800BF049E761CB2
:104320000496049E172E06D800BF049E761C0496A1
:10433000049E182EE3D319600494049E172ECBD844
:1043400000BF049E761C0496049E172EC4D800BF9E
:10435000049E761C0496049E172EBDD800BF049EB2
:10436000761C0496049E172EB6D800BF049E761CB9
:104370000496049E182EE3D3AEE7EFF3108072B6D6
:1043800003986E4D28602046009F04E0A81C3D4322
:10439000072D00D38AE0054619611A610494049838
:1043A00017281BD800BF0498401C049004981728B5
:1043B00014D800BF0498401C0490049817280DD806
:1043C00000BF0498401C04900498172806D800BF2A
:1043D0000498401C049004981828E3D31960002026
:1043E0000490049E172E1BD800BF049E761C0496D2
:1043F000049E172E14D800BF049E761C0496049EBB
:10440000172E0DD800BF049E761C0496049E172E0E
:1044100006D800BF049E761C0496049E182EE3D393
:1044200019611A610490049E172E1BD800BF049EC8
:10443000761C0496049E172E14D800BF049E761C8A
:104440000496049E172E0DD800BF049E761C049679
:10445000049E172E06D800BF049E761C0496049E68
:10446000182EE3D319600490049817288ED800BF43
:104470000498401C04900498172887D800BF04981B
:10448000401C04900498172800D97FE700BF0498C7
:10449000401C04900498172800D977E700BF0498BF
:1044A000401C049004981828E1D36FE7196062B6A5
:1044B00005B0F0BD2B3A0F2A1CD812A30293C046B8
:1044C0007A44127952009744131517191B151515C4
:1044D000151515151515150701F07EFB0120C103F3
:1044E000039101070090C2070020134B0190E9E6F9
:1044F00006A2E0E60D4ADEE606A2DCE609A2DAE65E
:1045000006A2D8E6003636000000000008083E0883
:10451000080000000808080808000000201008042F
:104520000200000000606000000000004069000020
:10453000776900004569000090120A4090320A40F5
:10454000F0B58FB0039314460D4604900A27104629
:10455000394601F04BFF4743E11B302739430CAA92
:10456000117001260A2C02D20B96049F89E00A21C1
:10457000FBF712FE0A9739430CA84170642C049F84
:104580006ED36421204601F031FF0A21FBF704FEBF
:104590000A9801430CA88170E0087D2863D37D2030
:1045A000C100204601F022FF0A21FBF7F5FD0A9821
:1045B00001430CA8C1700026BF4884420B9655D316
:1045C000BD49204601F012FF0A21FBF7E5FD0A98DC
:1045D00001430CA80171B948844249D3B749204628
:1045E00001F004FF0A21FBF7D7FD0A9801430CA84C
:1045F0004171B34884423DD3B149204601F0F6FEF3
:104600000A21FBF7C9FD0A9801430CA88171AD4846
:10461000844231D3AB49204601F0E8FE0A21FBF782
:10462000BBFD0A9801430CA8C171A748844225D359
:10463000A549204601F0DAFE0A263146FBF7ACFD1B
:104640000A9801430CA80172A048844218D39F49DC
:10465000204601F0CBFE0A9908430CA9487210E0ED
:104660000B9602260DE00B9603260AE0042608E0CE
:10467000052606E0062604E0072602E0082600E0FC
:1046800009260A2C2CD30CA83118491E0A780C9B39
:1046900002700B700B98002822D170080CA97218B8
:1046A000921E13784C784B701470022818D00CA905
:1046B0007218D21E13788C788B70147003280FD068
:1046C0000CA97218121F1378CC78CB7014700428C0
:1046D00006D00CA83118491F0A780D9B02710B7087
:1046E0000399B14200D8CCE002958C1B01202246F0
:1046F0000240019249427140491C721E07920029F2
:104700007ED084430CA8001F0590002337460A93EF
:1047100006940AE00CA8089901709B1C0A98801C5A
:104720000A90B61CBF1CA3426DD003213A460A4032
:10473000354638460B9618D0751E0CA8465D0B9C66
:1047400006550B9E012A01D1781E0EE0B41E0CA85E
:10475000065D4655022A02D1B81E254605E00B9893
:10476000C51E0CA8425D0255F81E079A0A9C121934
:104770000992D6B2032E0DD3059A5519EE782E71F3
:10478000AE786A78AA70EE702A786A702D1F001FC2
:104790000206F3D10CA8202208920270781C014076
:1047A0000B9E751C00290FD00CA8825D4255012973
:1047B00035463846069C0FD0751E0CA8425D8255C2
:1047C000022903D1781E07E0069C05E0B11E0CA863
:1047D000425C4255B81E0D460999491CC9B20329CD
:1047E00098D305994919CA780A718A784D788D70DD
:1047F000CA700A784A70091F001F0206F3D189E7C0
:1048000000200A9037460198002802D102AFE0CF7D
:1048100037E003223A4007980A994018002A029D7F
:1048200007D0711E0CAB5C5C9C55012A03D17F1E26
:1048300010E031460EE0B31E0CACE55C6554022A74
:1048400002D1BF1E194604E0F11E0CAA545CD454D8
:10485000FF1E029DC0B20328039E0ED30CA80818A9
:10486000001FC1780171817842788270C17001782F
:104870004170001F3F1F3906F3D10CA820210170A1
:10488000049F0CA800218155142F12D8007800280D
:104890000FD00CA94C1CFEB2C2B230462946FFF71D
:1048A000F5FC132E05D8611C7F1C207800280C46CF
:1048B000F1D10FB0F0BDC04610270000A086010066
:1048C00040420F008096980000E1F50500CA9A3B2F
:1048D000F0B591B0029303910790002A01D42B20E8
:1048E00000E02D200EAD2870D0174240171A0A267E
:1048F0003846314601F07AFD4643B91B3024214346
:10490000697001230A2F04D21E46079D0A2F63D225
:1049100087E00D930A21FBF73FFC21430EA881702D
:10492000642F079D52D36421384601F05FFD0A21B0
:10493000FBF732FC21430EA8C170F8087D2847D34D
:104940007D20C100384601F051FD0A21FBF724FC0F
:1049500021430EA801710023B64887425ED30D9310
:10496000B449384601F042FD0A21FBF715FC21430A
:104970000EA84171B048874200D254E1AE49384692
:1049800001F034FD0A21FBF707FC21430EA88171D9
:10499000AA48874200D248E1A849384601F026FDDE
:1049A0000A21FBF7F9FB21430EA8C171A4488742F5
:1049B00000D23CE1A249384601F018FD0A21FBF77C
:1049C000EBFB21430EA80172082602E0022600E05C
:1049D00003260D9B0A2F24D30EA8815D42784170D7
:1049E0008255002B1DD170080EA97218521E137823
:1049F0008C788B701470022813D00EA97218921E36
:104A00001378CC78CB70147003280AD00EA8311814
:104A1000C91E0A780F9B02710B7002E004260A2F50
:104A2000DAD20299B142039F00D89AE08B1B012091
:104A30001A460240019249427140491C721E069278
:104A4000002900D18FE083430EA8401C0490002071
:104A500034460C90014605930FE00EA8089941706A
:104A60000A99891C0C98801C0C900B9EB61C0D9CFE
:104A7000A41C059B9942079D78D00A9103222346E6
:104A800013403746214617D00EA98F19895D7970DA
:104A9000771E012B01D1611E0EE00EA9CF5D8F554F
:104AA000B71E022B01D1A11E06E00EA9CB5D711825
:104AB000491E0B70F71EE11E0D940B9606980C9B79
:104AC000C0180990C3B2032B10D30498C3195F1EFA
:104AD0003D781D709D1E2C78DE1E307828703C704D
:104AE0001B1F18783070091F0806F0D10EA820216E
:104AF000089141700D9D691C0A400B9C631C002AA3
:104B000010D00EA82118C05C8870012A27462946BB
:104B100010D00EA8015DC154671E022A04D10D9861
:104B2000411E07E01F4605E00EA8C15D0155A71E06
:104B30000D98811E0998401CC0B203288DD304989B
:104B4000C219501E03781370931E1C78D51E2E7840
:104B50001E700470121F10782870091F0806F0D10B
:104B60007BE7314644E000200C9034460198002851
:104B700001D1039F3BE00323234006980C99411881
:104B8000002B039F08D00EA88219805D5070721E02
:104B9000012B03D1641E10E032460EE00EA8825CA9
:104BA0008255B21E022B01D1A41E06E00EA8825C23
:104BB0003018401E0270F21EE41EC8B2032812D341
:104BC0000EA81018411C481E02780A708A1E13781D
:104BD0002646CC1E257815700370091F08782070B2
:104BE000341F2006EFD10EA820214170079D0299A5
:104BF0000EA8091800224A70142D12D80078002837
:104C00000FD00EA94C1CEEB2C2B230463946FFF7A7
:104C10003DFB132E05D8611C6D1C207800280C4626
:104C2000F1D111B0F0BD0526D3E60626D1E6072660
:104C3000CFE6C04610270000A086010040420F00CA
:104C400080969800F0B581B005461078002810D005
:104C5000142D0ED80C46571CEEB2C2B23046214677
:104C6000FFF714FB3878002803D07F1C6D1C142E2E
:104C7000F2D301B0F0BD0000F0B595B016460F4676
:104C80000690002A079301D4002504E011A82D21E5
:104C90000170764201250A243046214601F0A6FB28
:104CA000049005942146FBF777FA11A840193024A7
:104CB000214301700120642E0F95109002D22A46E4
:104CC000054642E06421304601F090FB0A21FBF7E3
:104CD00063FA0F9A11A8101821434170F0087D283B
:104CE0002ED37D20C100304601F080FB0A21FBF766
:104CF00053FA0F9A11A8801821438170B748864251
:104D000020D3B649304601F071FB0A21FBF744FA83
:104D10000F9A11A810182143C17000201090B048BC
:104D2000864211D3AE49304601F060FB0A21FBF701
:104D300033FA0F9A11A8801821430171052504E068
:104D4000022502E0032500E00425642E079B24D3FE
:104D500011A90F980A1810780E900F9840190D900D
:104D60004118491E1846234634460E7816700F9A8D
:104D700026461C4603460E980870109800280CD151
:104D800011A90F984218507810900D984018801E65
:104D9000017851700F9A10990170AB4200D8F4E07D
:104DA00001A8D0C05C1B012021460140009159425E
:104DB0006940491C6B1E0B93531E0993002900D1B7
:104DC0008FE0844311A81018001F0A900021284684
:104DD00010910E46234608940DE011A90F9A8918E8
:104DE0000C9C0C700E9EB61C1099891C1091AD1C69
:104DF000801C9E4278D00E960326044634402F46EF
:104E000001461ED05119099B5F1911AAD75D57544D
:104E10006F1E012C01D1411E12E00F99C919DA1938
:104E200011AFBA5C7A54AF1E022C01D1811E07E08B
:104E30000F99C919DA1911ACA25C6254EF1EC11E98
:104E4000089B0B9A109C12190D92D2B2032A0DD313
:104E50000A9AD419E2782271A2786778A770E27072
:104E600022786270241F091F0A06F3D111A90F9A34
:104E7000891820240C940C70411C0E406C1C002ED0
:104E80001BD01119571911AAD45D5454012E2C4668
:104E9000014612D0099B591911AA515CD1556C1EBB
:104EA000022E01D1411E07E00F9909191A1911AC00
:104EB000A25C6254AC1E811E089B0D9A521CD2B299
:104EC000032A8AD30A9A1419E2782271A2786678A2
:104ED000A670E27022786270241F091F0A06F3D1BF
:104EE0007BE70020109028460099002903D1079DF8
:104EF00001AFD0CF49E0032303400B99109C09195F
:104F0000002B039F0CD0109111465219099C641973
:104F100011AE345DB4546A1E012B06D1401E17E059
:104F20002A46029E079D019C16E08C18099EB21825
:104F300011AEB25C3255AA1E022B01D1801E07E0D1
:104F40008B1809998A1811ACA25CE254EA1EC01EA3
:104F5000029E079D019C1099C9B2032910D30F9995
:104F6000511811AA8918091FCA780A718A784B78D2
:104F70008B70CA700A784A70091F001F0206F3D1AD
:104F800011A80F9A801820210170A918CAB211A87F
:104F90002E238354059A049B5A43B21A22434B1C76
:104FA000DBB2C254891CC9B200224254069D142DA2
:104FB00012D8007800280FD011A94C1CEEB2C2B252
:104FC00030463946FFF762F9132E05D8611C6D1C77
:104FD000207800280C46F1D115B0F0BD1027000054
:104FE000A086010080B507480749FCF76FFD074818
:104FF00000210160064807494161016801220A4316
:10500000026080BD00200040FC690000803100404B
:105010000031004071020000B0B5304988228A6337
:105020002F4804230360CA63082202602D4B8622A6
:105030001A600124220402602B4A951CDD66551C6F
:105040000D604D6064060D6825430D604D68254375
:105050004D6082240C654A658C65CA65234CDC6111
:10506000234C0C6681254D66DD609D605D619D6110
:105070009C659C66DC63DC648D67CD678D604D61EB
:105080009D625D609C635C65CC641A491A4B0B6041
:105090000B63823A19490B6813430B600A69184B7A
:1050A00013430B6117490A6A174B1A430A620A68CD
:1050B0001A430A6001463039144A0A6002601448F3
:1050C0000168144A0A4302601120000512490A6A65
:1050D00002430A620A6802430A60B0BD048042408B
:1050E000D0320A40848042408200040081000500E2
:1050F00081000600A0120A400070039090130A403D
:105100000030170028100A400002400700C20200C9
:10511000A0330A400001010028300A4010B5194CA4
:1051200019492046FCF786FF18492046FCF75EFF28
:105130000320C103164802688A4302600169B54A28
:105140000A401532026141692D220A4312218A4325
:105150004261426801210A4043688B439A184260C9
:105160004A04036813430360C26870231343C36097
:10517000C2680223134305229343C36002680A43B3
:10518000026010BD00001040046A0000066A0000C2
:105190000011104080B511481149FCF7E7FC0320CD
:1051A0004102104802680A43026001210A020368B2
:1051B000134303600022426109224262826B07238B
:1051C0009A4382631A02836B93438363826A042344
:1051D00013438362826A0A43826280BD00000F40EB
:1051E000106A000000120F4070B582B0194C1A49C5
:1051F0002046FCF7EDFE19492046FCF741FD00254D
:105200000095204629462A462B46FCF7CDFE20462F
:1052100029462A46FCF7BAFE204629462A46FCF7CC
:10522000CFFE01260096204629462A462B46FCF74B
:10523000BBFE204629463246FCF7A8FE20462946FA
:105240003246FCF7BDFE064886600321016002B0CD
:1052500070BDC04600208640126A0000186A000037
:1052600000318640B0B582B0144D15492846FCF790
:10527000AFFE14492846FCF7B1FD0124009400213B
:1052800028460A460B46FCF78FFEA1042846224614
:10529000FCF77CFE7D20810028462246FCF790FE2C
:1052A000094801461C390C600146243902220A6073
:1052B00001682143016002B0B0BDC04600A0864035
:1052C000206A0000246A000024B1864010B5094C11
:1052D00009492046FCF77CFE08492046FCF710FDF2
:1052E0000748016811220A43026006480121016053
:1052F00010BDC046000009403C6A00002C6A000056
:10530000281009400811094070B5184800240460AD
:105310000F200002164D29688143012670020818EB
:1053200028600320C043291F0A6802400A60686899
:10533000B043686030026968814369600D48FCF7DA
:1053400029FC286810210143202081432960300373
:105350002968014329602046FCF77EFCFF200002FB
:1053600005490A6882430A6070BDC04608030B40C5
:1053700004010B40406A000000E400E070470000B8
:1053800010B5084C08492046FCF722FE0749204684
:10539000FCF784FD064801680122114301600548BD
:1053A000026010BD00400840686A00006C6A00009E
:1053B000285008400851084010B5124C12492046A8
:1053C000FCF738FE11492046FCF710FE0320C1030C
:1053D0000F4802688A43026001690E4A0A4015328A
:1053E000026141692D220A4312218A4342614168C8
:1053F00001221140436893435918416001681143E9
:10540000016010BD00801040806A0000826A0000C8
:10541000009110400000FFFF80B500F023F8FFF777
:10542000FBFDFFF771FFFFF7DFFEFFF71BFFFFF745
:105430004DFFFFF7A5FFFFF7ADFEFFF7BDFFFFF73D
:105440006DFEFFF7CFFDFFF799FF7420034900229F
:105450000A54B82002490A5480BDC0461C012020CD
:1054600060002020F0B581B01448154A426015480C
:1054700042601548426015484260154D6A60154EFD
:105480007260154F7A60154B5A6015494A6015488D
:105490004260154A094C22600A4C22600A4C226084
:1054A0000A4C22602A6032603A601A600A60026028
:1054B0001020FCF72BFB01B0F0BDC04600080A40ED
:1054C000030000B100280A400028864000A886405A
:1054D000000809400048084000080F4000881040BC
:1054E000000810400028004001000026EFF3108063
:1054F000EFF3108172B6A34900220A70002800D091
:10550000704762B67047C046EFF31081002827D07D
:10551000EFF3108272B6884A12680260874A1268F6
:105520004260874A12688260544A1268C260544AD4
:1055300012680261534A12888282534A1278827535
:10554000002900D162B67F490A685202D20FC275A3
:105550000A68D201D20F027609688905C90F41761F
:105560007047C04670B50521890508423BD02149E6
:105570000A68520D022313400968C901C90FCC18EB
:105580001D4D297889006118CAB2012191401B4B39
:10559000194207D029788C4224D019490A68521C34
:1055A0000A601FE017A39B56634A1668F31813603E
:1055B000744B1B78002B15D0164B194204D013687E
:1055C0006F4E3668B34207DA134B19420AD011689E
:1055D0006A4A1268914205DC00210646084600F03E
:1055E00045F930462C70800503D554480168491CA4
:1055F000016070BD80130A4084022020699600007B
:105600001C02202000FF0100010000FFFF0000013C
:105610000001FF00142800008241000046490020DC
:105620000860464908604649086014490860144902
:105630000860144908801449087042490A68520DEC
:10564000022313400968C901C90FC9183E4A1170E5
:105650004C4908703D4801683D4A0A4302600B48C6
:10566000011F0B4A0A607D4904220A607C490A60D6
:10567000016801220A4302607047C0469802202058
:1056800094022020900220209C022020041809402F
:10569000FEFF000070B5EFF31081EFF3108272B6D9
:1056A000254A1268354B1B68354C2568354C2478E3
:1056B000002900D162B60121002819D0002C17D092
:1056C00001240021AA42254600DB0D46012826467A
:1056D00000DB0E462E43012E0AD19A4203DC002144
:1056E000002803DB03E00121002800DA0C462146F4
:1056F000084670BDEFF31081EFF3108272B60E4AC8
:1057000010600E48002202600D4802600D480268D9
:10571000520D022313400068C001C00FC0180A4A8E
:1057200010700A4802680A4B13430360002900D036
:10573000704762B67047C046A002202014022020A5
:105740001C02202080130A408402202048100A40B6
:1057500000024001EFF3108288420BDAEFF310836E
:1057600072B6064B186006480160064801210170B8
:10577000002A00D0704762B67047C0461003202050
:105780000C0320200803202070B5AE4E0024012514
:10579000304621462A46FCF7F9FB304621462A4688
:1057A000FCF70EFCA8480168A9430160A1480470F9
:1057B000A648046028032649086070BD0120000344
:1057C000014908607047C04690120A409A48006834
:1057D0007047C046F0B581B09748002505609548F0
:1057E00005701948411C954A1160984F3D609449D5
:1057F00008600124600415490860924E304629462D
:105800002246FCF7C3FB304629462246FCF7D8FB6C
:105810008D480168A1430160864805703D60200302
:105820000B4908600B480168C0220A433F218A43A4
:10583000026009480168214301602005E3490860CE
:10584000E349086001B0F0BDFFFFFF7FA0320A40CE
:10585000A0120A4014E400E028B0864080E200E094
:1058600000E100E07448002101607047F0B583B0AA
:10587000012825DB70490968714A126891422ADAC9
:1058800001230146434A91420C4600D314460F2996
:1058900021D9684909788B4234D16C4D28688442FB
:1058A0000CD03F48214600F0A1FD401E66494860EB
:1058B000410864480122FCF783FB2C6003B0F0BD73
:1058C000002808D55C4909685C4A1268914202DDEB
:1058D0004142FF23D6E75B4D00240126284621469E
:1058E0003246FCF753FB284621463246FCF768FB5C
:1058F00055480168B14301604E4804705348046044
:1059000003B0F0BD02934F4E0027012501903046B1
:1059100039462A46FCF73AFB304639462A46FCF718
:105920004FFBE843484E31680140316041490F70F8
:1059300046490F601849019A002A00DC10316A04B8
:105940000A60164A1168014011603E4839462A46ED
:10595000FCF71CFB1248214600F048FD401E706019
:10596000410838482A46FCF72BFB301F0760A90482
:1059700034482A46FCF70AFB0849086828430860AF
:105980002C48029901703148046030682843306027
:1059900003B0F0BD8813000090320A4024B1864065
:1059A00040420F0080B504480068C0B2012801D110
:1059B000FBF72CFD80BDC04620500840F0B581B0FB
:1059C0001B480068C0B2012825D10024194F385760
:1059D00001281DDB18480168491C0160006818494E
:1059E0000968884217DB174D0126284621463246B2
:1059F000FCF7CCFA284621463246FCF7E1FA124879
:105A00000168B14301603C701048046001B0F0BD12
:105A10003857002801D401B0F0BD07480168491E7D
:105A200001600068054909688842DCDDF3E7C0468B
:105A300020B08640F201202078022020640220203D
:105A40006002202000A0864004B886400C0220207E
:105A5000F0B581B019480068C0B2012829D00528E6
:105A60002AD1184F002538462946FCF743F9064647
:105A70001549012438460F462146FCF73BF9BE4242
:105A800011D0B91B381A88420DD8104A1160104A3B
:105A90001060E122120142434808101800F0A6FCF1
:105AA0000C4908802546064805700B48076001B080
:105AB000F0BD03480021017001B0F0BD2010094085
:105AC0009C02202000000940FEFF000098022020D8
:105AD000940220209002202000180940B0B50B4805
