:020000040000FA
:10000000280720206D01000071010000730100002D
:1000100000000000000000000000000000000000E0
:10002000000000000000000000000000750100005A
:1000300000000000000000007701000079010000CE
:100040007B01000099230000995C00007B01000007
:100050007B0100007B0100007B0100007B010000B0
:10006000000000007B0100007B0100000000000098
:1000700000000000255D00007B0100007B01000006
:10008000F15B00007B0100007B0100007B010000B0
:10009000095C00007B01000000000000000000007F
:1000A0007B0100007B010000000000000000000058
:1000B0007B010000000000007B0100007B010000CC
:1000C00000F002F800F042F812A030C808382418F6
:1000D0002D18AC4201D100F039F80FCCA246AB4646
:1000E0000CA730CF2D1B083F3F197C427F1E544484
:1000F0002D090426F441641EAC4201D300F026F819
:100100000126334200D0FB1A3343984754465D46DC
:10011000DFE70000546C0000646C00000000000089
:100120007047000000000000002300240025002686
:10013000103A01D378C1FBD8520700D330C100D5A3
:100140000B6070471FB51FBD10B510BD00F05CFA05
:100150001146FFF7F7FF05F001FE00F074FA03B453
:10016000FFF7F2FF03BC00F0C9FA000006480047A1
:10017000FEE7FEE7FEE7FEE7FEE7FEE70348044989
:10018000024A044B70470000C100000028032020F1
:100190002807202028032020002203098B4273D344
:1001A000030A8B4258D3030B8B423CD3030C8B4284
:1001B00021D312E003460B437FD4002243088B4235
:1001C00074D303098B425FD3030A8B4244D3030BDE
:1001D0008B4228D3030C8B420DD30902FF2212BAA3
:1001E000030C8B4202D31212090265D0030B8B421F
:1001F00019D300E0090AC30B8B4201D3CB03C01A09
:100200005241830B8B4201D38B03C01A5241430BE3
:100210008B4201D34B03C01A5241030B8B4201D3D3
:100220000B03C01A5241C30A8B4201D3CB02C01A3E
:100230005241830A8B4201D38B02C01A5241430AB6
:100240008B4201D34B02C01A5241030A8B4201D3A5
:100250000B02C01A5241CDD2C3098B4201D3CB014C
:10026000C01A524183098B4201D38B01C01A5241FB
:1002700043098B4201D34B01C01A524103098B42FF
:1002800001D30B01C01A5241C3088B4201D3CB00EA
:10029000C01A524183088B4201D38B00C01A5241CD
:1002A00043088B4201D34B00C01A5241411A00D27D
:1002B00001465241104670475DE0CA0F00D04942E6
:1002C000031000D3404253409C46002203098B4256
:1002D0002DD3030A8B4212D38901FC2212BA030ADE
:1002E0008B420CD3890192118B4208D38901921160
:1002F0008B4204D389013AD0921100E08909C309E5
:100300008B4201D3CB01C01A524183098B4201D3E6
:100310008B01C01A524143098B4201D34B01C01AD1
:10032000524103098B4201D30B01C01A5241C30849
:100330008B4201D3CB00C01A524183088B4201D3B8
:100340008B00C01A5241D9D243088B4201D34B00D3
:10035000C01A5241411A00D201465241104663462A
:100360005B1001D34042002B00D5494270476346E1
:100370005B1000D3404201B50449002802DC491C4F
:10038000084000E00846C046C04602BDFFFFFF7FB0
:100390007047704770470000F0B5FF252D04C6096F
:1003A000C209FF2704462E400137CB093E4348408F
:1003B0002A402B400746002A6BD0002B69D0AA4266
:1003C00067D0AB4265D0002800DA32460125ED0542
:1003D00029432C4309022002090AD21A4B0C7F241C
:1003E000E31A434C000A7C44E35C7D242404121984
:1003F00014145B00A218884201D3521C00E0400094
:1004000049420C465C4324115C43DB016415E3184C
:10041000040A5C43C502200D0C4644436419250AB6
:100420005D432303EC0C0D46654300030019EB18F4
:100430004C42A34201D35B18401CD4052018002B6A
:1004400007D05B00C91804D3401C002901D1400823
:1004500040003F2189048A4209D3002A08DC1106A2
:10046000090F04D0032149074018C00FC007F0BD91
:1004700001224100120689187F2252069142F6D2CB
:1004800005214907C84201D59010F0BDFF20C005E5
:10049000F0BD002F00DA32461648AA4207D2AB421E
:1004A00005D21902090E17D0F80FC007F0BDFF25BD
:1004B00063002D06AB42F9D84900A942F6D8AB42F9
:1004C00001D1A942F2D0A94201D1002101E061008D
:1004D0004908D0050843F0BD1102090EFBD0FF20EA
:1004E0000243D005F0BD0A460146104654E700001D
:1004F000426700000000C07F10B501469E24000244
:10050000CA15A307002A02D01843002A04DBA21A46
:10051000002A0CDDD04010BD1206120E01D14000A1
:100520004008A21A03D4D04040420028F3DDFF2245
:1005300048001206904201D9002010BDC817C043E0
:10054000584010BD1F22030C02D10F2200041CD002
:10055000030E01D10002083A030F01D10001121F5E
:10056000830F01D18000921E002801DB4000521E43
:10057000D2055118021251181922904004D3491C77
:10058000002801D14908490008467047C10FC90732
:1005900000D04042012292071143D3E7012189078D
:1005A000D0E7000010B5FF231B0644009C421DD875
:1005B0004C009C421AD80346124A0B4307D4401AF7
:1005C00002D3EFF3008010BDEFF3008010BD081AD6
:1005D00003D3EFF30080904305E0EFF300800121A7
:1005E0009043C907084380F3008810BD0D231B0406
:1005F0001A4204D01146002000F02DF810BD00F082
:1006000041F810BD00000090754600F043F8AE467A
:10061000050069465346C008C000854618B020B59D
:10062000FFF7ACFD60BCB64600260027C0C5C0C5BC
:10063000C0C5C0C5C0C5C0C5C0C5C0C5403D4908CE
:1006400049008D46704710B50446C046C046204656
:10065000FFF785FD10BDC80212D54803400F0028E2
:1006600004D0C803C043012188407047EFF30080E5
:100670000001000903210907084380F3008870473F
:100680000020704710B5024800F008F810BD0000C7
:100690000000C07F004870470000202010B50C46C5
:1006A0001107090F092904D00A290AD008290CD1F9
:1006B00004E011460820FFF7CEFF06E0510606D5FC
:1006C00001E0510601D50120C007214610BDD10629
:1006D00007D501010909CC084907000E00060443AB
:1006E00009E0410F20024907000A0143200E0006DD
:1006F0001D22D14101430846E7E7000001491820C7
:10070000ABBEFEE726000200704700005D480021F6
:1007100001705D480170604801605E4801601648E4
:100720000180704757480078411F48424841704750
:10073000B0B5044658480025056053480470554834
:10074000056000F0C3F80420032C09D0022C0AD065
:10075000012C0DD1002000F059F90125074904E0D2
:100760000549098800E02946054608B200F0BAF9B3
:1007700044480570B0BDC046F0012020CEFF000007
:10078000F0B581B004463F4F3878002878D0204635
:1007900000F0B6F93878052872D000F001F9054666
:1007A00000F0B2F8064600F0ABF8374909780129A5
:1007B00066D1397803292AD0022942D001295FD194
:1007C000002D5DD0344A1168002901D11460214602
:1007D0001F3882B22D4D01200023AA42024600D3C9
:1007E0001A460B3EB5B22A4EB54200D31846104306
:1007F00003D0601A00097D2842D3012000F006F9D9
:10080000322000F06FF924480460022037E01F38DE
:1008100081B21E4B012000229942014600D31146AD
:100820000B3EB3B21A4EB34200D31046084369429E
:1008300069410143174801291BD1002101600220B1
:100840001DE01F3881B2114B012000229942014660
:1008500000D311460B3EB3B20D4EB34200D3104647
:1008600008436942694101430AD10A4804600320F0
:1008700005E00068201A80087D2801D30520387023
:1008800001B0F0BDA801202076022020C3FF0000A7
:10089000EBFF0000D00220207C02202080B585499B
:1008A00000200870384908703849088038490880A5
:1008B00039490870544908604B218900374A116052
:1008C00005F0FCF805F088F880BDC04680B58B487F
:1008D000002101602C4801220270764801702B48EB
:1008E00001802B4801802B4801602B48017046484D
:1008F00001604B2080002949086005F087F880BD21
:1009000000202349085E704700206E49085E70474A
:1009100000201E49085E704700207749085E704736
:100920001E4800687047C04666490020088072492A
:10093000088072490860144908705E4908701349BC
:1009400008801349088013490860134908702E492C
:1009500008605D49534A0A605D49534A0A605E492E
:10096000524A0A605D49524A0A605D4908704C4922
:100970000870564908804B208000084908607F2095
:10098000C005544908607047F801202078022020F3
:100990009C01202034022020160320201003202058
:1009A000444800787047C046411E02290BD8484988
:1009B000134A0A604449404A0A604649114A0A609B
:1009C0003749087016E04248374901603E483549CA
:1009D000016041483549016040483549016040485F
:1009E000002101702E480170384801807F20C00529
:1009F00038490860044800210160404801607047A0
:100A0000CDCCCC3D9A99993ED8022020F0B583B048
:100A1000EB490978002901D003B0F0BD0027012877
:100A20001BD100973F2211060191F24A1778224EFE
:100A30002249F64D224C012F029117D10027DE4AA0
:100A4000D15FDA4AD25F531AD94A934200DB134688
:100A5000D84A93420BDC134609E07F22D10502916C
:100A60001049114E114D124C3B4602E0D64B0199F4
:100A7000009FDD4A1160D54A1380DA4A1660DB4ACE
:100A800002991160CD4A1560D94A1460D24A1760A4
:100A9000401E41424141CB48017003B0F0BDC04609
:100AA00080022020F6281C3FCDCC4C3F00000442A1
:100AB00000007042170320203333333F9A99193FC7
:100AC000000048C2FA0120208C022020AA02202027
:100AD0008802202024032020100220200C02202045
:100AE000A902202082B2B1490B88934202D0BA4AAF
:100AF0000023136008807047140320202402202064
:100B0000F0B58DB00446A6480078012800D045E134
:100B1000A4480178012905D1A3490968611A14295B
:100B200000D23BE1012707709F48046000F06AFB98
:100B300005469621204600F085FB4B218A000028BF
:100B400036D0039200202C5E98490E5E301B9849E7
:100B5000884200DB084602979649884200DC084636
:100B600095490880FFF712FD04909548007805909C
:100B700000284AD19148076800213846019105F0C4
:100B800062FE002841D1A4B2B0B28E490978002992
:100B90001AD18D4A904217D18C480199405EFFF7D7
:100BA000F5FC064620B2FFF7F1FC014630461AE09C
:100BB0008748002101808F48017087480160904874
:100BC00002607F48007887E001291ED132281CD1BD
:100BD00020B2FFF7DBFC04467C480199405EFFF73A
:100BE000D5FC0146204605F039FF394605F038FEB0
:100BF00000280AD078480199016068887449088003
:100C00007B480468039E029F4DE002202D5E7048E1
:100C100005807049049805F0C9FE6F4C216805F005
:100C20002BFE07466D4E314605F002FE002800D12E
:100C30003E466B4F3046394605F012FE002800D183
:100C40003746276067480068394605F0AFFE04461E
:100C500065480068049905F0A9FE214605F00CFEE0
:100C600004462846FFF792FC01466048006805F0FC
:100C70009DFE0146204605F0F1FE0446029FFE0758
:100C80004640002105F0ECFD054603208107204683
:100C900005F08CFE0446002D00D13446059800284E
:100CA00000D03446039E53480770534D20462946D2
:100CB00005F0BEFD002800D12546504C28462146AF
:100CC00005F0CEFD002800D12C462046FFF714FC8D
:100CD00080194B4908600598002401280CD100F0C8
:100CE00019FC002808D000F01DFC7F21C90505F083
:100CF00094FD002800D1434C434F3D6820462946CF
:100D000005F0ACFE0646414905F09DFD002801D1E5
:100D10003E4906E03E49304605F07FFD002804D1FB
:100D20003B49284605F0A8FD04463C602046FFF7F5
:100D3000E3FB334C21680818322800DC32203549A7
:100D4000884200D30846206006A804F005FD20680C
:100D50000699401AFFF71AFC4121090605F026FE04
:100D600005462D4C214605F063FD002800D12C4698
:100D70002A4D2046294605F073FD002800D125465E
:100D80002846FFF7B9FB044604F0ACFD002800D16B
:100D9000044623480480204604F090FE0DB0F0BDC8
:100DA000F8012020160320203402202014032020E4
:100DB000FF7F00000080FFFFFA01202010022020AA
:100DC00080022020A9022020CEFF0000AA022020BD
:100DD0009C0120200AD7A33C240220200000FA43D3
:100DE0000000FAC3880220208C0220202403202047
:100DF0000C0220201703202000007A4300007AC351
:100E00001003202000003442D80220200000A0411E
:100E10000000A0C11A0400000080BB440080BBC4D5
:100E200078022020002801D0002070474949087826
:100E300000220A707047C0463F48002101604148C7
:100E400001704248016042480160424801703848E0
:100E500000683D4A11703A4A11704003C00F37498B
:100E6000087034490870704710B531490968490362
:100E7000C90F304A1378994213D1304B1A789142F6
:100E800016D02D4C2468041B1E2C10D31970002979
:100E900021D0002A1FD12A4900220A702C4908605B
:100EA0000CE0254B186011702449097800E01146C8
:100EB000002918D02249097800292CD12449096831
:100EC000401AC0087D2826D31D4801210170214801
:100ED000032101701AE00029EAD1002AE8D018495C
:100EE0000978002918D018490978012913D1174920
:100EF0000968401A80084B280DD312480078012851
:100F000001D8012000E00220124908700E4800219B
:100F100001700C48017010BD0A490A78FF2A01D0FF
:100F2000521C0A70084901220A7008490860DEE76D
:100F300080130A40BC012020C0012020B8012020DD
:100F4000D4012020C4012020CC012020C801202071
:100F5000D0012020D8012020F0B584B0B54B1A680C
:100F6000521C1A60B44C2278032A37D87A4412797A
:100F700052009744010B191FAA2800D080E00120DD
:100F800020709F48AA21017004B0F0BDAA2877D034
:100F9000552873D19A485521417002202070586815
:100FA000401C586004B0F0BD01286ED0022873D1F7
:100FB00006216BE092498A78012A57D001228242A9
:100FC00057D05A69521C5A610022AA28104602D1F1
:100FD000AA200870012099490A706AE0884DA85437
:100FE000501C2070954A1278C0B2904200D205E1A0
:100FF000D51E019102925FD001202C460440042AA4
:10100000009400D08FE0002427467D4900980028F6
:1010100054D00819817879404C00072049B2002942
:1010200000D54440610062B2002A00D541404A0028
:1010300049B2002900D54240510052B2002A00D5E1
:1010400041404A0049B2002900D54240510052B205
:10105000002A00D541404A0049B2002900D542404B
:10106000570051B2002928D5474026E00722824286
:10107000A7D104222270C87004B0F0BD00202070F7
:101080005869401C586104B0F0BD0C215C4A907056
:101090006A48017003200CE05969491C596100211C
:1010A000AA28084603D15648AA2202700120634AA2
:1010B0001170207004B0F0BD00275149029840180B
:1010C000401E00780A46F9B281422AD19078012860
:1010D00000D08AE014795A480178012909D1694978
:1010E0004979611AC9B2022903D39A698918491E3C
:1010F0009961644D6C71012101700198A860E971DA
:101100003F4A50792871907AA8719079D179090273
:1011100008182880107A517A090208186880083364
:1011200064E0103362E08543039500242746344988
:1011300003E0A41CA64200D168E70D19AA787A4002
:101140005700072052B2002A00D547407A007EB2ED
:10115000002E00D54240570052B2002A00D5474029
:101160007A007EB2002E00D54240570052B2002ACB
:1011700000D547407A007EB2002E00D5424056008E
:1011800052B2002A00D54640770072B2002A00D53C
:101190004740039EED787D406A006DB2002D00D57A
:1011A0004240550052B2002A00D545406A006DB257
:1011B000002D00D54240550052B2002A00D54540CE
:1011C0006A006DB2002D00D54240550052B2002A8F
:1011D00000D545406A006DB2002D00D54240570051
:1011E00052B2002AA5D54740A3E70C331249134A4F
:1011F0000020087010701868401C186004B0F0BD22
:10120000A90120201F4870471E490020086048603F
:1012100088600849086048608860C8600861486163
:101220008861C8610449087004490870044908705D
:101230007047C046EC02202014022020FC01202030
:101240001C0220200F4A9368C01A884203D21079EA
:101250004007C00F00E00020D179002900D10846E6
:101260007047C04610B50246064BD879441EA041CF
:101270009B68D21A8A4202D30021084010BD012186
:10128000084010BDE4012020964800687047C04621
:10129000924800787047C0468F4800787047C04633
:1012A0008F48002101608F4801608F48016091489C
:1012B000016089480170894801708D4801700120E2
:1012C0004002014908607047A0320A40F0B587B07B
:1012D000044600252846FFF7A5FD06467E4A1078FD
:1012E000042800D9AFE0C046784400794000874424
:1012F00002501E263B00012E00D19CE0032E78D028
:10130000022E00D09FE075480178491C7B4A4A4371
:10131000120C05235343C91A0170080600D1CDE011
:101320004B208000D4307649086007B0F0BD012E14
:1013300000D088E0204605F0E7F807B0F0BD17467A
:1013400067480068201A67490860644D28780128BA
:1013500034D12046FFF714FAFFF7E4F900283946A4
:1013600033D00420087030E05C4F3878012804D175
:1013700020461446FFF704FA2246012E63D138783E
:10138000012803D11446FFF789FA2246157007B0E9
:10139000F0BD012E05D054480068201A80097D2830
:1013A00053D32846144604F089FB04F015FB04F0DF
:1013B000C5F925704E48057007B0F0BD204601F014
:1013C0007BF82046FFF7DCF939462878012804D05D
:1013D00001F054F83946002801D1012E33D1002004
:1013E0000C4600F02FF9FFF759FA0420207007B0DF
:1013F000F0BD0320C04339490978491F814222D3F7
:101400002846164600F01EF9FFF748FA3A492846E2
:1014100004F0C8FA04F04EFB04F0F8FA284604F091
:101420004DFB3448056030480460314805702D4854
:10143000056001202DE00420C04328490978491F98
:10144000814200D876E707B0F0BD1646684604F042
:1014500083F9264800990A18D21C062A1CD80020B5
:1014600004F02CFB2248017800292ED02148006886
:10147000211A4B208000421E9142E4D904F062FA06
:1014800032201D4904F08EFA04F014FB04F0BEFA79
:101490000220307007B0F0BD154A15704B22940041
:1014A000A14200DB0446204604F01CFA002800D1CB
:1014B0000446204604F002FB07B0F0BD4B2080003C
:1014C000D4300F49086107B0F0BD0A490C60012112
:1014D000017007B0F0BDC046E80220207402202051
:1014E000DC022020F40120205C022020D4FEFFFF3B
:1014F00054022020580220201A0400003433000037
:1015000090320A40384800687047C0462E4800684C
:101510007047C0465F4800787047C046334800684F
:101520007047C0466A4800687047C0462748006850
:101530007047C04680B55749002008703F49087081
:1015400031490860544908605449086026490860D8
:101550002649086013490860134908601349086068
:10156000134908601349087013490860134908605B
:101570001349086013490860134908604849086026
:101580004849086048490860104908602C490880AB
:101590000F4908604D4908604D49086001F0D6FBCD
:1015A00080BDC04648022020C00220204C022020DE
:1015B000C4022020D402202050022020C802202073
:1015C00040022020B802202064022020DC012020DC
:1015D000E0012020EFF3108072B603480021016083
:1015E0000248016062B670473C022020B40220200D
:1015F00010B50446002105F01BF9002800D104466F
:101600000148046010BDC046A0012020411E484290
:101610004841EFF3108172B608490A7882420AD035
:101620001D4A002313601D4A13601D4A13601E4AA1
:101630001360034A1380087062B670476A02202064
:101640006802202010B5134A1178137883420AD01B
:10165000114B00241C60114B1C60114B1C60114B82
:101660001C60114B1C601070002802D0002906D0AD
:1016700010BD17480021016001F0F0FA10BD1348B9
:101680000068002801D0002001E07F20C00510493B
:10169000086010BD7702202044022020BC022020D8
:1016A00098022020940220202C022020EFF31081A9
:1016B00072B606490860002801D0002001E07F20B2
:1016C000C0050349086062B67047C046E0022020AA
:1016D000E4022020F0B587B0F34800780390F34887
:1016E0000168491C016001F0FFF906A805A900F096
:1016F00045FEEF4A1068059940181060ED4B1868D8
:10170000069A801A1860EC4E306840183060EB4F33
:101710003868801A3860EA4D2878401C2870C0B2BA
:10172000022829D330681424214600F005FEE54D37
:1017300028603868214600F0FFFDE34F38602868D4
:10174000002105F06AF8002804D10120C0072968AB
:101750004140296038680024214605F05EF80028E1
:1017600004D10120C007396841403960D24E34604D
:10177000D24F3C60D24D2C7004A800F089FFD349B1
:1017800008700878002808D0049C0021204605F045
:1017900067F8002805D13F2004E0002004900446AB
:1017A00006E0BF200106204605F066F8FEF7A4FE1D
:1017B000C7490860C74A1078002850D0C64E306824
:1017C00000281ED0C54800687F21CD052946174650
:1017D00005F023F83A46002817D13068FEF7DEFE00
:1017E0000146BF48FEF7D8FD0146BC4E306805F003
:1017F00043F830603068294605F025F83A4600285D
:1018000003D17F20C005B5490860107801283CD17C
:10181000A7480068A7490968441AB24806680460E6
:101820002046FEF7B3FE0546A01BFEF7AFFEAE490D
:1018300005F0BCF80446AD49284605F0B7F8214646
:1018400005F01AF80546AA4E3068294605F006F953
:1018500004463068294605F00FF80646CDE0A54855
:1018600000210160A4480160A4480160A44801600F
:10187000A4480160A448016031603960297097482C
:10188000016001F0EBF907B0F0BD90480078002846
:1018900007D09E48016804600398012815D09C4D2C
:1018A00014E09C4801889C4A914202D00188491C5E
:1018B00001800088994D2C6803285FD38A4920460F
:1018C00005F074F828602C6858E0954D204605F026
:1018D000C5F80146284605F069F805460398012831
:1018E00001D07F4800E08F48214605F05FF8294687
:1018F00004F0C2FF05460398012801D08A4C01E09C
:101900008320C4052846214604F092FF002826467D
:1019100000D12E460120C0070290241828462146F7
:1019200004F09EFF002800D134467C48056820461C
:10193000294605F093F807460398012801D07B4E0D
:1019400000E07B4E3846314604F07DFF002804D18C
:101950003046294604F090FF0AE0029831183846D4
:1019600004F05BFF002804D12846314605F076F8E4
:101970000446FA480460FA480021018003980128CF
:1019800001D0F54901E08320C1050120C2072046AE
:101990009043FEF701FDF44905F008F87F21C905E1
:1019A00004F06AFF0646EF4D294604F059FF00286F
:1019B00000D13546ED480068294604F0F7FFEC49B0
:1019C00008600D680868214605F048F80746039846
:1019D000012801D0E74900E0DE49E748006805F04A
:1019E0003DF80646394604F023FF002800D13E4664
:1019F0002046294604F040FF044600272046394689
:101A000004F016FF002800D10446D14D2968204675
:101A100004F0CCFF2C68D949019008603046394663
:101A200004F006FF002800D106463046214604F0A7
:101A3000BDFFD14902900860C84C2068394604F0C7
:101A40000FFF03990129BF4D02D041210E0600E08E
:101A5000CB4E2768002802D00120C00747403846F7
:101A6000314604F0DAFE2C780443601E8441384687
:101A7000314604F0F5FE002803945BD1C14F38686D
:101A8000C34C214604F092FF3860C34D28682146BC
:101A900004F08CFF2860AC480168019D284604F0E2
:101AA000DDFF06463F6850E06A022020DC0120206E
:101AB0003C022020B40220204C022020C40220201E
:101AC000D402202048022020C00220206B022020C7
:101AD0006402202077022020E0022020E40220205F
:101AE00000002041940220203333333FCDCC4C3EC4
:101AF000A001202044022020BC02202050022020EF
:101B0000C802202040022020B80220209802202075
:101B10000000C04068022020FFFF00002C022020AF
:101B2000333373409A99C9400000C8410000A04176
:101B30000000404184480168019D284604F08EFF62
:101B4000064690480768002C13D08249304604F0BE
:101B50002DFF044621204106284604F027FF214698
:101B600004F08AFE04468A49384604F01FFF2146E5
:101B70004CE00168304604F07FFE0446824F39464F
:101B800004F056FE002800D12746804C38462146F6
:101B900004F04EFE002800D127467D4900973846C4
:101BA00004F004FF04466B49304604F0FFFE07468C
:101BB00021204106284604F0F9FE394604F05CFE77
:101BC00007462046394604F057FE0546714904F0A1
:101BD00047FE002805D10021304604F029FE0028E8
:101BE0000ED10021284604F023FE002805D1002153
:101BF000304604F035FE002802D1624800990160A9
:101C000060480068624904F0D1FE394604F034FEB1
:101C10000446029F5F4D294604F00AFE002800D1C9
:101C200025460021284604F003FE002800D1054681
:101C30002846FEF761FC5949086044480168384667
:101C400004F00CFF054654490E680398002810D094
:101C50004049284604F0AAFE0446212041063846A1
:101C600004F0A4FE214604F007FE0446484930462D
:101C700047E00968284604F0FFFD0446424E31461D
:101C800004F0D6FD002800D12646404C30462146BF
:101C900004F0CEFD002800D126463D49304604F030
:101CA00085FE07462B49284604F080FE0446212085
:101CB0004106029804F07AFE214604F0DDFD044658
:101CC0003846214604F0D8FD0746324904F0C8FDE5
:101CD000002805D10021284604F0AAFD00280DD1D6
:101CE0000021384604F0A4FD002805D10021284633
:101CF00004F0B6FD002801D1274806602648006898
:101D0000234904F053FE214604F0B6FD0546214C5C
:101D1000214604F08DFD002800D12C4600212046EC
:101D200004F086FD002800D104462046FEF7E4FBBF
:101D30001B49086019480068096800F0C1FF07B036
:101D4000F0BDC046D402202048022020C00220203E
:101D5000E4022020000020410000C8412C02202085
:101D6000680220203333333F9A9999BEA001202086
:101D7000E001202000007041C802202050022020F5
:101D80000000A040440220200000C8430000C8C357
:101D90006666663F00C0F345BC022020400220205A
:101DA000B8022020B0B50A78032313400B4A8458A8
:101DB0000B4D2540EB18A92424061B19835007223C
:101DC00012064B6813401124240205599543EA1862
:101DD0000251001949780161B0BDC04608080000F1
:101DE000FCFFFF00811E091F00BFFCD2704710B529
:101DF000002A0FD091235B01C3180020DC69240561
:101E0000240F05D00C5C1C60401C8242F6D11046A9
:101E100080B210BD002080B210BD0000084A835877
:101E200080210B43835080180F2212024368134015
:101E30000122D2029342F7D102688A4302607047BE
:101E40003812000070B50A780C231A4001242403CC
:101E500005196E689E43B2186A60497807221140DE
:101E6000035993435918015170BD0000F0B584B077
:101E7000012422022A4B19680392914319603549C3
:101E80000D686D04FCD5457E25409E69A6437419F6
:101E90009C612024045D03252C40DE69AE43341987
:101EA000DC61204C256805262660466A37681F627B
:101EB00076685E6207262E402660C4697F252D0263
:101EC000DE69AE436406640C3419DC61076845685A
:101ED00082680092C66802690192426902929A6918
:101EE000114C14403A07120B2D03ADB2AA1832431D
:101EF000009D2D072D0D1543019A1543029A154398
:101F0000007E2843094A0240101998611868039A14
:101F10001043186008688005FCD504B0F0BDC046C9
:101F200008010B40001340408D00F0FF72FF0F00CE
:101F300007498860074802689202FCD50122120412
:101F40000B6813430B600168C906FCD57047C04697
:101F500004010B4004020B4070B582B00B794A7942
:101F6000002A25D0184A202B02D00524E40100E0E5
:101F70007D4C8218002B00D18824156C794E354099
:101F80002D191564556C35402C1954641468B44DE2
:101F90002C40146054682C40546000241462546235
:101FA0008F24E443156D25401565556D2540556515
:101FB0006A4613718B79537109680091114600F0DC
:101FC00079F802B070BDC04638180000890040188A
:101FD000B44940587047C046F0B585B02F4A8518BF
:101FE00011221202821803924A7A521ED3B201269B
:101FF0000024022B019400960DD852B2920028A41E
:10200000A7584924E60134465C43A4190294274C9E
:10201000A2585B1C03E002222346029437464C6818
:1020200004956C60CE688F252E4016433122D20174
:1020300084189B00E258AA433243E250CD688E26B2
:102040003540BA00A758B743ED19009E3543A55057
:102050008A4C0019C458824D2C40154EA419641C9A
:10206000C45083582B409B1983500398019A0260F7
:102070000878012801D0029A02E02020029A024347
:10208000087ABD2101401143049B1868384A024078
:102090000A4302201043186005B0F0BD0418000088
:1020A0000000000003000000020000006C6B000054
:1020B00001000200F0B5684A8218294BC31808795C
:1020C00020280DD000281DD10C68641E5460D56EE8
:1020D000244C25408835D5661646703688251DE087
:1020E0000C68641E5460D46E1E4D2C401E4EA41904
:1020F000D466146F2C40A4191467012465071B4C87
:1021000016460BE00C6864085460D66E154C2640E9
:102110000525ED017619D6661646703637682740D4
:102120002F433760D46A4E4D2C40D462146B2C4040
:1021300014630024D46414658F24E443D56F2540D0
:10214000D5671D6825401D6049790143BD200840C1
:102150001168074B0B40C018801C1060F0BDC046D2
:102160008418000024493E0001040000FFFFFFCF57
:102170004000FFCFB0B54A68364BC250364A80188F
:102180000A78222A58D8930001A4E3589F46C046F3
:102190002F220000392200002F22000039220000E7
:1021A00039220000392200003922000039220000C3
:1021B00039220000392200003922000039220000B3
:1021C00039220000392200003922000039220000A3
:1021D0001D220000392200001D22000039220000CB
:1021E0003922000039220000392200003922000083
:1021F0003922000039220000392200003922000073
:102200003922000039220000392200003922000062
:102210001D220000392200001D22000003231B079D
:1022200004689C4301235B07E318036004E0032375
:102230001B0704689C4304600B69C360CB68074CB0
:102240001C40C36A064D1D402B19C362097A114315
:102250000160B0BD08180000041800007777020084
:102260008888FDFF10B507239B0419409200801851
:10227000024A84589C436118815010BD30180000F8
:1022800010B5029CA400001911431943014A815062
:1022900010BDC0465018000092008018014A8150BD
:1022A0007047C0461018000010B5012212038318B1
:1022B0000C789C604B7883508978014A815010BD1E
:1022C0000C110000B0B51122120283580124A3435F
:1022D00083500B888C781C438B882343094C1C400B
:1022E0008358094D1D40631983508B79CC791C4369
:1022F000097A21437E231940801842689A43511875
:102300004160B0BD18670000E798FDFF10B50122DD
:10231000120383180C789C604978815010BD00002E
:1023200010B50C46FEF732F9214604F03FFB0F4989
:10233000FEF732F810BDC046B0B5002911D00C46EA
:10234000FEF724F9084904F031FB05462046FEF764
:1023500025F9064904F02AFB01462846FEF71CF839
:10236000B0BD0020B0BDC04600606A4700004344D5
:10237000374800210160384801607047EFF3108250
:1023800072B6334A13680360334803680B60002158
:102390001160016062B67047F0B581B02849084607
:1023A00010380068274B0340274C2246103A126829
:1023B0000D681D430D6011210905114025680D436D
:1023C00025600124A6060021C94385011F4D0AD5B9
:1023D0002F6837420F4600D027461D4D2D687D19C6
:1023E0001B4F3D60194DB3420AD363062C681C4253
:1023F00001D00B4600E00123154C25685B192360D2
:1024000001231D06D402134C09D526682E420E4620
:1024100000D01E46104F3C6834193C600D4C2A42D7
:1024200008D01A052368134200D101210A4A136813
:10243000C91811600949084003F0BCF901B0F0BDAA
:1024400048100A400002400748300A4080130A4002
:102450009401202080330A4098012020000240018E
:1024600080480021017081480170854801707C48D6
:1024700001607D48016081480160704779480078BB
:10248000011F48424841704710B504467548012174
:102490000170764804707A4800210170704801602C
:1024A0007148016000F0F0F874490860002C01D018
:1024B000FFF790F810BDC046F0B583B00446694FF1
:1024C0003878FB21084200D1C8E065490A68A24279
:1024D00000D1C3E00C6003283ED0022843D001287D
:1024E00000D0BBE0614800780224012800D0B4E0AD
:1024F000FFF708F8604E3146FFF712FF054600214E
:10250000029104F0ADF90121C9070028019100D022
:102510004D40FFF703F83146FFF702FF06460299E8
:1025200004F09EF9002801D0019846402846314623
:1025300004F0A2F93F21090604F038FA514904F0E9
:1025400082F9002800D089E04D480299017000F01E
:102550009BF84A49086080E043480068201A9628A2
:102560007CD3042479E041480078012835D100F07B
:102570008BF842490A68904270D00860404E357826
:1025800000F0ACFA7821014078394A424A413C21B6
:1025900001403C394B424B4113431E2210401E3830
:1025A000414241411943680002405318337055D0ED
:1025B000022B0FD301231D406918042A0AD34307B5
:1025C000DB0F5918082A05D30007C00F411810095E
:1025D00000D0411802293AD240E00021032801D05E
:1025E0000D4600E0224D022800D1224D284604F07D
:1025F0002AF9002832D1FEF785FF1F49FFF790FE28
:1026000006460021019104F02BF90121C907002899
:102610000295009100D04E40174DFEF77FFF2946EE
:10262000FFF77EFE0546019904F01AF9002801D053
:10263000009845403046294604F01EF93F2109061E
:1026400004F0B4F9029904F00BF9002806D1002037
:10265000FEF7F8FF0448046003243C7003B0F0BDAB
:102660003802202060022020A401202075022020B2
:102670009AD9284400002A4342E0A5413002202094
:102680000C0320209A99F543604800687047C046C3
:10269000F0B581B0002813D00446002505605A48E3
:1026A0000678002E0ED0FF2E00D18FE070B2494F79
:1026B0000740F309710607D4B10621D4F0090EE0F2
:1026C000002584E0354682E0434938461F4604F041
:1026D000D3F83B4607465B1CB00613D401200146E5
:1026E000F20620D4002900D00120320718D4002996
:1026F00000D00120720727D4002935D0012033E013
:10270000002864D4354938461F4604F0B5F83B46E6
:1027100007465B1CF00608D4012001463207E6D5C7
:10272000002854D113E0002851D1BF2001063846BB
:102730001F4604F0A1F83B4607465B1C300706D451
:10274000012001467207D7D5002840D111E03F2073
:10275000010638461F4604F08FF83B4607465B1CCF
:10276000700706D401200146B20713D400290BD10B
:102770000BE0FF20810538461F4604F07DF83B46FC
:1027800007465B1CB00707D40120F10716D00028CC
:102790001DD10BE000281AD1114938461D4604F01E
:1027A0006BF82B4607466B1CF00707D00D493846DF
:1027B0001D4604F061F82B4607466B1C1846FDF7D2
:1027C000E5FE01463846FDF7E7FD20600125284675
:1027D00001B0F0BD0000A0C0000040C00000C0BFBC
:1027E000000040400000A040BE48002101700548A4
:1027F0000160416004480170B64805220270B64885
:10280000016070470002202008022020CC02202016
:10281000B0480078052801D3002070470120704798
:10282000F0B581B0684605210170A44EA44F38462A
:10283000316889064AD43168890647D431688906E7
:1028400044D43168890641D4316889063ED4316860
:1028500089063BD43168890638D43168890635D475
:102860003168890632D4316889062FD431688906E7
:102870002CD43168890629D43168890626D4316878
:10288000890623D43168890620D4316889061DD48D
:10289000316889061AD43168890617D431688906E7
:1028A00014D43168890611D4316889060ED4316890
:1028B00089060BD43168890608D43168890605D4A5
:1028C0003168890602D41930B2D1CBE07D4D28465B
:1028D000FFF7A4FA6946012428462246FFF787FA43
:1028E000304608380168784A1140BA310160311F1A
:1028F0000A68764B1A40764D52190A603A46336898
:102900005B064AD533685B0647D533685B0644D51A
:1029100033685B0641D533685B063ED533685B069A
:102920003BD533685B0638D533685B0635D53368ED
:102930005B0632D533685B062FD533685B062CD532
:1029400033685B0629D533685B0626D533685B069A
:1029500023D533685B0620D533685B061DD5336805
:102960005B061AD533685B0617D533685B0614D54A
:1029700033685B0611D533685B060ED533685B069A
:102980000BD533685B0608D533685B0605D533681D
:102990005B0602D51932B2D164E03268920761D485
:1029A0003A4633689B064AD433689B0647D433685B
:1029B0009B0644D433689B0641D433689B063ED4BF
:1029C00033689B063BD433689B0638D433689B0638
:1029D00035D433689B0632D433689B062FD43368D2
:1029E0009B062CD433689B0629D433689B0626D4D7
:1029F00033689B0623D433689B0620D433689B0638
:102A00001DD433689B061AD433689B0617D43368E9
:102A10009B0614D433689B0611D433689B060ED4EE
:102A200033689B060BD433689B0608D433689B0637
:102A300005D433689B0602D41932B2D112E0026881
:102A4000214B1A40BB231343036008681F4A104000
:102A500028430860706A000711D17F1C02D23068D9
:102A60008007F7D51B4908780024042822D8421C87
:102A70000A7004281ED17648002404701AE0706899
:102A80000107090EC0B20009401881083322114025
:102A900010408000081841085522114010404000A5
:102AA00008186B4908700B48002101700A4801683A
:102AB000491C0160204601B0F0BDC04618120F400D
:102AC000E0B1FFFF00000F4000F8FFFFF8FF00F04B
:102AD00007000100FD012020CC0220205C48007886
:102AE0007047C046B0022020B0B5002058490D56AE
:102AF000EBB2584A147858480178002D08D4002CBD
:102B000003D0641E147024060CD17F24214008E0F9
:102B1000022C03D8651C1570022C03D17F24E443DA
:102B20002143017054785D0608D4002C03D0641E44
:102B3000547024060BD1BF24214007E0022C03D897
:102B4000651C5570022C02D14024214301709478F9
:102B50009D0608D4002C03D0641E947024060BD16B
:102B6000DF24214007E0022C03D8651C9570022C5D
:102B700002D1202421430170D478DD0608D4002C32
:102B800003D0641ED47024060BD1EF24214007E04B
:102B9000022C03D8651CD570022C02D110242143CD
:102BA000017014791D0708D4002C03D0641E147121
:102BB00024060BD1F724214007E0022C03D8651C22
:102BC0001571022C02D108242143017054795D074C
:102BD00008D4002C03D0641E547124060BD1FB24AE
:102BE000214007E0022C03D8651C5571022C02D14C
:102BF00004242143017094799D0708D4002C03D04C
:102C0000641E947124060BD1FD24214007E0022CA0
:102C100003D8651C9571022C02D102242143017056
:102C2000D479DB0706D1002C0ED0631ED3711A06AF
:102C30000AD0B0BD022C03D8631CD371022CF8D18A
:102C4000012211430170B0BDFE2211400170B0BDE0
:102C5000B0022020000220200802202070B5474C3E
:102C60000025204629462A46FFF716FB0126204666
:102C700029463246FFF710FBB00304490860700391
:102C80000860300408607004086070BD90120A404B
:102C900070B53A4C0025204629462A46FFF7FCFA33
:102CA0000126204629463246FFF7F6FAB00393493B
:102CB000086070030860300408607004086070BD2C
:102CC000F0B581B01F4B994200DC19461E4CA14261
:102CD0000A4600DB2246984200DC1846A042054620
:102CE00000DB254601246603A703844B012903DB8F
:102CF000194610390F6002E01F60002A1ED41E60C2
:102D000026046104012803DB18461038066003E03E
:102D10001E60002D00D5103B1960D0174240111ADB
:102D2000164C00222046FFF7B7FAE8174540291A4B
:102D300001222046FFF7B0FA01B0F0BD1946103964
:102D40000E60DDE788E1FFFF781E000070B50B4CD8
:102D50000025204629462A46FFF79EFA01262046EE
:102D600029463246FFF798FAB003644908607003B9
:102D70000860300408607004086070BD0020864060
:102D8000F0B587B0012007070490C50700245B4E0B
:102D9000204605E00298401C0199072900D3AAE0CB
:102DA0000290C1B22046019103F03AF8204606E0B5
:102DB000176062B60398401C40B20028EAD4039022
:102DC000EFF3108172B60498C1034D4801602346A9
:102DD00004E08B1C049801430729E9D219463760A7
:102DE00035600594059A172A1BD800BF059A521C16
:102DF0000592059A172A14D800BF059A521C05920D
:102E0000059A172A0DD800BF059A521C0592059AFB
:102E1000172A06D800BF059A521C0592059A182A4F
:102E2000E3D33246103A176000230693069817281A
:102E30001BD800BF0698401C06900698172814D887
:102E400000BF0698401C0690069817280DD800BFB2
:102E50000698401C06900698172806D800BF0698CA
:102E6000401C069006981828E3D337603560059318
:102E7000059817281BD800BF0598401C0590059899
:102E8000172814D800BF0598401C059005981728EE
:102E90000DD800BF0598401C05900598172806D846
:102EA00000BF0598401C059005981828E3D31760CB
:102EB0000693069817288CD800BF0698401C0690E9
:102EC0000698172885D800BF0698401C06900698DB
:102ED000172800D97DE700BF0698401C0690069889
:102EE000172800D975E700BF0698401C0690069881
:102EF0001828E1D36DE707B0F0BDC046A0120A4024
:102F000090320A40F0B583B0E04D103D0126B70382
:102F10002F60DF4C2046FEF765FF2046FEF762FF7C
:102F20002046FEF75FFF2046FEF75CFF2046FEF7D7
:102F300059FF2046FEF756FF2046FEF753FF204676
:102F4000FEF750FF2046FEF74DFF2046FEF74AFFF2
:102F5000CE4807602046FEF745FF2046FEF742FFB9
:102F60002046FEF73FFF2046FEF73CFF2046FEF7D7
:102F700039FF2046FEF736FF2046FEF733FF204696
:102F8000FEF730FF2046FEF72DFF2046FEF72AFF12
:102F90002046FEF727FF2046FEF724FF2046FEF7D7
:102FA00021FF2046FEF71EFF2046FEF71BFF2046AE
:102FB000FEF718FF2046FEF715FF2046FEF712FF2A
:102FC0002046FEF70FFF2046FEF70CFF2F6020463D
:102FD000FEF708FF2046FEF705FF2046FEF702FF3A
:102FE0002046FEF7FFFE2046FEF7FCFE2046FEF7D9
:102FF000F9FE2046FEF7F6FE2046FEF7F3FE2046D9
:10300000FEF7F0FE2046FEF7EDFE2046FEF7EAFE54
:103010002046FEF7E7FE2046FEF7E4FE2046FEF7D8
:10302000E1FE2046FEF7DEFE2046FEF7DBFE2046F0
:10303000FEF7D8FE2046FEF7D5FE2046FEF7D2FE6C
:103040002046FEF7CFFEEFF3108072B6F00301903A
:103050008E4908603007F107AE2400278D4A03E04F
:103060005F1C6400072B4AD23B46106165B2002DFD
:1030700001D4116100E0116000250295029F172F15
:103080001BD800BF029F7F1C0297029F172F14D8E6
:1030900000BF029F7F1C0297029F172F0DD800BF11
:1030A000029F7F1C0297029F172F06D800BF029F26
:1030B0007F1C0297029F182FE3D310600295029F96
:1030C000172FCDD800BF029F7F1C0297029F172F9A
:1030D000C6D800BF029F7F1C0297029F172FBFD840
:1030E00000BF029F7F1C0297029F172FB8D800BF16
:1030F000029F7F1C0297029F182FE3D3B0E7106056
:1031000062B6EFF3108372B6604B019C1C60202402
:1031100003E05D1C6400072B4AD22B46106165B2A8
:10312000002D01D4116100E0116000270297029D7B
:10313000172D1BD800BF029D6D1C0295029D172DF7
:1031400014D800BF029D6D1C0295029D172D0DD84D
:1031500000BF029D6D1C0295029D172D06D800BF71
:10316000029D6D1C0295029D182DE3D310600297FD
:10317000029D172DCDD800BF029D6D1C0295029DAA
:10318000172DC6D800BF029D6D1C0295029D172DFC
:10319000BFD800BF029D6D1C0295029D172DB8D8A7
:1031A00000BF029D6D1C0295029D182DE3D3B0E770
:1031B000106062B6EFF3108372B6344B019C1C6052
:1031C000102403E05F1C6400072B4AD23B461061C9
:1031D00065B2002D01D4116100E011600025029557
:1031E000029F172F1BD800BF029F7F1C0297029FD0
:1031F000172F14D800BF029F7F1C0297029F172F22
:103200000DD800BF029F7F1C0297029F172F06D880
:1032100000BF029F7F1C0297029F182FE3D310600C
:103220000295029F172FCDD800BF029F7F1C0297E7
:10323000029F172FC6D800BF029F7F1C0297029FD4
:10324000172FBFD800BF029F7F1C0297029F172F26
:10325000B8D800BF029F7F1C0297029F182FE3D3AC
:10326000B0E7106062B6EFF3108372B6074B019CB3
:103270001C60B02403E05D1C6400072B50D22B4679
:10328000106165B2002D07D4116106E0A0320A403A
:103290008038010090120A40116000270297029DB9
:1032A000172D1BD800BF029D6D1C0295029D172D86
:1032B00014D800BF029D6D1C0295029D172D0DD8DC
:1032C00000BF029D6D1C0295029D172D06D800BF00
:1032D000029D6D1C0295029D182DE3D3106002978C
:1032E000029D172DC7D800BF029D6D1C0295029D3F
:1032F000172DC0D800BF029D6D1C0295029D172D91
:10330000B9D800BF029D6D1C0295029D172DB2D841
:1033100000BF029D6D1C0295029D182DE3D3AAE704
:10332000106062B6EFF3108372B6DA4B019C1C603A
:10333000C82503E05F1C6D00072B4AD23B46106195
:103340006CB2002C01D4116100E0116000240294E1
:10335000029F172F1BD800BF029F7F1C0297029F5E
:10336000172F14D800BF029F7F1C0297029F172FB0
:103370000DD800BF029F7F1C0297029F172F06D80F
:1033800000BF029F7F1C0297029F182FE3D310609B
:103390000294029F172FCDD800BF029F7F1C029777
:1033A000029F172FC6D800BF029F7F1C0297029F63
:1033B000172FBFD800BF029F7F1C0297029F172FB5
:1033C000B8D800BF029F7F1C0297029F182FE3D33B
:1033D000B0E7106062B6EFF3108372B6AD4B019D9B
:1033E0001D60234604E0BB1C3743072F00D38AE04F
:1033F0001F46106111610294029B172B1BD800BF5E
:10340000029B5B1C0293029B172B14D800BF029BEC
:103410005B1C0293029B172B0DD800BF029B5B1C09
:103420000293029B172B06D800BF029B5B1C0293E2
:10343000029B182BE3D3106000250295029B172BEB
:103440001BD800BF029B5B1C0293029B172B14D856
:1034500000BF029B5B1C0293029B172B0DD800BF81
:10346000029B5B1C0293029B172B06D800BF029B9A
:103470005B1C0293029B182BE3D310611161029530
:10348000029B172B1BD800BF029B5B1C0293029B65
:10349000172B14D800BF029B5B1C0293029B172BB7
:1034A0000DD800BF029B5B1C0293029B172B06D812
:1034B00000BF029B5B1C0293029B182BE3D310609E
:1034C0000295029B172B8ED800BF029B5B1C0293B8
:1034D000029B172B87D800BF029B5B1C0293029BA9
:1034E000172B00D97FE700BF029B5B1C0293029B56
:1034F000172B00D977E700BF029B5B1C0293029B4E
:10350000182BE1D36FE7106062B6EFF3108372B649
:10351000604B019C1C60102403E05D1C6400072BC1
:103520004AD22B46106165B2002D01D4116100E032
:10353000116000270297029D172D1BD800BF029D26
:103540006D1C0295029D172D14D800BF029D6D1CA5
:103550000295029D172D0DD800BF029D6D1C02958E
:10356000029D172D06D800BF029D6D1C0295029D7D
:10357000182DE3D310600297029D172DCDD800BF00
:10358000029D6D1C0295029D172DC6D800BF029D9D
:103590006D1C0295029D172DBFD800BF029D6D1CAA
:1035A0000295029D172DB8D800BF029D6D1C029593
:1035B000029D182DE3D3B0E7106062B6EFF31083DD
:1035C00072B6344B019C1C60402403E05F1C640015
:1035D000072B4AD23B46106165B2002D01D4116120
:1035E00000E0116000250295029F172F1BD800BF35
:1035F000029F7F1C0297029F172F14D800BF029FC3
:103600007F1C0297029F172F0DD800BF029F7F1CBF
:103610000297029F172F06D800BF029F7F1C0297B8
:10362000029F182FE3D310600295029F172FCDD869
:1036300000BF029F7F1C0297029F172FC6D800BFB2
:10364000029F7F1C0297029F172FBFD800BF029FC7
:103650007F1C0297029F172FB8D800BF029F7F1CC4
:103660000297029F182FE3D3B0E7106062B6EFF322
:10367000108372B6074B019C1C60812403E05D1C23
:103680006400072B4CD22B46106165B2002D03D489
:10369000116102E0A0320A40116000270297029DEA
:1036A000172D1BD800BF029D6D1C0295029D172D82
:1036B00014D800BF029D6D1C0295029D172D0DD8D8
:1036C00000BF029D6D1C0295029D172D06D800BFFC
:1036D000029D6D1C0295029D182DE3D31060029788
:1036E000029D172DCBD800BF029D6D1C0295029D37
:1036F000172DC4D800BF029D6D1C0295029D172D89
:10370000BDD800BF029D6D1C0295029D172DB6D835
:1037100000BF029D6D1C0295029D182DE3D3AEE7FC
:10372000106062B6EFF3108372B6E64B019C1C602A
:103730007F2403E05F1C6400072B4AD23B461061E4
:1037400065B2002D01D4116100E0116000250295E1
:10375000029F172F1BD800BF029F7F1C0297029F5A
:10376000172F14D800BF029F7F1C0297029F172FAC
:103770000DD800BF029F7F1C0297029F172F06D80B
:1037800000BF029F7F1C0297029F182FE3D3106097
:103790000295029F172FCDD800BF029F7F1C029772
:1037A000029F172FC6D800BF029F7F1C0297029F5F
:1037B000172FBFD800BF029F7F1C0297029F172FB1
:1037C000B8D800BF029F7F1C0297029F182FE3D337
:1037D000B0E7106062B6EFF3108372B6B94B019C8C
:1037E0001C60A12403E05D1C6400072B4AD22B4619
:1037F000106165B2002D01D4116100E01160002755
:103800000297029D172D1BD800BF029D6D1C0295CB
:10381000029D172D14D800BF029D6D1C0295029DBC
:10382000172D0DD800BF029D6D1C0295029D172D0E
:1038300006D800BF029D6D1C0295029D182DE3D392
:1038400010600297029D172DCDD800BF029D6D1C00
:103850000295029D172DC6D800BF029D6D1C0295D2
:10386000029D172DBFD800BF029D6D1C0295029DC1
:10387000172DB8D800BF029D6D1C0295029D182D12
:10388000E3D3B0E7106062B6EFF3108372B68D4BEE
:10389000019C1C60A62403E05F1C6400072B4AD235
:1038A0003B46106165B2002D01D4116100E011604A
:1038B00000250295029F172F1BD800BF029F7F1C77
:1038C0000297029F172F14D800BF029F7F1C0297F8
:1038D000029F172F0DD800BF029F7F1C0297029FE7
:1038E000172F06D800BF029F7F1C0297029F182F38
:1038F000E3D310600295029F172FCDD800BF029F1F
:103900007F1C0297029F172FC6D800BF029F7F1C03
:103910000297029F172FBFD800BF029F7F1C0297FC
:10392000029F172FB8D800BF029F7F1C0297029FEB
:10393000182FE3D3B0E7106062B6EFF3108372B6CE
:10394000604B019C1C60A82403E05D1C6400072BF5
:103950004AD22B46106165B2002D01D4116100E0FE
:10396000116000270297029D172D1BD800BF029DF2
:103970006D1C0295029D172D14D800BF029D6D1C71
:103980000295029D172D0DD800BF029D6D1C02955A
:10399000029D172D06D800BF029D6D1C0295029D49
:1039A000182DE3D310600297029D172DCDD800BFCC
:1039B000029D6D1C0295029D172DC6D800BF029D69
:1039C0006D1C0295029D172DBFD800BF029D6D1C76
:1039D0000295029D172DB8D800BF029D6D1C02955F
:1039E000029D182DE3D3B0E7106062B6EFF31083A9
:1039F00072B6344B019C1C603F2403E05F1C6400E2
:103A0000072B4AD23B46106165B2002D01D41161EB
:103A100000E0116000250295029F172F1BD800BF00
:103A2000029F7F1C0297029F172F14D800BF029F8E
:103A30007F1C0297029F172F0DD800BF029F7F1C8B
:103A40000297029F172F06D800BF029F7F1C029784
:103A5000029F182FE3D310600295029F172FCDD835
:103A600000BF029F7F1C0297029F172FC6D800BF7E
:103A7000029F7F1C0297029F172FBFD800BF029F93
:103A80007F1C0297029F172FB8D800BF029F7F1C90
:103A90000297029F182FE3D3B0E7106062B6EFF3EE
:103AA000108372B6074B019C1C60A42403E05D1CCC
:103AB0006400072B4CD22B46106165B2002D03D455
:103AC000116102E0A0320A40116000270297029DB6
:103AD000172D1BD800BF029D6D1C0295029D172D4E
:103AE00014D800BF029D6D1C0295029D172D0DD8A4
:103AF00000BF029D6D1C0295029D172D06D800BFC8
:103B0000029D6D1C0295029D182DE3D31060029753
:103B1000029D172DCBD800BF029D6D1C0295029D02
:103B2000172DC4D800BF029D6D1C0295029D172D54
:103B3000BDD800BF029D6D1C0295029D172DB6D801
:103B400000BF029D6D1C0295029D182DE3D3AEE7C8
:103B5000106062B6EFF3108372B6DA4B019C1C6002
:103B6000D32503E05F1C6D00072B4AD23B46106152
:103B70006CB2002C01D4116100E0116000240294A9
:103B8000029F172F1BD800BF029F7F1C0297029F26
:103B9000172F14D800BF029F7F1C0297029F172F78
:103BA0000DD800BF029F7F1C0297029F172F06D8D7
:103BB00000BF029F7F1C0297029F182FE3D3106063
:103BC0000294029F172FCDD800BF029F7F1C02973F
:103BD000029F172FC6D800BF029F7F1C0297029F2B
:103BE000172FBFD800BF029F7F1C0297029F172F7D
:103BF000B8D800BF029F7F1C0297029F182FE3D303
:103C0000B0E7106062B6EFF3108372B6AD4B019D62
:103C10001D60234604E0BB1C3743072F00D38AE016
:103C20001F46106111610294029B172B1BD800BF25
:103C3000029B5B1C0293029B172B14D800BF029BB4
:103C40005B1C0293029B172B0DD800BF029B5B1CD1
:103C50000293029B172B06D800BF029B5B1C0293AA
:103C6000029B182BE3D3106000250295029B172BB3
:103C70001BD800BF029B5B1C0293029B172B14D81E
:103C800000BF029B5B1C0293029B172B0DD800BF49
:103C9000029B5B1C0293029B172B06D800BF029B62
:103CA0005B1C0293029B182BE3D3106111610295F8
:103CB000029B172B1BD800BF029B5B1C0293029B2D
:103CC000172B14D800BF029B5B1C0293029B172B7F
:103CD0000DD800BF029B5B1C0293029B172B06D8DA
:103CE00000BF029B5B1C0293029B182BE3D3106066
:103CF0000295029B172B8ED800BF029B5B1C029380
:103D0000029B172B87D800BF029B5B1C0293029B70
:103D1000172B00D97FE700BF029B5B1C0293029B1D
:103D2000172B00D977E700BF029B5B1C0293029B15
:103D3000182BE1D36FE7106062B6EFF3108372B611
:103D4000604B019C1C60D52403E05D1C6400072BC4
:103D50004AD22B46106165B2002D01D4116100E0FA
:103D6000116000270297029D172D1BD800BF029DEE
:103D70006D1C0295029D172D14D800BF029D6D1C6D
:103D80000295029D172D0DD800BF029D6D1C029556
:103D9000029D172D06D800BF029D6D1C0295029D45
:103DA000182DE3D310600297029D172DCDD800BFC8
:103DB000029D6D1C0295029D172DC6D800BF029D65
:103DC0006D1C0295029D172DBFD800BF029D6D1C72
:103DD0000295029D172DB8D800BF029D6D1C02955B
:103DE000029D182DE3D3B0E7106062B6EFF31083A5
:103DF00072B6344B019C1C603D4603E0671C072CE7
:103E0000354649D23C461061EB0701D0116100E014
:103E1000116000230293029D172D1BD800BF029D45
:103E20006D1C0295029D172D14D800BF029D6D1CBC
:103E30000295029D172D0DD800BF029D6D1C0295A5
:103E4000029D172D06D800BF029D6D1C0295029D94
:103E5000182DE3D310600293029D172DCED800BF1A
:103E6000029D6D1C0295029D172DC7D800BF029DB3
:103E70006D1C0295029D172DC0D800BF029D6D1CC0
:103E80000295029D172DB9D800BF029D6D1C0295A9
:103E9000029D182DE3D3B1E7106062B6EFF31084F2
:103EA00072B6084C019D2560D92403E0731C6400A0
:103EB000072E4DD21E46106163B2002B04D411614F
:103EC00003E0C046A0320A40116000250295029B23
:103ED000172B1BD800BF029B5B1C0293029B172B66
:103EE00014D800BF029B5B1C0293029B172B0DD8BA
:103EF00000BF029B5B1C0293029B172B06D800BFDE
:103F0000029B5B1C0293029B182BE3D3106002956B
:103F1000029B172BCAD800BF029B5B1C0293029B1B
:103F2000172BC3D800BF029B5B1C0293029B172B6D
:103F3000BCD800BF029B5B1C0293029B172BB5D819
:103F400000BF029B5B1C0293029B182BE3D3ADE7DF
:103F5000106062B6EFF3108372B6E64B019C1C60F2
:103F6000222403E05D1C6400072B4AD22B4610611B
:103F700065B2002D01D4116100E0116000260296A7
:103F8000029D172D1BD800BF029D6D1C0295029D3E
:103F9000172D14D800BF029D6D1C0295029D172D90
:103FA0000DD800BF029D6D1C0295029D172D06D8ED
:103FB00000BF029D6D1C0295029D182DE3D3106079
:103FC0000296029D172DCDD800BF029D6D1C029553
:103FD000029D172DC6D800BF029D6D1C0295029D43
:103FE000172DBFD800BF029D6D1C0295029D172D95
:103FF000B8D800BF029D6D1C0295029D182DE3D319
:10400000B0E7106062B6EFF3108372B6B94B019C53
:104010001C60DA2403E05E1C6400072B4AD233469E
:10402000106165B2002D01D4116100E0116000251E
:104030000295029E172E1BD800BF029E761C029688
:10404000029E172E14D800BF029E761C0296029E76
:10405000172E0DD800BF029E761C0296029E172EC8
:1040600006D800BF029E761C0296029E182EE3D34D
:1040700010600295029E172ECDD800BF029E761CBE
:104080000296029E172EC6D800BF029E761C02968C
:10409000029E172EBFD800BF029E761C0296029E7B
:1040A000172EB8D800BF029E761C0296029E182ECC
:1040B000E3D3B0E7106062B6EFF3108372B68D4BB6
:1040C000019C1C60122403E05D1C6400072B4AD293
:1040D0002B46106165B2002D01D4116100E0116022
:1040E00000260296029D172D1BD800BF029D6D1C55
:1040F0000295029D172D14D800BF029D6D1C0295DC
:10410000029D172D0DD800BF029D6D1C0295029DCA
:10411000172D06D800BF029D6D1C0295029D182D1B
:10412000E3D310600296029D172DCDD800BF029DEB
:104130006D1C0295029D172DC6D800BF029D6D1CF7
:104140000295029D172DBFD800BF029D6D1C0295E0
:10415000029D172DB8D800BF029D6D1C0295029DCF
:10416000182DE3D3B0E7106062B6EFF3108372B698
:10417000DE4B019C1C60DB2403E05E1C6400072B0B
:104180004AD23346106165B2002D01D4116100E0BE
:10419000116000250295029E172E1BD800BF029EBB
:1041A000761C0296029E172E14D800BF029E761C23
:1041B0000296029E172E0DD800BF029E761C029614
:1041C000029E172E06D800BF029E761C0296029E03
:1041D000182EE3D310600295029E172ECDD800BF93
:1041E000029E761C0296029E172EC6D800BF029E23
:1041F000761C0296029E172EBFD800BF029E761C28
:104200000296029E172EB8D800BF029E761C029618
:10421000029E182EE3D3B0E7106062B6EFF310836E
:1042200072B6B24B019C1C60202403E05D1C64004C
:10423000072B4AD22B46106165B2002D01D41161C3
:1042400000E0116000260296029D172D1BD800BFCA
:10425000029D6D1C0295029D172D14D800BF029D72
:104260006D1C0295029D172D0DD800BF029D6D1C7F
:104270000295029D172D06D800BF029D6D1C029568
:10428000029D182DE3D310600296029D172DCDD804
:1042900000BF029D6D1C0295029D172DC6D800BF60
:1042A000029D6D1C0295029D172DBFD800BF029D77
:1042B0006D1C0295029D172DB8D800BF029D6D1C84
:1042C0000295029D182DE3D3B0E7106062B6EFF3BC
:1042D000108372B6854B019C1C608D2403E05E1C2C
:1042E0006400072B4CD23346106165B2002D03D415
:1042F000116102E0A0320A40116000250295029E81
:10430000172E1BD800BF029E761C0296029E172E07
:1043100014D800BF029E761C0296029E172E0DD85E
:1043200000BF029E761C0296029E172E06D800BF82
:10433000029E761C0296029E182EE3D31060029510
:10434000029E172ECBD800BF029E761C0296029EBC
:10435000172EC4D800BF029E761C0296029E172E0E
:10436000BDD800BF029E761C0296029E172EB6D8BC
:1043700000BF029E761C0296029E182EE3D3AEE783
:10438000106062B6EFF3108372B6584B019C1C604C
:10439000142403E05D1C6400072B4AD22B461061F5
:1043A00065B2002D01D4116100E011600026029673
:1043B000029D172D1BD800BF029D6D1C0295029D0A
:1043C000172D14D800BF029D6D1C0295029D172D5C
:1043D0000DD800BF029D6D1C0295029D172D06D8B9
:1043E00000BF029D6D1C0295029D182DE3D3106045
:1043F0000296029D172DCDD800BF029D6D1C02951F
:10440000029D172DC6D800BF029D6D1C0295029D0E
:10441000172DBFD800BF029D6D1C0295029D172D60
:10442000B8D800BF029D6D1C0295029D182DE3D3E4
:10443000B0E7106062B6EFF3108372B62B4B019CAD
:104440001C60AF2303E0661C5B00072C4AD2344695
:1044500010615DB2002D01D4116100E011600025F2
:104460000295029E172E1BD800BF029E761C029654
:10447000029E172E14D800BF029E761C0296029E42
:10448000172E0DD800BF029E761C0296029E172E94
:1044900006D800BF029E761C0296029E182EE3D319
:1044A00010600295029D172DCDD800BF029D6D1C96
:1044B0000295029D172DC6D800BF029D6D1C029566
:1044C000029D172DBFD800BF029D6D1C0295029D55
:1044D000172DB8D800BF029D6D1C0295029D182DA6
:1044E000E3D3B0E7106062B603B0F0BDA0320A407B
:1044F000F0B585B01346303BDBB2092B03D805225B
:104500005A43A44B08E01346413BDBB2192B00D9B8
:1045100000E105225A439E4B9A1802920CE1196061
:1045200062B6401C052858D0029C255CEFF310842D
:1045300072B6039C994E3460019E03E07E1C6D00B0
:10454000072FECD2374619616CB2002C01D41A61E6
:1045500000E01A6000240494049E172E1BD800BFAC
:10456000049E761C0496049E172E14D800BF049E49
:10457000761C0496049E172E0DD800BF049E761C50
:104580000496049E172E06D800BF049E761C04963F
:10459000049E182EE3D319600494049E172ECDD8E0
:1045A00000BF049E761C0496049E172EC6D800BF3A
:1045B000049E761C0496049E172EBFD800BF049E4E
:1045C000761C0496049E172EB8D800BF049E761C55
:1045D0000496049E182EE3D3B0E7EFF3108072B672
:1045E00003986E4D28602046009F04E0A81C3D43C0
:1045F000072D00D38AE0054619611A6104940498D6
:1046000017281BD800BF0498401C04900498172852
:1046100014D800BF0498401C0490049817280DD8A3
:1046200000BF0498401C04900498172806D800BFC7
:104630000498401C049004981828E3D319600020C3
:104640000490049E172E1BD800BF049E761C04966F
:10465000049E172E14D800BF049E761C0496049E58
:10466000172E0DD800BF049E761C0496049E172EAC
:1046700006D800BF049E761C0496049E182EE3D331
:1046800019611A610490049E172E1BD800BF049E66
:10469000761C0496049E172E14D800BF049E761C28
:1046A0000496049E172E0DD800BF049E761C049617
:1046B000049E172E06D800BF049E761C0496049E06
:1046C000182EE3D319600490049817288ED800BFE1
:1046D0000498401C04900498172887D800BF0498B9
:1046E000401C04900498172800D97FE700BF049865
:1046F000401C04900498172800D977E700BF04985D
:10470000401C049004981828E1D36FE7196062B642
:1047100005B0F0BD2B3A0F2A1CD812A30293C04655
:104720007A44127952009744131517191B15151561
:10473000151515151515150701F072FB0120C1039C
:10474000039101070090C2070020134B0190EBE694
:1047500006A2E2E60D4AE0E606A2DEE609A2DCE6F3
:1047600006A2DAE6003636000000000008083E081F
:1047700008000000080808080800000020100804CD
:10478000020000000060600000000000786B000084
:10479000AF6B00007D6B000090120A4090320A401F
:1047A000F0B58DB0039314460D4602900A271046CB
:1047B000394601F037FF4743E11B302739430AAA46
:1047C000117001260A2C02D20996029F89E00A2163
:1047D000FBF7E2FC39430AA84170642C69D36421D9
:1047E000204601F01FFF0A21FBF7D6FC39430AA837
:1047F0008170E0087D2860D37D20C100204601F053
:1048000011FF0A21FBF7C8FC39430AA8C170002632
:10481000C3488442099654D3C149204601F002FF9F
:104820000A21FBF7B9FC39430AA80171BD4884424B
:104830004AD3BC49204601F0F5FE0A21FBF7ACFC47
:1048400039430AA84171B848844240D3B64920464A
:1048500001F0E8FE0A21FBF79FFC39430AA88171A9
:10486000B248844236D3B149204601F0DBFE0A212A
:10487000FBF792FC39430AA8C171AD4884422CD39E
:10488000AB49204601F0CEFE0A210E46FBF784FC20
:10489000089739430AA80172A6488442029F1FD391
:1048A000A449204601F0BEFE089908430AA94872AF
:1048B00017E009960226029F13E009960326029F3D
:1048C0000FE00426029F0CE00526029F09E0062661
:1048D000029F06E00726029F03E00826029F00E0F1
:1048E00009260A2C30D30AA834463118491E0A7802
:1048F0000A9B02700B707008012800D801200999EA
:10490000002921D10AA97218921E13784C784B7095
:104910001470022818D00AA97218D21E13788C7845
:104920008B70147003280FD00AA97218121F137805
:10493000CC78CB701470042806D00AA83118491F0F
:104940000A780B9B02710B7003998E4200D3CCE066
:104950008C1B012322461A40701E0890F043C84267
:104960000095019209D1002337460198002800D014
:1049700085E0009D029F039EB7E005939C430AA833
:10498000001F049000233746184606940AE00AA840
:1049900001700798801C9B1C099EB61CBF1C069CBE
:1049A000A042E2D0079003223D46154031463846EA
:1049B000099618D0711E0AA8465C099C0655099EE6
:1049C000012D01D1781E0EE0B41E0AA8065D4654E2
:1049D000022D02D1B81E214605E00998C11E0AA881
:1049E000455C0555F81E089CE518EDB2032D0DD366
:1049F000049C6118CD780D718D784E788E70CD70D5
:104A00000D784D70091F001F0506F3D10AA820215B
:104A10000170781C0240099C651C002A18D00AA865
:104A2000099E865D4655099E012A354638460FD0B7
:104A3000751E0AA8465D099C06550998022A01D1EF
:104A4000781E05E0821E0AA8865C4655B81E1546EB
:104A50001A46059C2243089CA218D2B2032A96D378
:104A6000049A5219D5781571957856789670D57044
:104A700015785570121F001F0506F3D187E7032232
:104A80003A400898C018002A07D0711E0AAB5C5C37
:104A90009C55012A03D17F1E0FE031460DE0B31E65
:104AA0000AACE55C6554022A02D1BF1E194604E037
:104AB000F11E0AAA545CD454FF1E009D039EC0B28E
:104AC00003280ED30AA80818001FC1780171817845
:104AD00042788270C17001784170001F3F1F390613
:104AE000F3D10AA820210170029F0AA80021815554
:104AF000142F12D8007800280FD00AA94C1CFEB23F
:104B0000C2B230462946FFF7F3FC132E05D8611CCC
:104B10007F1C207800280C46F1D10DB0F0BDC046B6
:104B200010270000A086010040420F0080969800E8
:104B300000E1F50500CA9A3BF0B591B00493002A54
:104B40000291039001D42B2000E02D200EAD28709F
:104B5000D0174240171A0A263846314601F062FD46
:104B60004643B91B30242143697001230A2F03D225
:104B70001E46029D049963E00D930A21FBF70CFB8E
:104B800021430EA88170642F54D36421384601F06C
:104B900049FD0A21FBF700FB21430EA8C170F8086C
:104BA0007D2849D37D20C100384601F03BFD0A2114
:104BB000FBF7F2FA21430EA801710023B7488742A0
:104BC00000D225E10D93B549384601F02BFD0A21AD
:104BD000FBF7E2FA21430EA84171B148874200D2A7
:104BE00055E1AF49384601F01DFD0A21FBF7D4FA23
:104BF00021430EA88171AB48874200D249E1A949FF
:104C0000384601F00FFD0A21FBF7C6FA21430EA832
:104C1000C171A5488742029D00D23CE1A2493846B5
:104C200001F000FD0A21FBF7B7FA21430EA801723B
:104C3000082603E0022600E00326029D04990D9B4E
:104C40000A2F039F27D30EA8815D427841708255B9
:104C50007008012800D80120002B04991BD10EA94F
:104C60007218521E13788C788B7004991470022875
:104C700011D00EA97218921E1378CC78CB700499BB
:104C80001470032807D00EA83118C91E0A780F9B8C
:104C900002710B7004998E4212D28B1B01241A46AA
:104CA0002240701E0B90F043C84201920AD10024AA
:104CB00030460199002900D091E0029D039FCAE08F
:104CC0003146C9E00694A3430EA8401C0590002479
:104CD0003046214607930CE00EA9089A4A700A99BB
:104CE000891C0C9CA41C0D9EB61C801C079B994221
:104CF000DFD00A910321054609910D403746014650
:104D000017D00EA98F19895D7970771E012D01D1F9
:104D1000411E0EE00EA9CF5D8F55B71E022D01D1A9
:104D2000811E06E00EA9CD5D7118491E0D70F71E9B
:104D3000C11E0D960B9A0C941519EDB2032D10D3CC
:104D4000059AD5196F1E3A782A70AA1E1478EE1E9D
:104D5000337813703C702D1F2A783270091F0A06B1
:104D6000F0D10EA920224A70411C099E0E400D9BD5
:104D70005D1C002E089210D00EA95A18495D917042
:104D8000012E1F4601460C9C0FD00EA9CA5C4A5545
:104D90005F1E022E04D1411E07E02F460C9C04E04A
:104DA0000EA9CA5DCA549F1E811E2246069B1A4345
:104DB0000B9B9A18D2B2032A8ED3059AD3195A1E86
:104DC00014781C709C1E2578DE1E377827701570AD
:104DD0001B1F1A783270091F0A06F0D17CE70323E3
:104DE00003400B990919002B08D00EAA9419925D63
:104DF0006270721E012B03D1401E12E0324610E099
:104E00000EACA25CA255B21E022B03D1801E08E09C
:104E10000426AEE60EAB9A5CF3185B1E1A70F21E07
:104E2000C01E039FC9B2032911D30EA95118491CF2
:104E30004A1E13780B708B1E1C78CD1E2E781E70A8
:104E40001470091F0A782A70001F0206F0D10EA8FC
:104E500020214170029D04990EA8091800224A7071
:104E6000142F12D8007800280FD00EA94C1CFEB2C7
:104E7000C2B230462946FFF73BFB132E05D8611C12
:104E80007F1C207800280C46F1D111B0F0BD05261A
:104E9000D3E60626D1E60726D0E6C0461027000056
:104EA000A086010040420F0080969800F0B581B0C6
:104EB00005461078002810D0142D0ED80C46571C2B
:104EC000EEB2C2B230462146FFF712FB3878002816
:104ED00003D07F1C6D1C142EF2D301B0F0BD000076
:104EE000F0B593B00593154603910746002A01D407
:104EF000002404E00FA82D2101706D4201240A2630
:104F00002846314601F08EFB019002963146FBF7B0
:104F100043F90FA800193026314301700120642D98
:104F20000D94069504960E9002D22246054644E062
:104F30006421284601F076FB0A21FBF72DF90D9A32
:104F40000FA8101831434170E8087D2830D37D2028
:104F5000C100284601F066FB0A21FBF71DF90D9AF6
:104F60000FA8801831438170B048854222D3AF49E1
:104F7000284601F057FB0A21FBF70EF9049B0D9A16
:104F80000FA810181943C17000200E90A848854240
:104F900012D3A74928461C4601F044FB0A21FBF71F
:104FA000FBF80D9A0FA8801821430171052504E034
:104FB000022502E0032500E004250698642818D3A2
:104FC0000FA90D980A1813780D9840194118491E19
:104FD0000C7814700D9A0B700E99002909D10FA945
:104FE0000D9A521853784018801E017851700D9A0E
:104FF000037005998D4200D3ECE04C1B012620463E
:10500000304000906B1EE843C84208D100200E904B
:1050100028460099002900D098E0059DDAE009961D
:10502000B4430FA81018001F0890002128460E91C5
:105030000E4607970C930A940EE00FA90D9A891853
:105040000B700B9EB61C0E99891C0E91AD1C801C1A
:105050000A9CA6420C9BDCD00B96032604463440E7
:105060002A4601461FD00D9B59190FAA57187F1EBB
:105070003F7857546A1E012C01D1411E12E0991845
:105080000FAA57187F1E3F785754AA1E022C01D131
:10509000811E07E099180FAA5418641E24785454EE
:1050A000EA1EC11E0C9B0E9C1C19E4B2032C0DD3EE
:1050B000089CA218D4781471947857789770D4709B
:1050C00014785470121F091F0C06F3D10FA90D9A02
:1050D000891820230B70411C0E406C1C002E13D02D
:1050E000111952190FACA75C6754012E2C460146CA
:1050F000079F14D00FA98C18641E24788C546C1E42
:10510000022E03D1411E0AE0079F08E00D990919FC
:105110000FAA5418641E24785454AC1E811E0E9A93
:10512000099E32430C9EB218D2B2032A85D3089A44
:105130001419E2782271A2786678A670E27022785B
:105140006270241F091F0A06F3D176E70324044086
:105150000E995918002C0CD00E91114652190FAB14
:105160009E18761E36789E546A1E012C04D1401E6D
:1051700015E02A46059D14E08A180FAB9E18761E8E
:1051800036789E54AA1E022C01D1801E07E08A1890
:105190000FAB9C18641E24789C54EA1EC01E059D0B
:1051A0000E99C9B2032910D30D9951180FAA891865
:1051B000091FCA780A718A784B788B70CA700A788E
:1051C0004A70091F001F0206F3D10FA80D9A80181C
:1051D00020210170A918CAB20FA82E238354029B64
:1051E000019A5343069AD21A049B1A434B1CDBB212
:1051F000C254891CC9B200224254142F039D12D8F4
:10520000007800280FD00FA94C1CFEB2C2B2304665
:105210002946FFF76DF9132E05D8611C7F1C2078F5
:1052200000280C46F1D113B0F0BDC0461027000095
:10523000A086010080B507480749FCF7B3FD074881
:1052400000210160064807494161016801220A43C3
:10525000026080BD00200040346C000080310040BE
:105260000031004071020000B0B5304988228A63E5
:105270002F4804230360CA63082202602D4B862254
:105280001A600124220402602B4A951CDD66551C1D
:105290000D604D6064060D6825430D604D68254323
:1052A0004D6082240C654A658C65CA65234CDC61BF
:1052B000234C0C6681254D66DD609D605D619D61BE
:1052C0009C659C66DC63DC648D67CD678D604D6199
:1052D0009D625D609C635C65CC641A491A4B0B60EF
:1052E0000B63823A19490B6813430B600A69184B28
:1052F00013430B6117490A6A174B1A430A620A687B
:105300001A430A6001463039144A0A6002601448A0
:105310000168144A0A4302601120000512490A6A12
:1053200002430A620A6802430A60B0BD0480424038
:10533000D0320A408480424082000400810005008F
:1053400081000600A0120A400070039090130A40EA
:105350000030170028100A400002400700C2020077
:10536000A0330A400001010028300A4010B5194C52
:1053700019492046FCF7CAFF18492046FCF7A2FF4E
:105380000320C103164802688A4302600169B54AD6
:105390000A401532026141692D220A4312218A43D3
:1053A0004261426801210A4043688B439A18426077
:1053B0004A04036813430360C26870231343C36045
:1053C000C2680223134305229343C36002680A4361
:1053D000026010BD000010403C6C00003E6C0000FC
:1053E0000011104080B511481149FCF72BFD032036
:1053F0004102104802680A43026001210A02036860
:10540000134303600022426109224262826B072338
:105410009A4382631A02836B93438363826A0423F1
:1054200013438362826A0A43826280BD00000F4098
:10543000486C000000120F4070B582B0194C1A4938
:105440002046FCF731FF19492046FCF785FD002571
:105450000095204629462A462B46FCF711FF204698
:1054600029462A46FCF7FEFE204629462A46FCF736
:1054700013FF01260096204629462A462B46FCF7B4
:10548000FFFE204629463246FCF7ECFE2046294620
:105490003246FCF701FF064886600321016002B036
:1054A00070BDC046002086404A6C0000506C000071
:1054B00000318640B0B582B0144D15492846FCF73E
:1054C000F3FE14492846FCF7F5FD01240094002161
:1054D00028460A460B46FCF7D3FEA104284622467E
:1054E000FCF7C0FE7D20810028462246FCF7D4FE52
:1054F000094801461C390C600146243902220A6021
:1055000001682143016002B0B0BDC04600A08640E2
:10551000586C00005C6C000024B1864010B5094C4A
:1055200009492046FCF7C0FE08492046FCF754FD17
:105530000748016811220A43026006480121016000
:1055400010BDC04600000940746C0000646C00008F
:10555000281009400811094070B51848002404605B
:105560000F200002164D2968814301267002081899
:1055700028600320C043291F0A6802400A60686847
:10558000B043686030026968814369600D48FCF788
:105590006DFC2868102101432020814329603003DD
:1055A0002968014329602046FCF7C2FCFF20000265
:1055B00005490A6882430A6070BDC04608030B4073
:1055C00004010B40786C000000E400E0704700002C
:1055D00010B5084C08492046FCF766FE07492046EE
:1055E000FCF7C8FD06480168012211430160054827
:1055F000026010BD00400840A06C0000A46C0000D8
:10560000285008400851084010B5124C1249204655
:10561000FCF77CFE11492046FCF754FE0320C10331
:105620000F4802688A43026001690E4A0A40153237
:10563000026141692D220A4312218A434261416875
:105640000122114043689343591841600168114396
:10565000016010BD00801040B86C0000BA6C000002
:10566000009110400000FFFF80B500F023F8FFF725
:10567000FBFDFFF771FFFFF7DFFEFFF71BFFFFF7F3
:105680004DFFFFF7A5FFFFF7ADFEFFF7BDFFFFF7EB
:105690006DFEFFF7CFFDFFF799FF7420034900224D
:1056A0000A54B82002490A5480BDC0461C0120207B
:1056B00060002020F0B581B01448154A42601548BA
:1056C00042601548426015484260154D6A60154EAB
:1056D0007260154F7A60154B5A6015494A6015483B
:1056E0004260154A094C22600A4C22600A4C226032
:1056F0000A4C22602A6032603A601A600A600260D6
:105700001020FCF76FFB01B0F0BDC04600080A4056
:10571000030000B100280A400028864000A8864007
:10572000000809400048084000080F400088104069
:10573000000810400028004001000026EFF3108010
:10574000EFF3108172B6A34900220A70002800D03E
:10575000704762B67047C046EFF31081002827D02B
:10576000EFF3108272B6884A12680260874A1268A4
:105770004260874A12688260544A1268C260544A82
:1057800012680261534A12888282534A12788275E3
:10579000002900D162B67F490A685202D20FC27551
:1057A0000A68D201D20F027609688905C90F4176CD
:1057B0007047C04670B5044605208005044239D0C4
:1057C00020480168490D02220A400068C001C00F4C
:1057D00085181D4E307880002818C0B21B49C14082
:1057E000C9071FD11BA10A5667490B689A180A609E
:1057F000784A1278002A1CD01A4AC240D20704D034
:105800000A68734B1B689A4208DA174AC240D007ED
:105810000FD008686D49096888420ADC002000F052
:105820004DF906E03078854203D009480168491CEB
:1058300001603570A00503D554480168491C01601A
:1058400070BDC04680130A40900220206996000077
:105850002802202000FF0100010000FFFF000001DE
:105860000001FF001428000082410000464900208A
:1058700008604649086046490860144908601449B0
:105880000860144908801449087042490A68520D9A
:10589000022313400968C901C90FC9183E4A117093
:1058A0004C4908703D4801683D4A0A4302600B4874
:1058B000011F0B4A0A607D4904220A607C490A6084
:1058C000016801220A4302607047C046A4022020FA
:1058D000A00220209C022020A802202004180940B9
:1058E000FEFF000070B5EFF31081EFF3108272B687
:1058F000254A1268354B1B68354C2568354C247891
:10590000002900D162B60121002819D0002C17D03F
:1059100001240021AA42254600DB0D460128264627
:1059200000DB0E462E43012E0AD19A4203DC0021F1
:10593000002803DB03E00121002800DA0C462146A1
:10594000084670BDEFF31081EFF3108272B60E4A75
:1059500010600E48002202600D4802600D48026887
:10596000520D022313400068C001C00FC0180A4A3C
:1059700010700A4802680A4B13430360002900D0E4
:10598000704762B67047C046AC022020200220203B
:105990002802202080130A409002202048100A404C
:1059A00000024001EFF3108288420BDAEFF310831C
:1059B00072B6064B18600648016006480121017066
:1059C000002A00D0704762B67047C04620032020EE
:1059D0001C0320201803202070B5AC4E00240125A4
:1059E000304621462A46FCF73DFC304621462A46F1
:1059F000FCF752FCA6480168A94301609F48047067
:105A0000A448046028032649086070BD01200003F3
:105A1000014908607047C04690120A4098480068E3
:105A20007047C046F0B581B09548002505609348A1
:105A300005701948411C934A1160964F3D60924988
:105A400008600124600415490860904E30462946DC
:105A50002246FCF707FC304629462246FCF71CFC90
:105A60008B480168A1430160844805703D602003B4
:105A70000B4908600B480168C0220A433F218A4352
:105A8000026009480168214301602005E14908607E
:105A9000E149086001B0F0BDFFFFFF7FA0320A407E
:105AA000A0120A4014E400E028B0864080E200E042
:105AB00000E100E07248002101607047F0B581B05C
:105AC0000546012824DB6E4800686F490968884252
:105AD00029DA01212C464248844200D304460F2C87
