:020000040000FA
:10000000300720206D010000710100007301000025
:1000100000000000000000000000000000000000E0
:10002000000000000000000000000000750100005A
:1000300000000000000000007701000079010000CE
:100040007B01000045260000455F00007B010000A9
:100050007B0100007B0100007B0100007B010000B0
:10006000000000007B0100007B0100000000000098
:1000700000000000D15F00007B0100007B01000058
:100080009D5E00007B0100007B0100007B01000001
:10009000B55E00007B0100000000000000000000D1
:1000A0007B0100007B010000000000000000000058
:1000B0007B010000000000007B0100007B010000CC
:1000C00000F002F800F042F812A030C808382418F6
:1000D0002D18AC4201D100F039F80FCCA246AB4646
:1000E0000CA730CF2D1B083F3F197C427F1E544484
:1000F0002D090426F441641EAC4201D300F026F819
:100100000126334200D0FB1A3343984754465D46DC
:10011000DFE70000CC6F0000DC6F00000000000093
:100120007047000000000000002300240025002686
:10013000103A01D378C1FBD8520700D330C100D5A3
:100140000B6070471FB51FBD10B510BD00F05CFA05
:100150001146FFF7F7FF05F057FF00F074FA03B4FC
:10016000FFF7F2FF03BC00F0C9FA000006480047A1
:10017000FEE7FEE7FEE7FEE7FEE7FEE70348044989
:10018000024A044B70470000C100000030032020E9
:100190003007202030032020002203098B4273D334
:1001A000030A8B4258D3030B8B423CD3030C8B4284
:1001B00021D312E003460B437FD4002243088B4235
:1001C00074D303098B425FD3030A8B4244D3030BDE
:1001D0008B4228D3030C8B420DD30902FF2212BAA3
:1001E000030C8B4202D31212090265D0030B8B421F
:1001F00019D300E0090AC30B8B4201D3CB03C01A09
:100200005241830B8B4201D38B03C01A5241430BE3
:100210008B4201D34B03C01A5241030B8B4201D3D3
:100220000B03C01A5241C30A8B4201D3CB02C01A3E
:100230005241830A8B4201D38B02C01A5241430AB6
:100240008B4201D34B02C01A5241030A8B4201D3A5
:100250000B02C01A5241CDD2C3098B4201D3CB014C
:10026000C01A524183098B4201D38B01C01A5241FB
:1002700043098B4201D34B01C01A524103098B42FF
:1002800001D30B01C01A5241C3088B4201D3CB00EA
:10029000C01A524183088B4201D38B00C01A5241CD
:1002A00043088B4201D34B00C01A5241411A00D27D
:1002B00001465241104670475DE0CA0F00D04942E6
:1002C000031000D3404253409C46002203098B4256
:1002D0002DD3030A8B4212D38901FC2212BA030ADE
:1002E0008B420CD3890192118B4208D38901921160
:1002F0008B4204D389013AD0921100E08909C309E5
:100300008B4201D3CB01C01A524183098B4201D3E6
:100310008B01C01A524143098B4201D34B01C01AD1
:10032000524103098B4201D30B01C01A5241C30849
:100330008B4201D3CB00C01A524183088B4201D3B8
:100340008B00C01A5241D9D243088B4201D34B00D3
:10035000C01A5241411A00D201465241104663462A
:100360005B1001D34042002B00D5494270476346E1
:100370005B1000D3404201B50449002802DC491C4F
:10038000084000E00846C046C04602BDFFFFFF7FB0
:100390007047704770470000F0B5FF252D04C6096F
:1003A000C209FF2704462E400137CB093E4348408F
:1003B0002A402B400746002A6BD0002B69D0AA4266
:1003C00067D0AB4265D0002800DA32460125ED0542
:1003D00029432C4309022002090AD21A4B0C7F241C
:1003E000E31A434C000A7C44E35C7D242404121984
:1003F00014145B00A218884201D3521C00E0400094
:1004000049420C465C4324115C43DB016415E3184C
:10041000040A5C43C502200D0C4644436419250AB6
:100420005D432303EC0C0D46654300030019EB18F4
:100430004C42A34201D35B18401CD4052018002B6A
:1004400007D05B00C91804D3401C002901D1400823
:1004500040003F2189048A4209D3002A08DC1106A2
:10046000090F04D0032149074018C00FC007F0BD91
:1004700001224100120689187F2252069142F6D2CB
:1004800005214907C84201D59010F0BDFF20C005E5
:10049000F0BD002F00DA32461648AA4207D2AB421E
:1004A00005D21902090E17D0F80FC007F0BDFF25BD
:1004B00063002D06AB42F9D84900A942F6D8AB42F9
:1004C00001D1A942F2D0A94201D1002101E061008D
:1004D0004908D0050843F0BD1102090EFBD0FF20EA
:1004E0000243D005F0BD0A460146104654E700001D
:1004F0000A6A00000000C07F10B501469E24000279
:10050000CA15A307002A02D01843002A04DBA21A46
:10051000002A0CDDD04010BD1206120E01D14000A1
:100520004008A21A03D4D04040420028F3DDFF2245
:1005300048001206904201D9002010BDC817C043E0
:10054000584010BD1F22030C02D10F2200041CD002
:10055000030E01D10002083A030F01D10001121F5E
:10056000830F01D18000921E002801DB4000521E43
:10057000D2055118021251181922904004D3491C77
:10058000002801D14908490008467047C10FC90732
:1005900000D04042012292071143D3E7012189078D
:1005A000D0E7000010B5FF231B0644009C421DD875
:1005B0004C009C421AD80346124A0B4307D4401AF7
:1005C00002D3EFF3008010BDEFF3008010BD081AD6
:1005D00003D3EFF30080904305E0EFF300800121A7
:1005E0009043C907084380F3008810BD0D231B0406
:1005F0001A4204D01146002000F02DF810BD00F082
:1006000041F810BD00000090754600F043F8AE467A
:10061000050069465346C008C000854618B020B59D
:10062000FFF7ACFD60BCB64600260027C0C5C0C5BC
:10063000C0C5C0C5C0C5C0C5C0C5C0C5403D4908CE
:1006400049008D46704710B50446C046C046204656
:10065000FFF785FD10BDC80212D54803400F0028E2
:1006600004D0C803C043012188407047EFF30080E5
:100670000001000903210907084380F3008870473F
:100680000020704710B5024800F008F810BD0000C7
:100690000000C07F004870470000202010B50C46C5
:1006A0001107090F092904D00A290AD008290CD1F9
:1006B00004E011460820FFF7CEFF06E0510606D5FC
:1006C00001E0510601D50120C007214610BDD10629
:1006D00007D501010909CC084907000E00060443AB
:1006E00009E0410F20024907000A0143200E0006DD
:1006F0001D22D14101430846E7E7000001491820C7
:10070000ABBEFEE726000200704700005F480021F4
:1007100001705F48017062480160604801601848DC
:100720000180704759480078411F4842484170474E
:10073000134908807047C046B0B5044658480025A4
:100740000560534804705548056000F0C3F8042064
:10075000032C09D0022C0AD0012C0DD1002000F06E
:1007600067F90125074904E00549098800E02946A1
:10077000054608B200F0D0F944480570B0BDC04647
:10078000F0012020CEFF0000F0B581B004463F4FBD
:100790003878002878D0204600F0CCF93878052841
:1007A00072D000F005F9054600F0B2F8064600F0F8
:1007B000ABF837490978012966D1397803292AD05D
:1007C000022942D001295FD1002D5DD0344A116841
:1007D000002901D1146021461F3882B22D4D01201D
:1007E0000023AA42024600D31A460B3EB5B22A4E57
:1007F000B54200D31846104303D0601A00097D2883
:1008000042D3012000F014F9322000F085F9244889
:100810000460022037E01F3881B21E4B0120002205
:100820009942014600D311460B3EB3B21A4EB34271
:1008300000D3104608436942694101431748012922
:100840001BD10021016002201DE01F3881B2114B35
:10085000012000229942014600D311460B3EB3B25B
:100860000D4EB34200D3104608436942694101432B
:100870000AD10A480460032005E00068201A8008B5
:100880007D2801D30520387001B0F0BDA8012020DB
:1008900076022020C3FF0000EBFF0000D8022020DA
:1008A0007C02202080B58B49002008703F490870E9
:1008B0003749088037490880384908705B49086023
:1008C0004B218900364A116005F04EFA05F0DAF93D
:1008D00080BDC04680B596480021016033480122A2
:1008E00002707C4801702A4801802A4801802A4809
:1008F00001602A4801704D4801604B208000284962
:10090000086005F0D9F980BD00202249085E7047D3
:1009100000207749085E704700201D49085E704737
:1009200000208249085E70471D4800687047C04635
:100930006F49002008807D4908807D4908601B4977
:1009400008706449087012490880124908801249E9
:10095000086012490870354908606849594A0A60B8
:100960006849594A0A606949584A0A606849584AB8
:100970000A606849087052490870614908804B2034
:100980008000074908607F20C0055F490860704704
:10099000780220209C012020340220201E032020E9
:1009A00018032020014800787047C046F801202035
:1009B000484800787047C04610B5012807D0032882
:1009C00001D002280FD14049174A0B4602E0144BD0
:1009D0001449424A4B4C216048490A604A490B601D
:1009E0003749087016E047483749016043483549A0
:1009F0000160464835490160454835490160454830
:100A0000002101702E4801703D4801807F20C00503
:100A10003D4908600548002101604548016010BD5E
:100A20009A99993ECDCCCC3D6666E63FE002202007
:100A3000F0B582B022490978002901D002B0F0BD9A
:100A4000002701281AD10097224A17782249234EFD
:100A5000234A244D244C012F019218D10027244A07
:100A6000D15F324AD25F531A224A934200DB1346C7
:100A7000214A934200DC1346174909E07F22D10541
:100A800001911049104E114D114C3B4601E0174B9E
:100A9000009F1A4A11601A4A13801A4A16601A4AAD
:100AA00001991160194A1560194A1460204A1760AB
:100AB000401E414241411748017002B0F0BDC0469E
:100AC00080022020F6281C3FCDCC4C3F0000C841BE
:100AD000000070421F0320209A99193F3333333F9F
:100AE000CDCC8C3F00004041000048C2CEFF00004A
:100AF000FA012020FF7F00000080FFFF8C022020F1
:100B0000AA022020880220202C032020100220206E
:100B10000C022020A902202082B2F2490B889342C5
:100B200002D0F74A00231360088070471C0320207E
:100B300024022020F0B58FB00546E7480078012850
:100B400000D0C7E1E5480178012905D1E4490968E9
:100B5000691A142900D2BDE101240470E04805603F
:100B600000F0FAFB06469621284600F015FC002806
:100B70003AD003940020345EDA490D5E2F1BDA4828
:100B8000874200DB07460296D848874200DC0746CA
:100B9000D74807803846FFF7F9FC0590A8B20690C1
:100BA000D54800780790002828D1D248056800264B
:100BB0002846314605F0ABFF00281FD1A4B2D34828
:100BC00000780490002823D1D148069981421FD192
:100BD0000020D049085EFFF7D9FC019020B2FFF752
:100BE000D5FC0146019823E0CC4800210180D4487F
:100BF0000170C34801604B208000D4E007980028B2
:100C000027D0BE49059806F035F8BD49096832E09D
:100C1000049801281DD1069832281AD120B2FFF776
:100C2000B5FC0446BB48805FFFF7B0FC0146204698
:100C300006F078F8294605F077FF002809D0B0487B
:100C4000066002984088B5490880B8480468039F48
:100C50004DE0AB4805680A37B8B2142806D8AE494B
:100C6000284606F007F80546039F17E0A3490598B4
:100C700006F000F8294605F063FF0546A14E31460F
:100C800005F03AFF002800D12E469F4D30462946F8
:100C900005F04AFF0028039F00D135460299984885
:100CA00005600220085E9D490880FFF76FFC04463E
:100CB0009B480068294605F0DDFF05469948006815
:100CC000059905F0D7FF294605F03AFF05469648F5
:100CD0000068214605F0CEFF0146284606F022F8BE
:100CE0000121CC0744408948007804903E46904D4D
:100CF0002046294605F000FF002800D125468D4CEE
:100D00002846214605F010FF002800D12C46002E71
:100D10000AD00798002807D10498012804D1069822
:100D2000322801D1FF2538E00798032810D1069812
:100D300000B25921C94388420DDD5A280EDA002835
:100D40000FD4851C05212846FFF726FA681A14E0FF
:100D50004B20850021E008465A28F0DB5A20002865
:100D6000EFD5801E41B267224A43D10F520A511873
:100D700005224A43811A49B2401A5A3000B26E49DC
:100D80004143C80F4914081880B2242800D32420F6
:100D900080006A4908180221455E694807702046AC
:100DA000FFF7AAFB28186749086000F009FD002832
:100DB00009D000F00DFD7F21C90505F0B5FE0546FF
:100DC000401E854100E000254B480078032806D0EE
:100DD00002280BD1002D00D05D4D5E4E0DE0002DA0
:100DE00000D0594D01208607584C07E0002D00D057
:100DF0005A4D012800D00025594E574C284621460F
:100E000005F07AFE0028274600D12F4607960120DC
:100E1000C007069044403846214605F085FE00286C
:100E200000D13C464F4805682046294605F07AFF28
:100E30000646079F394605F06AFE002804D1384669
:100E4000294605F07DFE0AE006997940304605F016
:100E500048FE002804D12846394605F063FF0446C1
:100E6000404804602046FFF747FB364C21680818CD
:100E7000322800DC32203C49884200D308462060FA
:100E800008A804F0BFFD20680899401AFFF77EFB10
:100E90004121090605F0EEFE0546344C214605F0D9
:100EA0002BFE002800D12C46314D2046294605F066
:100EB0003BFE002800D125462846FFF71DFB0446CF
:100EC00004F066FE002800D104462A48048020462B
:100ED00004F04AFF0FB0F0BDF80120201E032020CF
:100EE000340220201C032020FF7F00000080FFFF31
:100EF000FA01202010022020800220200AD7A33CE3
:100F0000240220200000FA430000FAC3A902202096
:100F1000CEFF0000AA022020CDCC4C3F9C01202017
:100F2000880220208C0220202C0320200C0220206C
:100F300000007A4300007AC3676600008C6F0000EF
:100F40001F032020180320200000C0400000204282
:100F500000000842000040410000A0420000F041B3
:100F600000007041E00220201A0400000080BB4411
:100F70000080BBC478022020002801D000207047E8
:100F80004949087800220A707047C0463F4800214E
:100F90000160414801704248016042480160424896
:100FA0000170384800683D4A11703A4A1170400398
:100FB000C00F3749087034490870704710B531497F
:100FC00009684903C90F304A1378994213D1304B4D
:100FD0001A78914216D02D4C2468041B1E2C10D375
:100FE0001970002921D0002A1FD12A4900220A7035
:100FF0002C4908600CE0254B1860117024490978D1
:1010000000E01146002918D02249097800292CD186
:1010100024490968401AC0087D2826D31D480121AB
:1010200001702148032101701AE00029EAD1002A49
:10103000E8D018490978002918D0184909780129F9
:1010400013D117490968401A80084B280DD312485C
:101050000078012801D8012000E002201249087020
:101060000E48002101700C48017010BD0A490A7831
:10107000FF2A01D0521C0A70084901220A7008494F
:101080000860DEE780130A40BC012020C001202058
:10109000B8012020D4012020C4012020CC01202030
:1010A000C8012020D0012020D8012020F0B584B034
:1010B000B54B1A68521C1A60B44C2278032A37D8F0
:1010C0007A44127952009744010B191FAA2800D0C4
:1010D00080E0012020709F48AA21017004B0F0BD7B
:1010E000AA2877D0552873D19A48552141700220FB
:1010F00020705868401C586004B0F0BD01286ED0C4
:10110000022873D106216BE092498A78012A57D0D0
:101110000122824257D05A69521C5A610022AA28E1
:10112000104602D1AA200870012099490A706AE08D
:10113000884DA854501C2070954A1278C0B2904235
:1011400000D205E1D51E019102925FD001202C460C
:101150000440042A009400D08FE0002427467D49F3
:101160000098002854D00819817879404C00072055
:1011700049B2002900D54440610062B2002A00D57E
:1011800041404A0049B2002900D54240510052B2C4
:10119000002A00D541404A0049B2002900D542400A
:1011A000510052B2002A00D541404A0049B20029FC
:1011B00000D54240570051B2002928D5474026E0CB
:1011C00007228242A7D104222270C87004B0F0BD69
:1011D000002020705869401C586104B0F0BD0C21FB
:1011E0005C4A90706A48017003200CE05969491C00
:1011F00059610021AA28084603D15648AA22027044
:101200000120634A1170207004B0F0BD00275149DD
:1012100002984018401E00780A46F9B281422AD14D
:101220009078012800D08AE014795A480178012981
:1012300009D169494979611AC9B2022903D39A6966
:101240008918491E9961644D6C71012101700198E2
:10125000A860E9713F4A50792871907AA871907915
:10126000D179090208182880107A517A09020818E1
:101270006880083364E0103362E0854303950024FE
:101280002746344903E0A41CA64200D168E70D19A3
:10129000AA787A405700072052B2002A00D547406A
:1012A0007A007EB2002E00D54240570052B2002A8A
:1012B00000D547407A007EB2002E00D5424057004C
:1012C00052B2002A00D547407A007EB2002E00D5E7
:1012D0004240560052B2002A00D54640770072B212
:1012E000002A00D54740039EED787D406A006DB22C
:1012F000002D00D54240550052B2002A00D545408D
:101300006A006DB2002D00D54240550052B2002A4D
:1013100000D545406A006DB2002D00D54240550011
:1013200052B2002A00D545406A006DB2002D00D5AA
:101330004240570052B2002AA5D54740A3E70C33DC
:101340001249134A0020087010701868401C186079
:1013500004B0F0BDA90120201F4870471E4900209D
:101360000860486088600849086048608860C86014
:10137000086148618861C8610449087004490870BF
:10138000044908707047C046F4022020140220204F
:10139000FC0120201C0220200F4A9368C01A8842BA
:1013A00003D210794007C00F00E00020D179002956
:1013B00000D108467047C04610B50246064BD879A2
:1013C000441EA0419B68D21A8A4202D300210840E1
:1013D00010BD0121084010BDE4012020E74800684D
:1013E0007047C046E34800787047C046E048007840
:1013F0007047C046E04900200860E0490860E549C0
:101400000860E7490860DE490860D9490870D94991
:101410000870E2490870DB490870DB490870DB4955
:101420000870DB49087001204002014908607047DC
:10143000A0320A40CF480078001F41424141D148C4
:10144000007808407047C046F0B587B005460024D4
:101450002046FFF791FD0646C54A1078042864D857
:101460007844007940008744022848627700012EC2
:1014700000D1ACE0032E00D1B5E0022E55D1C14819
:101480000470BF480460C0480470C0480470C0487D
:101490000470B8480178491CC34A4A43120C05231A
:1014A0005343C91A0170080600D118E14B2080008F
:1014B000D430BE49086007B0F0BD012E06D0B54853
:1014C0000068281A80097D2800D2BAE02046154617
:1014D00004F04AFC04F0D6FB04F086FAA948047034
:1014E000AE480470A6480460A7480470A74804707A
:1014F000A74804702C7007B0F0BD9E4800780428FF
:1015000011D1FFF729FF074696212846FFF744FF30
:10151000002800D1BCE09B480078002800D1CBE037
:101520002846FFF731F9012E58D007B0F0BD924898
:101530000068281A914908608E4F3878012820D118
:1015400028461546FFF720F9FFF7ECF82946002852
:101550001ED0042008701BE0864F3878012804D183
:1015600028461546FFF710F92A46012EDDD13878B6
:10157000012803D11546FFF795F92A46147007B0E4
:10158000F0BD284601F0EEF82846FFF7FDF878494F
:101590003878012805D00D4601F0C6F82946002804
:1015A00001D1012EC1D120460D4600F0A1F9FFF76F
:1015B00079F9734804607348047073480470734881
:1015C0000470734804700420287007B0F0BD042034
:1015D000C04368490978491F8142A6D8284605F0CA
:1015E000F5F807B0F0BD0320C04362490978491FF0
:1015F00081429AD32046164600F07AF9FFF752F955
:101600006849204604F024FB04F0AAFB04F054FBD4
:10161000204604F0A9FB624804605E4805605F480C
:10162000047058480470564804605748047057487E
:10163000047057480470514804600120307007B0AE
:10164000F0BD1746684604F0DDF9534E0098811945
:1016500006293CD8002004F087FB50480178002977
:1016600074D04F480068291A4B208000421E9142D6
:1016700000D85AE704F0BCFA32204A4904F0E8FAEC
:1016800004F06EFB04F018FB0220387007B0F0BDC8
:101690003B4804603B4804703B4804703B4804707E
:1016A0003B480470FFF77EF9002800D13DE728464B
:1016B000FFF740FA07B0F0BD3879C00716D13248BD
:1016C00004702F4804603248047007B0F0BD3349FD
:1016D0000C704B21890088423EDB93363DE04B2065
:1016E0008000D4303149086107B0F0BD27487979CE
:1016F000274A1378012B03D10378994200D114E7CC
:10170000012616700170385F1D490A6817180F60AE
:101710001D480178491C0170CDB2052D00D204E7A7
:1017200003242046FFF748F96808002F00D54042FF
:10173000C019294605F0FCF800B2FEF7F9FF204673
:10174000FEF7FAFF0F48067007B0F0BD14490D60B0
:101750000121017007B0F0BD9626304604F018FA5A
:10176000002800D10646304604F0FEFA07B0F0BD6E
:10177000F002202074022020E4022020F401202026
:10178000B0022020AC022020AF022020AE02202098
:10179000AD0220205C022020D7FEFFFF5402202053
:1017A000580220201A0400003433000090320A400E
:1017B000384800687047C0462E4800687047C046E9
:1017C0005F4800787047C046334800687047C0469D
:1017D0006A4800687047C046274800687047C0469E
:1017E00080B55749002008703F49087031490860AA
:1017F0005449086054490860264908602649086031
:1018000013490860134908601349086013490860C8
:1018100013490870134908601349086013490860A8
:10182000134908601349086048490860484908603E
:1018300048490860104908602C4908800F49086031
:101840004D4908604D49086001F0D6FB80BDC04697
:1018500048022020C80220204C022020CC02202058
:10186000DC02202050022020D00220204002202034
:10187000C002202064022020DC012020E001202082
:10188000EFF3108072B60348002101600248016046
:1018900062B670473C022020BC02202010B50446EE
:1018A000002105F029F9002800D104460148046010
:1018B00010BDC046A0012020411E48424841EFF320
:1018C000108172B608490A7882420AD01D4A002364
:1018D00013601D4A13601D4A13601E4A1360034AB9
:1018E0001380087062B670476A02202068022020C8
:1018F00010B5134A1178137883420AD0114B002493
:101900001C60114B1C60114B1C60114B1C60114B77
:101910001C601070002802D0002906D010BD1748A6
:101920000021016001F0F0FA10BD134800680028A2
:1019300001D0002001E07F20C0051049086010BDE3
:101940007702202044022020C40220209802202078
:10195000940220202C022020EFF3108172B6064959
:101960000860002801D0002001E07F20C005034965
:10197000086062B67047C046E8022020EC022020D2
:10198000F0B587B0F34800780390F3480168491C2C
:10199000016001F0FFF906A805A900F045FEEF4A35
:1019A0001068059940181060ED4B1868069A801A67
:1019B0001860EC4E306840183060EB4F3868801A81
:1019C0003860EA4D2878401C2870C0B2022829D31C
:1019D00030681424214600F005FEE54D2860386883
:1019E000214600F0FFFDE34F38602868002105F034
:1019F00078F8002804D10120C007296841402960F7
:101A000038680024214605F06CF8002804D1012034
:101A1000C007396841403960D24E3460D24F3C60D3
:101A2000D24D2C7004A800F089FFD34908700878C3
:101A3000002808D0049C0021204605F075F80028F5
:101A400005D13F2004E000200490044606E0BF20BA
:101A50000106204605F074F8FEF74EFDC749086000
:101A6000C74A1078002850D0C64E306800281ED0D3
:101A7000C54800687F21CD052946174605F031F895
:101A80003A46002817D13068FEF788FD0146BF4866
:101A9000FEF782FC0146BC4E306805F051F830601C
:101AA0003068294605F033F83A46002803D17F20F4
:101AB000C005B5490860107801283CD1A7480068E6
:101AC000A7490968441AB248066804602046FEF730
:101AD0005DFD0546A01BFEF759FDAE4905F0CAF8AD
:101AE0000446AD49284605F0C5F8214605F028F81A
:101AF0000546AA4E3068294605F014F904463068B8
:101B0000294605F01DF80646CDE0A54800210160F4
:101B1000A4480160A4480160A4480160A448016091
:101B2000A44801603160396029709748016001F074
:101B3000EBF907B0F0BD90480078002807D09E4828
:101B4000016804600398012815D09C4D14E09C485E
:101B500001889C4A914202D00188491C018000887A
:101B6000994D2C6803285FD38A49204605F082F8F6
:101B700028602C6858E0954D204605F0D3F80146C2
:101B8000284605F077F805460398012801D07F48DC
:101B900000E08F48214605F06DF8294604F0D0FF9B
:101BA00005460398012801D08A4C01E08320C40532
:101BB0002846214604F0A0FF0028264600D12E46E4
:101BC0000120C007029024182846214604F0ACFFEB
:101BD000002800D134467C4805682046294605F097
:101BE000A1F807460398012801D07B4E00E07B4E08
:101BF0003846314604F08BFF002804D13046294690
:101C000004F09EFF0AE002983118384604F069FF9C
:101C1000002804D12846314605F084F80446FA48E5
:101C20000460FA48002101800398012801D0F54999
:101C300001E08320C1050120C20720469043FEF742
:101C4000ABFBF44905F016F87F21C90504F078FFD5
:101C50000646EF4D294604F067FF002800D13546BF
:101C6000ED480068294605F005F8EC4908600D6864
:101C70000868214605F056F807460398012801D068
:101C8000E74900E0DE49E748006805F04BF8064602
:101C9000394604F031FF002800D13E46204629464F
:101CA00004F04EFF044600272046394604F024FF86
:101CB000002800D10446D14D2968204604F0DAFFFF
:101CC0002C68D949019008603046394604F014FF69
:101CD000002800D106463046214604F0CBFFD1490A
:101CE00002900860C84C2068394604F01DFF039933
:101CF0000129BF4D02D041210E0600E0CB4E2768DE
:101D0000002802D00120C00747403846314604F081
:101D1000E8FE2C780443601E84413846314604F0C6
:101D200003FF002803945BD1C14F3868C34C2146A0
:101D300004F0A0FF3860C34D2868214604F09AFFE4
:101D40002860AC480168019D284604F0EBFF064678
:101D50003F6850E06A022020DC0120203C02202065
:101D6000BC0220204C022020CC022020DC022020BB
:101D700048022020C80220206B022020640220207C
:101D800077022020E8022020EC02202000002041E1
:101D9000940220203333333FCDCC4C3EA001202091
:101DA00044022020C402202050022020D002202003
:101DB00040022020C0022020980220200000C040C5
:101DC00068022020FFFF00002C02202033337340E4
:101DD0009A99C9400000C8410000A041000040415C
:101DE00084480168019D284604F09CFF06469048FF
:101DF0000768002C13D08249304604F03BFF0446AC
:101E000021204106284604F035FF214604F098FEC3
:101E100004468A49384604F02DFF21464CE001680B
:101E2000304604F08DFE0446824F394604F064FECD
:101E3000002800D12746804C3846214604F05CFE3D
:101E4000002800D127467D490097384604F012FF4C
:101E500004466B49304604F00DFF07462120410639
:101E6000284604F007FF394604F06AFE074620467C
:101E7000394604F065FE0546714904F055FE002818
:101E800005D10021304604F037FE00280ED1002194
:101E9000284604F031FE002805D10021304604F028
:101EA00043FE002802D16248009901606048006842
:101EB000624904F0DFFE394604F042FE0446029F08
:101EC0005F4D294604F018FE002800D12546002168
:101ED000284604F011FE002800D105462846FEF7EA
:101EE0000BFB5949086044480168384604F01AFF62
:101EF000054654490E680398002810D040492846EA
:101F000004F0B8FE044621204106384604F0B2FE33
:101F1000214604F015FE04464849304647E009686A
:101F2000284604F00DFE0446424E314604F0E4FD1E
:101F3000002800D12646404C3046214604F0DCFD06
:101F4000002800D126463D49304604F093FE07465E
:101F50002B49284604F08EFE0446212041060298B3
:101F600004F088FE214604F0EBFD04463846214685
:101F700004F0E6FD0746324904F0D6FD002805D1FD
:101F80000021284604F0B8FD00280DD10021384674
:101F900004F0B2FD002805D10021284604F0C4FD5C
:101FA000002801D12748066026480068234904F02C
:101FB00061FE214604F0C4FD0546214C214604F093
:101FC0009BFD002800D12C460021204604F094FD02
:101FD000002800D104462046FEF78EFA1B4908600F
:101FE00019480068096800F0C1FF07B0F0BDC0469D
:101FF000DC02202048022020C8022020EC02202001
:10200000000020410000C8412C022020680220204E
:102010003333333F9A9999BEA0012020E00120205C
:1020200000007041D0022020500220200000A0407B
:10203000440220200000C8430000C8C36666663F13
:1020400000C0F345C402202040022020C00220200E
:10205000B0B50A78032313400B4A84580B4D254032
:10206000EB18A92424061B198350072212064B687B
:1020700013401124240205599543EA18025100190E
:1020800049780161B0BDC04608080000FCFFFF00B0
:10209000811E091F00BFFCD2704710B5002A0FD067
:1020A00091235B01C3180020DC692405240F05D0AF
:1020B0000C5C1C60401C8242F6D1104680B210BD00
:1020C000002080B210BD0000084A835880210B43D5
:1020D000835080180F221202436813400122D2025B
:1020E0009342F7D102688A430260704738120000B9
:1020F00070B50A780C231A400124240305196E6870
:102100009E43B2186A6049780722114003599343ED
:102110005918015170BD0000F0B584B001242202AD
:102120002A4B196803929143196035490D686D0473
:10213000FCD5457E25409E69A64374199C612024E8
:10214000045D03252C40DE69AE433419DC61204C6C
:10215000256805262660466A37681F6276685E62D3
:1021600007262E402660C4697F252D02DE69AE4316
:102170006406640C3419DC61076845688268009263
:10218000C66802690192426902929A69114C144030
:102190003A07120B2D03ADB2AA183243009D2D074A
:1021A0002D0D1543019A1543029A1543007E2843CD
:1021B000094A0240101998611868039A1043186080
:1021C00008688005FCD504B0F0BDC04608010B408E
:1021D000001340408D00F0FF72FF0F000749886038
:1021E000074802689202FCD5012212040B681343CF
:1021F0000B600168C906FCD57047C04604010B405E
:1022000004020B4070B582B00B794A79002A25D0C0
:10221000184A202B02D00524E40100E07D4C8218EE
:10222000002B00D18824156C794E35402D1915648A
:10223000556C35402C1954641468B44D2C4014600E
:1022400054682C4054600024146254628F24E44388
:10225000156D25401565556D254055656A46137108
:102260008B79537109680091114600F079F802B03A
:1022700070BDC0463818000089004018B449405865
:102280007047C046F0B585B02F4A8518112212025A
:10229000821803924A7A521ED3B201260024022BDE
:1022A000019400960DD852B2920028A4A758492450
:1022B000E60134465C43A4190294274CA2585B1CE7
:1022C00003E002222346029437464C6804956C6072
:1022D000CE688F252E4016433122D20184189B00F0
:1022E000E258AA433243E250CD688E263540BA0008
:1022F000A758B743ED19009E3543A5508A4C0019E5
:10230000C458824D2C40154EA419641CC4508358E7
:102310002B409B1983500398019A0260087801288A
:1023200001D0029A02E02020029A0243087ABD21DD
:1023300001401143049B1868384A02400A430220B6
:102340001043186005B0F0BD041800000000000044
:102350000300000002000000346E000001000200D3
:10236000F0B5684A8218294BC318087920280DD087
:1023700000281DD10C68641E5460D56E244C254085
:102380008835D5661646703688251DE00C68641EB3
:102390005460D46E1E4D2C401E4EA419D466146F8A
:1023A0002C40A4191467012465071B4C16460BE04A
:1023B0000C6864085460D66E154C26400525ED0166
:1023C0007619D66616467036376827402F43376031
:1023D000D46A4E4D2C40D462146B2C4014630024FC
:1023E000D46414658F24E443D56F2540D5671D68F8
:1023F00025401D6049790143BD2008401168074B05
:102400000B40C018801C1060F0BDC046841800004E
:1024100024493E0001040000FFFFFFCF4000FFCF32
:10242000B0B54A68364BC250364A80180A78222A1C
:1024300058D8930001A4E3589F46C046DB2400000F
:10244000E5240000DB240000E5240000E524000072
:10245000E5240000E5240000E5240000E524000058
:10246000E5240000E5240000E5240000E524000048
:10247000E5240000E5240000E5240000C924000054
:10248000E5240000C9240000E5240000E524000044
:10249000E5240000E5240000E5240000E524000018
:1024A000E5240000E5240000E5240000E524000008
:1024B000E5240000E5240000E5240000C924000014
:1024C000E5240000C924000003231B0704689C4383
:1024D00001235B07E318036004E003231B07046880
:1024E0009C4304600B69C360CB68074C1C40C36A03
:1024F000064D1D402B19C362097A11430160B0BD1E
:102500000818000004180000777702008888FDFF93
:1025100010B507239B04194092008018024A845882
:102520009C436118815010BD3018000010B5029C0A
:10253000A400001911431943014A815010BDC0463F
:102540005018000092008018014A81507047C04620
:102550001018000010B50122120383180C789C603B
:102560004B7883508978014A815010BD0C110000CE
:10257000B0B51122120283580124A34383500B8863
:102580008C781C438B882343094C1C408358094D8D
:102590001D40631983508B79CC791C43097A214300
:1025A0007E231940801842689A4351184160B0BD9B
:1025B00018670000E798FDFF10B501221203831889
:1025C0000C789C604978815010BD000010B50C4615
:1025D000FDF7DCFF214604F04DFB0F49FDF7DCFE63
:1025E00010BDC046B0B5002911D00C46FDF7CEFF96
:1025F000084904F03FFB05462046FDF7CFFF06499A
:1026000004F038FB01462846FDF7C6FEB0BD0020A9
:10261000B0BDC04600606A4700004344374800210F
:102620000160384801607047EFF3108272B6334A98
:1026300013680360334803680B6000211160016078
:1026400062B67047F0B581B0284908461038006876
:10265000274B0340274C2246103A12680D681D4351
:102660000D6011210905114025680D4325600124E5
:10267000A6060021C94385011F4D0AD52F683742A0
:102680000F4600D027461D4D2D687D191B4F3D601C
:10269000194DB3420AD363062C681C4201D00B4685
:1026A00000E00123154C25685B19236001231D06FA
:1026B000D402134C09D526682E420E4600D01E4681
:1026C000104F3C6834193C600D4C2A4208D01A0562
:1026D0002368134200D101210A4A1368C918116006
:1026E0000949084003F0BCF901B0F0BD48100A40A8
:1026F0000002400748300A4080130A40940120201D
:1027000080330A40980120200002400180480021C7
:10271000017081480170854801707C4801607D48E6
:10272000016081480160704779480078011F484284
:102730004841704710B5044675480121017076483C
:1027400004707A480021017070480160714801608E
:1027500000F0F0F874490860002C01D0FFF790F801
:1027600010BDC046F0B583B00446694F3878FB21F0
:10277000084200D1C8E065490A68A24200D1C3E01E
:102780000C6003283ED0022843D0012800D0BBE0D3
:10279000614800780224012800D0B4E0FFF708F86F
:1027A000604E3146FFF712FF05460021029104F00A
:1027B000BBF90121C9070028019100D04D40FFF766
:1027C00003F83146FFF702FF0646029904F0ACF920
:1027D000002801D0019846402846314604F0B0F95F
:1027E0003F21090604F046FA514904F090F9002807
:1027F00000D089E04D480299017000F09BF84A49E9
:10280000086080E043480068201A96287CD304249E
:1028100079E041480078012835D100F08BF8424931
:102820000A68904270D00860404E357800F0ACFAEB
:102830007821014078394A424A413C2101403C39E3
:102840004B424B4113431E2210401E38414241412E
:102850001943680002405318337055D0022B0FD330
:1028600001231D406918042A0AD34307DB0F5918B6
:10287000082A05D30007C00F4118100900D04118DD
:1028800002293AD240E00021032801D00D4600E0A1
:10289000224D022800D1224D284604F038F90028A4
:1028A00032D1FEF785FF1F49FFF790FE0646002153
:1028B000019104F039F90121C9070028029500911E
:1028C00000D04E40174DFEF77FFF2946FFF77EFEF2
:1028D0000546019904F028F9002801D000984540E8
:1028E0003046294604F02CF93F21090604F0C2F9CC
:1028F000029904F019F9002806D10020FEF7F8FF2C
:102900000448046003243C7003B0F0BD380220206A
:1029100060022020A4012020750220209AD928449A
:102920000000344342E0A54130022020140320205F
:102930009A99F543604800687047C046F0B581B089
:10294000002813D00446002505605A480678002E5A
:102950000ED0FF2E00D18FE070B2494F0740F3092F
:10296000710607D4B10621D4F0090EE0002584E0F9
:10297000354682E0434938461F4604F0E1F83B46BD
:1029800007465B1CB00613D401200146F20620D492
:10299000002900D00120320718D4002900D00120DE
:1029A000720727D4002935D0012033E0002864D4F1
:1029B000354938461F4604F0C3F83B4607465B1CC2
:1029C000F00608D4012001463207E6D5002854D18C
:1029D00013E0002851D1BF20010638461F4604F0FD
:1029E000AFF83B4607465B1C300706D40120014682
:1029F0007207D7D5002840D111E03F2001063846A4
:102A00001F4604F09DF83B4607465B1C700706D442
:102A100001200146B20713D400290BD10BE0FF209F
:102A2000810538461F4604F08BF83B4607465B1C81
:102A3000B00707D40120F10716D000281DD10BE004
:102A400000281AD1114938461D4604F079F82B4662
:102A500007466B1CF00707D00D4938461D4604F0A9
:102A60006FF82B4607466B1C1846FDF78FFD014695
:102A70003846FDF791FC20600125284601B0F0BDE5
:102A80000000A0C0000040C00000C0BF00004040E7
:102A90000000A040BE48002101700548016041606F
:102AA00004480170B64805220270B64801607047BC
:102AB0000002202008022020D4022020B048007804
:102AC000052801D30020704701207047F0B581B080
:102AD000684605210170A44EA44F38463168890626
:102AE0004AD43168890647D43168890644D43168AC
:102AF000890641D4316889063ED4316889063BD4C1
:102B00003168890638D43168890635D43168890638
:102B100032D4316889062FD4316889062CD43168C3
:102B2000890629D43168890626D43168890623D4D8
:102B30003168890620D4316889061DD43168890638
:102B40001AD43168890617D43168890614D43168DB
:102B5000890611D4316889060ED4316889060BD4F0
:102B60003168890608D43168890605D43168890638
:102B700002D41930B2D1CBE07D4D2846FFF7A4FA3C
:102B80006946012428462246FFF787FA304608386E
:102B90000168784A1140BA310160311F0A68764BEA
:102BA0001A40764D52190A603A4633685B064AD598
:102BB00033685B0647D533685B0644D533685B06EC
:102BC00041D533685B063ED533685B063BD5336839
:102BD0005B0638D533685B0635D533685B0632D57E
:102BE00033685B062FD533685B062CD533685B06EC
:102BF00029D533685B0626D533685B0623D5336851
:102C00005B0620D533685B061DD533685B061AD595
:102C100033685B0617D533685B0614D533685B06EB
:102C200011D533685B060ED533685B060BD5336868
:102C30005B0608D533685B0605D533685B0602D5AD
:102C40001932B2D164E03268920761D43A463368EF
:102C50009B064AD433689B0647D433689B0644D40A
:102C600033689B0641D433689B063ED433689B0689
:102C70003BD433689B0638D433689B0635D433681D
:102C80009B0632D433689B062FD433689B062CD422
:102C900033689B0629D433689B0626D433689B0689
:102CA00023D433689B0620D433689B061DD4336835
:102CB0009B061AD433689B0617D433689B0614D43A
:102CC00033689B0611D433689B060ED433689B0689
:102CD0000BD433689B0608D433689B0605D433684D
:102CE0009B0602D41932B2D112E00268214B1A407D
:102CF000BB231343036008681F4A10402843086041
:102D0000706A000711D17F1C02D230688007F7D5A6
:102D10001B4908780024042822D8421C0A70042881
:102D20001ED17648002404701AE070680107090E6D
:102D3000C0B20009401881083322114010408000C1
:102D400008184108552211401040400008186B49EE
:102D500008700B48002101700A480168491C016095
:102D6000204601B0F0BDC04618120F40E0B1FFFF91
:102D700000000F4000F8FFFFF8FF00F0070001001F
:102D8000FD012020D40220205C4800787047C04616
:102D9000B8022020B0B5002058490D56EBB2584A71
:102DA000147858480178002D08D4002C03D0641EF4
:102DB000147024060CD17F24214008E0022C03D893
:102DC000651C1570022C03D17F24E443214301705C
:102DD00054785D0608D4002C03D0641E5470240679
:102DE0000BD1BF24214007E0022C03D8651C55708D
:102DF000022C02D140242143017094789D0608D40E
:102E0000002C03D0641E947024060BD1DF242140D3
:102E100007E0022C03D8651C9570022C02D12024F7
:102E200021430170D478DD0608D4002C03D0641E41
:102E3000D47024060BD1EF24214007E0022C03D8E4
:102E4000651CD570022C02D1102421430170147925
:102E50001D0708D4002C03D0641E147124060BD166
:102E6000F724214007E0022C03D8651C1571022CC1
:102E700002D108242143017054795D0708D4002C45
:102E800003D0641E547124060BD1FB24214007E0BB
:102E9000022C03D8651C5571022C02D10424214355
:102EA000017094799D0708D4002C03D0641E94719E
:102EB00024060BD1FD24214007E0022C03D8651C19
:102EC0009571022C02D1022421430170D479DB07D1
:102ED00006D1002C0ED0631ED3711A060AD0B0BDE5
:102EE000022C03D8631CD371022CF8D101221143A8
:102EF0000170B0BDFE2211400170B0BDB8022020AB
:102F0000000220200802202070B5474C00252046F2
:102F100029462A46FFF716FB012620462946324657
:102F2000FFF710FBB0030449086070030860300429
:102F300008607004086070BD90120A4070B53A4C89
:102F40000025204629462A46FFF7FCFA012620469E
:102F500029463246FFF7F6FAB0039349086070033A
:102F60000860300408607004086070BDF0B581B07E
:102F70001F4B994200DC19461E4CA1420A4600DB59
:102F80002246984200DC1846A042054600DB254652
:102F900001246603A703844B012903DB194610397A
:102FA0000F6002E01F60002A1ED41E602604610428
:102FB000012803DB18461038066003E01E60002D70
:102FC00000D5103B1960D0174240111A164C002250
:102FD0002046FFF7B7FAE8174540291A0122204694
:102FE000FFF7B0FA01B0F0BD194610390E60DDE709
:102FF00088E1FFFF781E000070B50B4C00252046CD
:1030000029462A46FFF79EFA0126204629463246DF
:10301000FFF798FAB0036449086070030860300451
:1030200008607004086070BD00208640F0B587B06D
:10303000012007070490C50700245B4E204605E0E9
:103040000298401C0199072900D3AAE00290C1B25E
:103050002046019103F03AF8204606E0176062B678
:103060000398401C40B20028EAD40390EFF310818B
:1030700072B60498C1034D480160234604E08B1CDE
:10308000049801430729E9D2194637603560059451
:10309000059A172A1BD800BF059A521C0592059A5B
:1030A000172A14D800BF059A521C0592059A172AB0
:1030B0000DD800BF059A521C0592059A172A06D80A
:1030C00000BF059A521C0592059A182AE3D332468E
:1030D000103A176000230693069817281BD800BFE4
:1030E0000698401C06900698172814D800BF06982A
:1030F000401C0690069817280DD800BF0698401C63
:1031000006900698172806D800BF0698401C06901F
:1031100006981828E3D3376035600593059817287B
:103120001BD800BF0598401C05900598172814D897
:1031300000BF0598401C0590059817280DD800BFC2
:103140000598401C05900598172806D800BF0598DB
:10315000401C059005981828E3D31760069306983D
:1031600017288CD800BF0698401C06900698172890
:1031700085D800BF0698401C06900698172800D9ED
:103180007DE700BF0698401C06900698172800D9D6
:1031900075E700BF0698401C069006981828E1D3F2
:1031A0006DE707B0F0BDC046A0120A4090320A4059
:1031B000F0B583B0E04D103D0126B7032F60DF4C22
:1031C0002046FEF765FF2046FEF762FF2046FEF729
:1031D0005FFF2046FEF75CFF2046FEF759FF2046C2
:1031E000FEF756FF2046FEF753FF2046FEF750FF3E
:1031F0002046FEF74DFF2046FEF74AFFCE48076007
:103200002046FEF745FF2046FEF742FF2046FEF728
:103210003FFF2046FEF73CFF2046FEF739FF2046E1
:10322000FEF736FF2046FEF733FF2046FEF730FF5D
:103230002046FEF72DFF2046FEF72AFF2046FEF728
:1032400027FF2046FEF724FF2046FEF721FF2046F9
:10325000FEF71EFF2046FEF71BFF2046FEF718FF75
:103260002046FEF715FF2046FEF712FF2046FEF728
:103270000FFF2046FEF70CFF2F602046FEF708FFE9
:103280002046FEF705FF2046FEF702FF2046FEF728
:10329000FFFE2046FEF7FCFE2046FEF7F9FE204624
:1032A000FEF7F6FE2046FEF7F3FE2046FEF7F0FEA0
:1032B0002046FEF7EDFE2046FEF7EAFE2046FEF72A
:1032C000E7FE2046FEF7E4FE2046FEF7E1FE20463C
:1032D000FEF7DEFE2046FEF7DBFE2046FEF7D8FEB8
:1032E0002046FEF7D5FE2046FEF7D2FE2046FEF72A
:1032F000CFFEEFF3108072B6F00301908E490860A4
:103300003007F107AE2400278D4A03E05F1C6400FC
:10331000072B4AD23B46106165B2002D01D41161E2
:1033200000E0116000250295029F172F1BD800BFF7
:10333000029F7F1C0297029F172F14D800BF029F85
:103340007F1C0297029F172F0DD800BF029F7F1C82
:103350000297029F172F06D800BF029F7F1C02977B
:10336000029F182FE3D310600295029F172FCDD82C
:1033700000BF029F7F1C0297029F172FC6D800BF75
:10338000029F7F1C0297029F172FBFD800BF029F8A
:103390007F1C0297029F172FB8D800BF029F7F1C87
:1033A0000297029F182FE3D3B0E7106062B6EFF3E5
:1033B000108372B6604B019C1C60202403E05D1CEE
:1033C0006400072B4AD22B46106165B2002D01D450
:1033D000116100E0116000270297029D172D1BD894
:1033E00000BF029D6D1C0295029D172D14D800BFD1
:1033F000029D6D1C0295029D172D0DD800BF029DE8
:103400006D1C0295029D172D06D800BF029D6D1CF4
:103410000295029D182DE3D310600297029D172D8F
:10342000CDD800BF029D6D1C0295029D172DC6D8F8
:1034300000BF029D6D1C0295029D172DBFD800BFD5
:10344000029D6D1C0295029D172DB8D800BF029DEC
:103450006D1C0295029D182DE3D3B0E7106062B693
:10346000EFF3108372B6344B019C1C60102403E010
:103470005F1C6400072B4AD23B46106165B2002DE9
:1034800001D4116100E0116000250295029F172F01
:103490001BD800BF029F7F1C0297029F172F14D8D2
:1034A00000BF029F7F1C0297029F172F0DD800BFFD
:1034B000029F7F1C0297029F172F06D800BF029F12
:1034C0007F1C0297029F182FE3D310600295029F82
:1034D000172FCDD800BF029F7F1C0297029F172F86
:1034E000C6D800BF029F7F1C0297029F172FBFD82C
:1034F00000BF029F7F1C0297029F172FB8D800BF02
:10350000029F7F1C0297029F182FE3D3B0E7106041
:1035100062B6EFF3108372B6074B019C1C60B024B7
:1035200003E05D1C6400072B50D22B46106165B28E
:10353000002D07D4116106E0A0320A408038010056
:1035400090120A40116000270297029D172D1BD888
:1035500000BF029D6D1C0295029D172D14D800BF5F
:10356000029D6D1C0295029D172D0DD800BF029D76
:103570006D1C0295029D172D06D800BF029D6D1C83
:103580000295029D182DE3D310600297029D172D1E
:10359000C7D800BF029D6D1C0295029D172DC0D893
:1035A00000BF029D6D1C0295029D172DB9D800BF6A
:1035B000029D6D1C0295029D172DB2D800BF029D81
:1035C0006D1C0295029D182DE3D3AAE7106062B628
:1035D000EFF3108372B6DA4B019C1C60C82503E040
:1035E0005F1C6D00072B4AD23B4610616CB2002C69
:1035F00001D4116100E0116000240294029F172F92
:103600001BD800BF029F7F1C0297029F172F14D860
:1036100000BF029F7F1C0297029F172F0DD800BF8B
:10362000029F7F1C0297029F172F06D800BF029FA0
:103630007F1C0297029F182FE3D310600294029F11
:10364000172FCDD800BF029F7F1C0297029F172F14
:10365000C6D800BF029F7F1C0297029F172FBFD8BA
:1036600000BF029F7F1C0297029F172FB8D800BF90
:10367000029F7F1C0297029F182FE3D3B0E71060D0
:1036800062B6EFF3108372B6AD4B019D1D60234609
:1036900004E0BB1C3743072F00D38AE01F461061AC
:1036A00011610294029B172B1BD800BF029B5B1C6D
:1036B0000293029B172B14D800BF029B5B1C029342
:1036C000029B172B0DD800BF029B5B1C0293029B31
:1036D000172B06D800BF029B5B1C0293029B182B82
:1036E000E3D3106000250295029B172B1BD800BF67
:1036F000029B5B1C0293029B172B14D800BF029BFA
:103700005B1C0293029B172B0DD800BF029B5B1C16
:103710000293029B172B06D800BF029B5B1C0293EF
:10372000029B182BE3D3106111610295029B172BAA
:103730001BD800BF029B5B1C0293029B172B14D863
:1037400000BF029B5B1C0293029B172B0DD800BF8E
:10375000029B5B1C0293029B172B06D800BF029BA7
:103760005B1C0293029B182BE3D310600295029B13
:10377000172B8ED800BF029B5B1C0293029B172B5A
:1037800087D800BF029B5B1C0293029B172B00D9BA
:103790007FE700BF029B5B1C0293029B172B00D9A3
:1037A00077E700BF029B5B1C0293029B182BE1D3BF
:1037B0006FE7106062B6EFF3108372B6604B019C46
:1037C0001C60102403E05D1C6400072B4AD22B46CA
:1037D000106165B2002D01D4116100E01160002775
:1037E0000297029D172D1BD800BF029D6D1C0295EC
:1037F000029D172D14D800BF029D6D1C0295029DDD
:10380000172D0DD800BF029D6D1C0295029D172D2E
:1038100006D800BF029D6D1C0295029D182DE3D3B2
:1038200010600297029D172DCDD800BF029D6D1C20
:103830000295029D172DC6D800BF029D6D1C0295F2
:10384000029D172DBFD800BF029D6D1C0295029DE1
:10385000172DB8D800BF029D6D1C0295029D182D32
:10386000E3D3B0E7106062B6EFF3108372B6344B67
:10387000019C1C60402403E05F1C6400072B4AD2BB
:103880003B46106165B2002D01D4116100E011606A
:1038900000250295029F172F1BD800BF029F7F1C97
:1038A0000297029F172F14D800BF029F7F1C029718
:1038B000029F172F0DD800BF029F7F1C0297029F07
:1038C000172F06D800BF029F7F1C0297029F182F58
:1038D000E3D310600295029F172FCDD800BF029F3F
:1038E0007F1C0297029F172FC6D800BF029F7F1C24
:1038F0000297029F172FBFD800BF029F7F1C02971D
:10390000029F172FB8D800BF029F7F1C0297029F0B
:10391000182FE3D3B0E7106062B6EFF3108372B6EE
:10392000074B019C1C60812403E05D1C6400072B95
:103930004CD22B46106165B2002D03D4116102E018
:10394000A0320A40116000270297029D172D1BD854
:1039500000BF029D6D1C0295029D172D14D800BF5B
:10396000029D6D1C0295029D172D0DD800BF029D72
:103970006D1C0295029D172D06D800BF029D6D1C7F
:103980000295029D182DE3D310600297029D172D1A
:10399000CBD800BF029D6D1C0295029D172DC4D887
:1039A00000BF029D6D1C0295029D172DBDD800BF62
:1039B000029D6D1C0295029D172DB6D800BF029D79
:1039C0006D1C0295029D182DE3D3AEE7106062B620
:1039D000EFF3108372B6E64B019C1C607F2403E07A
:1039E0005F1C6400072B4AD23B46106165B2002D74
:1039F00001D4116100E0116000250295029F172F8C
:103A00001BD800BF029F7F1C0297029F172F14D85C
:103A100000BF029F7F1C0297029F172F0DD800BF87
:103A2000029F7F1C0297029F172F06D800BF029F9C
:103A30007F1C0297029F182FE3D310600295029F0C
:103A4000172FCDD800BF029F7F1C0297029F172F10
:103A5000C6D800BF029F7F1C0297029F172FBFD8B6
:103A600000BF029F7F1C0297029F172FB8D800BF8C
:103A7000029F7F1C0297029F182FE3D3B0E71060CC
:103A800062B6EFF3108372B6B94B019C1C60A1249F
:103A900003E05D1C6400072B4AD22B46106165B21F
:103AA000002D01D4116100E0116000270297029DF2
:103AB000172D1BD800BF029D6D1C0295029D172D6E
:103AC00014D800BF029D6D1C0295029D172D0DD8C4
:103AD00000BF029D6D1C0295029D172D06D800BFE8
:103AE000029D6D1C0295029D182DE3D31060029774
:103AF000029D172DCDD800BF029D6D1C0295029D21
:103B0000172DC6D800BF029D6D1C0295029D172D72
:103B1000BFD800BF029D6D1C0295029D172DB8D81D
:103B200000BF029D6D1C0295029D182DE3D3B0E7E6
:103B3000106062B6EFF3108372B68D4B019C1C606F
:103B4000A62403E05F1C6400072B4AD23B461061A9
:103B500065B2002D01D4116100E0116000250295CD
:103B6000029F172F1BD800BF029F7F1C0297029F46
:103B7000172F14D800BF029F7F1C0297029F172F98
:103B80000DD800BF029F7F1C0297029F172F06D8F7
:103B900000BF029F7F1C0297029F182FE3D3106083
:103BA0000295029F172FCDD800BF029F7F1C02975E
:103BB000029F172FC6D800BF029F7F1C0297029F4B
:103BC000172FBFD800BF029F7F1C0297029F172F9D
:103BD000B8D800BF029F7F1C0297029F182FE3D323
:103BE000B0E7106062B6EFF3108372B6604B019CD1
:103BF0001C60A82403E05D1C6400072B4AD22B46FE
:103C0000106165B2002D01D4116100E01160002740
:103C10000297029D172D1BD800BF029D6D1C0295B7
:103C2000029D172D14D800BF029D6D1C0295029DA8
:103C3000172D0DD800BF029D6D1C0295029D172DFA
:103C400006D800BF029D6D1C0295029D182DE3D37E
:103C500010600297029D172DCDD800BF029D6D1CEC
:103C60000295029D172DC6D800BF029D6D1C0295BE
:103C7000029D172DBFD800BF029D6D1C0295029DAD
:103C8000172DB8D800BF029D6D1C0295029D182DFE
:103C9000E3D3B0E7106062B6EFF3108372B6344B33
:103CA000019C1C603F2403E05F1C6400072B4AD288
:103CB0003B46106165B2002D01D4116100E0116036
:103CC00000250295029F172F1BD800BF029F7F1C63
:103CD0000297029F172F14D800BF029F7F1C0297E4
:103CE000029F172F0DD800BF029F7F1C0297029FD3
:103CF000172F06D800BF029F7F1C0297029F182F24
:103D0000E3D310600295029F172FCDD800BF029F0A
:103D10007F1C0297029F172FC6D800BF029F7F1CEF
:103D20000297029F172FBFD800BF029F7F1C0297E8
:103D3000029F172FB8D800BF029F7F1C0297029FD7
:103D4000182FE3D3B0E7106062B6EFF3108372B6BA
:103D5000074B019C1C60A42403E05D1C6400072B3E
:103D60004CD22B46106165B2002D03D4116102E0E4
:103D7000A0320A40116000270297029D172D1BD820
:103D800000BF029D6D1C0295029D172D14D800BF27
:103D9000029D6D1C0295029D172D0DD800BF029D3E
:103DA0006D1C0295029D172D06D800BF029D6D1C4B
:103DB0000295029D182DE3D310600297029D172DE6
:103DC000CBD800BF029D6D1C0295029D172DC4D853
:103DD00000BF029D6D1C0295029D172DBDD800BF2E
:103DE000029D6D1C0295029D172DB6D800BF029D45
:103DF0006D1C0295029D182DE3D3AEE7106062B6EC
:103E0000EFF3108372B6DA4B019C1C60D32503E0FC
:103E10005F1C6D00072B4AD23B4610616CB2002C30
:103E200001D4116100E0116000240294029F172F59
:103E30001BD800BF029F7F1C0297029F172F14D828
:103E400000BF029F7F1C0297029F172F0DD800BF53
:103E5000029F7F1C0297029F172F06D800BF029F68
:103E60007F1C0297029F182FE3D310600294029FD9
:103E7000172FCDD800BF029F7F1C0297029F172FDC
:103E8000C6D800BF029F7F1C0297029F172FBFD882
:103E900000BF029F7F1C0297029F172FB8D800BF58
:103EA000029F7F1C0297029F182FE3D3B0E7106098
:103EB00062B6EFF3108372B6AD4B019D1D602346D1
:103EC00004E0BB1C3743072F00D38AE01F46106174
:103ED00011610294029B172B1BD800BF029B5B1C35
:103EE0000293029B172B14D800BF029B5B1C02930A
:103EF000029B172B0DD800BF029B5B1C0293029BF9
:103F0000172B06D800BF029B5B1C0293029B182B49
:103F1000E3D3106000250295029B172B1BD800BF2E
:103F2000029B5B1C0293029B172B14D800BF029BC1
:103F30005B1C0293029B172B0DD800BF029B5B1CDE
:103F40000293029B172B06D800BF029B5B1C0293B7
:103F5000029B182BE3D3106111610295029B172B72
:103F60001BD800BF029B5B1C0293029B172B14D82B
:103F700000BF029B5B1C0293029B172B0DD800BF56
:103F8000029B5B1C0293029B172B06D800BF029B6F
:103F90005B1C0293029B182BE3D310600295029BDB
:103FA000172B8ED800BF029B5B1C0293029B172B22
:103FB00087D800BF029B5B1C0293029B172B00D982
:103FC0007FE700BF029B5B1C0293029B172B00D96B
:103FD00077E700BF029B5B1C0293029B182BE1D387
:103FE0006FE7106062B6EFF3108372B6604B019C0E
:103FF0001C60D52403E05D1C6400072B4AD22B46CD
:10400000106165B2002D01D4116100E0116000273C
:104010000297029D172D1BD800BF029D6D1C0295B3
:10402000029D172D14D800BF029D6D1C0295029DA4
:10403000172D0DD800BF029D6D1C0295029D172DF6
:1040400006D800BF029D6D1C0295029D182DE3D37A
:1040500010600297029D172DCDD800BF029D6D1CE8
:104060000295029D172DC6D800BF029D6D1C0295BA
:10407000029D172DBFD800BF029D6D1C0295029DA9
:10408000172DB8D800BF029D6D1C0295029D182DFA
:10409000E3D3B0E7106062B6EFF3108372B6344B2F
:1040A000019C1C603D4603E0671C072C354649D245
:1040B0003C461061EB0701D0116100E01160002364
:1040C0000293029D172D1BD800BF029D6D1C029507
:1040D000029D172D14D800BF029D6D1C0295029DF4
:1040E000172D0DD800BF029D6D1C0295029D172D46
:1040F00006D800BF029D6D1C0295029D182DE3D3CA
:1041000010600293029D172DCED800BF029D6D1C3A
:104110000295029D172DC7D800BF029D6D1C029508
:10412000029D172DC0D800BF029D6D1C0295029DF7
:10413000172DB9D800BF029D6D1C0295029D182D48
:10414000E3D3B1E7106062B6EFF3108472B6084CA7
:10415000019D2560D92403E0731C6400072E4DD215
:104160001E46106163B2002B04D4116103E0C04607
:10417000A0320A40116000250295029B172B1BD824
:1041800000BF029B5B1C0293029B172B14D800BF3D
:10419000029B5B1C0293029B172B0DD800BF029B56
:1041A0005B1C0293029B172B06D800BF029B5B1C73
:1041B0000293029B182BE3D310600295029B172BEE
:1041C000CAD800BF029B5B1C0293029B172BC3D86B
:1041D00000BF029B5B1C0293029B172BBCD800BF45
:1041E000029B5B1C0293029B172BB5D800BF029B5E
:1041F0005B1C0293029B182BE3D3ADE7106062B601
:10420000EFF3108372B6E64B019C1C60222403E09E
:104210005D1C6400072B4AD22B46106165B2002D4D
:1042200001D4116100E0116000260296029D172D55
:104230001BD800BF029D6D1C0295029D172D14D83E
:1042400000BF029D6D1C0295029D172D0DD800BF69
:10425000029D6D1C0295029D172D06D800BF029D80
:104260006D1C0295029D182DE3D310600296029DED
:10427000172DCDD800BF029D6D1C0295029D172DF4
:10428000C6D800BF029D6D1C0295029D172DBFD898
:1042900000BF029D6D1C0295029D172DB8D800BF6E
:1042A000029D6D1C0295029D182DE3D3B0E71060AE
:1042B00062B6EFF3108372B6B94B019C1C60DA242E
:1042C00003E05E1C6400072B4AD23346106165B2DE
:1042D000002D01D4116100E0116000250295029EBD
:1042E000172E1BD800BF029E761C0296029E172E28
:1042F00014D800BF029E761C0296029E172E0DD87F
:1043000000BF029E761C0296029E172E06D800BFA2
:10431000029E761C0296029E182EE3D31060029530
:10432000029E172ECDD800BF029E761C0296029EDA
:10433000172EC6D800BF029E761C0296029E172E2C
:10434000BFD800BF029E761C0296029E172EB8D8D8
:1043500000BF029E761C0296029E182EE3D3B0E7A1
:10436000106062B6EFF3108372B68D4B019C1C6037
:10437000122403E05D1C6400072B4AD22B46106117
:1043800065B2002D01D4116100E011600026029693
:10439000029D172D1BD800BF029D6D1C0295029D2A
:1043A000172D14D800BF029D6D1C0295029D172D7C
:1043B0000DD800BF029D6D1C0295029D172D06D8D9
:1043C00000BF029D6D1C0295029D182DE3D3106065
:1043D0000296029D172DCDD800BF029D6D1C02953F
:1043E000029D172DC6D800BF029D6D1C0295029D2F
:1043F000172DBFD800BF029D6D1C0295029D172D81
:10440000B8D800BF029D6D1C0295029D182DE3D304
:10441000B0E7106062B6EFF3108372B6DE4B019C1A
:104420001C60DB2403E05E1C6400072B4AD2334689
:10443000106165B2002D01D4116100E0116000250A
:104440000295029E172E1BD800BF029E761C029674
:10445000029E172E14D800BF029E761C0296029E62
:10446000172E0DD800BF029E761C0296029E172EB4
:1044700006D800BF029E761C0296029E182EE3D339
:1044800010600295029E172ECDD800BF029E761CAA
:104490000296029E172EC6D800BF029E761C029678
:1044A000029E172EBFD800BF029E761C0296029E67
:1044B000172EB8D800BF029E761C0296029E182EB8
:1044C000E3D3B0E7106062B6EFF3108372B6B24B7D
:1044D000019C1C60202403E05D1C6400072B4AD271
:1044E0002B46106165B2002D01D4116100E011600E
:1044F00000260296029D172D1BD800BF029D6D1C41
:104500000295029D172D14D800BF029D6D1C0295C7
:10451000029D172D0DD800BF029D6D1C0295029DB6
:10452000172D06D800BF029D6D1C0295029D182D07
:10453000E3D310600296029D172DCDD800BF029DD7
:104540006D1C0295029D172DC6D800BF029D6D1CE3
:104550000295029D172DBFD800BF029D6D1C0295CC
:10456000029D172DB8D800BF029D6D1C0295029DBB
:10457000182DE3D3B0E7106062B6EFF3108372B684
:10458000854B019C1C608D2403E05E1C6400072B9E
:104590004CD23346106165B2002D03D4116102E0A4
:1045A000A0320A40116000250295029E172E1BD8EA
:1045B00000BF029E761C0296029E172E14D800BFE2
:1045C000029E761C0296029E172E0DD800BF029EF8
:1045D000761C0296029E172E06D800BF029E761CFD
:1045E0000296029E182EE3D310600295029E172EAB
:1045F000CBD800BF029E761C0296029E172EC4D80E
:1046000000BF029E761C0296029E172EBDD800BFE8
:10461000029E761C0296029E172EB6D800BF029EFE
:10462000761C0296029E182EE3D3AEE7106062B6A7
:10463000EFF3108372B6584B019C1C60142403E006
:104640005D1C6400072B4AD22B46106165B2002D19
:1046500001D4116100E0116000260296029D172D21
:104660001BD800BF029D6D1C0295029D172D14D80A
:1046700000BF029D6D1C0295029D172D0DD800BF35
:10468000029D6D1C0295029D172D06D800BF029D4C
:104690006D1C0295029D182DE3D310600296029DB9
:1046A000172DCDD800BF029D6D1C0295029D172DC0
:1046B000C6D800BF029D6D1C0295029D172DBFD864
:1046C00000BF029D6D1C0295029D172DB8D800BF3A
:1046D000029D6D1C0295029D182DE3D3B0E710607A
:1046E00062B6EFF3108372B62B4B019C1C60AF23B4
:1046F00003E0661C5B00072C4AD2344610615DB2B1
:10470000002D01D4116100E0116000250295029E88
:10471000172E1BD800BF029E761C0296029E172EF3
:1047200014D800BF029E761C0296029E172E0DD84A
:1047300000BF029E761C0296029E172E06D800BF6E
:10474000029E761C0296029E182EE3D310600295FC
:10475000029D172DCDD800BF029D6D1C0295029DB4
:10476000172DC6D800BF029D6D1C0295029D172D06
:10477000BFD800BF029D6D1C0295029D172DB8D8B1
:1047800000BF029D6D1C0295029D182DE3D3B0E77A
:10479000106062B603B0F0BDA0320A40F0B585B03B
:1047A0001346303BDBB2092B03D805225A43A44BF6
:1047B00008E01346413BDBB2192B00D900E105228A
:1047C0005A439E4B9A1802920CE1196062B6401C43
:1047D000052858D0029C255CEFF3108472B6039C28
:1047E000994E3460019E03E07E1C6D00072FECD2D1
:1047F000374619616CB2002C01D41A6100E01A60CE
:1048000000240494049E172E1BD800BF049E761C1F
:104810000496049E172E14D800BF049E761C04969E
:10482000049E172E0DD800BF049E761C0496049E8D
:10483000172E06D800BF049E761C0496049E182EE0
:10484000E3D319600494049E172ECDD800BF049EB4
:10485000761C0496049E172EC6D800BF049E761CB4
:104860000496049E172EBFD800BF049E761C0496A3
:10487000049E172EB8D800BF049E761C0496049E92
:10488000182EE3D3B0E7EFF3108072B603986E4DA5
:1048900028602046009F04E0A81C3D43072D00D35C
:1048A0008AE0054619611A610494049817281BD8F8
:1048B00000BF0498401C04900498172814D800BF27
:1048C0000498401C0490049817280DD800BF049841
:1048D000401C04900498172806D800BF0498401C78
:1048E000049004981828E3D3196000200490049ED3
:1048F000172E1BD800BF049E761C0496049E172E0C
:1049000014D800BF049E761C0496049E172E0DD862
:1049100000BF049E761C0496049E172E06D800BF86
:10492000049E761C0496049E182EE3D319611A6126
:104930000490049E172E1BD800BF049E761C04967C
:10494000049E172E14D800BF049E761C0496049E65
:10495000172E0DD800BF049E761C0496049E172EB9
:1049600006D800BF049E761C0496049E182EE3D33E
:1049700019600490049817288ED800BF0498401C32
:1049800004900498172887D800BF0498401C04900E
:104990000498172800D97FE700BF0498401C0490B2
:1049A0000498172800D977E700BF0498401C0490AA
:1049B00004981828E1D36FE7196062B605B0F0BD1E
:1049C0002B3A0F2A1CD812A30293C0467A441279BC
:1049D00052009744131517191B15151515151515A4
:1049E0001515150701F072FB0120C10303910107A2
:1049F0000090C2070020134B0190EBE606A2E2E60E
:104A00000D4AE0E606A2DEE609A2DCE606A2DAE648
:104A1000003636000000000008083E0808000000CC
:104A20000808080808000000201008040200000020
:104A30000060600000000000406E0000776E000023
:104A4000456E000090120A4090320A40F0B58DB0D9
:104A5000039314460D4602900A271046394601F08A
:104A600045FF4743E11B302739430AAA117001264D
:104A70000A2C02D20996029F89E00A21FBF78CFBDF
:104A800039430AA84170642C69D36421204601F09F
:104A90002DFF0A21FBF780FB39430AA88170E0084B
:104AA0007D2860D37D20C100204601F01FFF0A2130
:104AB000FBF772FB39430AA8C1700026C348844241
:104AC000099654D3C149204601F010FF0A21FBF793
:104AD00063FB39430AA80171BD4884424AD3BC49EB
:104AE000204601F003FF0A21FBF756FB39430AA8D1
:104AF0004171B848844240D3B649204601F0F6FEE1
:104B00000A21FBF749FB39430AA88171B248844264
:104B100036D3B149204601F0E9FE0A21FBF73CFB00
:104B200039430AA8C171AD4884422CD3AB49204611
:104B300001F0DCFE0A210E46FBF72EFB08973943F5
:104B40000AA80172A6488442029F1FD3A4492046A6
:104B500001F0CCFE089908430AA9487217E00996AB
:104B60000226029F13E009960326029F0FE0042607
:104B7000029F0CE00526029F09E00626029F06E040
:104B80000726029F03E00826029F00E009260A2C60
:104B900030D30AA834463118491E0A780A9B02709D
:104BA0000B707008012800D801200999002921D133
:104BB0000AA97218921E13784C784B701470022850
:104BC00018D00AA97218D21E13788C788B701470C2
:104BD00003280FD00AA97218121F1378CC78CB7053
:104BE0001470042806D00AA83118491F0A780B9BB4
:104BF00002710B7003998E4200D3CCE08C1B012311
:104C000022461A40701E0890F043C8420095019257
:104C100009D1002337460198002800D085E0009D87
:104C2000029F039EB7E005939C430AA8001F0490CF
:104C300000233746184606940AE00AA80170079830
:104C4000801C9B1C099EB61CBF1C069CA042E2D087
:104C5000079003223D46154031463846099618D044
:104C6000711E0AA8465C099C0655099E012D01D1BA
:104C7000781E0EE0B41E0AA8065D4654022D02D12D
:104C8000B81E214605E00998C11E0AA8455C0555D5
:104C9000F81E089CE518EDB2032D0DD3049C611895
:104CA000CD780D718D784E788E70CD700D784D70F9
:104CB000091F001F0506F3D10AA820210170781CE6
:104CC0000240099C651C002A18D00AA8099E865D2E
:104CD0004655099E012A354638460FD0751E0AA84A
:104CE000465D099C06550998022A01D1781E05E007
:104CF000821E0AA8865C4655B81E15461A46059CB3
:104D00002243089CA218D2B2032A96D3049A5219BD
:104D1000D5781571957856789670D5701578557048
:104D2000121F001F0506F3D187E703223A400898B7
:104D3000C018002A07D0711E0AAB5C5C9C55012A82
:104D400003D17F1E0FE031460DE0B31E0AACE55CD7
:104D50006554022A02D1BF1E194604E0F11E0AAAB8
:104D6000545CD454FF1E009D039EC0B203280ED392
:104D70000AA80818001FC1780171817842788270F2
:104D8000C17001784170001F3F1F3906F3D10AA896
:104D900020210170029F0AA800218155142F12D8EA
:104DA000007800280FD00AA94C1CFEB2C2B23046CF
:104DB0002946FFF7F3FC132E05D8611C7F1C2078D1
:104DC00000280C46F1D10DB0F0BDC0461027000000
:104DD000A086010040420F008096980000E1F50592
:104DE00000CA9A3BF0B591B00493002A0291039057
:104DF00001D42B2000E02D200EAD2870D0174240AA
:104E0000171A0A263846314601F070FD4643B91B91
:104E100030242143697001230A2F03D21E46029DCC
:104E2000049963E00D930A21FBF7B6F921430EA81C
:104E30008170642F54D36421384601F057FD0A2154
:104E4000FBF7AAF921430EA8C170F8087D2849D3C1
:104E50007D20C100384601F049FD0A21FBF79CF98D
:104E600021430EA801710023B748874200D225E1F3
:104E70000D93B549384601F039FD0A21FBF78CF94D
:104E800021430EA84171B148874200D255E1AF4994
:104E9000384601F02BFD0A21FBF77EF921430EA8CD
:104EA0008171AB48874200D249E1A949384601F0F7
:104EB0001DFD0A21FBF770F921430EA8C171A54819
:104EC0008742029D00D23CE1A249384601F00EFD26
:104ED0000A21FBF761F921430EA80172082603E0BD
:104EE000022600E00326029D04990D9B0A2F039FD2
:104EF00027D30EA8815D4278417082557008012841
:104F000000D80120002B04991BD10EA97218521E43
:104F100013788C788B7004991470022811D00EA924
:104F20007218921E1378CC78CB70049914700328F1
:104F300007D00EA83118C91E0A780F9B02710B709A
:104F400004998E4212D28B1B01241A462240701EF5
:104F50000B90F043C84201920AD1002430460199D7
:104F6000002900D091E0029D039FCAE03146C9E0CC
:104F70000694A3430EA8401C059000243046214609
:104F800007930CE00EA9089A4A700A99891C0C9C98
:104F9000A41C0D9EB61C801C079B9942DFD00A9171
:104FA0000321054609910D403746014617D00EA949
:104FB0008F19895D7970771E012D01D1411E0EE098
:104FC0000EA9CF5D8F55B71E022D01D1811E06E0BF
:104FD0000EA9CD5D7118491E0D70F71EC11E0D96EC
:104FE0000B9A0C941519EDB2032D10D3059AD5190F
:104FF0006F1E3A782A70AA1E1478EE1E337813704A
:105000003C702D1F2A783270091F0A06F0D10EA9B4
:1050100020224A70411C099E0E400D9B5D1C002EF3
:10502000089210D00EA95A18495D9170012E1F46A2
:1050300001460C9C0FD00EA9CA5C4A555F1E022E79
:1050400004D1411E07E02F460C9C04E00EA9CA5D66
:10505000CA549F1E811E2246069B1A430B9B9A1818
:10506000D2B2032A8ED3059AD3195A1E14781C7013
:105070009C1E2578DE1E3778277015701B1F1A7846
:105080003270091F0A06F0D17CE7032303400B9915
:105090000919002B08D00EAA9419925D6270721E35
:1050A000012B03D1401E12E0324610E00EACA25C90
:1050B000A255B21E022B03D1801E08E00426AEE6E4
:1050C0000EAB9A5CF3185B1E1A70F21EC01E039F93
:1050D000C9B2032911D30EA95118491C4A1E1378CD
:1050E0000B708B1E1C78CD1E2E781E701470091F3D
:1050F0000A782A70001F0206F0D10EA82021417004
:10510000029D04990EA8091800224A70142F12D883
:10511000007800280FD00EA94C1CFEB2C2B2304657
:105120002946FFF73BFB132E05D8611C7F1C207816
:1051300000280C46F1D111B0F0BD0526D3E60626B5
:10514000D1E60726D0E6C04610270000A086010061
:1051500040420F0080969800F0B581B00546107867
:10516000002810D0142D0ED80C46571CEEB2C2B237
:1051700030462146FFF712FB3878002803D07F1C09
:105180006D1C142EF2D301B0F0BD0000F0B593B049
:105190000593154603910746002A01D4002404E034
:1051A0000FA82D2101706D4201240A2628463146A0
:1051B00001F09CFB019002963146FAF7EDFF0FA833
:1051C00000193026314301700120642D0D9406959D
:1051D00004960E9002D22246054644E064212846F9
:1051E00001F084FB0A21FAF7D7FF0D9A0FA81018D7
:1051F00031434170E8087D2830D37D20C100284626
:1052000001F074FB0A21FAF7C7FF0D9A0FA8801866
:1052100031438170B048854222D3AF49284601F01E
:1052200065FB0A21FAF7B8FF049B0D9A0FA8101826
:105230001943C17000200E90A848854212D3A74997
:1052400028461C4601F052FB0A21FAF7A5FF0D9AE9
:105250000FA8801821430171052504E0022502E012
:10526000032500E004250698642818D30FA90D989B
:105270000A1813780D9840194118491E0C781470BB
:105280000D9A0B700E99002909D10FA90D9A521889
:1052900053784018801E017851700D9A037005995B
:1052A0008D4200D3ECE04C1B01262046304000909C
:1052B0006B1EE843C84208D100200E902846009992
:1052C000002900D098E0059DDAE00996B4430FA8C4
:1052D0001018001F0890002128460E910E460797CF
:1052E0000C930A940EE00FA90D9A89180B700B9E6F
:1052F000B61C0E99891C0E91AD1C801C0A9CA642FE
:105300000C9BDCD00B960326044634402A4601460B
:105310001FD00D9B59190FAA57187F1E3F7857545D
:105320006A1E012C01D1411E12E099180FAA5718CC
:105330007F1E3F785754AA1E022C01D1811E07E020
:1053400099180FAA5418641E24785454EA1EC11EDA
:105350000C9B0E9C1C19E4B2032C0DD3089CA218C4
:10536000D4781471947857789770D47014785470F6
:10537000121F091F0C06F3D10FA90D9A89182023BB
:105380000B70411C0E406C1C002E13D011195219C9
:105390000FACA75C6754012E2C460146079F14D022
:1053A0000FA98C18641E24788C546C1E022E03D115
:1053B000411E0AE0079F08E00D9909190FAA541829
:1053C000641E24785454AC1E811E0E9A099E3243EA
:1053D0000C9EB218D2B2032A85D3089A1419E27827
:1053E0002271A2786678A670E27022786270241F1B
:1053F000091F0A06F3D176E7032404400E995918D1
:10540000002C0CD00E91114652190FAB9E18761E2F
:1054100036789E546A1E012C04D1401E15E02A469F
:10542000059D14E08A180FAB9E18761E36789E54A0
:10543000AA1E022C01D1801E07E08A180FAB9C180F
:10544000641E24789C54EA1EC01E059D0E99C9B2A4
:10545000032910D30D9951180FAA8918091FCA786A
:105460000A718A784B788B70CA700A784A70091F63
:10547000001F0206F3D10FA80D9A80182021017099
:10548000A918CAB20FA82E238354029B019A534332
:10549000069AD21A049B1A434B1CDBB2C254891CD5
:1054A000C9B200224254142F039D12D8007800285C
:1054B0000FD00FA94C1CFEB2C2B230462946FFF7EE
:1054C0006DF9132E05D8611C7F1C207800280C462E
:1054D000F1D113B0F0BDC04610270000A086010036
:1054E00080B507480749FCF7B3FD07480021016074
:1054F000064807494161016801220A43026080BDF4
:1055000000200040FC6E000080310040003100406F
:1055100071020000B0B5304988228A632F48042305
:105520000360CA63082202602D4B86221A600124A0
:10553000220402602B4A951CDD66551C0D604D60EF
:1055400064060D6825430D604D6825434D60822437
:105550000C654A658C65CA65234CDC61234C0C667E
:1055600081254D66DD609D605D619D619C659C66E9
:10557000DC63DC648D67CD678D604D619D625D602D
:105580009C635C65CC641A491A4B0B600B63823ACE
:1055900019490B6813430B600A69184B13430B61DD
:1055A00017490A6A174B1A430A620A681A430A60C3
:1055B00001463039144A0A60026014480168144AEE
:1055C0000A4302601120000512490A6A02430A6276
:1055D0000A6802430A60B0BD04804240D0320A40EB
:1055E00084804240820004008100050081000600A2
:1055F000A0120A400070039090130A400030170078
:1056000028100A400002400700C20200A0330A40EE
:105610000001010028300A4010B5194C19492046F4
:10562000FCF7CAFF18492046FCF7A2FF0320C1037C
:10563000164802688A4302600169B54A0A40153279
:10564000026141692D220A4312218A434261426864
:1056500001210A4043688B439A1842604A04036858
:1056600013430360C26870231343C360C2680223FC
:10567000134305229343C36002680A43026010BDCE
:1056800000001040046F0000066F00000011104081
:1056900080B511481149FCF72BFD03204102104849
:1056A00002680A43026001210A020368134303608F
:1056B0000022426109224262826B07239A4382637D
:1056C0001A02836B93438363826A042313438362C6
:1056D000826A0A43826280BD00000F40106F0000A2
:1056E00000120F4070B582B0194C1A492046FCF7E1
:1056F00031FF19492046FCF785FD0025009520461D
:1057000029462A462B46FCF711FF204629462A4601
:10571000FCF7FEFE204629462A46FCF713FF012629
:105720000096204629462A462B46FCF7FFFE2046D7
:1057300029463246FCF7ECFE204629463246FCF765
:1057400001FF064886600321016002B070BDC046BB
:1057500000208640126F0000186F00000031864064
:10576000B0B582B0144D15492846FCF7F3FE144934
:105770002846FCF7F5FD01240094002128460A463E
:105780000B46FCF7D3FEA10428462246FCF7C0FED8
:105790007D20810028462246FCF7D4FE09480146B8
:1057A0001C390C600146243902220A600168214339
:1057B000016002B0B0BDC04600A08640206F00006E
:1057C000246F000024B1864010B5094C09492046D9
:1057D000FCF7C0FE08492046FCF754FD0748016865
:1057E00011220A43026006480121016010BDC04633
:1057F000000009403C6F00002C6F00002810094099
:105800000811094070B51848002404600F200002F8
:10581000164D29688143012670020818286003206C
:10582000C043291F0A6802400A606868B043686084
:1058300030026968814369600D48FCF76DFC286897
:10584000102101432020814329603003296801434E
:1058500029602046FCF7C2FCFF20000205490A68C7
:1058600082430A6070BDC04608030B4004010B4030
:10587000406F000000E400E07047000010B5084CE5
:1058800008492046FCF766FE07492046FCF7C8FD9C
:10589000064801680122114301600548026010BDFD
:1058A00000400840686F00006C6F000028500840FE
:1058B0000851084010B5124C12492046FCF77CFEF6
:1058C00011492046FCF754FE0320C1030F4802682B
:1058D0008A43026001690E4A0A4015320261416939
:1058E0002D220A4312218A4342614168012211405C
:1058F000436893435918416001681143016010BD2A
:1059000000801040806F0000826F00000091104006
:105910000000FFFF80B500F023F8FFF7FBFDFFF765
:1059200071FFFFF7DFFEFFF71BFFFFF74DFFFFF7EC
:10593000A5FFFFF7ADFEFFF7BDFFFFF76DFEFFF719
:10594000CFFDFFF799FF7420034900220A54B820C5
:1059500002490A5480BDC0461C012020600020205E
:10596000F0B581B01448154A4260154842601548A8
:10597000426015484260154D6A60154E7260154FC1
:105980007A60154B5A6015494A6015484260154ABD
:10599000094C22600A4C22600A4C22600A4C2260A8
:1059A0002A6032603A601A600A6002601020FCF7D8
:1059B0006FFB01B0F0BDC04600080A40030000B113
:1059C00000280A400028864000A8864000080940B8
:1059D0000048084000080F400088104000081040B0
:1059E0000028004001000026EFF31080EFF3108143
:1059F00072B6A34900220A70002800D0704762B630
:105A00007047C046EFF31081002827D0EFF31082D3
:105A100072B6884A12680260874A12684260874AF2
:105A200012688260544A1268C260544A1268026165
:105A3000534A12888282534A12788275002900D113
:105A400062B67F490A685202D20FC2750A68D20153
:105A5000D20F027609688905C90F41767047C046A2
:105A600070B5044605208005044239D020480168FD
:105A7000490D02220A400068C001C00F85181D4E62
:105A8000307880002818C0B21B49C140C9071FD117
:105A90001BA10A5667490B689A180A60784A12785F
:105AA000002A1CD01A4AC240D20704D00A68734B9D
:105AB0001B689A4208DA174AC240D0070FD008681C
:105AC0006D49096888420ADC002000F04DF906E0C3
:105AD0003078854203D009480168491C016035705F
