:020000040000FA
:10000000800620206D0100007101000073010000D6
:1000100000000000000000000000000000000000E0
:10002000000000000000000000000000750100005A
:1000300000000000000000007701000079010000CE
:100040007B0100005D1800007B0100007B010000C7
:100050007B0100007B0100007B0100007B010000B0
:10006000000000007B0100007B0100000000000098
:1000700000000000414A00007B0100007B010000FD
:10008000F14900007B0100007B0100007B010000C2
:10009000094A00007B010000000000000000000091
:1000A0007B0100007B010000000000000000000058
:1000B0007B010000000000007B0100007B010000CC
:1000C00000F002F800F042F812A030C808382418F6
:1000D0002D18AC4201D100F039F80FCCA246AB4646
:1000E0000CA730CF2D1B083F3F197C427F1E544484
:1000F0002D090426F441641EAC4201D300F026F819
:100100000126334200D0FB1A3343984754465D46DC
:10011000DFE700008C5600009C5600000000000045
:100120007047000000000000002300240025002686
:10013000103A01D378C1FBD8520700D330C100D5A3
:100140000B6070471FB51FBD10B510BD00F05CFA05
:100150001146FFF7F7FF04F083FC00F074FA03B4D4
:10016000FFF7F2FF03BC00F0C9FA000006480047A1
:10017000FEE7FEE7FEE7FEE7FEE7FEE70348044989
:10018000024A044B70470000C1000000800220209A
:100190008006202080022020002203098B4273D396
:1001A000030A8B4258D3030B8B423CD3030C8B4284
:1001B00021D312E003460B437FD4002243088B4235
:1001C00074D303098B425FD3030A8B4244D3030BDE
:1001D0008B4228D3030C8B420DD30902FF2212BAA3
:1001E000030C8B4202D31212090265D0030B8B421F
:1001F00019D300E0090AC30B8B4201D3CB03C01A09
:100200005241830B8B4201D38B03C01A5241430BE3
:100210008B4201D34B03C01A5241030B8B4201D3D3
:100220000B03C01A5241C30A8B4201D3CB02C01A3E
:100230005241830A8B4201D38B02C01A5241430AB6
:100240008B4201D34B02C01A5241030A8B4201D3A5
:100250000B02C01A5241CDD2C3098B4201D3CB014C
:10026000C01A524183098B4201D38B01C01A5241FB
:1002700043098B4201D34B01C01A524103098B42FF
:1002800001D30B01C01A5241C3088B4201D3CB00EA
:10029000C01A524183088B4201D38B00C01A5241CD
:1002A00043088B4201D34B00C01A5241411A00D27D
:1002B00001465241104670475DE0CA0F00D04942E6
:1002C000031000D3404253409C46002203098B4256
:1002D0002DD3030A8B4212D38901FC2212BA030ADE
:1002E0008B420CD3890192118B4208D38901921160
:1002F0008B4204D389013AD0921100E08909C309E5
:100300008B4201D3CB01C01A524183098B4201D3E6
:100310008B01C01A524143098B4201D34B01C01AD1
:10032000524103098B4201D30B01C01A5241C30849
:100330008B4201D3CB00C01A524183088B4201D3B8
:100340008B00C01A5241D9D243088B4201D34B00D3
:10035000C01A5241411A00D201465241104663462A
:100360005B1001D34042002B00D5494270476346E1
:100370005B1000D3404201B50449002802DC491C4F
:10038000084000E00846C046C04602BDFFFFFF7FB0
:100390007047704770470000F0B5FF252D04C6096F
:1003A000C209FF2704462E400137CB093E4348408F
:1003B0002A402B400746002A6BD0002B69D0AA4266
:1003C00067D0AB4265D0002800DA32460125ED0542
:1003D00029432C4309022002090AD21A4B0C7F241C
:1003E000E31A434C000A7C44E35C7D242404121984
:1003F00014145B00A218884201D3521C00E0400094
:1004000049420C465C4324115C43DB016415E3184C
:10041000040A5C43C502200D0C4644436419250AB6
:100420005D432303EC0C0D46654300030019EB18F4
:100430004C42A34201D35B18401CD4052018002B6A
:1004400007D05B00C91804D3401C002901D1400823
:1004500040003F2189048A4209D3002A08DC1106A2
:10046000090F04D0032149074018C00FC007F0BD91
:1004700001224100120689187F2252069142F6D2CB
:1004800005214907C84201D59010F0BDFF20C005E5
:10049000F0BD002F00DA32461648AA4207D2AB421E
:1004A00005D21902090E17D0F80FC007F0BDFF25BD
:1004B00063002D06AB42F9D84900A942F6D8AB42F9
:1004C00001D1A942F2D0A94201D1002101E061008D
:1004D0004908D0050843F0BD1102090EFBD0FF20EA
:1004E0000243D005F0BD0A460146104654E700001D
:1004F000DE5100000000C07F10B501469E240002BE
:10050000CA15A307002A02D01843002A04DBA21A46
:10051000002A0CDDD04010BD1206120E01D14000A1
:100520004008A21A03D4D04040420028F3DDFF2245
:1005300048001206904201D9002010BDC817C043E0
:10054000584010BD1F22030C02D10F2200041CD002
:10055000030E01D10002083A030F01D10001121F5E
:10056000830F01D18000921E002801DB4000521E43
:10057000D2055118021251181922904004D3491C77
:10058000002801D14908490008467047C10FC90732
:1005900000D04042012292071143D3E7012189078D
:1005A000D0E7000010B5FF231B0644009C421DD875
:1005B0004C009C421AD80346124A0B4307D4401AF7
:1005C00002D3EFF3008010BDEFF3008010BD081AD6
:1005D00003D3EFF30080904305E0EFF300800121A7
:1005E0009043C907084380F3008810BD0D231B0406
:1005F0001A4204D01146002000F02DF810BD00F082
:1006000041F810BD00000090754600F043F8AE467A
:10061000050069465346C008C000854618B020B59D
:10062000FFF7ACFD60BCB64600260027C0C5C0C5BC
:10063000C0C5C0C5C0C5C0C5C0C5C0C5403D4908CE
:1006400049008D46704710B50446C046C046204656
:10065000FFF785FD10BDC80212D54803400F0028E2
:1006600004D0C803C043012188407047EFF30080E5
:100670000001000903210907084380F3008870473F
:100680000020704710B5024800F008F810BD0000C7
:100690000000C07F004870470000202010B50C46C5
:1006A0001107090F092904D00A290AD008290CD1F9
:1006B00004E011460820FFF7CEFF06E0510606D5FC
:1006C00001E0510601D50120C007214610BDD10629
:1006D00007D501010909CC084907000E00060443AB
:1006E00009E0410F20024907000A0143200E0006DD
:1006F0001D22D14101430846E7E7000001491820C7
:10070000ABBEFEE726000200704700004248002111
:1007100001704348017041480160134801807047EF
:100720003D480078411F484248417047B0B50446F3
:100730003A48002505603A48047000F081F8012C21
:1007400006D0032C07D0022C0BD10425002005E095
:100750003220254602E004480088042500B200F05B
:100760008BF82D480570B0BDD4012020F0B581B0C4
:100770000446294E307800282ED005282CD020465B
:1007800000F07EF8254F3868002800D13C6000F06A
:1007900063F82349097801291ED13178032911D042
:1007A00002291BD0012917D1093080B21E49132814
:1007B0000DB21CD2284600F05FF83C600220307079
:1007C000204615E03868201AFF21F631884203D30D
:1007D0000520307000F02AF801B0F0BD093080B279
:1007E00013280FD23C600320307020460BE038689D
:1007F000201A0C498842EFD9284600F03DF83C60A9
:10080000022006E03868201A06498842E4D93C6094
:100810000320307001B0F0BDA40120202C02202064
:1008200029022020B80B0000CEFF000080B5464909
:100830000020087004F048F803F0E6FF80BDC046D1
:1008400080B54548002101603F48012202704148BF
:10085000016003F0F3FF80BD00203D49085E704752
:100860003B4800210180394801803B4801603948FC
:100870000160354801707047344908807047C046B0
:10088000F0B581B004463048007801285AD100F014
:100890000FF905466421204600F016F900284ED0D5
:1008A00028882A490988081A2949088000B2FFF7D0
:1008B0006DFE04462748016800910460264D2868B3
:1008C000214604F027FD0746244E314604F0FEFC85
:1008D000002800D13E46224F3046394604F00EFD36
:1008E000002800D137462F601E49384604F0ACFD81
:1008F00006461D49204604F0A7FD314604F00AFDD6
:1009000006462046009904F0F7FD014604F002FD7A
:10091000314604F0FFFC0546144C214604F0D6FC99
:10092000002800D12C46124D2046294604F0E6FC52
:10093000002800D125462846FFF7DEFD00E0002014
:1009400003F0C2FF01B0F0BDDC01202078022020BE
:10095000DE01202034022020F80120200000FA438C
:100960000000FAC3CDCCCC3D0000A04000803B4548
:1009700000803BC5002801D0002070473549087829
:1009800000220A707047C0462D48002101602E48A1
:1009900001702F4801602F480170274800682B4ADA
:1009A00011704003C00F2749087024490870704730
:1009B00010B5214909684903C90F204A13789942A3
:1009C0001AD1204B1A7891421DD01D4C2468041B6B
:1009D0001E2C17D31970002915D1002A13D01A49DB
:1009E0000A78FF2A01D0521C0A70184901220A70A5
:1009F00017490860002106E0114B18601170114979
:100A0000097800E01146114A1378012B13D100290F
:100A100011D10F490968401A80084B280BD30020D8
:100A2000107009490A780870012A01D8012000E0F5
:100A300002200849087010BD80130A40AC01202034
:100A4000B0012020A8012020B4012020BC012020DA
:100A5000B8012020C0012020B0B51A490B78134AF4
:100A6000D054012B05D0002B08D1AA281DD101207C
:100A70001AE0553842424241500015E0581C0870B7
:100A8000C0B2052811D310785578454093785D4061
:100A9000D478654012790020954205D1124A01258B
:100AA00095702402E31813800870B0BD5C0220200A
:100AB0000D4870470C480021416081700180014859
:100AC000017070476102202010B50246064B9878ED
:100AD000441EA0415B68D21A8A4202D3002108401A
:100AE00010BD0121084010BDCC01202054480068F1
:100AF0007047C046534800787047C0464E4800785B
:100B00007047C0464C48002101704E4801704B4868
:100B100001604B4801607047F0B581B00546002682
:100B20003046FFF727FF0446434F387802283DD070
:100B3000012823D0002848D1022C48D0012C44D1D0
:100B40003F4806603D4805600120387000F0F0F82D
:100B50003C480078042838D878440079400087441D
:100B60000262424B57003B4800F0F0F8022000F0D0
:100B7000FBF8012000F0E6FE01B0F0BD2F48006850
:100B8000281A2F490860284600F000FF2846FFF782
:100B9000EDFD00F0D1FE00280DD0002000F0E4F8BB
:100BA000FFF744FE0220387001B0F0BD012C0CD1DB
:100BB0003E7001B0F0BD23480078012803D1FFF753
:100BC000AFFD0028E9D1012CE7D001B0F0BD1D48F0
:100BD0000178491C1C4A4A43120C05235343C91A85
:100BE000017001B0F0BD1A4800F0B0F802242046B0
:100BF00000F0BAF8204607E0144800F0A7F80224F5
:100C0000204600F0B1F8012000F09CFE20460EE0E6
:100C10000E4800F09BF8022000F0A6F8012000F03A
:100C200091FE032003E0002000F09EF80120FFF772
:100C30007DFD01B0F0BDC0466C022020680220207E
:100C4000D80120202702202034330000E6A57E4270
:100C5000B7AF90429A8FCA423A4800687047C04680
:100C6000264800687047C046294800687047C0465B
:100C70002B4800687047C046334800687047C0463C
:100C80001F4800687047C046224800687047C04649
:100C9000244800687047C04680B53F49002008706E
:100CA000304908603D4908603D49086025490860B1
:100CB0002549086011490860114908601149086018
:100CC000114908601149087011490860114908600C
:100CD00011490860114908601149086031490860EC
:100CE00031490860314908600E4908600E490880A2
:100CF0000E49086001F08CFA80BDC0461002202029
:100D000050022020140220205402202062022020C1
:100D1000180220205802202008022020480220200B
:100D200020022020C401202024022020C8012020ED
:100D3000EFF3108072B6E74800210160E6480160D9
:100D400062B67047040220204402202010B50446F9
:100D5000002104F0BBFA002800D1044601480460D9
:100D600010BDC0469C01202080B5E3490A7882422C
:100D70000AD00A4A00231360094A1360094A136023
:100D8000DE4A1360094A13600870002800D080BD55
:100D900001F0C6F980BDC0462A0220200C022020A6
:100DA0004C0220203C02202038022020FC01202080
:100DB000F0B587B0C6480168491C016001F0F6F83B
:100DC00006A805A900F03CFDC24A10680599401824
:100DD0001060C14B1868069A801A1860BF4B1868DB
:100DE00040181860BE4D2868801A2860BD4E3078C3
:100DF000401C3070C0B2022829D3B84800681424BF
:100E0000214600F0FBFCB84E30602868214600F017
:100E1000F5FCB64F38603068002104F04CFA002829
:100E200004D10120C0073168414031603868002496
:100E3000214604F040FA002804D10120C007396897
:100E400041403960A54804602C60A64E347004A867
:100E500000F0BAFEA64F38703878002808D0049CFD
:100E60000021204604F04AFA002805D13F2004E082
:100E700000200490044606E0BF200106204604F04E
:100E800049FAFFF739FB9B4908609B480178002924
:100E900028D0007801283AD18E4800688E49096828
:100EA000441A9648066804602046FFF76FFB054623
:100EB000A01BFFF76BFB924904F0C6FA0446914968
:100EC000284604F0C1FA214604F024FA04468E4E66
:100ED0003068214604F010FB05463068214604F0D6
:100EE00019FA8FE08948002101608948016089482A
:100EF0000160894801608948016089480160FC48B7
:100F000001602960317001F00BF907B0F0BD38784D
:100F100000282ED0FA4801680460204604F0ECFA5C
:100F2000F84904F091FA0546F749204604F08CFA96
:100F3000294604F0EFF90546F44C214604F0C6F9C1
:100F4000002800D12C46F24D2046294604F0BEF977
:100F5000002800D12C46EF4F3D682046294604F07A
:100F6000CBFA0646EC4904F0BCF9002815D1EA4951
:100F70001AE0EB480188EB4A914202D00188491CF3
:100F800001800088E34D2C68062815D3E6492046E9
:100F900004F05AFA28602C680EE0E049304604F06C
:100FA0008AF9002804D1DD49284604F0B3F9044643
:100FB0003C60DB48002101800120C10720468843B6
:100FC000D249FFF7E9F9D94904F03EFA7F21C90572
:100FD00004F0A0F90646D64D294604F08FF9002802
:100FE00000D13546D3480068294604F02DFAD24E88
:100FF00030603168204604F08DF90546306821469E
:1010000004F07AFA074600262846314604F05EF9D5
:10101000002800D10546C94805603846314604F02D
:1010200055F9002800D10746C5480760B94C20682B
:10103000314604F063F926680028039702D00120A6
:10104000C0074640412007063046394604F033F9D0
:10105000A8490C780443601E84413046394604F0A8
:101060004DF9002815D1B74F3868B94E314604F014
:10107000EBF93860B94F3868314604F0E5F938606B
:101080009D480168284604F037FA0646AD480768CF
:1010900009E099480168284604F02EFA0646A94856
:1010A0000768002C3ED0AB49304604F0CDF9064627
:1010B00021204106284604F0C7F9314604F02AF9F8
:1010C0000546A349384604F0BFF9294676E0C046F4
:1010D000C4012020040220204402202014022020E9
:1010E00054022020620220201002202050022020E2
:1010F00026022020200220202A0220203802202040
:101100003333333FCDCC4C3E9C0120200C022020B9
:101110004C02202018022020580220200802202003
:10112000480220200168304604F0F4F8074686495A
:1011300004F0CCF80028844800D13846834907469B
:1011400004F0C4F8002800D1804F81490197384647
:1011500004F07AF902907F49304604F075F90746A9
:1011600021204106284604F06FF9394604F0D2F8F0
:1011700007460298394604F0CDF80546764904F052
:10118000BDF8002805D10021304604F09FF8002862
:101190000ED10021284604F099F8002805D100213D
:1011A000304604F0ABF8002802D16648019901608E
:1011B00064480068664904F047F9394604F0AAF823
:1011C0000646039F644D294604F080F8002800D1AC
:1011D00035460021284604F079F8002800D105465C
:1011E0002846FFF789F95E49086044480168384697
:1011F00004F082F9054659480668002C10D055497C
:10120000284604F021F9054621204106384604F01D
:101210001BF9294604F07EF804464D49304647E064
:101220000168284604F076F80746474E314604F038
:101230004DF8002800D13E46444F3046394604F070
:1012400045F8002800D13E464149304604F0FCF8FC
:1012500007464049284604F0F7F804462120410695
:10126000039804F0F1F8214604F054F80446384697
:10127000214604F04FF80746374904F03FF80028AC
:1012800005D10021284604F021F800280DD10021C5
:10129000384604F01BF8002805D10021284604F048
:1012A0002DF8002801D12D4806602C4800682849F7
:1012B00004F0CAF8214604F02DF80546284E264CC5
:1012C000214604F003F8002800D12C4600212046D6
:1012D00003F0FCFF002800D104462046FFF70CF97C
:1012E000204908603068096800F04CFF07B0F0BD85
:1012F0001402202062022020100220205002202010
:101300003C0220200000C040000040410000C841D5
:101310000000C8C1FC0120200000A0410000A0C1C5
:1013200024022020FFFF00009A99593F9A9999BE04
:101330003333333F9C012020C80120201802202095
:10134000580220200C0220200000C8430000C8C31F
:101350006666663F0000204100C0F3454C02202035
:101360000802202048022020B0B50A780323134049
:101370000B4A84580B4D2540EB18A92424061B1951
:101380008350072212064B6813401124240205598A
:101390009543EA180251001949780161B0BDC04671
:1013A00008080000FCFFFF00811E091F00BFFCD2DF
:1013B000704710B5002A0FD091235B01C31800209D
:1013C000DC692405240F05D00C5C1C60401C8242A3
:1013D000F6D1104680B210BD002080B210BD0000D2
:1013E000084A835880210B43835080180F22120231
:1013F000436813400122D2029342F7D102688A4324
:10140000026070473812000070B50A780C231A4049
:101410000124240305196E689E43B2186A60497856
:1014200007221140035993435918015170BD000020
:10143000F0B584B0012422022A4B1968039291432B
:10144000196035490D686D04FCD5457E25409E69BF
:10145000A64374199C612024045D03252C40DE6999
:10146000AE433419DC61204C256805262660466AA7
:1014700037681F6276685E6207262E402660C46960
:101480007F252D02DE69AE436406640C3419DC61ED
:101490000768456882680092C668026901924269DD
:1014A00002929A69114C14403A07120B2D03ADB207
:1014B000AA183243009D2D072D0D1543019A15439F
:1014C000029A1543007E2843094A02401019986188
:1014D0001868039A1043186008688005FCD504B0AA
:1014E000F0BDC04608010B40001340408D00F0FFE6
:1014F00072FF0F0007498860074802689202FCD516
:10150000012212040B6813430B600168C906FCD565
:101510007047C04604010B4004020B4070B582B016
:101520000B794A79002A25D0184A202B02D00524AD
:10153000E40100E0434C8218002B00D18824156C94
:101540003F4E35402D191564556C35402C195464A7
:1015500014687A4D2C40146054682C405460002468
:10156000146254628F24E443156D25401565556D52
:10157000254055656A4613718B795371096800914E
:10158000114600F005F802B070BDC04638180000E2
:10159000F0B5684A8218294BC318087920280DD065
:1015A00000281DD10C68641E5460D56E244C254063
:1015B0008835D5661646703688251DE00C68641E91
:1015C0005460D46E1E4D2C401E4EA419D466146F68
:1015D0002C40A4191467012465071B4C16460BE028
:1015E0000C6864085460D66E154C26400525ED0144
:1015F0007619D66616467036376827402F4337600F
:10160000D46A4E4D2C40D462146B2C4014630024D9
:10161000D46414658F24E443D56F2540D5671D68D5
:1016200025401D6049790143BD2008401168074BE2
:101630000B40C018801C1060F0BDC046841800002C
:1016400024493E0001040000FFFFFFCF4000FFCF10
:10165000B0B54A68364BC250364A80180A78222AFA
:1016600058D8930001A4E3589F46C0460B170000CA
:10167000151700000B1700001517000015170000C4
:1016800015170000151700001517000015170000AA
:10169000151700001517000015170000151700009A
:1016A000151700001517000015170000F9160000A7
:1016B00015170000F9160000151700001517000097
:1016C000151700001517000015170000151700006A
:1016D000151700001517000015170000151700005A
:1016E000151700001517000015170000F916000067
:1016F00015170000F916000003231B0704689C431C
:1017000001235B07E318036004E003231B0704685D
:101710009C4304600B69C360CB68074C1C40C36AE0
:10172000064D1D402B19C362097A11430160B0BDFB
:101730000818000004180000777702008888FDFF71
:1017400010B507239B04194092008018024A845860
:101750009C436118815010BD3018000010B5029CE8
:10176000A400001911431943014A815010BDC0461D
:101770005018000092008018014A81507047C046FE
:101780001018000010B50122120383180C789C6019
:101790004B7883508978014A815010BD0C110000AC
:1017A000B0B51122120283580124A34383500B8841
:1017B0008C781C438B882343094C1C408358094D6B
:1017C0001D40631983508B79CC791C43097A2143DE
:1017D0007E231940801842689A4351184160B0BD79
:1017E00018670000E798FDFF10B501221203831867
:1017F0000C789C604978815010BD0000B0B500297C
:1018000011D00C46FEF7C2FE084903F01DFE054646
:101810002046FEF7C3FE064903F016FE01462846A1
:10182000FEF7BAFDB0BD0020B0BDC04600606A47FB
:101830000000434432480021016033480160704792
:10184000EFF3108272B62E4A136803602E480368C5
:101850000B6000211160016062B67047F0B5012491
:10186000A706244910390E6835463D400021CA4379
:10187000214B103B1B68B601204E08D5306838421A
:10188000174600D027461E48016879180160002DD0
:101890000AD060063168014201D0144600E00124FC
:1018A000174801686118016001242606D802154D09
:1018B00008D528683042174600D0274612480168EC
:1018C00079180160334208D020052968014200D10F
:1018D00001220D4801685118016003204006054AA5
:1018E00011680143116011200005034A116801438A
:1018F0001160F0BD48100A4048300A4080130A4089
:101900009401202080330A4098012020A249002021
:101910000870A3490870A4490860A5490870A74940
:101920000870A5490870A3490870A649088099491C
:1019300008609A490860704797480078011F48423C
:101940004841704710B5944901220A7094490870C3
:10195000974900240C7099490C7097490C7095496F
:101960000C7098490C808B490C608C490C600228E3
:1019700000D1044C012800D1034CFFF7D9F98A4863
:10198000046010BD0000164300801944F0B581B01A
:10199000044680480168091B4A424A417E4E31781C
:1019A000FB230B405942594111436AD1046000F0B6
:1019B000F7FA3178032910D0022915D0012960D116
:1019C00077480078012846D17E490888632856D890
:1019D000421C0A80632852D053E070480068201AE5
:1019E00096284ED304204BE06D49097802294AD04D
:1019F000012946D142B20020002A03465FD00121CE
:101A000013460B40D5B26F0819D00F40FB18AF0832
:101A100015D00F40FB18EF0811D00F40FB182F090D
:101A20000DD00F40FB186F0909D00F40FB18AF090C
:101A300005D00F40FB18002A01D5ED09EB18042B47
:101A40003DD35B4D2878012801D8401C2870012522
:101A5000584F397036E0FFF7FFF80446FFF70CF9EE
:101A60000019FEF793FD3F21090603F0EDFC4D49F7
:101A700003F0EAFC524903F034FC002801D10220B3
:101A8000307001B0F0BDFFF7E7F80546FFF7F4F856
:101A90004019FEF77BFD3F21090603F0D5FC4149C3
:101AA00003F0D2FC054640480068404903F0CCFCF6
:101AB0000146284603F022FC0028E2D154E03C49CC
:101AC000087005463C490F78002F07D0002B10D036
:101AD0007B1C0B7039490D78154306E0022B13D39C
:101AE00001230B7035490A7032490D7001280ED957
:101AF0003AE032480A46002101702D480170117009
:101B00002C48017001B0F0BD002301282CD82B49CE
:101B1000284A1078002830D0087847B2002F2CD0FF
:101B200001203D460540FAB2510819D001404D1937
:101B3000910815D001404D19D10811D001404D191F
:101B400011090DD001404D19510909D001404D191D
:101B5000910905D001404D19002F01D5D009451933
:101B60001649062D134A08D30020FFF7FDF803207D
:101B700030700A48046001B0F0BDD8B2062800D227
:101B80007FE7002008700A4908700B490870107040
:101B900001B0F0BD000220201C022020A001202066
:101BA00028022020F3C3D93C740220203333733F32
:101BB0006D0220206E022020700220206F02202063
:101BC0000000F04164022020F0B581B0002813D05D
:101BD00004460020206041490A78002A0FD0FF2ADD
:101BE0006BD01106C91706239943D509530609D4AA
:101BF00093061DD4D3090AE0002001B0F0BD1046C1
:101C000001B0F0BD6D1C491F930614D401231E467C
:101C1000D7061CD4002E00D00123170713D4002EA2
:101C200000D0012357071CD4002E23D0012321E02C
:101C300053B2002B09D46D1CC91ED30609D401234D
:101C40001E461707EBD5002B0ED001B0F0BD002BC0
:101C5000FBD16D1C491E130706D401231E465707EE
:101C6000E2D5002BF1D10AE06D1C491C530706D4C4
:101C700001231E4697070CD4002E04D104E06D1CEE
:101C8000C91C930707D40123D2070AD0002BDCD14B
:101C900005E0002BD9D16D1C491DD00701D06D1C6A
:101CA000C91D0846FEF772FC06462846FEF76EFC84
:101CB00001463046FEF770FB2060012001B0F0BD08
:101CC000054800210160416004480170B648017078
:101CD000B248052101707047E8012020F001202062
:101CE000AE480078052801D30020704701207047D6
:101CF000F0B581B0684605210170A24EA24F38466A
:101D0000316889064AD43168890647D43168890622
:101D100044D43168890641D4316889063ED431689B
:101D200089063BD43168890638D43168890635D4B0
:101D30003168890632D4316889062FD43168890622
:101D40002CD43168890629D43168890626D43168B3
:101D5000890623D43168890620D4316889061DD4C8
:101D6000316889061AD43168890617D43168890622
:101D700014D43168890611D4316889060ED43168CB
:101D800089060BD43168890608D43168890605D4E0
:101D90003168890602D41930B2D1CBE07B4D284698
:101DA000FFF71EFB6946012428462246FFF701FB88
:101DB000304608380168764A1140BA310160311F57
:101DC0000A68744B1A40744D52190A603A463368D7
:101DD0005B064AD533685B0647D533685B0644D556
:101DE00033685B0641D533685B063ED533685B06D6
:101DF0003BD533685B0638D533685B0635D5336829
:101E00005B0632D533685B062FD533685B062CD56D
:101E100033685B0629D533685B0626D533685B06D5
:101E200023D533685B0620D533685B061DD5336840
:101E30005B061AD533685B0617D533685B0614D585
:101E400033685B0611D533685B060ED533685B06D5
:101E50000BD533685B0608D533685B0605D5336858
:101E60005B0602D51932B2D164E03268920761D4C0
:101E70003A4633689B064AD433689B0647D4336896
:101E80009B0644D433689B0641D433689B063ED4FA
:101E900033689B063BD433689B0638D433689B0673
:101EA00035D433689B0632D433689B062FD433680D
:101EB0009B062CD433689B0629D433689B0626D412
:101EC00033689B0623D433689B0620D433689B0673
:101ED0001DD433689B061AD433689B0617D4336825
:101EE0009B0614D433689B0611D433689B060ED42A
:101EF00033689B060BD433689B0608D433689B0673
:101F000005D433689B0602D41932B2D112E00268BC
:101F10001F4B1A40BB231343036008681D4A10403F
:101F200028430860706A000711D17F1C02D2306814
:101F30008007F7D519490878002404281ED8421CC8
:101F40000A7004281AD173480024047016E013485C
:101F50000021017070680107090EC0B20009401825
:101F60008108332211401040800008184108552292
:101F7000114010404000081866490870204601B022
:101F8000F0BDC04618120F40E0B1FFFF00000F4047
:101F900000F8FFFFF8FF00F007000100E00120203B
:101FA0005C4800787047C04640022020B0B5002051
:101FB00058490D56EBB2584A147858480178002D0C
:101FC00008D4002C03D0641E147024060CD17F2486
:101FD000214008E0022C03D8651C1570022C03D1A7
:101FE0007F24E4432143017054785D0608D4002C1B
:101FF00003D0641E547024060BD1BF24214007E097
:10200000022C03D8651C5570022C02D140242143B8
:10201000017094789D0608D4002C03D0641E94703F
:1020200024060BD1DF24214007E0022C03D8651CD5
:102030009570022C02D1202421430170D478DD0652
:1020400008D4002C03D0641ED47024060BD1EF24D6
:10205000214007E0022C03D8651CD570022C02D168
:1020600010242143017014791D0708D4002C03D0DB
:10207000641E147124060BD1F724214007E0022CC2
:1020800003D8651C1571022C02D10824214301706C
:1020900054795D0708D4002C03D0641E54712406C3
:1020A0000BD1FB24214007E0022C03D8651C55719D
:1020B000022C02D104242143017094799D0708D495
:1020C000002C03D0641E947124060BD1FD24214002
:1020D00007E0022C03D8651C9571022C02D1022462
:1020E00021430170D479DB0706D1002C0ED0631E8A
:1020F000D3711A060AD0B0BD022C03D8631CD37169
:10210000022CF8D1012211430170B0BDFE22114012
:102110000170B0BD40022020E8012020F001202005
:1021200070B5474C0025204629462A46FFF722FB7A
:102130000126204629463246FFF71CFBB00304491E
:10214000086070030860300408607004086070BDA7
:1021500090120A4070B53A4C0025204629462A467E
:10216000FFF708FB0126204629463246FFF702FB0F
:10217000B00393490860700308603004086070047D
:10218000086070BDF0B581B01F4B994200DC194664
:102190001E4CA1420A4600DB2246984200DC18464B
:1021A000A042054600DB254601246603A703844BB5
:1021B000012903DB194610390F6002E01F60002A75
:1021C0001ED41E6026046104012803DB1846103863
:1021D000066003E01E60002D00D5103B1960D0178B
:1021E0004240111A164C00222046FFF7C3FAE817A6
:1021F0004540291A01222046FFF7BCFA01B0F0BD84
:10220000194610390E60DDE788E1FFFF781E0000F7
:1022100070B50B4C0025204629462A46FFF7AAFA3E
:102220000126204629463246FFF7A4FAB003644946
:10223000086070030860300408607004086070BDB6
:1022400000208640F0B587B0012007070490C5073D
:1022500000245B4E204605E00298401C01990729A6
:1022600000D3AAE00290C1B22046019102F058FCCE
:10227000204606E0176062B60398401C40B2002872
:10228000EAD40390EFF3108172B60498C1034D486D
:102290000160234604E08B1C049801430729E9D21E
:1022A0001946376035600594059A172A1BD800BF78
:1022B000059A521C0592059A172A14D800BF059A50
:1022C000521C0592059A172A0DD800BF059A521C78
:1022D0000592059A172A06D800BF059A521C059246
:1022E000059A182AE3D33246103A17600023069362
:1022F000069817281BD800BF0698401C0690069821
:10230000172814D800BF0698401C06900698172876
:102310000DD800BF0698401C06900698172806D8CE
:1023200000BF0698401C069006981828E3D3376033
:1023300035600593059817281BD800BF0598401CE9
:1023400005900598172814D800BF0598401C0590E3
:10235000059817280DD800BF0598401C05900598D2
:10236000172806D800BF0598401C05900598182826
:10237000E3D317600693069817288CD800BF0698F9
:10238000401C06900698172885D800BF0698401C68
:1023900006900698172800D97DE700BF0698401CD4
:1023A00006900698172800D975E700BF0698401CCC
:1023B000069006981828E1D36DE707B0F0BDC04637
:1023C000A0120A4090320A40F0B583B0E04D103DB3
:1023D0000126B7032F60DF4C2046FEF7E5FF2046BD
:1023E000FEF7E2FF2046FEF7DFFF2046FEF7DCFFA8
:1023F0002046FEF7D9FF2046FEF7D6FF2046FEF71F
:10240000D3FF2046FEF7D0FF2046FEF7CDFF204643
:10241000FEF7CAFFCE4807602046FEF7C5FF2046FC
:10242000FEF7C2FF2046FEF7BFFF2046FEF7BCFFC7
:102430002046FEF7B9FF2046FEF7B6FF2046FEF71E
:10244000B3FF2046FEF7B0FF2046FEF7ADFF204663
:10245000FEF7AAFF2046FEF7A7FF2046FEF7A4FFDF
:102460002046FEF7A1FF2046FEF79EFF2046FEF71E
:102470009BFF2046FEF798FF2046FEF795FF20467B
:10248000FEF792FF2046FEF78FFF2046FEF78CFFF7
:102490002F602046FEF788FF2046FEF785FF204686
:1024A000FEF782FF2046FEF77FFF2046FEF77CFF07
:1024B0002046FEF779FF2046FEF776FF2046FEF71E
:1024C00073FF2046FEF770FF2046FEF76DFF2046A3
:1024D000FEF76AFF2046FEF767FF2046FEF764FF1F
:1024E0002046FEF761FF2046FEF75EFF2046FEF71E
:1024F0005BFF2046FEF758FF2046FEF755FF2046BB
:10250000FEF752FF2046FEF74FFFEFF3108072B642
:10251000F00301908E4908603007F107AE240027D0
:102520008D4A03E05F1C6400072B4AD23B461061D2
:1025300065B2002D01D4116100E011600025029503
:10254000029F172F1BD800BF029F7F1C0297029F7C
:10255000172F14D800BF029F7F1C0297029F172FCE
:102560000DD800BF029F7F1C0297029F172F06D82D
:1025700000BF029F7F1C0297029F182FE3D31060B9
:102580000295029F172FCDD800BF029F7F1C029794
:10259000029F172FC6D800BF029F7F1C0297029F81
:1025A000172FBFD800BF029F7F1C0297029F172FD3
:1025B000B8D800BF029F7F1C0297029F182FE3D359
:1025C000B0E7106062B6EFF3108372B6604B019C07
:1025D0001C60202403E05D1C6400072B4AD22B46BC
:1025E000106165B2002D01D4116100E01160002777
:1025F0000297029D172D1BD800BF029D6D1C0295EE
:10260000029D172D14D800BF029D6D1C0295029DDE
:10261000172D0DD800BF029D6D1C0295029D172D30
:1026200006D800BF029D6D1C0295029D182DE3D3B4
:1026300010600297029D172DCDD800BF029D6D1C22
:102640000295029D172DC6D800BF029D6D1C0295F4
:10265000029D172DBFD800BF029D6D1C0295029DE3
:10266000172DB8D800BF029D6D1C0295029D182D34
:10267000E3D3B0E7106062B6EFF3108372B6344B69
:10268000019C1C60102403E05F1C6400072B4AD2ED
:102690003B46106165B2002D01D4116100E011606C
:1026A00000250295029F172F1BD800BF029F7F1C99
:1026B0000297029F172F14D800BF029F7F1C02971A
:1026C000029F172F0DD800BF029F7F1C0297029F09
:1026D000172F06D800BF029F7F1C0297029F182F5A
:1026E000E3D310600295029F172FCDD800BF029F41
:1026F0007F1C0297029F172FC6D800BF029F7F1C26
:102700000297029F172FBFD800BF029F7F1C02971E
:10271000029F172FB8D800BF029F7F1C0297029F0D
:10272000182FE3D3B0E7106062B6EFF3108372B6F0
:10273000074B019C1C60B02403E05D1C6400072B68
:1027400050D22B46106165B2002D07D4116106E00E
:10275000A0320A408038010090120A401160002720
:102760000297029D172D1BD800BF029D6D1C02957C
:10277000029D172D14D800BF029D6D1C0295029D6D
:10278000172D0DD800BF029D6D1C0295029D172DBF
:1027900006D800BF029D6D1C0295029D182DE3D343
:1027A00010600297029D172DC7D800BF029D6D1CB7
:1027B0000295029D172DC0D800BF029D6D1C029589
:1027C000029D172DB9D800BF029D6D1C0295029D78
:1027D000172DB2D800BF029D6D1C0295029D182DC9
:1027E000E3D3AAE7106062B6EFF3108372B6DA4B58
:1027F000019C1C60C82503E05F1C6D00072B4AD2BA
:102800003B4610616CB2002C01D4116100E01160F4
:1028100000240294029F172F1BD800BF029F7F1C29
:102820000297029F172F14D800BF029F7F1C0297A8
:10283000029F172F0DD800BF029F7F1C0297029F97
:10284000172F06D800BF029F7F1C0297029F182FE8
:10285000E3D310600294029F172FCDD800BF029FD0
:102860007F1C0297029F172FC6D800BF029F7F1CB4
:102870000297029F172FBFD800BF029F7F1C0297AD
:10288000029F172FB8D800BF029F7F1C0297029F9C
:10289000182FE3D3B0E7106062B6EFF3108372B67F
:1028A000AD4B019D1D60234604E0BB1C3743072F41
:1028B00000D38AE01F46106111610294029B172B1E
:1028C0001BD800BF029B5B1C0293029B172B14D8E2
:1028D00000BF029B5B1C0293029B172B0DD800BF0D
:1028E000029B5B1C0293029B172B06D800BF029B26
:1028F0005B1C0293029B182BE3D31060002502950A
:10290000029B172B1BD800BF029B5B1C0293029BF0
:10291000172B14D800BF029B5B1C0293029B172B42
:102920000DD800BF029B5B1C0293029B172B06D89D
:1029300000BF029B5B1C0293029B182BE3D3106128
:1029400011610295029B172B1BD800BF029B5B1CD9
:102950000293029B172B14D800BF029B5B1C0293AF
:10296000029B172B0DD800BF029B5B1C0293029B9E
:10297000172B06D800BF029B5B1C0293029B182BEF
:10298000E3D310600295029B172B8ED800BF029BE9
:102990005B1C0293029B172B87D800BF029B5B1C1A
:1029A0000293029B172B00D97FE700BF029B5B1CA1
:1029B0000293029B172B00D977E700BF029B5B1C99
:1029C0000293029B182BE1D36FE7106062B6EFF31E
:1029D000108372B6604B019C1C60102403E05D1CE8
:1029E0006400072B4AD22B46106165B2002D01D43A
:1029F000116100E0116000270297029D172D1BD87E
:102A000000BF029D6D1C0295029D172D14D800BFBA
:102A1000029D6D1C0295029D172D0DD800BF029DD1
:102A20006D1C0295029D172D06D800BF029D6D1CDE
:102A30000295029D182DE3D310600297029D172D79
:102A4000CDD800BF029D6D1C0295029D172DC6D8E2
:102A500000BF029D6D1C0295029D172DBFD800BFBF
:102A6000029D6D1C0295029D172DB8D800BF029DD6
:102A70006D1C0295029D182DE3D3B0E7106062B67D
:102A8000EFF3108372B6344B019C1C60402403E0CA
:102A90005F1C6400072B4AD23B46106165B2002DD3
:102AA00001D4116100E0116000250295029F172FEB
:102AB0001BD800BF029F7F1C0297029F172F14D8BC
:102AC00000BF029F7F1C0297029F172F0DD800BFE7
:102AD000029F7F1C0297029F172F06D800BF029FFC
:102AE0007F1C0297029F182FE3D310600295029F6C
:102AF000172FCDD800BF029F7F1C0297029F172F70
:102B0000C6D800BF029F7F1C0297029F172FBFD815
:102B100000BF029F7F1C0297029F172FB8D800BFEB
:102B2000029F7F1C0297029F182FE3D3B0E710602B
:102B300062B6EFF3108372B6074B019C1C608124D0
:102B400003E05D1C6400072B4CD22B46106165B27C
:102B5000002D03D4116102E0A0320A401160002769
:102B60000297029D172D1BD800BF029D6D1C029578
:102B7000029D172D14D800BF029D6D1C0295029D69
:102B8000172D0DD800BF029D6D1C0295029D172DBB
:102B900006D800BF029D6D1C0295029D182DE3D33F
:102BA00010600297029D172DCBD800BF029D6D1CAF
:102BB0000295029D172DC4D800BF029D6D1C029581
:102BC000029D172DBDD800BF029D6D1C0295029D70
:102BD000172DB6D800BF029D6D1C0295029D182DC1
:102BE000E3D3AEE7106062B6EFF3108372B6E64B44
:102BF000019C1C607F2403E05F1C6400072B4AD209
:102C00003B46106165B2002D01D4116100E01160F6
:102C100000250295029F172F1BD800BF029F7F1C23
:102C20000297029F172F14D800BF029F7F1C0297A4
:102C3000029F172F0DD800BF029F7F1C0297029F93
:102C4000172F06D800BF029F7F1C0297029F182FE4
:102C5000E3D310600295029F172FCDD800BF029FCB
:102C60007F1C0297029F172FC6D800BF029F7F1CB0
:102C70000297029F172FBFD800BF029F7F1C0297A9
:102C8000029F172FB8D800BF029F7F1C0297029F98
:102C9000182FE3D3B0E7106062B6EFF3108372B67B
:102CA000B94B019C1C60A12403E05D1C6400072B50
:102CB0004AD22B46106165B2002D01D4116100E0AB
:102CC000116000270297029D172D1BD800BF029D9F
:102CD0006D1C0295029D172D14D800BF029D6D1C1E
:102CE0000295029D172D0DD800BF029D6D1C029507
:102CF000029D172D06D800BF029D6D1C0295029DF6
:102D0000182DE3D310600297029D172DCDD800BF78
:102D1000029D6D1C0295029D172DC6D800BF029D15
:102D20006D1C0295029D172DBFD800BF029D6D1C22
:102D30000295029D172DB8D800BF029D6D1C02950B
:102D4000029D182DE3D3B0E7106062B6EFF3108355
:102D500072B68D4B019C1C60A62403E05F1C6400CE
:102D6000072B4AD23B46106165B2002D01D4116198
:102D700000E0116000250295029F172F1BD800BFAD
:102D8000029F7F1C0297029F172F14D800BF029F3B
:102D90007F1C0297029F172F0DD800BF029F7F1C38
:102DA0000297029F172F06D800BF029F7F1C029731
:102DB000029F182FE3D310600295029F172FCDD8E2
:102DC00000BF029F7F1C0297029F172FC6D800BF2B
:102DD000029F7F1C0297029F172FBFD800BF029F40
:102DE0007F1C0297029F172FB8D800BF029F7F1C3D
:102DF0000297029F182FE3D3B0E7106062B6EFF39B
:102E0000108372B6604B019C1C60A82403E05D1C1B
:102E10006400072B4AD22B46106165B2002D01D405
:102E2000116100E0116000270297029D172D1BD849
:102E300000BF029D6D1C0295029D172D14D800BF86
:102E4000029D6D1C0295029D172D0DD800BF029D9D
:102E50006D1C0295029D172D06D800BF029D6D1CAA
:102E60000295029D182DE3D310600297029D172D45
:102E7000CDD800BF029D6D1C0295029D172DC6D8AE
:102E800000BF029D6D1C0295029D172DBFD800BF8B
:102E9000029D6D1C0295029D172DB8D800BF029DA2
:102EA0006D1C0295029D182DE3D3B0E7106062B649
:102EB000EFF3108372B6344B019C1C603F2403E097
:102EC0005F1C6400072B4AD23B46106165B2002D9F
:102ED00001D4116100E0116000250295029F172FB7
:102EE0001BD800BF029F7F1C0297029F172F14D888
:102EF00000BF029F7F1C0297029F172F0DD800BFB3
:102F0000029F7F1C0297029F172F06D800BF029FC7
:102F10007F1C0297029F182FE3D310600295029F37
:102F2000172FCDD800BF029F7F1C0297029F172F3B
:102F3000C6D800BF029F7F1C0297029F172FBFD8E1
:102F400000BF029F7F1C0297029F172FB8D800BFB7
:102F5000029F7F1C0297029F182FE3D3B0E71060F7
:102F600062B6EFF3108372B6074B019C1C60A42479
:102F700003E05D1C6400072B4CD22B46106165B248
:102F8000002D03D4116102E0A0320A401160002735
:102F90000297029D172D1BD800BF029D6D1C029544
:102FA000029D172D14D800BF029D6D1C0295029D35
:102FB000172D0DD800BF029D6D1C0295029D172D87
:102FC00006D800BF029D6D1C0295029D182DE3D30B
:102FD00010600297029D172DCBD800BF029D6D1C7B
:102FE0000295029D172DC4D800BF029D6D1C02954D
:102FF000029D172DBDD800BF029D6D1C0295029D3C
:10300000172DB6D800BF029D6D1C0295029D182D8C
:10301000E3D3AEE7106062B6EFF3108372B6DA4B1B
:10302000019C1C60D32503E05F1C6D00072B4AD276
:103030003B4610616CB2002C01D4116100E01160BC
:1030400000240294029F172F1BD800BF029F7F1CF1
:103050000297029F172F14D800BF029F7F1C029770
:10306000029F172F0DD800BF029F7F1C0297029F5F
:10307000172F06D800BF029F7F1C0297029F182FB0
:10308000E3D310600294029F172FCDD800BF029F98
:103090007F1C0297029F172FC6D800BF029F7F1C7C
:1030A0000297029F172FBFD800BF029F7F1C029775
:1030B000029F172FB8D800BF029F7F1C0297029F64
:1030C000182FE3D3B0E7106062B6EFF3108372B647
:1030D000AD4B019D1D60234604E0BB1C3743072F09
:1030E00000D38AE01F46106111610294029B172BE6
:1030F0001BD800BF029B5B1C0293029B172B14D8AA
:1031000000BF029B5B1C0293029B172B0DD800BFD4
:10311000029B5B1C0293029B172B06D800BF029BED
:103120005B1C0293029B182BE3D3106000250295D1
:10313000029B172B1BD800BF029B5B1C0293029BB8
:10314000172B14D800BF029B5B1C0293029B172B0A
:103150000DD800BF029B5B1C0293029B172B06D865
:1031600000BF029B5B1C0293029B182BE3D31061F0
:1031700011610295029B172B1BD800BF029B5B1CA1
:103180000293029B172B14D800BF029B5B1C029377
:10319000029B172B0DD800BF029B5B1C0293029B66
:1031A000172B06D800BF029B5B1C0293029B182BB7
:1031B000E3D310600295029B172B8ED800BF029BB1
:1031C0005B1C0293029B172B87D800BF029B5B1CE2
:1031D0000293029B172B00D97FE700BF029B5B1C69
:1031E0000293029B172B00D977E700BF029B5B1C61
:1031F0000293029B182BE1D36FE7106062B6EFF3E6
:10320000108372B6604B019C1C60D52403E05D1CEA
:103210006400072B4AD22B46106165B2002D01D401
:10322000116100E0116000270297029D172D1BD845
:1032300000BF029D6D1C0295029D172D14D800BF82
:10324000029D6D1C0295029D172D0DD800BF029D99
:103250006D1C0295029D172D06D800BF029D6D1CA6
:103260000295029D182DE3D310600297029D172D41
:10327000CDD800BF029D6D1C0295029D172DC6D8AA
:1032800000BF029D6D1C0295029D172DBFD800BF87
:10329000029D6D1C0295029D172DB8D800BF029D9E
:1032A0006D1C0295029D182DE3D3B0E7106062B645
:1032B000EFF3108372B6344B019C1C603D4603E073
:1032C000671C072C354649D23C461061EB0701D0FC
:1032D000116100E0116000230293029D172D1BD89D
:1032E00000BF029D6D1C0295029D172D14D800BFD2
:1032F000029D6D1C0295029D172D0DD800BF029DE9
:103300006D1C0295029D172D06D800BF029D6D1CF5
:103310000295029D182DE3D310600293029D172D94
:10332000CED800BF029D6D1C0295029D172DC7D8F7
:1033300000BF029D6D1C0295029D172DC0D800BFD5
:10334000029D6D1C0295029D172DB9D800BF029DEC
:103350006D1C0295029D182DE3D3B1E7106062B693
:10336000EFF3108472B6084C019D2560D92403E068
:10337000731C6400072E4DD21E46106163B2002BF1
:1033800004D4116103E0C046A0320A401160002558
:103390000295029B172B1BD800BF029B5B1C02935C
:1033A000029B172B14D800BF029B5B1C0293029B4D
:1033B000172B0DD800BF029B5B1C0293029B172B9F
:1033C00006D800BF029B5B1C0293029B182BE3D321
:1033D00010600295029B172BCAD800BF029B5B1C92
:1033E0000293029B172BC3D800BF029B5B1C029366
:1033F000029B172BBCD800BF029B5B1C0293029B55
:10340000172BB5D800BF029B5B1C0293029B182BA5
:10341000E3D3ADE7106062B6EFF3108372B6E64B0C
:10342000019C1C60222403E05D1C6400072B4AD22F
:103430002B46106165B2002D01D4116100E01160CE
:1034400000260296029D172D1BD800BF029D6D1C01
:103450000295029D172D14D800BF029D6D1C029588
:10346000029D172D0DD800BF029D6D1C0295029D77
:10347000172D06D800BF029D6D1C0295029D182DC8
:10348000E3D310600296029D172DCDD800BF029D98
:103490006D1C0295029D172DC6D800BF029D6D1CA4
:1034A0000295029D172DBFD800BF029D6D1C02958D
:1034B000029D172DB8D800BF029D6D1C0295029D7C
:1034C000182DE3D3B0E7106062B6EFF3108372B645
:1034D000B94B019C1C60DA2403E05E1C6400072BDE
:1034E0004AD23346106165B2002D01D4116100E06B
:1034F000116000250295029E172E1BD800BF029E68
:10350000761C0296029E172E14D800BF029E761CCF
:103510000296029E172E0DD800BF029E761C0296C0
:10352000029E172E06D800BF029E761C0296029EAF
:10353000182EE3D310600295029E172ECDD800BF3F
:10354000029E761C0296029E172EC6D800BF029ECF
:10355000761C0296029E172EBFD800BF029E761CD4
:103560000296029E172EB8D800BF029E761C0296C5
:10357000029E182EE3D3B0E7106062B6EFF310831B
:1035800072B68D4B019C1C60122403E05D1C64002C
:10359000072B4AD22B46106165B2002D01D4116170
:1035A00000E0116000260296029D172D1BD800BF77
:1035B000029D6D1C0295029D172D14D800BF029D1F
:1035C0006D1C0295029D172D0DD800BF029D6D1C2C
:1035D0000295029D172D06D800BF029D6D1C029515
:1035E000029D182DE3D310600296029D172DCDD8B1
:1035F00000BF029D6D1C0295029D172DC6D800BF0D
:10360000029D6D1C0295029D172DBFD800BF029D23
:103610006D1C0295029D172DB8D800BF029D6D1C30
:103620000295029D182DE3D3B0E7106062B6EFF368
:10363000108372B6DE4B019C1C60DB2403E05E1C31
:103640006400072B4AD23346106165B2002D01D4C5
:10365000116100E0116000250295029E172E1BD813
:1036600000BF029E761C0296029E172E14D800BF41
:10367000029E761C0296029E172E0DD800BF029E57
:10368000761C0296029E172E06D800BF029E761C5C
:103690000296029E182EE3D310600295029E172E0A
:1036A000CDD800BF029E761C0296029E172EC6D869
:1036B00000BF029E761C0296029E172EBFD800BF46
:1036C000029E761C0296029E172EB8D800BF029E5C
:1036D000761C0296029E182EE3D3B0E7106062B605
:1036E000EFF3108372B6B24B019C1C60202403E000
:1036F0005D1C6400072B4AD22B46106165B2002D79
:1037000001D4116100E0116000260296029D172D80
:103710001BD800BF029D6D1C0295029D172D14D869
:1037200000BF029D6D1C0295029D172D0DD800BF94
:10373000029D6D1C0295029D172D06D800BF029DAB
:103740006D1C0295029D182DE3D310600296029D18
:10375000172DCDD800BF029D6D1C0295029D172D1F
:10376000C6D800BF029D6D1C0295029D172DBFD8C3
:1037700000BF029D6D1C0295029D172DB8D800BF99
:10378000029D6D1C0295029D182DE3D3B0E71060D9
:1037900062B6EFF3108372B6854B019C1C608D24DA
:1037A00003E05E1C6400072B4CD23346106165B207
:1037B000002D03D4116102E0A0320A4011600025FF
:1037C0000295029E172E1BD800BF029E761C029601
:1037D000029E172E14D800BF029E761C0296029EEF
:1037E000172E0DD800BF029E761C0296029E172E41
:1037F00006D800BF029E761C0296029E182EE3D3C6
:1038000010600295029E172ECBD800BF029E761C38
:103810000296029E172EC4D800BF029E761C029606
:10382000029E172EBDD800BF029E761C0296029EF5
:10383000172EB6D800BF029E761C0296029E182E46
:10384000E3D3AEE7106062B6EFF3108372B6584B65
:10385000019C1C60142403E05D1C6400072B4AD209
:103860002B46106165B2002D01D4116100E011609A
:1038700000260296029D172D1BD800BF029D6D1CCD
:103880000295029D172D14D800BF029D6D1C029554
:10389000029D172D0DD800BF029D6D1C0295029D43
:1038A000172D06D800BF029D6D1C0295029D182D94
:1038B000E3D310600296029D172DCDD800BF029D64
:1038C0006D1C0295029D172DC6D800BF029D6D1C70
:1038D0000295029D172DBFD800BF029D6D1C029559
:1038E000029D172DB8D800BF029D6D1C0295029D48
:1038F000182DE3D3B0E7106062B6EFF3108372B611
:103900002B4B019C1C60AF2303E0661C5B00072C63
:103910004AD2344610615DB2002D01D4116100E03D
:10392000116000250295029E172E1BD800BF029E33
:10393000761C0296029E172E14D800BF029E761C9B
:103940000296029E172E0DD800BF029E761C02968C
:10395000029E172E06D800BF029E761C0296029E7B
:10396000182EE3D310600295029D172DCDD800BF0D
:10397000029D6D1C0295029D172DC6D800BF029DA9
:103980006D1C0295029D172DBFD800BF029D6D1CB6
:103990000295029D172DB8D800BF029D6D1C02959F
:1039A000029D182DE3D3B0E7106062B603B0F0BDFE
:1039B000A0320A40F0B585B01346303BDBB2092B8C
:1039C00003D805225A43A44B08E01346413BDBB21F
:1039D000192B00D900E105225A439E4B9A180292F6
:1039E0000CE1196062B6401C052858D0029C255C89
:1039F000EFF3108472B6039C994E3460019E03E08D
:103A00007E1C6D00072FECD2374619616CB2002C7A
:103A100001D41A6100E01A6000240494049E172E59
:103A20001BD800BF049E761C0496049E172E14D843
:103A300000BF049E761C0496049E172E0DD800BF6E
:103A4000049E761C0496049E172E06D800BF049E82
:103A5000761C0496049E182EE3D319600494049EE9
:103A6000172ECDD800BF049E761C0496049E172EF8
:103A7000C6D800BF049E761C0496049E172EBFD89D
:103A800000BF049E761C0496049E172EB8D800BF73
:103A9000049E761C0496049E182EE3D3B0E7EFF341
:103AA000108072B603986E4D28602046009F04E097
:103AB000A81C3D43072D00D38AE0054619611A6111
:103AC0000494049817281BD800BF0498401C049045
:103AD0000498172814D800BF0498401C0490049838
:103AE00017280DD800BF0498401C0490049817288C
:103AF00006D800BF0498401C049004981828E3D30B
:103B0000196000200490049E172E1BD800BF049E4D
:103B1000761C0496049E172E14D800BF049E761CB3
:103B20000496049E172E0DD800BF049E761C0496A2
:103B3000049E172E06D800BF049E761C0496049E91
:103B4000182EE3D319611A610490049E172E1BD816
:103B500000BF049E761C0496049E172E14D800BF46
:103B6000049E761C0496049E172E0DD800BF049E5A
:103B7000761C0496049E172E06D800BF049E761C61
:103B80000496049E182EE3D3196004900498172815
:103B90008ED800BF0498401C04900498172887D83A
:103BA00000BF0498401C04900498172800D97FE7B0
:103BB00000BF0498401C04900498172800D977E7A8
:103BC00000BF0498401C049004981828E1D36FE7C4
:103BD000196062B605B0F0BD2B3A0F2A1CD812A3AB
:103BE0000293C0467A44127952009744131517196C
:103BF0001B151515151515151515150700F090FF52
:103C00000120C103039101070090C2070020134B5C
:103C10000190EBE606A2E2E60D4AE0E606A2DEE649
:103C200009A2DCE606A2DAE6003636000000000053
:103C300008083E08080000000808080808000000FE
:103C40002010080402000000006060000000000076
:103C5000085600003F5600000D56000090120A4022
:103C600090320A40F0B591B00493002A029103907B
:103C700001D42B2000E02D200EAD2870D01742403B
:103C8000171A0A263846314601F01AFA4643B91B7C
:103C900030242143697001230A2F03D21E46029D5E
:103CA000049963E00D930A21FCF776FA21430EA8EC
:103CB0008170642F54D36421384601F001FA0A213F
:103CC000FCF76AFA21430EA8C170F8087D2849D391
:103CD0007D20C100384601F0F3F90A21FCF75CFAB7
:103CE00021430EA801710023B748874200D225E185
:103CF0000D93B549384601F0E3F90A21FCF74CFA77
:103D000021430EA84171B148874200D255E1AF4925
:103D1000384601F0D5F90A21FCF73EFA21430EA8F6
:103D20008171AB48874200D249E1A949384601F088
:103D3000C7F90A21FCF730FA21430EA8C171A54842
:103D40008742029D00D23CE1A249384601F0B8F911
:103D50000A21FCF721FA21430EA80172082603E08C
:103D6000022600E00326029D04990D9B0A2F039F63
:103D700027D30EA8815D42784170825570080128D2
:103D800000D80120002B04991BD10EA97218521ED5
:103D900013788C788B7004991470022811D00EA9B6
:103DA0007218921E1378CC78CB7004991470032883
:103DB00007D00EA83118C91E0A780F9B02710B702C
:103DC00004998E4212D28B1B01241A462240701E87
:103DD0000B90F043C84201920AD100243046019969
:103DE000002900D091E0029D039FCAE03146C9E05E
:103DF0000694A3430EA8401C05900024304621469B
:103E000007930CE00EA9089A4A700A99891C0C9C29
:103E1000A41C0D9EB61C801C079B9942DFD00A9102
:103E20000321054609910D403746014617D00EA9DA
:103E30008F19895D7970771E012D01D1411E0EE029
:103E40000EA9CF5D8F55B71E022D01D1811E06E050
:103E50000EA9CD5D7118491E0D70F71EC11E0D967D
:103E60000B9A0C941519EDB2032D10D3059AD519A0
:103E70006F1E3A782A70AA1E1478EE1E33781370DB
:103E80003C702D1F2A783270091F0A06F0D10EA946
:103E900020224A70411C099E0E400D9B5D1C002E85
:103EA000089210D00EA95A18495D9170012E1F4634
:103EB00001460C9C0FD00EA9CA5C4A555F1E022E0B
:103EC00004D1411E07E02F460C9C04E00EA9CA5DF8
:103ED000CA549F1E811E2246069B1A430B9B9A18AA
:103EE000D2B2032A8ED3059AD3195A1E14781C70A5
:103EF0009C1E2578DE1E3778277015701B1F1A78D8
:103F00003270091F0A06F0D17CE7032303400B99A6
:103F10000919002B08D00EAA9419925D6270721EC6
:103F2000012B03D1401E12E0324610E00EACA25C21
:103F3000A255B21E022B03D1801E08E00426AEE675
:103F40000EAB9A5CF3185B1E1A70F21EC01E039F24
:103F5000C9B2032911D30EA95118491C4A1E13785E
:103F60000B708B1E1C78CD1E2E781E701470091FCE
:103F70000A782A70001F0206F0D10EA82021417095
:103F8000029D04990EA8091800224A70142F12D815
:103F9000007800280FD00EA94C1CFEB2C2B23046E9
:103FA0002946FFF707FD132E05D8611C7F1C2078DA
:103FB00000280C46F1D111B0F0BD0526D3E6062647
:103FC000D1E60726D0E6C04610270000A0860100F3
:103FD00040420F0080969800F0B581B005461078F9
:103FE000002810D0142D0ED80C46571CEEB2C2B2C9
:103FF00030462146FFF7DEFC3878002803D07F1CCE
:104000006D1C142EF2D301B0F0BD0000F0B593B0DA
:104010000593154603910746002A01D4002404E0C5
:104020000FA82D2101706D4201240A262846314631
:1040300001F046F8019002963146FCF7ADF80FA862
:1040400000193026314301700120642D0D9406952E
:1040500004960E9002D22246054644E0642128468A
:1040600001F02EF80A21FCF797F80D9A0FA8101806
:1040700031434170E8087D2830D37D20C1002846B7
:1040800001F01EF80A21FCF787F80D9A0FA8801896
:1040900031438170B048854222D3AF49284601F0B0
:1040A0000FF80A21FCF778F8049B0D9A0FA8101856
:1040B0001943C17000200E90A848854212D3A74929
:1040C00028461C4600F0FCFF0A21FCF765F80D9A13
:1040D0000FA8801821430171052504E0022502E0A4
:1040E000032500E004250698642818D30FA90D982D
:1040F0000A1813780D9840194118491E0C7814704D
:104100000D9A0B700E99002909D10FA90D9A52181A
:1041100053784018801E017851700D9A03700599EC
:104120008D4200D3ECE04C1B01262046304000902D
:104130006B1EE843C84208D100200E902846009923
:10414000002900D098E0059DDAE00996B4430FA855
:104150001018001F0890002128460E910E46079760
:104160000C930A940EE00FA90D9A89180B700B9E00
:10417000B61C0E99891C0E91AD1C801C0A9CA6428F
:104180000C9BDCD00B960326044634402A4601469D
:104190001FD00D9B59190FAA57187F1E3F785754EF
:1041A0006A1E012C01D1411E12E099180FAA57185E
:1041B0007F1E3F785754AA1E022C01D1811E07E0B2
:1041C00099180FAA5418641E24785454EA1EC11E6C
:1041D0000C9B0E9C1C19E4B2032C0DD3089CA21856
:1041E000D4781471947857789770D4701478547088
:1041F000121F091F0C06F3D10FA90D9A891820234D
:104200000B70411C0E406C1C002E13D0111952195A
:104210000FACA75C6754012E2C460146079F14D0B3
:104220000FA98C18641E24788C546C1E022E03D1A6
:10423000411E0AE0079F08E00D9909190FAA5418BA
:10424000641E24785454AC1E811E0E9A099E32437B
:104250000C9EB218D2B2032A85D3089A1419E278B8
:104260002271A2786678A670E27022786270241FAC
:10427000091F0A06F3D176E7032404400E99591862
:10428000002C0CD00E91114652190FAB9E18761EC1
:1042900036789E546A1E012C04D1401E15E02A4631
:1042A000059D14E08A180FAB9E18761E36789E5432
:1042B000AA1E022C01D1801E07E08A180FAB9C18A1
:1042C000641E24789C54EA1EC01E059D0E99C9B236
:1042D000032910D30D9951180FAA8918091FCA78FC
:1042E0000A718A784B788B70CA700A784A70091FF5
:1042F000001F0206F3D10FA80D9A8018202101702B
:10430000A918CAB20FA82E238354029B019A5343C3
:10431000069AD21A049B1A434B1CDBB2C254891C66
:10432000C9B200224254142F039D12D800780028ED
:104330000FD00FA94C1CFEB2C2B230462946FFF77F
:1043400039FB132E05D8611C7F1C207800280C46F1
:10435000F1D113B0F0BDC04610270000A0860100C7
:1043600080B507480749FCF7FFFF074800210160B7
:10437000064807494161016801220A43026080BD85
:1043800000200040C4560000803100400031004051
:1043900071020000B0B52D4988228A632C4804239D
:1043A0000360CA63082202602A4A8623136001243C
:1043B00023040360284B5D1C0D604D6064060D688E
:1043C00025430D604D6825434D6082240C654B6587
:1043D0008C65CB65214BD361214B0B6681244C66E8
:1043E000D46094605461946193659366D363D3649D
:1043F0008C67CC678C604C619462546019491A4A8E
:104400000A600A6305218904184A13680B43136084
:1044100003214906164A136A0B43136213680B43C0
:10442000136001463039134A0A600260124801687D
:10443000124A0A4302601120000511490A6A024328
:104440000A620A6802430A60B0BDC0460480424066
:10445000D0320A408480424082000400810005007E
:1044600081000600A0120A4000700390A0130A40C9
:1044700028100A4000C20200A0330A4000010100D7
:1044800028300A4010B51A4C1A492046FDF7ACF9FD
:1044900019492046FDF784F90320C1031748026833
:1044A0008A4302600169A64A0A40153202614169E5
:1044B0002D220A4312218A434261426801210A40A7
:1044C00043688B439A1842604A04036813430360AD
:1044D000C2682023134350229343C360C26802235F
:1044E000134305229343C36002680A43026010BD70
:1044F00000001040CC560000CE56000000111040C5
:1045000080B511481149FCF77FFF03204102104894
:1045100002680A43026001210A0203681343036030
:104520000022426109224262826B07239A4382631E
:104530001A02836B93438363826A04231343836267
:10454000826A0A43826280BD00000F40D856000094
:1045500000120F4070B582B0194C1A492046FDF781
:1045600011F919492046FCF7D9FF0025009520468E
:1045700029462A462B46FDF7F1F8204629462A46C9
:10458000FDF7DEF8204629462A46FDF7F3F8012616
:104590000096204629462A462B46FDF7DFF820469E
:1045A00029463246FDF7CCF8204629463246FDF72B
:1045B000E1F8064886600321016002B070BDC04684
:1045C00000208640DA560000E056000000318640A8
:1045D000B0B582B0B84D14492846FDF7D3F8134959
:1045E0002846FCF7D5FF01240094002128460A46FE
:1045F0000B46FDF7B3F8A10428462246FDF7A0F8C4
:104600007D20810028462246FDF7B4F8084801467F
:104610001C390C600146243902220A6001682143DA
:10462000016002B0B0BDC046E8560000EC56000084
:1046300024B1864070B51848002404600F200002A1
:10464000164D29688143012670020818286003204E
:10465000C043291F0A6802400A606868B043686066
:1046600030026968814369600D48FCF7E1FE286803
:104670001021014320208143296030032968014330
:1046800029602046FCF736FFFF20000205490A6832
:1046900082430A6070BDC04608030B4004010B4012
:1046A000F456000000E400E07047000010B5084C2C
:1046B00008492046FDF766F807492046FCF7C8FF81
:1046C000064801680122114301600548026010BDDF
:1046D000004008401C5700002057000028500840A8
:1046E0000851084010B5124C12492046FDF77CF8DD
:1046F00011492046FDF754F80320C1030F48026812
:104700008A43026001690E4A0A401532026141691A
:104710002D220A4312218A4342614168012211403D
:10472000436893435918416001681143016010BD0B
:1047300000801040345700003657000000911040B0
:104740000000FFFF80B500F021F8FFF723FEFFF720
:1047500071FFFFF7FFFEFFF73BFFFFF7A7FFFFF734
:10476000CFFEFFF7BFFFFFF78DFEFFF7F9FDFFF765
:104770009BFF7420034900220A54B82002490A54BE
:1047800080BDC0461C01202060002020F0B581B013
:104790001248134A42601348426013484260134C67
:1047A0006260134D6A60134E7260134F7A60134952
:1047B0004A6013484260134A084B1A60094B1A605A
:1047C000094B1A6022602A6032603A600A60026017
:1047D0001020FCF7E9FD01B0F0BDC04600080A401A
:1047E000030000B100280A400028864000A8864047
:1047F0000048084000080F400088104000081040A2
:10480000002800400100002670B5724E00240125EA
:10481000304621462A46FCF793FF304621462A4679
:10482000FCF7A8FF6C480168A94301608248047046
:104830006A48046028032149086070BD0120000314
:10484000014908607047C04690120A40F0B581B037
:104850007A480025056061480560774F3D70012466
:104860006004144908605B4E304629462246FCF736
:1048700067FF304629462246FCF77CFF5648016810
:10488000A14301603D705548056020030B49086055
:104890000B480168C0220A433F218A43026009484D
:1048A00001682143016020059A4908609A4908601F
:1048B00001B0F0BDA0320A4000A08640A0120A401C
:1048C00014E400E028B08640F0B581B00746002827
:1048D0001EDD01213C464248844200D304460F2C91
:1048E00017D95548007881422AD13C4D2868844226
:1048F0000CD03E48214600F0E3FB401E364948609C
:10490000410834480122FCF735FF2C6001B0F0BDAE
:1049100031D4304D00240126284621463246FCF78A
:104920000FFF284621463246FCF724FF2A4801683B
:10493000B1430160404804702848046001B0F0BDF4
:10494000009124480026012531462A46FCF7F8FE4E
:10495000204831462A46FCF70DFF1F490868A84346
:104960000860354806701D48066068041D49012F1F
:1049700004DB086003E07C42FF21ACE708611A49D0
:104980000868A8430860134831462A46FCF7D8FE59
:104990001648214600F094FB401E0F4F78604108F6
:1049A0000C482A46FCF7E6FE381F0660A9040948B1
:1049B0002A46FCF7C5FE0C490868284308600098A1
:1049C0001D4908700548046038682843386001B004
:1049D000F0BDC04600A0864004B88640F401202007
:1049E0008813000090320A4024B1864040420F00F4
:1049F00080B504480068C0B2012801D1FCF7D8F99D
:104A000080BDC046205008400A480068C0B2012856
:104A10000DD1002008490A56002A05DD012007496A
:104A20000A681018086070470956002900D47047BA
:104A3000C043F4E720B08640D60120203002202079
:104A400080B505480068C0B20B2804D1034800684F
:104A5000C0B2FCF701F880BD2010104024111040B6
:104A6000FFF770FE2A480168012421430160FDF729
:104A700027F9FCF7DFFEFDF76DFBFCF70DF9FFF7FB
:104A8000E5FEFCF717F8FBF7EBFEFBF77DFFFCF705
:104A90003DFFFBF73BFEFCF735F8FDF795FCFDF716
:104AA000D1FB00F063F91B4902220A601A48026038
:104AB0000A60026022040A600260A102174A1368B9
:104AC0000B43136061030160FDF712F900252E46C8
:104AD0002F4600E030BFFCF7DBF80A244443601B9C
:104AE0000A2803D32046FBF763FF25462046FCF740
:104AF00013F8A01B052802D3FDF7FAF82646E01BA1
:104B000080084B28E6D300F031F92746E2E7C0469B
:104B10000438864080E200E000E100E02810104008
:104B2000F0B582B0EFF3108272B60122D3038D4C40
:104B300000932360072900D307214F23DF430F434E
:104B40001107D2070024884B03E06C1C7F00072D5F
:104B50004AD2254619617CB2002C01D41A6100E0CA
:104B60001A6000260196019C172C1BD800BF019CDF
:104B7000641C0194019C172C14D800BF019C641C78
:104B80000194019C172C0DD800BF019C641C01945A
:104B9000019C172C06D800BF019C641C0194019C49
:104BA000182CE3D319600196019C172CCDD800BFB7
:104BB000019C641C0194019C172CC6D800BF019C69
:104BC000641C0194019C172CBFD800BF019C641C7D
:104BD0000194019C172CB8D800BF019C641C01945F
:104BE000019C182CE3D3B0E7196062B6EFF3108490
:104BF00072B6009C5B4D2C60142800D3142006274D
:104C000047430E253D4003E0661C6D00072C4AD249
:104C10003446196168B2002801D41A6100E01A60B4
:104C200000200190019E172E1BD800BF019E761C0C
:104C30000196019E172E14D800BF019E761C019686
:104C4000019E172E0DD800BF019E761C0196019E75
:104C5000172E06D800BF019E761C0196019E182EC5
:104C6000E3D319600190019E172ECDD800BF019E9D
:104C7000761C0196019E172EC6D800BF019E761C99
:104C80000196019E172EBFD800BF019E761C01968B
:104C9000019E172EB8D800BF019E761C0196019E7A
:104CA000182EE3D3B0E7196062B6EFF3108472B642
:104CB000009C2C4D2C60FCB22409103403E0681CCD
:104CC0006400072D4AD20546196160B2002801D45C
:104CD0001A6100E01A6000200190019E172E1BD877
:104CE00000BF019E761C0196019E172E14D800BFAE
:104CF000019E761C0196019E172E0DD800BF019EC5
:104D0000761C0196019E172E06D800BF019E761CC8
:104D10000196019E182EE3D319600190019817287F
:104D2000CDD800BF0198401C019001981728C6D823
:104D300000BF0198401C019001981728BFD800BF00
:104D40000198401C019001981728B8D800BF01981D
:104D5000401C019001981828E3D3B0E7196062B6AF
:104D600002B0F0BDA0320A4090120A40F0B587B000
:104D7000FBF7C0FE0446FBF7C1FE0646FBF7B6FE96
:104D800005460020B1A20146FFF726F9042C07D8FA
:104D900060B28000B1A10A5800200221FFF71CF97F
:104DA000022E0095049604D870B28000B2A10A5871
:104DB00000E0AFA2002603213046FFF70DF90424DE
:104DC000B0A230462146FFF707F9FBF749FFAE4F87
:104DD000394600F039FBAD4900F036FBAC49FBF732
:104DE000DBFA05460596314600F065FA3F210A06D2
:104DF000BF210E0600280692114600D131462846F2
:104E000000F088FAFBF778FB024602252846214687
:104E10002B46FFF7FBF808209E4A03902146FFF738
:104E2000DBF8FBF721FF394600F00EFB974900F055
:104E30000BFB9749FBF7B0FA0746059900F03BFAE0
:104E40000028069900D13146384600F063FAFBF796
:104E500053FB02460A20029021462B46FFF7D6F864
:104E600005248DA201953546059E30462146FFF763
:104E7000B3F8FBF705FF844900F0E6FA834900F038
:104E8000E3FA8349FBF788FA074631462E4600F0DD
:104E900012FA0028069900D13146384600F03AFA55
:104EA000FBF72AFB0246019D284621462B46FFF7C9
:104EB000ADF803982146774AFFF78EF8FBF7E4FE3A
:104EC000714900F0C1FA714900F0BEFA7049FBF770
:104ED00063FA0746059900F0EEF90028069900D11B
:104EE0003146384600F016FAFBF706FB02460298F8
:104EF00021462B46FFF78AF80498401EC0B20128CD
:104F000013D800200624634A2146FFF765F8642180
:104F1000009800F0D5F80246022003232146FFF74F
:104F200075F8082062A2214602E0002006215BA25B
:104F3000FFF752F8FDF734F80446002007215EA27F
:104F4000FFF74AF8FCF7CCFE00283FD067B23024C8
:104F50003126002F224600DA324603200725294653
:104F6000FEF728FD7806224600D532460420294661
:104F7000FEF720FDB806224600D532460520294618
:104F8000FEF718FDF806224600D5324606202946CF
:104F9000FEF710FD3807224600D53246284629463E
:104FA000FEF708FD7807224600D53246082029463C
:104FB000FEF700FDB807224600D5324609202946F3
:104FC000FEF7F8FCF80726D0344624E00320072536
:104FD0002D2429462246FEF7EDFC042029462246D0
:104FE000FEF7E8FC052029462246FEF7E3FC0620F2
:104FF00029462246FEF7DEFC284629462246FEF7D1
:10500000D9FC082029462246FEF7D4FC092029466F
:105010002246FEF7CFFC0A20072529462246FEF746
:10502000C9FC0B2020222946FEF7C4FC0C2023A239
:105030002946FEF7D1FFFBF71BFE02460E20022396
:105040002946FEF70FFE07B0F0BDC046482042419A
:105050004C414E434520434152000000625700003E
:105060007C57000055570000895700006F5700001B
:105070003F3F3F20202000004757000040570000DE
:105080004E5700004C3A000042E0A541000020418C
:105090000000704296570000523A000031434C4BDA
:1050A0003A52554E2032434C4B3A535700000000C1
:1050B000532020202020200049523A00453A000089
:1050C00043088B421AD3002203098B4279D3030A87
:1050D0008B425ED3030B8B4242D3030C8B4227D30C
:1050E0000902FF2212BA030C8B4202D312120902E8
:1050F00003D0030B8B4233D31AE0D3E0411A804133
:10510000401C704703460B4371D443088B42F5D3D0
:10511000002203098B4254D3030A8B4239D3030B79
:105120008B421DD3030C8B4202D394466EE0090AD6
:10513000C30B8B4201D3CB03C01A5241830B8B426A
:1051400001D38B03C01A5241430B8B4201D34B0353
:10515000C01A5241030B8B4201D30B03C01A5241B8
:10516000C30A8B4201D3CB02C01A5241830A8B423D
:1051700001D38B02C01A5241430A8B4201D34B0226
:10518000C01A5241030A8B4201D30B02C01A52418A
:10519000CDD2C3098B4201D3CB01C01A524183093E
:1051A0008B4201D38B01C01A524143098B4201D378
:1051B0004B01C01A524103098B4201D30B01C01AA3
:1051C0005241C3088B4201D3CB00C01A524183081D
:1051D0008B4201D38B00C01A524143088B4201D34A
:1051E0004B00C01A5241411A524110007047CA0F79
:1051F00000D04942031000D34042534000229C4655
:1052000003098B422DD3030A8B4212D38901FC225E
:1052100012BA030A8B420CD3890192118B4208D334
:10522000890192118B4204D3890137D0921100E099
:105230008909C3098B4201D3CB01C01A52418309AA
:105240008B4201D38B01C01A524143098B4201D3D7
:105250004B01C01A524103098B4201D30B01C01A02
:105260005241C3088B4201D3CB00C01A524183087C
:105270008B4201D38B00C01A5241D9D243088B42D2
:1052800001D34B00C01A5241411A00D2014652418B
:10529000104663465B1000D34042704763465B1084
:1052A00000D3404201B50021004201D0C943084665
:1052B000C046C04602BD10B500F072F8EFF30080A2
:1052C000800001D5012010BD002010BD10B500F0F8
:1052D00067F8EFF300804000800F012800D0002025
:1052E00010BD10B500F086F8EFF300804000800F8D
:1052F000012801D0012010BD002010BD10B500F024
:1053000079F8EFF30080800001D4012010BD002067
:1053100010BD000070B50125ED0704004C4020D4FD
:10532000441A01D2001B0919C60D4B00F2B2FF2A24
:1053300029D01B0E2CD000020C0228432C43D31A78
:10534000DC40051910D2280A02D3401C6D0611D08A
:10535000761EF6058019FF2A00DA70BDC00DC00563
:1053600070BD694000F0CEF801200543C541521CD4
:10537000761CE8E764089C40C90161408900E7D1D8
:105380000124A043E4E71B0E440200D0034870BD93
:10539000002AFCD1C00FC00770BD00BF0000C07F55
:1053A0000123DB0502000A430DD4DA4203D49A42FA
:1053B00007D488427047D84214D4D94212D48842C4
:1053C000704780427047DA4203D59A42F9D581424C
:1053D00070475B004200DA4204D24A00DA4201D24E
:1053E0008142704710B5024AFBF7DCF810BD00BFE0
:1053F000090013040123DB0502000A430DD4DA423D
:1054000003D49A4207D488427047D84214D4D94270
:1054100012D48842704780427047DA4203D59A42DC
:10542000F9D5814270475B004200DA4204D24A005B
:10543000DA4201D28142704710B5024AFBF7B2F856
:1054400010BD00BF0900160470B5420064414B0056
:105450005C41120E39D01B0E38D0FF2A3CD0FF2BF6
:105460003AD0D2187F3A40024902400A490A451808
:10547000ED0106004E43000A090A48430104731A6D
:105480004019190C4318990F04D05B0801214907F2
:105490005B1A521CD80904D3401CF50301D19D06A8
:1054A00007D0FF2A08D2D50506D0E40720434019CB
:1054B00070BD0125A843F4E7002A01DCE00770BDB8
:1054C0002402FF202043C00570BD1B0EFF2A03D01D
:1054D000FF2B01D0E00770BDFF2636064500B54220
:1054E00006D84D00B54203D8D218FF2A00D0E7E70E
:1054F000004870BD0000C07F70B50125ED070400B5
:105500004C4022D4441A02D26C40001B0919C60D2B
:105510004B00F2B2FF2A4BD01B0E50D000020C02FF
:10552000A8432C43D31ADC40051B05D5AD0019D385
:105530006D08761E521E37D0F605280A01D2801952
:1055400070BD70416D0603D070BD6940FFF7E8FE85
:105550009C4009026140490001D0401E70BD0124F9
:10556000A04370BD6D081DD001202B0C01D12D046E
:1055700010302B0E01D12D0208302B0F01D12D013F
:10558000001DAB0F01D1AD00801CEB0F01D16D00F0
:10559000401C361A121A6D00680AF5054019012AD6
:1055A00002DB70BD002070BDC036300AC00770BD80
:1055B0001B0E440201D1FF2B00D1024870BD002A0E
:1055C000F0D070BD0000C07F81828384858687888B
:1055D000898B8C8D8E8F919293959697999A9C9D9D
:1055E0009FA0A2A3A5A7A8AAACAEB0B2B3B5B7B905
:1055F000BCBEC0C2C5C7C9CCCED1D4D7D9DCDFE2CE
:10560000E6E9ECF0F3F7FAFE00000000003E514935
:10561000453E00427F400042615149462141454B91
:10562000311814127F1027454545393C4A49493005
:1056300001710905033649494936064949291E7E43
:105640001111117E7F494949363E414141227F4136
:1056500041221C7F494949417F090909013E4149CD
:10566000497A7F0808087F00417F41002040413F80
:10567000017F081422417F404040407F020C027F9E
:105680007F0408107F3E4141413E7F090909063EE3
:105690004151215E7F091929464649494931010195
:1056A0007F01013F4040403F1F2040201F3F4038C6
:1056B000403F6314081463070870080761514945A7
:1056C0004300000000060000000000030800000086
:1056D0001800000000300000080008000000000072
:1056E000401F00002000010008004F00E8030000F8
:1056F0002000000001000000000000000000000089
:105700004000000000000000000000000200000057
:1057100004000000010000002C00C44108001F002C
:1057200002000000D3300000010000000000000073
:105730000000000008000000180000000030000019
:1057400052554E2020200049444C45202000444F13
:105750004E4520200051343A41422B42414C4C20CE
:10576000200051323A4C4150203230532020005119
:10577000363A4C41502B504F5320200051333A427F
:10578000414C4C202B2D35200051353A4C41502BAB
:1057900042414C4C2000543A000000000000000040
:1057A000B057000000002020800600002801000003
:04000005000000C136
:00000001FF
