:020000040000FA
:10000000480720206D01000071010000730100000D
:1000100000000000000000000000000000000000E0
:10002000000000000000000000000000750100005A
:1000300000000000000000007701000079010000CE
:100040007B01000085280000456200007B01000064
:100050007B0100007B0100007B0100007B010000B0
:10006000000000007B0100007B0100000000000098
:1000700000000000D16200007B0100007B01000055
:10008000996100007B0100007B0100007B01000002
:10009000B16100007B0100000000000000000000D2
:1000A0007B0100007B010000000000000000000058
:1000B0007B010000000000007B0100007B010000CC
:1000C00000F002F800F042F812A030C808382418F6
:1000D0002D18AC4201D100F039F80FCCA246AB4646
:1000E0000CA730CF2D1B083F3F197C427F1E544484
:1000F0002D090426F441641EAC4201D300F026F819
:100100000126334200D0FB1A3343984754465D46DC
:10011000DFE70000A4730000B473000000000000DB
:100120007047000000000000002300240025002686
:10013000103A01D378C1FBD8520700D330C100D5A3
:100140000B6070471FB51FBD10B510BD00F05CFA05
:100150001146FFF7F7FF06F00FF900F074FA03B449
:10016000FFF7F2FF03BC00F0C9FA000006480047A1
:10017000FEE7FEE7FEE7FEE7FEE7FEE70348044989
:10018000024A044B70470000C100000048032020D1
:100190004807202048032020002203098B4273D304
:1001A000030A8B4258D3030B8B423CD3030C8B4284
:1001B00021D312E003460B437FD4002243088B4235
:1001C00074D303098B425FD3030A8B4244D3030BDE
:1001D0008B4228D3030C8B420DD30902FF2212BAA3
:1001E000030C8B4202D31212090265D0030B8B421F
:1001F00019D300E0090AC30B8B4201D3CB03C01A09
:100200005241830B8B4201D38B03C01A5241430BE3
:100210008B4201D34B03C01A5241030B8B4201D3D3
:100220000B03C01A5241C30A8B4201D3CB02C01A3E
:100230005241830A8B4201D38B02C01A5241430AB6
:100240008B4201D34B02C01A5241030A8B4201D3A5
:100250000B02C01A5241CDD2C3098B4201D3CB014C
:10026000C01A524183098B4201D38B01C01A5241FB
:1002700043098B4201D34B01C01A524103098B42FF
:1002800001D30B01C01A5241C3088B4201D3CB00EA
:10029000C01A524183088B4201D38B00C01A5241CD
:1002A00043088B4201D34B00C01A5241411A00D27D
:1002B00001465241104670475DE0CA0F00D04942E6
:1002C000031000D3404253409C46002203098B4256
:1002D0002DD3030A8B4212D38901FC2212BA030ADE
:1002E0008B420CD3890192118B4208D38901921160
:1002F0008B4204D389013AD0921100E08909C309E5
:100300008B4201D3CB01C01A524183098B4201D3E6
:100310008B01C01A524143098B4201D34B01C01AD1
:10032000524103098B4201D30B01C01A5241C30849
:100330008B4201D3CB00C01A524183088B4201D3B8
:100340008B00C01A5241D9D243088B4201D34B00D3
:10035000C01A5241411A00D201465241104663462A
:100360005B1001D34042002B00D5494270476346E1
:100370005B1000D3404201B50449002802DC491C4F
:10038000084000E00846C046C04602BDFFFFFF7FB0
:100390007047704770470000F0B5FF252D04C6096F
:1003A000C209FF2704462E400137CB093E4348408F
:1003B0002A402B400746002A6BD0002B69D0AA4266
:1003C00067D0AB4265D0002800DA32460125ED0542
:1003D00029432C4309022002090AD21A4B0C7F241C
:1003E000E31A434C000A7C44E35C7D242404121984
:1003F00014145B00A218884201D3521C00E0400094
:1004000049420C465C4324115C43DB016415E3184C
:10041000040A5C43C502200D0C4644436419250AB6
:100420005D432303EC0C0D46654300030019EB18F4
:100430004C42A34201D35B18401CD4052018002B6A
:1004400007D05B00C91804D3401C002901D1400823
:1004500040003F2189048A4209D3002A08DC1106A2
:10046000090F04D0032149074018C00FC007F0BD91
:1004700001224100120689187F2252069142F6D2CB
:1004800005214907C84201D59010F0BDFF20C005E5
:10049000F0BD002F00DA32461648AA4207D2AB421E
:1004A00005D21902090E17D0F80FC007F0BDFF25BD
:1004B00063002D06AB42F9D84900A942F6D8AB42F9
:1004C00001D1A942F2D0A94201D1002101E061008D
:1004D0004908D0050843F0BD1102090EFBD0FF20EA
:1004E0000243D005F0BD0A460146104654E700001D
:1004F000E26D00000000C07F10B501469E2400029E
:10050000CA15A307002A02D01843002A04DBA21A46
:10051000002A0CDDD04010BD1206120E01D14000A1
:100520004008A21A03D4D04040420028F3DDFF2245
:1005300048001206904201D9002010BDC817C043E0
:10054000584010BD1F22030C02D10F2200041CD002
:10055000030E01D10002083A030F01D10001121F5E
:10056000830F01D18000921E002801DB4000521E43
:10057000D2055118021251181922904004D3491C77
:10058000002801D14908490008467047C10FC90732
:1005900000D04042012292071143D3E7012189078D
:1005A000D0E7000010B5FF231B0644009C421DD875
:1005B0004C009C421AD80346124A0B4307D4401AF7
:1005C00002D3EFF3008010BDEFF3008010BD081AD6
:1005D00003D3EFF30080904305E0EFF300800121A7
:1005E0009043C907084380F3008810BD0D231B0406
:1005F0001A4204D01146002000F02DF810BD00F082
:1006000041F810BD00000090754600F043F8AE467A
:10061000050069465346C008C000854618B020B59D
:10062000FFF7ACFD60BCB64600260027C0C5C0C5BC
:10063000C0C5C0C5C0C5C0C5C0C5C0C5403D4908CE
:1006400049008D46704710B50446C046C046204656
:10065000FFF785FD10BDC80212D54803400F0028E2
:1006600004D0C803C043012188407047EFF30080E5
:100670000001000903210907084380F3008870473F
:100680000020704710B5024800F008F810BD0000C7
:100690000000C07F004870470000202010B50C46C5
:1006A0001107090F092904D00A290AD008290CD1F9
:1006B00004E011460820FFF7CEFF06E0510606D5FC
:1006C00001E0510601D50120C007214610BDD10629
:1006D00007D501010909CC084907000E00060443AB
:1006E00009E0410F20024907000A0143200E0006DD
:1006F0001D22D14101430846E7E7000001491820C7
:10070000ABBEFEE726000200704700005F480021F4
:1007100001705F48017062480160604801601848DC
:100720000180704759480078411F4842484170474E
:10073000134908807047C046B0B5044658480025A4
:100740000560534804705548056000F0C3F8042064
:10075000032C0BD0022C07D0012C0DD1002000F06F
:1007600067F90125074904E0294601E004490988A1
:10077000054608B200F0CEF944480570B0BDC04649
:10078000F4012020CEFF0000F0B581B004463F4FB9
:100790003878002878D0204600F0CAF93878052843
:1007A00072D000F005F9054600F0B2F8064600F0F8
:1007B000ABF837490978012966D13978032942D045
:1007C000022928D001295FD1002D5DD0344A11685B
:1007D000002901D1146021460B3EB3B22E4D0122F7
:1007E0000026AB42134600D333461F3880B2294D52
:1007F000A84200D33246134303D0601A00097D2873
:1008000042D3012000F014F9322000F083F924488B
:100810000460022037E01F3881B21E4B0120002205
:100820009942014600D311460B3EB3B21A4EB34271
:1008300000D31046084369426941014324D1174857
:10084000046003201FE01F3881B2124B01200022F8
:100850009942014600D311460B3EB3B20E4EB3424D
:1008600000D3104608436942694101430B480129FE
:1008700003D100210160022005E00068201A8008F1
:100880007D2801D30520387001B0F0BDA8012020DB
:100890007E022020C3FF0000EBFF0000E0022020CA
:1008A0008402202080B58A49002008703F490870E2
:1008B0003749088037490880384908705B49086023
:1008C0004B218900364A116005F0CAFB05F058FB40
:1008D00080BDC04680B595480021016033480122A3
:1008E00002707B4801702A4801802A4801802A480A
:1008F00001602A4801704D4801604B208000284962
:10090000086005F057FB80BD00202249085E704753
:1009100000207649085E704700201D49085E704738
:1009200000208149085E70471D4800687047C04636
:100930006E49002008807C4908807C4908601B497A
:1009400008706349087012490880124908801249EA
:10095000086012490870354908606749584A0A60BA
:100960006749584A0A606849574A0A606749574ABE
:100970000A606749087051490870604908804B2037
:100980008000074908607F20C0055E490860704705
:10099000800220209C0120203C02202036032020C1
:1009A00030032020014800787047C046FC01202019
:1009B000474800787047C04610B5012807D0032883
:1009C00001D002280FD13F49174A0B4602E0144BD1
:1009D0001449414A4A4C216047490A6049490B6021
:1009E0003649087016E046483649016042483449A5
:1009F0000160454834490160444834490160444835
:100A0000002101702D4801703C4801807F20C00505
:100A10003C4908600548002101604448016010BD60
:100A20009A99993ECDCCCC3D6666E63FE8022020FF
:100A3000F0B582B021490978002901D002B0F0BD9B
:100A40000027012818D10097214A17782149224E02
:100A5000234D244B012F019317D10027234AD45F44
:100A6000314AD25F141B224A944200DB1446214BC8
:100A70009C420BDC1C4609E07F22D3051049114E35
:100A8000114D124A01923C4602E0174C134B009F55
:100A9000194A1160194A1480194A1660194A1360DC
:100AA000194A1560194A01991160204A1760401EC1
:100AB000414241411648017002B0F0BD8802202039
:100AC000F6281C3FCDCC4C3F0000C84100007042CE
:100AD000370320209A99193F3333333FCDCC8C3FD5
:100AE00000004041000048C2CEFF0000FE0120206F
:100AF000FF7F00000080FFFF94022020B202202030
:100B000090022020440320201802202014022020DC
:100B1000B102202004490A8883B2934202D0034ADA
:100B20000023136008807047340320202C0220200B
:100B3000F0B58FB0FC490978012900D0F2E1FB49FA
:100B40000A78012A05D1FA4A1268821A142A00D2B8
:100B5000E8E101270F70F6490860054600F028FC1F
:100B600006469621284600F043FC002838D003971B
:100B70000020345EEF49085E0690071BEE4887426E
:100B800000DB07460296ED48874200DC0746EC484A
:100B900007803846FFF7FAFC0590EB48007807908D
:100BA000002827D1E748056800262846314606F088
:100BB0009AF900281ED1A4B2E848007804900028D1
:100BC00022D1069832301FD10020E549085EFFF798
:100BD000DDFC019020B2FFF7D9FC0146019823E02B
:100BE000E14800210180E9480170D94801604B20AB
:100BF0008000CFE00798002827D0D449059806F058
:100C000025FAD349096832E0049801281DD10698D5
:100C100032281AD120B2FFF7B9FC0446D048805FD1
:100C2000FFF7B4FC0146204606F068FA294606F0B4
:100C300067F9002809D0C648066002984088CA496A
:100C40000880CD480468039F4DE0C14805680A3715
:100C5000B8B2142806D8C349284606F0F7F9054665
:100C6000039F17E0B949059806F0F0F9294606F008
:100C700053F90546B74E314606F02AF9002800D14F
:100C80002E46B54D3046294606F03AF90028039F16
:100C900000D13546AE48056002200299085EB2498F
:100CA0000880FFF773FC0446B0480068294606F048
:100CB000CDF90546AE480068059906F0C7F9294602
:100CC00006F02AF90546AB480068214606F0BEF951
:100CD0000146284606F012FA0121CC0744409F48FD
:100CE000007804903E46A54D2046294606F0F0F8CF
:100CF000002800D12546A24C2846214606F000F9DE
:100D0000002800D12C46002E0AD00798002807D1D1
:100D10000498012804D10698322801D1FF2533E038
:100D20000798032812D15920C1430698884200DC55
:100D300008465A2800DB5A200699002909D4851C48
:100D400005212846FFF728FA681A0EE04B20850097
:100D50001AE0801E41B267224A43D10F520A51184D
:100D600005224A43811A49B2401A5A3000B28549D5
:100D70004143C80F49140818242800D324208000B8
:100D8000814908180221455E804807702046FFF718
:100D9000B3FB28187E49086000F0C6FD0546002810
:100DA00003D100F04FFD4742474100F04BFD0026C4
:100DB0000028304607D000F04DFD7F21C90506F020
:100DC0009FF8411E884160490978734A01290FD074
:100DD000032907D002290FD1002F21D0002D2DD1BA
:100DE0002E462CE0002F0BD0002D1DD12E461CE0EE
:100DF000002F09D1674908E066480790154625E0AD
:100E0000002815D1064614E064491546002800D094
:100E10006348002F01D1064600E00026079115E047
:100E200000280FD106460EE0604E7F20C00502E08C
:100E30005C4E0120800707905B4D07E05E4E154633
:100E4000564802E05A4E15465A4807903046294601
:100E500006F03EF800282F4600D137460120C6078D
:100E600075403846294606F04BF8002800D13D462B
:100E70005248046806952846214606F03FF9054683
:100E8000079F394606F02FF8002804D1384621463E
:100E900006F042F80BE07E402846314606F00DF899
:100EA0000028069904D12046394606F027F9014664
:100EB000424801600846FFF71FFB354C21680818BF
:100EC000322800DC32203E49884200DB08462060A0
:100ED00008A804F015FF20680899401AFFF756FB90
:100EE0004121090606F0B2F80546364C214605F0C8
:100EF000EFFF002800D12C46334D2046294605F04F
:100F0000FFFF002800D125462846FFF7F5FA0446E2
:100F100004F0BCFF002800D104462C480480204681
:100F200005F09EF80FB0F0BDFC0120203603202014
:100F30003C02202034032020FF7F00000080FFFFC0
:100F4000FE01202018022020880220200AD7A33C7E
:100F50002C0220200000FA430000FAC3B102202036
:100F6000B2022020CDCC4C3F9C01202090022020BA
:100F700094022020440320201402202000007A4301
:100F800000007AC367660000647300003703202006
:100F900030032020000070410000A04200004040CB
:100FA0000000F0410000C040000020420000C0C02E
:100FB0000000084200004041000008C2E802202072
:100FC0001A0400000080BB440080BBC480022020C3
:100FD000002801D0002070474949087800220A7093
:100FE0007047C0463F4800210160414801704248B7
:100FF00001604248016042480170384800683D4A3B
:1010000011703A4A11704003C00F374908703449D3
:101010000870704710B5314909684903C90F304A53
:101020001378994213D1304B1A78914214D02D4C39
:101030002468041B1E2C22D31970002921D0002AF9
:101040001FD12A4900220A702C4908600AE0254B6A
:10105000186011702449097800291AD023490978A9
:1010600000292ED125490968401AC0087D2828D3B7
:101070001E48012101702248032101701CE0114625
:10108000EAE70029E8D1002AE6D0184909780029C2
:1010900018D018490978012913D117490968401A4D
:1010A00080084B280DD312480078012801D8012070
:1010B00000E00220124908700E48002101700C481F
:1010C000017010BD0A490A78FF2A01D0521C0A702B
:1010D000084901220A7008490860DEE780130A40C7
:1010E000BC012020C0012020B8012020D4012020F4
:1010F000C4012020CC012020C8012020D0012020C4
:10110000D8012020F0B583B0B54B1A68521C1A6084
:10111000B44C2278032A37D87A4412795200974483
:1011200001250B11AA2800D097E0012020709F48CC
:10113000AA21017003B0F0BD012875D002287AD130
:10114000062172E099498A78012A65D001228242FB
:1011500065D05A69521C5A610022AA28104602D151
:10116000AA2008700120A0490A7071E0AA2874D052
:10117000552870D18D485521417002202070586843
:10118000401C586003B0F0BD884DA854501C20701E
:10119000954A1278C0B2904200D204E1D51E019166
:1011A00002925FD00120294601400091042A00D01C
:1011B0008EE0002427460098002854D07B48001970
:1011C000817879404C00072049B2002900D544407D
:1011D000610062B2002A00D541404A0049B20029AC
:1011E00000D54240510052B2002A00D541404A0089
:1011F00049B2002900D54240510052B2002A00D520
:1012000041404A0049B2002900D54240570051B23E
:10121000002928D5474026E00722824299D104229E
:101220002270C87003B0F0BD0C21604A90706E4807
:10123000017003200CE05969491C59610021AA285A
:10124000084603D15948AA2202700120664A11704B
:10125000207003B0F0BD002020705869401C586118
:1012600003B0F0BD00270298504A8018401E007855
:10127000F9B281422AD19078012800D08AE014790D
:101280005A480178012909D169494979611AC9B2D5
:10129000022903D39A698918491E9961644D6C71BA
:1012A000012101700198A860E971404A50792871C4
:1012B000907AA8719079D179090208182880107A5B
:1012C000517A090208186880083364E0103362E03C
:1012D00085430024274603E0A41CA54200D16AE709
:1012E000294632480519AA787A405700072052B299
:1012F000002A00D547407A007EB2002E00D5424039
:10130000570052B2002A00D547407A007EB2002E24
:1013100000D54240570052B2002A00D547407A001B
:101320007EB2002E00D54240560052B2002A00D5AF
:101330004640770072B2002A00D54740ED787D40E4
:101340006A006DB2002D00D54240550052B2002A0D
:1013500000D545406A006DB2002D00D542405500D1
:1013600052B2002A00D545406A006DB2002D00D56A
:101370004240550052B2002A00D545406A006DB285
:10138000002D00D542400D46570052B2002AA3D589
:101390004740A1E70C331349002008701249087038
:1013A0001868401C186003B0F0BDC046A901202099
:1013B0001F4870471E49002008604860886008493F
:1013C000086048608860C860086148618861C861D9
:1013D0000449087004490870044908707047C04601
:1013E000FC0220201C0220200002202024022020B9
:1013F0000F4A9368C01A884203D210794007C00F81
:1014000000E00020D179002900D108467047C0468D
:1014100010B50246064BD879441EA0419B68D21AEB
:101420008A4202D30021084010BD0121084010BDAE
:10143000E8012020144800687047C046ED48007855
:101440007047C046EA4800787047C046EF49002020
:101450000860EF490860EF490860F1490860E64913
:101460000860E3490870E3490870EC490870E349F3
:101470000870E3490870E3490870E34908700120E7
:101480004002024908607047F8012020A0320A405B
:10149000D8480078001F41424141D84800780840B0
:1014A0007047C046F0B587B0054600242046FFF7D8
:1014B0008FFD0646CE4F3878784400794000874447
:1014C000027B4D672A00012E00D1E3E0032E00D1FC
:1014D000B2E0022E00D064E1C7480460C74804703F
:1014E000C7480470C7480470C7480470C1480178F1
:1014F000491CCAB2CD2353439A0A05235343C91A40
:1015000001700806C84800D110304B218900D43141
:10151000016007B0F0BDB74F3878401E032806D8E9
:10152000FFF740FA002802D02846FFF72DF9012ED8
:1015300000D036E13878401E032801D8FFF7B2F911
:10154000AD480460AD480470AD480470AD48047007
:10155000AD480470A648047007B0F0BDA5480078F7
:10156000042811D1FFF724FF074696212846FFF7EC
:101570003FFF002800D1BCE0A0480078002800D13F
:10158000DEE02846FFF700F9012E00D189E008E1EE
:101590009E480068281A9E490860964F38780128AE
:1015A00028D12846FFF7F0F8FFF7BCF8002827D02D
:1015B00004208F49087023E0012E05D0954800686B
:1015C000281A80097D2871D3204604F049FD04F0D3
:1015D000D7FC04F087FB8948047090480470864863
:1015E00004608748047087480470874804703C7022
:1015F00007B0F0BD284601F0F7F92846FFF7C4F818
:10160000387801280CD001F0B1F9002808D03D78D5
:101610000024204600F0DCF9A81E02287FD88AE0CA
:10162000012E00D0BDE03878801E022874D82846EC
:1016300001F0A2F907B0F0BD0320C0436D4909785D
:10164000491F814200D2ACE0204600F0C1F9FFF70B
:1016500029F97449204604F079FC04F0FDFC04F0FB
:10166000A9FC204604F0FCFC6D4804606948056054
:101670006A480470614804705F4804606048047000
:10168000604804706048047061480460012038704C
:1016900007B0F0BD0420C04356490978491F814274
:1016A0007FD8284605F060FA07B0F0BD684604F020
:1016B00027FB594E0098811906294AD8002004F0CA
:1016C000CFFC5648017800296DD055480068291A8A
:1016D0004B208000421E914263D904F007FC322067
:1016E000504904F033FC04F0B7FC04F063FC022022
:1016F000CDE74148046041480470414804704148C6
:10170000047041480470FFF74DF9002849D028467D
:10171000FFF70EFA07B0F0BD204600F059F9FFF7C9
:10172000C1F83548046035480470354804703548C0
:1017300004703548047004202D49087007B0F0BDCE
:101740003879C0070DD12E4804702B4804602E480C
:1017500001E732490C704B218900884229DB93361E
:1017600028E028487979284A1378012B02D1037898
:10177000994216D0012616700170385F1E490A681A
:10178000101808601E490A78521C0A70D1B2052947
:1017900007D34A08002818D4101805F093FA044615
:1017A00017E007B0F0BD1E490D600121017007B0C0
:1017B000F0BD9626304604F069FB002800D10646AD
:1017C000304604F04DFC07B0F0BD101A05F07AFA6F
:1017D000444203252846FFF7EFF820B2FEF7A8FFA2
:1017E0002846FEF7A9FF0548067007B0F0BDC046C1
:1017F000F80220207C022020B8022020B402202001
:10180000B7022020B6022020B5022020EC022020C2
:10181000F801202064022020D7FEFFFF5C02202078
:10182000600220201A04000090320A404D480068EF
:101830007047C046434800687047C0463748006854
:101840007047C0467B4800787047C0463E480068F5
:101850007047C046844800687047C0468F4800689B
:101860007047C0462E4800687047C04680B5714931
:1018700000200870524908703A4908608949086098
:10188000894908602F4908602F4908601A49086093
:101890001A4908601A4908601A4908601A4908700C
:1018A0001A4908601A4908601A4908601A4908600C
:1018B0001A4908606049086060490860604908602A
:1018C0001749086041490880164908606549086061
:1018D00065490860704908607F21C9056F4A116039
:1018E0006F490870274908703649087036490880E2
:1018F00001F07AFC80BDC04650022020D00220209A
:1019000054022020D4022020E4022020580220206B
:10191000D802202048022020C80220206C0220206B
:10192000DC012020E00120205D4800787047C0469F
:10193000EFF3108072B60348002101600248016095
:1019400062B6704744022020C402202010B504462D
:10195000002105F0BDFA002800D1044601480460CA
:1019600010BDC046A0012020411E8841EFF3108128
:1019700072B60449087013480021017012480180B2
:1019800062B67047E5012020411E48424841EFF30E
:10199000108172B60A490A7882420ED0414A002369
:1019A0001360414A1360244A1360254A1360054AB4
:1019B0001370054A1380054A1380087062B6704799
:1019C00072022020E4012020E60120207002202065
:1019D00010B5184A1178137898420AD0314B002478
:1019E0001C60314B1C60144B1C60144B1C60144B6E
:1019F0001C601070002802D000290AD010BD1A48BF
:101A000000210160254801602548017001F076FB46
:101A100010BD144802687F20C1050020002A0A4634
:101A200000D00246104B1A601C4A11601C49087015
:101A300010BDC0467F022020A00220209C02202052
:101A400034022020EFF3108172B6064908600028A6
:101A500001D0002001E07F20C0050349086062B684
:101A60007047C046F0022020F4022020EFF31081DE
:101A700072B609490860002801D07F20C0050749D7
:101A800008600748012101700648002101600648EE
:101A9000016062B67047C04624032020280320203E
:101AA0001C0320204C022020CC022020F0B587B05F
:101AB000F94800780390F9480168491C016001F079
:101AC00063FA06A805A900F0CFFEF54A106805994B
:101AD00040181060F34B1868069A801A1860F24F8D
:101AE000386840183860F14E3068801A3060F04D28
:101AF0002878401C2870C0B2022828D338681424E3
:101B0000214600F08FFEEB4D28603068214600F042
:101B100089FEE94F38602868002105F0CEF90028D9
:101B200004D10120C0072968414029603868002499
:101B3000214605F0C2F9002804D10120C007396808
:101B400041403960D84F3C603460D94D2C7004A8B6
:101B500001F00EF8D94908700878002808D0049CD4
:101B60000021204605F0CCF9002805D13F2004E0F3
:101B700000200490044606E0BF200106204605F040
:101B8000CBF9FEF7B9FCCE490860CE4800780028B2
:101B900070D0CD4F386800281AD0CC4E30687F21E5
:101BA000CD05294605F089F9002815D13868FEF7DA
:101BB000F5FC0146C648FEF7EFFB0146306805F02C
:101BC000ABF930603068294605F08DF9002803D163
:101BD0007F20C005BD490860BE48007800281ED09F
:101BE000BD4E30680025294605F07DF9002816D144
:101BF000BA480168002911D00068FEF7CFFC014601
:101C0000B748FEF7C9FB0146306805F085F930603A
:101C10003068002105F051F9002800D13560A9484D
:101C2000007801283CD19E4800689E490968441A02
:101C3000AC48066804602046FEF7A8FC0546A01BD9
:101C4000FEF7A4FCA84905F001FA0446A749284676
:101C500005F0FCF9214605F05FF90446A44E306812
:101C6000214605F04BFA05463068214605F054F947
:101C70000746DEE09F48002101609F4801609F48C1
:101C800001609F4801609F4801609F480160396082
:101C9000316029708D48016001F030FA07B0F0BD65
:101CA00086480078002807D09848016804600398A7
:101CB000012815D0964D14E096480188964A914225
:101CC00002D00188491C01800088944C25680328B3
:101CD0005FD38549284605F0B9F92060256858E0AA
:101CE0008F4D204605F00AFA0146284605F0AEF968
:101CF00005460398012801D0754800E0894821462F
:101D000005F0A4F9294605F007F9044603980128CF
:101D100001D0854D01E08320C5052046294605F008
:101D2000D7F800282E4600D126460120C007029091
:101D30002D182046294605F0E3F8002800D1354645
:101D4000764804682846214605F0D8F907460398E6
:101D5000012801D0754E00E0754E3846314605F039
:101D6000C2F8002804D13046214605F0D5F80AE033
:101D700002983118384605F0A0F8002804D1204612
:101D8000314605F0BBF9054664480560614800210D
:101D900001800398012801D0634901E08320C10537
:101DA00001200190C207284690430290FEF7F4FA02
:101DB000604905F04BF97F21C90505F0ADF80646ED
:101DC000494C214605F09CF8002800D1344648488B
:101DD0000068214605F03AF9574908600E6808681E
:101DE000294605F08BF904460398012801D0534990
:101DF00000E037494248006805F080F90746204670
:101E0000394605F07DF8002800D12746284631469E
:101E100005F082F805464A480078002804D02D488D
:101E20000078002800D1BBE14648002101704648F7
:101E3000018000262846314605F04AF8002800D1E6
:101E40000546224C2168284605F000F92468FE4D1D
:101E5000296805F0FBF82D6828490190086038468C
:101E6000314605F035F8002800D1074638462146AE
:101E700005F0ECF8294605F0E9F80290F54908600C
:101E8000F34C2068314605F03BF8039901295DD0F9
:101E900041210E065BE0C04672022020DC012020BA
:101EA00044022020C402202054022020D4022020FA
:101EB000E402202050022020D002202073022020A3
:101EC0006C0220207F022020F0022020F40220203B
:101ED000000020411C032020280320202403202070
:101EE000000020C19C0220203333333FCDCC4C3E38
:101EF000A00120204C022020CC02202058022020CB
:101F0000D802202048022020C8022020A002202041
:101F10000000C04070022020FFFF0000340220209B
:101F2000333373409A99C9400000C8410000A04172
:101F3000000040419A9999BEE001202000007041C4
:101F4000E5012020E4012020E6012020C74EB94D04
:101F50002768002802D00120C00747403846314694
:101F600004F0ABFF2C780443601E844138463146B0
:101F700004F0C6FF002814D1BD4E3068BF4D29467D
:101F800005F064F83060BF4F3868294605F05EF808
:101F90003860A9480168019F384605F0AFF83668F7
:101FA00009E0A5480168019F384605F0A7F8B04947
:101FB0000E68002C0FD0A34905F048F805462120F3
:101FC0004106384605F042F8294604F0A5FF0546CB
:101FD000AA49304647E00968039004F09DFF054692
:101FE000A44E314604F074FF002800D12E46A24DC5
:101FF0003046294604F06CFF002800D12E469F4948
:10200000304605F023F807468E49039805F01EF880
:10201000054621204106019805F018F8294604F0EC
:102020007BFF05463846294604F076FF074694496B
:1020300004F066FF002805D10021039804F048FF52
:1020400000280DD10021384604F042FF002805D1B8
:102050000021039804F054FF002801D18448066051
:1020600083480068854904F0F1FF294604F054FFD5
:102070000646029F824D294604F02AFF002800D11F
:1020800035460021284604F023FF002800D10546EC
:102090002846FEF731FA7C490860684801683846EE
:1020A00005F02CF8054677480668002C10D06549E5
:1020B000284604F0CBFF054621204106384604F0AF
:1020C000C5FF294604F028FF04466C49304647E026
:1020D0000168284604F020FF0746664E314604F0AA
:1020E000F7FE002800D13E46634F3046394604F0E3
:1020F000EFFE002800D13E466049304604F0A6FFBE
:1021000007465049284604F0A1FF04462120410615
:10211000029804F09BFF214604F0FEFE0446384678
:10212000214604F0F9FE0746554904F0E9FE00286F
:1021300005D10021284604F0CBFE00280DD1002156
:10214000384604F0C5FE002805D10021284604F0D9
:10215000D7FE002801D14B4806604A48006847492D
:1021600004F074FF214604F0D7FE0546444C214696
:1021700004F0AEFE002800D12C460021204604F0D9
:10218000A7FE002800D104462046FEF7B5F93F49D6
:1021900008603D480068096800F0E2FF07B0F0BD44
:1021A00027480078002800D13EE641200106029C25
:1021B000204604F082FE00280CD127480078002831
:1021C0000ED02649204604F083FE002808D11E20A8
:1021D000002201E00020019A1F490A70204908806E
:1021E0001F4A1088002800D123E6134800681349CD
:1021F000096813885B1E138004F080FF194904F0FE
:1022000025FF0446114E314604F062FE002800D13D
:102210002646154C3046214604F05AFE002800D1CF
:1022200026462846314604F069FF054638463146C1
:102230001CE5C046E402202050022020D0022020CD
:102240007302202000002041280320200000C0400D
:1022500034022020D8022020E40120200000404049
:10226000E60120203333B33E0000C0C00000A04090
:102270004C0220200000C8430000C8C36666663FC9
:1022800000C0F345CC02202048022020C8022020B4
:10229000B0B50A78032313400B4A84580B4D2540F0
:1022A000EB18A92424061B198350072212064B6839
:1022B00013401124240205599543EA1802510019CC
:1022C00049780161B0BDC04608080000FCFFFF006E
:1022D000811E091F00BFFCD2704710B5002A0FD025
:1022E00091235B01C3180020DC692405240F05D06D
:1022F0000C5C1C60401C8242F6D1104680B210BDBE
:10230000002080B210BD0000084A835880210B4392
:10231000835080180F221202436813400122D20218
:102320009342F7D102688A43026070473812000076
:1023300070B50A780C231A400124240305196E682D
:102340009E43B2186A6049780722114003599343AB
:102350005918015170BD0000F0B584B0012422026B
:102360002A4B196803929143196035490D686D0431
:10237000FCD5457E25409E69A64374199C612024A6
:10238000045D03252C40DE69AE433419DC61204C2A
:10239000256805262660466A37681F6276685E6291
:1023A00007262E402660C4697F252D02DE69AE43D4
:1023B0006406640C3419DC61076845688268009221
:1023C000C66802690192426902929A69114C1440EE
:1023D0003A07120B2D03ADB2AA183243009D2D0708
:1023E0002D0D1543019A1543029A1543007E28438B
:1023F000094A0240101998611868039A104318603E
:1024000008688005FCD504B0F0BDC04608010B404B
:10241000001340408D00F0FF72FF0F0007498860F5
:10242000074802689202FCD5012212040B6813438C
:102430000B600168C906FCD57047C04604010B401B
:1024400004020B4070B582B00B794A79002A25D07E
:10245000184A202B02D00524E40100E07D4C8218AC
:10246000002B00D18824156C794E35402D19156448
:10247000556C35402C1954641468B44D2C401460CC
:1024800054682C4054600024146254628F24E44346
:10249000156D25401565556D254055656A461371C6
:1024A0008B79537109680091114600F079F802B0F8
:1024B00070BDC0463818000089004018B449405823
:1024C0007047C046F0B585B02F4A85181122120218
:1024D000821803924A7A521ED3B201260024022B9C
:1024E000019400960DD852B2920028A4A75849240E
:1024F000E60134465C43A4190294274CA2585B1CA5
:1025000003E002222346029437464C6804956C602F
:10251000CE688F252E4016433122D20184189B00AD
:10252000E258AA433243E250CD688E263540BA00C5
:10253000A758B743ED19009E3543A5508A4C0019A2
:10254000C458824D2C40154EA419641CC4508358A5
:102550002B409B1983500398019A02600878012848
:1025600001D0029A02E02020029A0243087ABD219B
:1025700001401143049B1868384A02400A43022074
:102580001043186005B0F0BD041800000000000002
:1025900003000000020000000C72000001000200B5
:1025A000F0B5684A8218294BC318087920280DD045
:1025B00000281DD10C68641E5460D56E244C254043
:1025C0008835D5661646703688251DE00C68641E71
:1025D0005460D46E1E4D2C401E4EA419D466146F48
:1025E0002C40A4191467012465071B4C16460BE008
:1025F0000C6864085460D66E154C26400525ED0124
:102600007619D66616467036376827402F433760EE
:10261000D46A4E4D2C40D462146B2C4014630024B9
:10262000D46414658F24E443D56F2540D5671D68B5
:1026300025401D6049790143BD2008401168074BC2
:102640000B40C018801C1060F0BDC046841800000C
:1026500024493E0001040000FFFFFFCF4000FFCFF0
:10266000B0B54A68364BC250364A80180A78222ADA
:1026700058D8930001A4E3589F46C0461B2700008A
:10268000252700001B270000252700002527000024
:10269000252700002527000025270000252700000A
:1026A00025270000252700002527000025270000FA
:1026B0002527000025270000252700000927000006
:1026C00025270000092700002527000025270000F6
:1026D00025270000252700002527000025270000CA
:1026E00025270000252700002527000025270000BA
:1026F00025270000252700002527000009270000C6
:10270000252700000927000003231B0704689C43BA
:1027100001235B07E318036004E003231B0704683D
:102720009C4304600B69C360CB68074C1C40C36AC0
:10273000064D1D402B19C362097A11430160B0BDDB
:102740000818000004180000777702008888FDFF51
:1027500010B507239B04194092008018024A845840
:102760009C436118815010BD3018000010B5029CC8
:10277000A400001911431943014A815010BDC046FD
:102780005018000092008018014A81507047C046DE
:102790001018000010B50122120383180C789C60F9
:1027A0004B7883508978014A815010BD0C1100008C
:1027B000B0B51122120283580124A34383500B8821
:1027C0008C781C438B882343094C1C408358094D4B
:1027D0001D40631983508B79CC791C43097A2143BE
:1027E0007E231940801842689A4351184160B0BD59
:1027F00018670000E798FDFF10B501221203831847
:102800000C789C604978815010BD000010B50C46D2
:10281000FDF7BCFE0146204604F018FC0E49FDF70A
:10282000BBFD10BDB0B5002911D00C46FDF7AEFEC2
:10283000084904F00BFC05462046FDF7AFFE0649AB
:1028400004F004FC01462846FDF7A6FDB0BD0020BB
:10285000B0BDC04600606A470000434437480021CD
:102860000160384801607047EFF3108272B6334A56
:1028700013680360334803680B6000211160016036
:1028800062B67047F0B581B0284908461038006834
:10289000274B0340274C2246103A12680D681D430F
:1028A0000D6011210905114025680D4325600124A3
:1028B000A6060021C94385011F4D0AD52F6837425E
:1028C0000F4600D027461D4D2D687D191B4F3D60DA
:1028D000194DB3420AD363062C681C4201D00B4643
:1028E00000E00123154C25685B19236001231D06B8
:1028F000D402134C09D526682E420E4600D01E463F
:10290000104F3C6834193C600D4C2A4208D01A051F
:102910002368134200D101210A4A1368C9181160C3
:102920000949084003F01AFA01B0F0BD48100A4006
:102930000002400748300A4080130A4094012020DA
:1029400080330A4098012020000240017D48002188
:1029500001707F480170824801707B4801607B48AC
:1029600001607E4801601348016070477548007837
:10297000411F484248417047B0B5724C2178491E0A
:10298000012911D80B490968002904D00846FFF72E
:102990006DF8032007E0002105460846FFF718F808
:1029A0006A48056004202070B0BDC0460149086037
:1029B0007047C0462003202010B50446614801211D
:1029C0000170634804706648002101705E48016030
:1029D0005E48016000F0C8F860490860002C01D032
:1029E000FEF7A6FF10BDC04670B5564C21780029F1
:1029F00005D0052903D0544A1368984200D170BD10
:102A00001060491E0329FAD87944097949008F4496
:102A1000012E16264E48007801280DD103F074FCD3
:102A2000504904F060FA0028E9D14D4800210170B6
:102A300000F09AF8494908600220207070BD0546F0
:102A4000FEF70CFF002104F043FA0028D7D1002044
:102A5000FEF7BEFF042020703C48056070BD3B4976
:102A60000968401A9628CAD30520207070BD3849DD
:102A70000A78012A3AD1064600F076F837490A6802
:102A80009042BCD00860364D2C7800F077FA0146B1
:102A9000304678220A40783A534253413C220A4059
:102AA0003C3A564256411E431E2319401E394A42A3
:102AB0004A41324361000B409E182E709FD0012E78
:102AC0000FD001252C40A218042B0AD34C07E40F89
:102AD000A218082B05D30907C90F8A18190900D0B5
:102AE0008A18022A8BD304F025F870BD0021032A2E
:102AF00001D00C4600E0174C0646022A00D1164CC5
:102B0000204604F0F0F9054603F018FC002D00D033
:102B100075E70146204604F0F1FA054600242146F7
:102B200004F0EEF9002800D12C4603F0EDFB21461D
:102B300004F0E6F9002800D061E7304603F0FAFF20
:102B400070BDC0466802202040022020A401202041
:102B50007D0220209AD928440000344338022020E6
:102B60002C0320209A99F543504800687047C046CE
:102B7000F0B581B0002500280AD005604A490E78DA
:102B800071B2002E03D0FF2E05D1012500E00D46C5
:102B9000E8B201B0F0BD0246202737403548084072
:102BA000CBB2DC097306009208D4002921DA002395
:102BB000002F21D000290AD50025E9E72E4904F08D
:102BC000ABF9641C002F02D1F106E1D147E02B499B
:102BD00004F0A2F9641C00210123F7060FD40B4670
:102BE000370717D4194677071FD40B46B70727D4E2
:102BF0002DE00123002FDDD11946F706EFD5002B7C
:102C0000C6D0BF21090604F087F9641C0023012106
:102C10003707E7D50029BBD03F21090604F07CF92E
:102C2000641C002101237707DFD5002BB0D0FF21E2
:102C3000890504F071F9641C00230121B70706D54A
:102C40000029A5D00E4904F067F9641C0123F1079F
:102C500005D0002B9CD00B4904F05EF9641C05469E
:102C60002046FDF79BFC01462846FDF795FB0099A1
:102C700008608AE70000A0C0000040C00000C0BF9C
:102C8000000040400000A040BE48002101700548FF
:102C90000160416004480170B64805220270B648E0
:102CA000016070470802202010022020DC02202052
:102CB000B0480078052801D30020704701207047F4
:102CC000F0B581B0684605210170A44EA44F384686
:102CD000316889064AD43168890647D43168890643
:102CE00044D43168890641D4316889063ED43168BC
:102CF00089063BD43168890638D43168890635D4D1
:102D00003168890632D4316889062FD43168890642
:102D10002CD43168890629D43168890626D43168D3
:102D2000890623D43168890620D4316889061DD4E8
:102D3000316889061AD43168890617D43168890642
:102D400014D43168890611D4316889060ED43168EB
:102D500089060BD43168890608D43168890605D400
:102D60003168890602D41930B2D1CBE07D4D2846B6
:102D7000FFF7CAFA6946012428462246FFF7ADFA52
:102D8000304608380168784A1140BA310160311F75
:102D90000A68764B1A40764D52190A603A463368F3
:102DA0005B064AD533685B0647D533685B0644D576
:102DB00033685B0641D533685B063ED533685B06F6
:102DC0003BD533685B0638D533685B0635D5336849
:102DD0005B0632D533685B062FD533685B062CD58E
:102DE00033685B0629D533685B0626D533685B06F6
:102DF00023D533685B0620D533685B061DD5336861
:102E00005B061AD533685B0617D533685B0614D5A5
:102E100033685B0611D533685B060ED533685B06F5
:102E20000BD533685B0608D533685B0605D5336878
:102E30005B0602D51932B2D164E03268920761D4E0
:102E40003A4633689B064AD433689B0647D43368B6
:102E50009B0644D433689B0641D433689B063ED41A
:102E600033689B063BD433689B0638D433689B0693
:102E700035D433689B0632D433689B062FD433682D
:102E80009B062CD433689B0629D433689B0626D432
:102E900033689B0623D433689B0620D433689B0693
:102EA0001DD433689B061AD433689B0617D4336845
:102EB0009B0614D433689B0611D433689B060ED44A
:102EC00033689B060BD433689B0608D433689B0693
:102ED00005D433689B0602D41932B2D112E00268DD
:102EE000214B1A40BB231343036008681F4A10405C
:102EF00028430860706A000711D17F1C02D2306835
:102F00008007F7D51B4908780024042822D8421CE2
:102F10000A7004281ED17648002404701AE07068F4
:102F20000107090EC0B20009401881083322114080
:102F30001040800008184108552211401040400000
:102F400008186B4908700B48002101700A48016895
:102F5000491C0160204601B0F0BDC04618120F4068
:102F6000E0B1FFFF00000F4000F8FFFFF8FF00F0A6
:102F70000700010001022020DC0220205C480078CC
:102F80007047C046C0022020B0B5002058490D56F9
:102F9000EBB2584A147858480178002D08D4002C18
:102FA00003D0641E147024060CD17F24214008E055
:102FB000022C03D8651C1570022C03D17F24E44336
:102FC0002143017054785D0608D4002C03D0641EA0
:102FD000547024060BD1BF24214007E0022C03D8F3
:102FE000651C5570022C02D1402421430170947855
:102FF0009D0608D4002C03D0641E947024060BD1C7
:10300000DF24214007E0022C03D8651C9570022CB8
:1030100002D1202421430170D478DD0608D4002C8D
:1030200003D0641ED47024060BD1EF24214007E0A6
:10303000022C03D8651CD570022C02D11024214328
:10304000017014791D0708D4002C03D0641E14717C
:1030500024060BD1F724214007E0022C03D8651C7D
:103060001571022C02D108242143017054795D07A7
:1030700008D4002C03D0641E547124060BD1FB2409
:10308000214007E0022C03D8651C5571022C02D1A7
:1030900004242143017094799D0708D4002C03D0A7
:1030A000641E947124060BD1FD24214007E0022CFC
:1030B00003D8651C9571022C02D1022421430170B2
:1030C000D479DB0706D1002C0ED0631ED3711A060B
:1030D0000AD0B0BD022C03D8631CD371022CF8D1E6
:1030E000012211430170B0BDFE2211400170B0BD3C
:1030F000C0022020080220201002202070B5464C7B
:103100000025204629462A46FFF73CFB012620469B
:1031100029463246FFF736FBB003044908607003C6
:103120000860300408607004086070BD90120A40A6
:1031300070B5394C0025204629462A46FFF722FB68
:103140000126204629463246FFF71CFBB003924970
:10315000086070030860300408607004086070BD87
:10316000F0B581B005460124A2038B48012904DB98
:103170000346103B1A60024605E002600029024641
:1031800001D00246103A630313602204012D03DBD1
:103190000346103B1A6003E00260002D00D0103897
:1031A000620402600E4FB94200DC39460D4EB14256
:1031B00000DB3146C8174140091A17480022FFF7C3
:1031C000E1FABD4200DC3D46B54200DB3546E8177A
:1031D0004540291A10482246FFF7D4FA01B0F0BD45
:1031E00088E1FFFF781E000070B50B4C00252046DB
:1031F00029462A46FFF7C6FA0126204629463246C6
:10320000FFF7C0FAB0036449086070030860300437
:1032100008607004086070BD00208640F0B587B07B
:10322000012007070490C50700245B4E204605E0F7
:103230000298401C0199072900D3AAE00290C1B26C
:103240002046019103F0FAF8204606E0176062B6C6
:103250000398401C40B20028EAD40390EFF3108199
:1032600072B60498C1034D480160234604E08B1CEC
:10327000049801430729E9D219463760356005945F
:10328000059A172A1BD800BF059A521C0592059A69
:10329000172A14D800BF059A521C0592059A172ABE
:1032A0000DD800BF059A521C0592059A172A06D818
:1032B00000BF059A521C0592059A182AE3D332469C
:1032C000103A176000230693069817281BD800BFF2
:1032D0000698401C06900698172814D800BF069838
:1032E000401C0690069817280DD800BF0698401C71
:1032F00006900698172806D800BF0698401C06902E
:1033000006981828E3D33760356005930598172889
:103310001BD800BF0598401C05900598172814D8A5
:1033200000BF0598401C0590059817280DD800BFD0
:103330000598401C05900598172806D800BF0598E9
:10334000401C059005981828E3D31760069306984B
:1033500017288CD800BF0698401C0690069817289E
:1033600085D800BF0698401C06900698172800D9FB
:103370007DE700BF0698401C06900698172800D9E4
:1033800075E700BF0698401C069006981828E1D300
:103390006DE707B0F0BDC046A0120A4090320A4067
:1033A000F0B583B0E34D103D0126B7032F60E24C2A
:1033B0002046FEF78DFF2046FEF78AFF2046FEF7E7
:1033C00087FF2046FEF784FF2046FEF781FF204658
:1033D000FEF77EFF2046FEF77BFF2046FEF778FFD4
:1033E0002046FEF775FF2046FEF772FFD1480760C2
:1033F0002046FEF76DFF2046FEF76AFF2046FEF7E7
:1034000067FF2046FEF764FF2046FEF761FF204677
:10341000FEF75EFF2046FEF75BFF2046FEF758FFF3
:103420002046FEF755FF2046FEF752FF2046FEF7E6
:103430004FFF2046FEF74CFF2046FEF749FF20468F
:10344000FEF746FF2046FEF743FF2046FEF740FF0B
:103450002046FEF73DFF2046FEF73AFF2046FEF7E6
:1034600037FF2046FEF734FF2F602046FEF730FF7F
:103470002046FEF72DFF2046FEF72AFF2046FEF7E6
:1034800027FF2046FEF724FF2046FEF721FF2046B7
:10349000FEF71EFF2046FEF71BFF2046FEF718FF33
:1034A0002046FEF715FF2046FEF712FF2046FEF7E6
:1034B0000FFF2046FEF70CFF2046FEF709FF2046CF
:1034C000FEF706FF2046FEF703FF2046FEF700FF4B
:1034D0002046FEF7FDFE2046FEF7FAFE2046FEF7E8
:1034E000F7FEEFF3108072B6F00301909149086087
:1034F0003007F107AE240023904A03E07B1C6400F0
:10350000072F4CD21F46106163B2002B01DA13461D
:1035100001E013461033196000250295029B172B1A
:103520001BD800BF029B5B1C0293029B172B14D875
:1035300000BF029B5B1C0293029B172B0DD800BFA0
:10354000029B5B1C0293029B172B06D800BF029BB9
:103550005B1C0293029B182BE3D310600295029B25
:10356000172BCBD800BF029B5B1C0293029B172B2F
:10357000C4D800BF029B5B1C0293029B172BBDD8D3
:1035800000BF029B5B1C0293029B172BB6D800BFA7
:10359000029B5B1C0293029B182BE3D3AEE71060E7
:1035A00062B6EFF3108372B6624B019C1C6020245C
:1035B00003E05D1C6400072B4CD22B46106165B202
:1035C000002D01DA154601E0154610352960002767
:1035D0000297029D172D1BD800BF029D6D1C0295FE
:1035E000029D172D14D800BF029D6D1C0295029DEF
:1035F000172D0DD800BF029D6D1C0295029D172D41
:1036000006D800BF029D6D1C0295029D182DE3D3C4
:1036100010600297029D172DCBD800BF029D6D1C34
:103620000295029D172DC4D800BF029D6D1C029506
:10363000029D172DBDD800BF029D6D1C0295029DF5
:10364000172DB6D800BF029D6D1C0295029D182D46
:10365000E3D3AEE7106062B6EFF3108372B6354B7A
:10366000019C1C60102403E05F1C6400072B4CD2FB
:103670003B46106165B2002D01DA154601E01546A2
:103680001035296000250295029F172F1BD800BF17
:10369000029F7F1C0297029F172F14D800BF029F22
:1036A0007F1C0297029F172F0DD800BF029F7F1C1F
:1036B0000297029F172F06D800BF029F7F1C029718
:1036C000029F182FE3D310600295029F172FCBD8CB
:1036D00000BF029F7F1C0297029F172FC4D800BF14
:1036E000029F7F1C0297029F172FBDD800BF029F29
:1036F0007F1C0297029F172FB6D800BF029F7F1C26
:103700000297029F182FE3D3AEE7106062B6EFF383
:10371000108372B6074B019C1C60B02403E05D1C53
:103720006400072B52D22B46106165B2002D07DAD8
:10373000154607E0A0320A408038010090120A4086
:1037400015461035296000270297029D172D1BD8BA
:1037500000BF029D6D1C0295029D172D14D800BF5D
:10376000029D6D1C0295029D172D0DD800BF029D74
:103770006D1C0295029D172D06D800BF029D6D1C81
:103780000295029D182DE3D310600297029D172D1C
:10379000C5D800BF029D6D1C0295029D172DBED895
:1037A00000BF029D6D1C0295029D172DB7D800BF6A
:1037B000029D6D1C0295029D172DB0D800BF029D81
:1037C0006D1C0295029D182DE3D3A8E7106062B628
:1037D000EFF3108372B6DD4B019C1C60C82503E03B
:1037E0005F1C6D00072B4CD23B4610616CB2002C65
:1037F00001DA144601E014461034216000240294DA
:10380000029F172F1BD800BF029F7F1C0297029FA9
:10381000172F14D800BF029F7F1C0297029F172FFB
:103820000DD800BF029F7F1C0297029F172F06D85A
:1038300000BF029F7F1C0297029F182FE3D31060E6
:103840000294029F172FCBD800BF029F7F1C0297C4
:10385000029F172FC4D800BF029F7F1C0297029FB0
:10386000172FBDD800BF029F7F1C0297029F172F02
:10387000B6D800BF029F7F1C0297029F182FE3D388
:10388000AEE7106062B6EFF3108372B6AF4B019DE6
:103890001D60234604E0BB1C3743072F00D38AE09A
:1038A0001F46106111610294029B172B1BD800BFA9
:1038B000029B5B1C0293029B172B14D800BF029B38
:1038C0005B1C0293029B172B0DD800BF029B5B1C55
:1038D0000293029B172B06D800BF029B5B1C02932E
:1038E000029B182BE3D3106000250295029B172B37
:1038F0001BD800BF029B5B1C0293029B172B14D8A2
:1039000000BF029B5B1C0293029B172B0DD800BFCC
:10391000029B5B1C0293029B172B06D800BF029BE5
:103920005B1C0293029B182BE3D31061116102957B
:10393000029B172B1BD800BF029B5B1C0293029BB0
:10394000172B14D800BF029B5B1C0293029B172B02
:103950000DD800BF029B5B1C0293029B172B06D85D
:1039600000BF029B5B1C0293029B182BE3D31060E9
:103970000295029B172B8ED800BF029B5B1C029303
:10398000029B172B87D800BF029B5B1C0293029BF4
:10399000172B00D97FE700BF029B5B1C0293029BA1
:1039A000172B00D977E700BF029B5B1C0293029B99
:1039B000182BE1D36FE7106062B6EFF3108372B695
:1039C000624B019C1C60102403E05D1C6400072B0B
:1039D0004CD22B46106165B2002D01DA154601E08C
:1039E00015461035296000270297029D172D1BD818
:1039F00000BF029D6D1C0295029D172D14D800BFBB
:103A0000029D6D1C0295029D172D0DD800BF029DD1
:103A10006D1C0295029D172D06D800BF029D6D1CDE
:103A20000295029D182DE3D310600297029D172D79
:103A3000CBD800BF029D6D1C0295029D172DC4D8E6
:103A400000BF029D6D1C0295029D172DBDD800BFC1
:103A5000029D6D1C0295029D172DB6D800BF029DD8
:103A60006D1C0295029D182DE3D3AEE7106062B67F
:103A7000EFF3108372B6354B019C1C60402403E0C9
:103A80005F1C6400072B4CD23B46106165B2002DD1
:103A900001DA154601E0154610352960002502952A
:103AA000029F172F1BD800BF029F7F1C0297029F07
:103AB000172F14D800BF029F7F1C0297029F172F59
:103AC0000DD800BF029F7F1C0297029F172F06D8B8
:103AD00000BF029F7F1C0297029F182FE3D3106044
:103AE0000295029F172FCBD800BF029F7F1C029721
:103AF000029F172FC4D800BF029F7F1C0297029F0E
:103B0000172FBDD800BF029F7F1C0297029F172F5F
:103B1000B6D800BF029F7F1C0297029F182FE3D3E5
:103B2000AEE7106062B6EFF3108372B6074B019CEC
:103B30001C60812403E05D1C6400072B4ED22B46E1
:103B4000106165B2002D03DA154603E0A0320A4089
:103B500015461035296000270297029D172D1BD8A6
:103B600000BF029D6D1C0295029D172D14D800BF49
:103B7000029D6D1C0295029D172D0DD800BF029D60
:103B80006D1C0295029D172D06D800BF029D6D1C6D
:103B90000295029D182DE3D310600297029D172D08
:103BA000C9D800BF029D6D1C0295029D172DC2D879
:103BB00000BF029D6D1C0295029D172DBBD800BF52
:103BC000029D6D1C0295029D172DB4D800BF029D69
:103BD0006D1C0295029D182DE3D3ACE7106062B610
:103BE000EFF3108372B6EB4B019C1C607F2403E063
:103BF0005F1C6400072B4CD23B46106165B2002D60
:103C000001DA154601E015461035296000250295B8
:103C1000029F172F1BD800BF029F7F1C0297029F95
:103C2000172F14D800BF029F7F1C0297029F172FE7
:103C30000DD800BF029F7F1C0297029F172F06D846
:103C400000BF029F7F1C0297029F182FE3D31060D2
:103C50000295029F172FCBD800BF029F7F1C0297AF
:103C6000029F172FC4D800BF029F7F1C0297029F9C
:103C7000172FBDD800BF029F7F1C0297029F172FEE
:103C8000B6D800BF029F7F1C0297029F182FE3D374
:103C9000AEE7106062B6EFF3108372B6BD4B019CC5
:103CA0001C60A12403E05D1C6400072B4CD22B4652
:103CB000106165B2002D01DA154601E01546103598
:103CC000296000270297029D172D1BD800BF029D77
:103CD0006D1C0295029D172D14D800BF029D6D1C0E
:103CE0000295029D172D0DD800BF029D6D1C0295F7
:103CF000029D172D06D800BF029D6D1C0295029DE6
:103D0000182DE3D310600297029D172DCBD800BF6A
:103D1000029D6D1C0295029D172DC4D800BF029D07
:103D20006D1C0295029D172DBDD800BF029D6D1C14
:103D30000295029D172DB6D800BF029D6D1C0295FD
:103D4000029D182DE3D3AEE7106062B6EFF3108347
:103D500072B6904B019C1C60A62403E05F1C6400BB
:103D6000072B4CD23B46106165B2002D01DA154697
:103D700001E015461035296000250295029F172F96
:103D80001BD800BF029F7F1C0297029F172F14D8D9
:103D900000BF029F7F1C0297029F172F0DD800BF04
:103DA000029F7F1C0297029F172F06D800BF029F19
:103DB0007F1C0297029F182FE3D310600295029F89
:103DC000172FCBD800BF029F7F1C0297029F172F8F
:103DD000C4D800BF029F7F1C0297029F172FBDD837
:103DE00000BF029F7F1C0297029F172FB6D800BF0B
:103DF000029F7F1C0297029F182FE3D3AEE710604B
:103E000062B6EFF3108372B6624B019C1C60A8246B
:103E100003E05D1C6400072B4CD22B46106165B299
:103E2000002D01DA154601E01546103529600027FE
:103E30000297029D172D1BD800BF029D6D1C029595
:103E4000029D172D14D800BF029D6D1C0295029D86
:103E5000172D0DD800BF029D6D1C0295029D172DD8
:103E600006D800BF029D6D1C0295029D182DE3D35C
:103E700010600297029D172DCBD800BF029D6D1CCC
:103E80000295029D172DC4D800BF029D6D1C02959E
:103E9000029D172DBDD800BF029D6D1C0295029D8D
:103EA000172DB6D800BF029D6D1C0295029D182DDE
:103EB000E3D3AEE7106062B6EFF3108372B6354B12
:103EC000019C1C603F2403E05F1C6400072B4CD264
:103ED0003B46106165B2002D01DA154601E015463A
:103EE0001035296000250295029F172F1BD800BFAF
:103EF000029F7F1C0297029F172F14D800BF029FBA
:103F00007F1C0297029F172F0DD800BF029F7F1CB6
:103F10000297029F172F06D800BF029F7F1C0297AF
:103F2000029F182FE3D310600295029F172FCBD862
:103F300000BF029F7F1C0297029F172FC4D800BFAB
:103F4000029F7F1C0297029F172FBDD800BF029FC0
:103F50007F1C0297029F172FB6D800BF029F7F1CBD
:103F60000297029F182FE3D3AEE7106062B6EFF31B
:103F7000108372B6074B019C1C60A42403E05D1CF7
:103F80006400072B4ED22B46106165B2002D03DA78
:103F9000154603E0A0320A40154610352960002777
:103FA0000297029D172D1BD800BF029D6D1C029524
:103FB000029D172D14D800BF029D6D1C0295029D15
:103FC000172D0DD800BF029D6D1C0295029D172D67
:103FD00006D800BF029D6D1C0295029D182DE3D3EB
:103FE00010600297029D172DC9D800BF029D6D1C5D
:103FF0000295029D172DC2D800BF029D6D1C02952F
:10400000029D172DBBD800BF029D6D1C0295029D1D
:10401000172DB4D800BF029D6D1C0295029D182D6E
:10402000E3D3ACE7106062B6EFF3108372B6F64BE1
:10403000019C1C60D32503E05F1C6D00072B4CD254
:104040003B4610616CB2002C01DA144601E01446C4
:104050001034216000240294029F172F1BD800BF48
:10406000029F7F1C0297029F172F14D800BF029F48
:104070007F1C0297029F172F0DD800BF029F7F1C45
:104080000297029F172F06D800BF029F7F1C02973E
:10409000029F182FE3D310600294029F172FCBD8F2
:1040A00000BF029F7F1C0297029F172FC4D800BF3A
:1040B000029F7F1C0297029F172FBDD800BF029F4F
:1040C0007F1C0297029F172FB6D800BF029F7F1C4C
:1040D0000297029F182FE3D3AEE7106062B6EFF3AA
:1040E000108372B6C84B019D1D60234604E0BB1CC3
:1040F0003743072F00D38AE01F46106111610294F5
:10410000029B172B1BD800BF029B5B1C0293029BD8
:10411000172B14D800BF029B5B1C0293029B172B2A
:104120000DD800BF029B5B1C0293029B172B06D885
:1041300000BF029B5B1C0293029B182BE3D3106011
:1041400000250295029B172B1BD800BF029B5B1C0E
:104150000293029B172B14D800BF029B5B1C029397
:10416000029B172B0DD800BF029B5B1C0293029B86
:10417000172B06D800BF029B5B1C0293029B182BD7
:10418000E3D3106111610295029B172B1BD800BF6E
:10419000029B5B1C0293029B172B14D800BF029B4F
:1041A0005B1C0293029B172B0DD800BF029B5B1C6C
:1041B0000293029B172B06D800BF029B5B1C029345
:1041C000029B182BE3D310600295029B172B8ED80D
:1041D00000BF029B5B1C0293029B172B87D800BF7A
:1041E000029B5B1C0293029B172B00D97FE700BF49
:1041F000029B5B1C0293029B172B00D977E700BF41
:10420000029B5B1C0293029B182BE1D36FE71060AB
:1042100062B6EFF3108372B67B4B019C1C60D52411
:1042200003E05D1C6400072B4CD22B46106165B285
:10423000002D01DA154601E01546103529600027EA
:104240000297029D172D1BD800BF029D6D1C029581
:10425000029D172D14D800BF029D6D1C0295029D72
:10426000172D0DD800BF029D6D1C0295029D172DC4
:1042700006D800BF029D6D1C0295029D182DE3D348
:1042800010600297029D172DCBD800BF029D6D1CB8
:104290000295029D172DC4D800BF029D6D1C02958A
:1042A000029D172DBDD800BF029D6D1C0295029D79
:1042B000172DB6D800BF029D6D1C0295029D182DCA
:1042C000E3D3AEE7106062B6EFF3108372B64E4BE5
:1042D000019C1C603B4605E0AF1C3543072D33466F
:1042E00000D393E03D461061DB0701D1134601E0A6
:1042F00013461033196000240294029B172B1BD81D
:1043000000BF029B5B1C0293029B172B14D800BFBB
:10431000029B5B1C0293029B172B0DD800BF029BD4
:104320005B1C0293029B172B06D800BF029B5B1CF1
:104330000293029B182BE3D310600294029B172B6D
:104340001BD800BF029B5B1C0293029B172B14D847
:1043500000BF029B5B1C0293029B172B0DD800BF72
:10436000029B5B1C0293029B172B06D800BF029B8B
:104370005B1C0293029B182BE3D310611161029422
:10438000029B172B1BD800BF029B5B1C0293029B56
:10439000172B14D800BF029B5B1C0293029B172BA8
:1043A0000DD800BF029B5B1C0293029B172B06D803
:1043B00000BF029B5B1C0293029B182BE3D310608F
:1043C0000294029B172B87D800BF029B5B1C0293B1
:1043D000029B172B00D97FE700BF029B5B1C029357
:1043E000029B172B00D977E700BF029B5B1C02934F
:1043F000029B172B00D96FE700BF029B5B1C029347
:10440000029B182BE0D367E7A0320A40106062B627
:10441000EFF3108372B6EB4B019D1D60D92503E0CD
:104420005C1C6D00072B4CD2234610616CB2002C33
:1044300001DA144601E01446103421600026029689
:10444000029C172C1BD800BF029C641C0294029C87
:10445000172C14D800BF029C641C0294029C172CD9
:104460000DD800BF029C641C0294029C172C06D835
:1044700000BF029C641C0294029C182CE3D31060C1
:104480000296029C172CCBD800BF029C641C02949D
:10449000029C172CC4D800BF029C641C0294029C8E
:1044A000172CBDD800BF029C641C0294029C172CE0
:1044B000B6D800BF029C641C0294029C182CE3D363
:1044C000AEE7106062B6EFF3108372B6BD4B019C8D
:1044D0001C60222403E05E1C6400072B4CD2334690
:1044E000106165B2002D01DA154601E01546103560
:1044F000296000250295029E172E1BD800BF029E40
:10450000761C0296029E172E14D800BF029E761CBF
:104510000296029E172E0DD800BF029E761C0296B0
:10452000029E172E06D800BF029E761C0296029E9F
:10453000182EE3D310600295029E172ECBD800BF31
:10454000029E761C0296029E172EC4D800BF029EC1
:10455000761C0296029E172EBDD800BF029E761CC6
:104560000296029E172EB6D800BF029E761C0296B7
:10457000029E182EE3D3AEE7106062B6EFF310830D
:1045800072B6904B019C1C60DA2403E05D1C640051
:10459000072B4CD22B46106165B2002D01DA15466F
:1045A00001E015461035296000260296029D172D60
:1045B0001BD800BF029D6D1C0295029D172D14D8BB
:1045C00000BF029D6D1C0295029D172D0DD800BFE6
:1045D000029D6D1C0295029D172D06D800BF029DFD
:1045E0006D1C0295029D182DE3D310600296029D6A
:1045F000172DCBD800BF029D6D1C0295029D172D73
:10460000C4D800BF029D6D1C0295029D172DBDD818
:1046100000BF029D6D1C0295029D172DB6D800BFEC
:10462000029D6D1C0295029D182DE3D3AEE710602C
:1046300062B6EFF3108372B6624B019C1C601224C9
:1046400003E05E1C6400072B4CD23346106165B258
:10465000002D01DA154601E01546103529600025C8
:104660000295029E172E1BD800BF029E761C029652
:10467000029E172E14D800BF029E761C0296029E40
:10468000172E0DD800BF029E761C0296029E172E92
:1046900006D800BF029E761C0296029E182EE3D317
:1046A00010600295029E172ECBD800BF029E761C8A
:1046B0000296029E172EC4D800BF029E761C029658
:1046C000029E172EBDD800BF029E761C0296029E47
:1046D000172EB6D800BF029E761C0296029E182E98
:1046E000E3D3AEE7106062B6EFF3108372B6E44B2B
:1046F000019C1C60DB2403E05D1C6400072B4CD292
:104700002B46106165B2002D01DA154601E0154611
:104710001035296000260296029D172D1BD800BF78
:10472000029D6D1C0295029D172D14D800BF029D9D
:104730006D1C0295029D172D0DD800BF029D6D1CAA
:104740000295029D172D06D800BF029D6D1C029593
:10475000029D182DE3D310600296029D172DCBD831
:1047600000BF029D6D1C0295029D172DC4D800BF8D
:10477000029D6D1C0295029D172DBDD800BF029DA4
:104780006D1C0295029D172DB6D800BF029D6D1CB1
:104790000295029D182DE3D3AEE7106062B6EFF3E9
:1047A000108372B6B64B019C1C60202403E05E1C93
:1047B0006400072B4ED23346106165B2002D03DA38
:1047C000154603E0A0320A40154610352960002541
:1047D0000295029E172E1BD800BF029E761C0296E1
:1047E000029E172E14D800BF029E761C0296029ECF
:1047F000172E0DD800BF029E761C0296029E172E21
:1048000006D800BF029E761C0296029E182EE3D3A5
:1048100010600295029E172EC9D800BF029E761C1A
:104820000296029E172EC2D800BF029E761C0296E8
:10483000029E172EBBD800BF029E761C0296029ED7
:10484000172EB4D800BF029E761C0296029E182E28
:10485000E3D3ACE7106062B6EFF3108372B6884B17
:10486000019C1C608D2403E05D1C6400072B4CD26E
:104870002B46106165B2002D01DA154601E01546A0
:104880001035296000260296029D172D1BD800BF07
:10489000029D6D1C0295029D172D14D800BF029D2C
:1048A0006D1C0295029D172D0DD800BF029D6D1C39
:1048B0000295029D172D06D800BF029D6D1C029522
:1048C000029D182DE3D310600296029D172DCBD8C0
:1048D00000BF029D6D1C0295029D172DC4D800BF1C
:1048E000029D6D1C0295029D172DBDD800BF029D33
:1048F0006D1C0295029D172DB6D800BF029D6D1C40
:104900000295029D182DE3D3AEE7106062B6EFF377
:10491000108372B65A4B019C1C60142403E05E1C89
:104920006400072B4CD23346106165B2002D01DACA
:10493000154601E015461035296000250295029EB6
:10494000172E1BD800BF029E761C0296029E172EC1
:1049500014D800BF029E761C0296029E172E0DD818
:1049600000BF029E761C0296029E172E06D800BF3C
:10497000029E761C0296029E182EE3D310600295CA
:10498000029E172ECBD800BF029E761C0296029E76
:10499000172EC4D800BF029E761C0296029E172EC8
:1049A000BDD800BF029E761C0296029E172EB6D876
:1049B00000BF029E761C0296029E182EE3D3AEE73D
:1049C000106062B6EFF3108372B62D4B019C1C6031
:1049D000AF2303E0651C5B00072C4CD22C46106112
:1049E0005DB2002D01DA154601E01546103529604B
:1049F00000250295029E172E1BD800BF029E761C32
:104A00000296029E172E14D800BF029E761C0296B4
:104A1000029E172E0DD800BF029E761C0296029EA3
:104A2000172E06D800BF029E761C0296029E182EF4
:104A3000E3D310600295029D172DCBD800BF029DD5
:104A40006D1C0295029D172DC4D800BF029D6D1CE0
:104A50000295029D172DBDD800BF029D6D1C0295C9
:104A6000029D172DB6D800BF029D6D1C0295029DB8
:104A7000182DE3D3AEE7106062B603B0F0BDC046B8
:104A8000A0320A40F0B585B01346303BDBB2092BAB
:104A900003D805225A43A54B08E01346413BDBB23D
:104AA000192B00D902E105225A439F4B9A18029212
:104AB0000EE1196062B6401C05285AD0029C255CA4
:104AC000EFF3108472B6039C9A4E3460019E03E0AB
:104AD0007E1C6D00072FECD2374619616CB2002C9A
:104AE00001DA1C4601E01C461034226000240494C4
:104AF000049E172E1BD800BF049E761C0496049EAD
:104B0000172E14D800BF049E761C0496049E172E00
:104B10000DD800BF049E761C0496049E172E06D85E
:104B200000BF049E761C0496049E182EE3D31960E1
:104B30000494049E172ECBD800BF049E761C0496C6
:104B4000049E172EC4D800BF049E761C0496049EB3
:104B5000172EBDD800BF049E761C0496049E172E07
:104B6000B6D800BF049E761C0496049E182EE3D38C
:104B7000AEE7EFF3108072B603986E4D28602046C2
:104B8000009F04E0A81C3D43072D00D38AE00546A2
:104B900019611A610494049817281BD800BF04985F
:104BA000401C04900498172814D800BF0498401C97
:104BB0000490049817280DD800BF0498401C049056
:104BC0000498172806D800BF0498401C0490049845
:104BD0001828E3D3196000200490049E172E1BD8D8
:104BE00000BF049E761C0496049E172E14D800BFA6
:104BF000049E761C0496049E172E0DD800BF049EBA
:104C0000761C0496049E172E06D800BF049E761CC0
:104C10000496049E182EE3D319611A610490049E31
:104C2000172E1BD800BF049E761C0496049E172ED8
:104C300014D800BF049E761C0496049E172E0DD82F
:104C400000BF049E761C0496049E172E06D800BF53
:104C5000049E761C0496049E182EE3D319600490DB
:104C6000049817288ED800BF0498401C049004981C
:104C7000172887D800BF0498401C04900498172870
:104C800000D97FE700BF0498401C049004981728BF
:104C900000D977E700BF0498401C049004981828B6
:104CA000E1D36FE7196062B605B0F0BD2B3A0F2A69
:104CB0001CD812A30293C0467A441279520097443A
:104CC000131517191B151515151515151515150798
:104CD00001F0B4FB0120C103039101070090C2075A
:104CE0000020134B0190E9E606A2E0E60D4ADEE65D
:104CF00006A2DCE609A2DAE606A2D8E6003636000D
:104D00000000000008083E08080000000808080825
:104D1000080000002010080402000000006060008D
:104D200000000000187200004F7200001D720000A9
:104D300090120A4090320A40F0B58FB003931446A7
:104D40000D4604900A271046394601F0BBFF474341
:104D5000E11B302739430CAA117001260A2C02D21C
:104D60000B96049F89E00A21FBF716FA0A9739434C
:104D70000CA84170642C049F6ED36421204601F07E
:104D8000A1FF0A21FBF708FA0A9801430CA88170D9
:104D9000E0087D2863D37D20C100204601F092FF0A
:104DA0000A21FBF7F9F90A9801430CA8C170002603
:104DB000BF4884420B9655D3BD49204601F082FF7F
:104DC0000A21FBF7E9F90A9801430CA80171B948D7
:104DD000844249D3B749204601F074FF0A21FBF70A
:104DE000DBF90A9801430CA84171B34884423DD3D2
:104DF000B149204601F066FF0A21FBF7CDF90A9878
:104E000001430CA88171AD48844231D3AB4920469F
:104E100001F058FF0A21FBF7BFF90A9801430CA8DB
:104E2000C171A748844225D3A549204601F04AFF15
:104E30000A263146FBF7B0F90A9801430CA8017223
:104E4000A048844218D39F49204601F03BFF0A99AD
:104E500008430CA9487210E00B9602260DE00B9651
:104E600003260AE0042608E0052606E0062604E0FC
:104E7000072602E0082600E009260A2C2CD30CA8FD
:104E80003118491E0A780C9B02700B700B98002891
:104E900022D170080CA97218921E13784C784B70AE
:104EA0001470022818D00CA97218D21E13788C78AE
:104EB0008B70147003280FD00CA97218121F13786E
:104EC000CC78CB701470042806D00CA83118491F78
:104ED0000A780D9B02710B700399B14200D8CCE0A7
:104EE00002958C1B012022460240019249427140EA
:104EF000491C721E079200297ED084430CA8001F13
:104F00000590002337460A9306940AE00CA80899F6
:104F100001709B1C0A98801C0A90B61CBF1CA342FF
:104F20006DD003213A460A40354638460B9618D0D4
:104F3000751E0CA8465D0B9C06550B9E012A01D1DF
:104F4000781E0EE0B41E0CA8065D4655022A02D15A
:104F5000B81E254605E00B98C51E0CA8425D0255FB
:104F6000F81E079A0A9C12190992D6B2032E0DD385
:104F7000059A5519EE782E71AE786A78AA70EE709F
:104F80002A786A702D1F001F0206F3D10CA8202278
:104F900008920270781C01400B9E751C00290FD0EE
:104FA0000CA8825D4255012935463846069C0FD033
:104FB000751E0CA8425D8255022903D1781E07E0B8
:104FC000069C05E0B11E0CA8425C4255B81E0D4679
:104FD0000999491CC9B2032998D305994919CA7876
:104FE0000A718A784D788D70CA700A784A70091FE4
:104FF000001F0206F3D189E700200A903746019886
:10500000002802D102AFE0CF37E003223A400798F0
:105010000A994018002A029D07D0711E0CAB5C5CF7
:105020009C55012A03D17F1E10E031460EE0B31ECD
:105030000CACE55C6554022A02D1BF1E194604E09F
:10504000F11E0CAA545CD454FF1E029DC0B203286A
:10505000039E0ED30CA80818001FC1780171817837
:1050600042788270C17001784170001F3F1F39067D
:10507000F3D10CA820210170049F0CA800218155B8
:10508000142F12D8007800280FD00CA94C1CFEB2A7
:10509000C2B230462946FFF7F5FC132E05D8611C35
:1050A0007F1C207800280C46F1D10FB0F0BDC0461F
:1050B00010270000A086010040420F008096980053
:1050C00000E1F50500CA9A3BF0B591B00293039157
:1050D0000790002A01D42B2000E02D200EAD28706F
:1050E000D0174240171A0A263846314601F0EAFD29
:1050F0004643B91B30242143697001230A2F04D28F
:105100001E46079D0A2F63D287E00D930A21FBF705
:1051100043F821430EA88170642F079D52D3642168
:10512000384601F0CFFD0A21FBF736F821430EA8DF
:10513000C170F8087D2847D37D20C100384601F0B2
:10514000C1FD0A21FBF728F821430EA801710023B5
:10515000B64887425ED30D93B449384601F0B2FD9C
:105160000A21FBF719F821430EA84171B048874284
:1051700000D254E1AE49384601F0A4FD0A21FBF704
:105180000BF821430EA88171AA48874200D248E15A
:10519000A849384601F096FD0A21FAF7FDFF2143A0
:1051A0000EA8C171A448874200D23CE1A24938460A
:1051B00001F088FD0A21FAF7EFFF21430EA80172E2
:1051C000082602E0022600E003260D9B0A2F24D3C6
:1051D0000EA8815D427841708255002B1DD1700868
:1051E0000EA97218521E13788C788B7014700228D6
:1051F00013D00EA97218921E1378CC78CB7014704D
:1052000003280AD00EA83118C91E0A780F9B027114
:105210000B7002E004260A2FDAD20299B142039FF2
:1052200000D89AE08B1B01201A46024001924942A5
:105230007140491C721E0692002900D18FE0834301
:105240000EA8401C0490002034460C9001460593A3
:105250000FE00EA8089941700A99891C0C98801CCF
:105260000C900B9EB61C0D9CA41C059B9942079D9F
:1052700078D00A910322234613403746214617D09F
:105280000EA98F19895D7970771E012B01D1611EDE
:105290000EE00EA9CF5D8F55B71E022B01D1A11EC6
:1052A00006E00EA9CB5D7118491E0B70F71EE11EBA
:1052B0000D940B9606980C9BC0180990C3B2032B53
:1052C00010D30498C3195F1E3D781D709D1E2C7865
:1052D000DE1E307828703C701B1F18783070091F54
:1052E0000806F0D10EA82021089141700D9D691C7F
:1052F0000A400B9C631C002A10D00EA82118C05C29
:105300008870012A2746294610D00EA8015DC15495
:10531000671E022A04D10D98411E07E01F4605E0D2
:105320000EA8C15D0155A71E0D98811E0998401C4D
:10533000C0B203288DD30498C219501E037813708D
:10534000931E1C78D51E2E781E700470121F1078C4
:105350002870091F0806F0D17BE7314644E00020A1
:105360000C9034460198002801D1039F3BE00323B1
:10537000234006980C994118002B039F08D00EA8D3
:105380008219805D5070721E012B03D1641E10E0E3
:1053900032460EE00EA8825C8255B21E022B01D16D
:1053A000A41E06E00EA8825C3018401E0270F21E99
:1053B000E41EC8B2032812D30EA81018411C481EC0
:1053C00002780A708A1E13782646CC1E257815703E
:1053D0000370091F08782070341F2006EFD10EA833
:1053E00020214170079D02990EA8091800224A70D9
:1053F000142D12D8007800280FD00EA94C1CEEB244
:10540000C2B230463946FFF73DFB132E05D8611C6A
:105410006D1C207800280C46F1D111B0F0BD052696
:10542000D3E60626D1E60726CFE6C04610270000C1
:10543000A086010040420F0080969800F0B581B030
:1054400005461078002810D0142D0ED80C46571C95
:10545000EEB2C2B230462146FFF714FB387800287E
:1054600003D07F1C6D1C142EF2D301B0F0BD0000E0
:10547000F0B595B016460F460690002A079301D462
:10548000002504E011A82D210170764201250A248F
:105490003046214601F016FC049005942146FAF7A7
:1054A0007BFE11A840193024214301700120642E95
:1054B0000F95109002D22A46054642E064213046FC
:1054C00001F000FC0A21FAF767FE0F9A11A81018E4
:1054D00021434170F0087D282ED37D20C100304645
:1054E00001F0F0FB0A21FAF757FE0F9A11A8801875
:1054F00021438170B748864220D3B649304601F037
:10550000E1FB0A21FAF748FE0F9A11A8101821436F
:10551000C17000201090B048864211D3AE49304689
:1055200001F0D0FB0A21FAF737FE0F9A11A8801874
:1055300021430171052504E0022502E0032500E076
:105540000425642E079B24D311A90F980A181078FC
:105550000E900F9840190D904118491E1846234689
:1055600034460E7816700F9A26461C4603460E984F
:105570000870109800280CD111A90F984218507883
:1055800010900D984018801E017851700F9A109954
:105590000170AB4200D8F4E001A8D0C05C1B012030
:1055A00021460140009159426940491C6B1E0B93F2
:1055B000531E0993002900D18FE0844311A81018CD
:1055C000001F0A900021284610910E462346089499
:1055D0000DE011A90F9A89180C9C0C700E9EB61C38
:1055E0001099891C1091AD1C801C9E4278D00E969B
:1055F0000326044634402F4601461ED05119099B0C
:105600005F1911AAD75D57546F1E012C01D1411E9D
:1056100012E00F99C919DA1911AFBA5C7A54AF1EAA
:10562000022C01D1811E07E00F99C919DA1911ACBA
:10563000A25C6254EF1EC11E089B0B9A109C1219AB
:105640000D92D2B2032A0DD30A9AD419E2782271AC
:10565000A2786778A770E27022786270241F091F11
:105660000A06F3D111A90F9A891820240C940C7002
:10567000411C0E406C1C002E1BD01119571911AA89
:10568000D45D5454012E2C46014612D0099B591961
:1056900011AA515CD1556C1E022E01D1411E07E0AA
:1056A0000F9909191A1911ACA25C6254AC1E811E23
:1056B000089B0D9A521CD2B2032A8AD30A9A141953
:1056C000E2782271A2786678A670E2702278627021
:1056D000241F091F0A06F3D17BE7002010902846FB
:1056E0000099002903D1079D01AFD0CF49E00323E2
:1056F00003400B99109C0919002B039F0CD01091AB
:1057000011465219099C641911AE345DB4546A1ED5
:10571000012B06D1401E17E02A46029E079D019CE0
:1057200016E08C18099EB21811AEB25C3255AA1E52
:10573000022B01D1801E07E08B1809998A1811AC41
:10574000A25CE254EA1EC01E029E079D019C1099B5
:10575000C9B2032910D30F99511811AA8918091F2A
:10576000CA780A718A784B788B70CA700A784A7046
:10577000091F001F0206F3D111A80F9A80182021DB
:105780000170A918CAB211A82E238354059A049B4C
:105790005A43B21A22434B1CDBB2C254891CC9B211
:1057A00000224254069D142D12D8007800280FD0F4
:1057B00011A94C1CEEB2C2B230463946FFF762F96D
:1057C000132E05D8611C6D1C207800280C46F1D1E1
:1057D00015B0F0BD10270000A086010080B5074875
:1057E0000749FCF755FD07480021016006480749B5
:1057F0004161016801220A43026080BD002000402F
:10580000D47200008031004000310040710200007D
:10581000B0B5304988228A632F4804230360CA63E5
:10582000082202602D4B86221A60012422040260A5
:105830002B4A951CDD66551C0D604D6064060D6895
:1058400025430D604D6825434D6082240C654A65F3
:105850008C65CA65234CDC61234C0C6681254D6642
:10586000DD609D605D619D619C659C66DC63DC64C0
:105870008D67CD678D604D619D625D609C635C65E9
:10588000CC641A491A4B0B600B63823A19490B68B6
:1058900013430B600A69184B13430B6117490A6ADB
:1058A000174B1A430A620A681A430A6001463039E4
:1058B000144A0A60026014480168144A0A430260EC
:1058C0001120000512490A6A02430A620A6802436B
:1058D0000A60B0BD04804240D0320A408480424019
:1058E000820004008100050081000600A0120A4029
:1058F0000070039090130A400030170028100A40EF
:105900000002400700C20200A0330A40000101006B
:1059100028300A4010B5194C19492046FCF76CFF95
:1059200018492046FCF744FF0320C10316480268CB
:105930008A4302600169B54A0A4015320261416931
:105940002D220A4312218A434261426801210A4002
:1059500043688B439A1842604A0403681343036008
:10596000C26870231343C360C26802231343052235
:105970009343C36002680A43026010BD00001040F8
:10598000DC720000DE7200000011104080B511488A
:105990001149FCF7CDFC03204102104802680A437C
:1059A000026001210A02036813430360002242617E
:1059B00009224262826B07239A4382631A02836B35
:1059C00093438363826A042313438362826A0A4394
:1059D000826280BD00000F40E872000000120F409C
:1059E00070B582B0194C1A492046FCF7D3FE19490C
:1059F0002046FCF727FD00250095204629462A462B
:105A00002B46FCF7B3FE204629462A46FCF7A0FEAB
:105A1000204629462A46FCF7B5FE01260096204678
:105A200029462A462B46FCF7A1FE20462946324647
:105A3000FCF78EFE204629463246FCF7A3FE0648B8
:105A400086600321016002B070BDC0460020864020
:105A5000EA720000F072000000318640B0B582B0FA
:105A6000144D15492846FCF795FE14492846FCF7C5
:105A700097FD01240094002128460A460B46FCF7B6
:105A800075FEA10428462246FCF762FE7D208100B7
:105A900028462246FCF776FE094801461C390C6070
:105AA0000146243902220A6001682143016002B0E4
:105AB000B0BDC04600A08640F8720000FC72000035
:105AC00024B1864010B5094C09492046FCF762FE16
:105AD00008492046FCF7F6FC0748016811220A43F2
