:020000040000FA
:10000000E80520206D01000071010000730100006F
:1000100000000000000000000000000000000000E0
:10002000000000000000000000000000750100005A
:1000300000000000000000007701000079010000CE
:100040007B010000AD1700007B0100007B01000078
:100050007B0100007B0100007B0100007B010000B0
:10006000000000007B0100007B0100000000000098
:10007000000000007B0100007B0100007B0100000C
:10008000554300007B0100007B0100007B01000064
:100090007B0100007B010000000000000000000068
:1000A0007B0100007B010000000000000000000058
:1000B0007B010000000000007B0100007B010000CC
:1000C00000F002F800F042F812A030C808382418F6
:1000D0002D18AC4201D100F039F80FCCA246AB4646
:1000E0000CA730CF2D1B083F3F197C427F1E544484
:1000F0002D090426F441641EAC4201D300F026F819
:100100000126334200D0FB1A3343984754465D46DC
:10011000DFE70000F44E0000044F00000000000084
:100120007047000000000000002300240025002686
:10013000103A01D378C1FBD8520700D330C100D5A3
:100140000B6070471FB51FBD10B510BD00F05CFA05
:100150001146FFF7F7FF04F009F900F074FA03B451
:10016000FFF7F2FF03BC00F0C9FA000006480047A1
:10017000FEE7FEE7FEE7FEE7FEE7FEE70348044989
:10018000024A044B70470000C1000000E801202033
:10019000E8052020E8012020002203098B4273D3C8
:1001A000030A8B4258D3030B8B423CD3030C8B4284
:1001B00021D312E003460B437FD4002243088B4235
:1001C00074D303098B425FD3030A8B4244D3030BDE
:1001D0008B4228D3030C8B420DD30902FF2212BAA3
:1001E000030C8B4202D31212090265D0030B8B421F
:1001F00019D300E0090AC30B8B4201D3CB03C01A09
:100200005241830B8B4201D38B03C01A5241430BE3
:100210008B4201D34B03C01A5241030B8B4201D3D3
:100220000B03C01A5241C30A8B4201D3CB02C01A3E
:100230005241830A8B4201D38B02C01A5241430AB6
:100240008B4201D34B02C01A5241030A8B4201D3A5
:100250000B02C01A5241CDD2C3098B4201D3CB014C
:10026000C01A524183098B4201D38B01C01A5241FB
:1002700043098B4201D34B01C01A524103098B42FF
:1002800001D30B01C01A5241C3088B4201D3CB00EA
:10029000C01A524183088B4201D38B00C01A5241CD
:1002A00043088B4201D34B00C01A5241411A00D27D
:1002B00001465241104670475DE0CA0F00D04942E6
:1002C000031000D3404253409C46002203098B4256
:1002D0002DD3030A8B4212D38901FC2212BA030ADE
:1002E0008B420CD3890192118B4208D38901921160
:1002F0008B4204D389013AD0921100E08909C309E5
:100300008B4201D3CB01C01A524183098B4201D3E6
:100310008B01C01A524143098B4201D34B01C01AD1
:10032000524103098B4201D30B01C01A5241C30849
:100330008B4201D3CB00C01A524183088B4201D3B8
:100340008B00C01A5241D9D243088B4201D34B00D3
:10035000C01A5241411A00D201465241104663462A
:100360005B1001D34042002B00D5494270476346E1
:100370005B1000D3404201B50449002802DC491C4F
:10038000084000E00846C046C04602BDFFFFFF7FB0
:100390007047704770470000F0B5FF252D04C6096F
:1003A000C209FF2704462E400137CB093E4348408F
:1003B0002A402B400746002A6BD0002B69D0AA4266
:1003C00067D0AB4265D0002800DA32460125ED0542
:1003D00029432C4309022002090AD21A4B0C7F241C
:1003E000E31A434C000A7C44E35C7D242404121984
:1003F00014145B00A218884201D3521C00E0400094
:1004000049420C465C4324115C43DB016415E3184C
:10041000040A5C43C502200D0C4644436419250AB6
:100420005D432303EC0C0D46654300030019EB18F4
:100430004C42A34201D35B18401CD4052018002B6A
:1004400007D05B00C91804D3401C002901D1400823
:1004500040003F2189048A4209D3002A08DC1106A2
:10046000090F04D0032149074018C00FC007F0BD91
:1004700001224100120689187F2252069142F6D2CB
:1004800005214907C84201D59010F0BDFF20C005E5
:10049000F0BD002F00DA32461648AA4207D2AB421E
:1004A00005D21902090E17D0F80FC007F0BDFF25BD
:1004B00063002D06AB42F9D84900A942F6D8AB42F9
:1004C00001D1A942F2D0A94201D1002101E061008D
:1004D0004908D0050843F0BD1102090EFBD0FF20EA
:1004E0000243D005F0BD0A460146104654E700001D
:1004F000464A00000000C07F10B501469E2400025D
:10050000CA15A307002A02D01843002A04DBA21A46
:10051000002A0CDDD04010BD1206120E01D14000A1
:100520004008A21A03D4D04040420028F3DDFF2245
:1005300048001206904201D9002010BDC817C043E0
:10054000584010BD1F22030C02D10F2200041CD002
:10055000030E01D10002083A030F01D10001121F5E
:10056000830F01D18000921E002801DB4000521E43
:10057000D2055118021251181922904004D3491C77
:10058000002801D14908490008467047C10FC90732
:1005900000D04042012292071143D3E7012189078D
:1005A000D0E7000010B5FF231B0644009C421DD875
:1005B0004C009C421AD80346124A0B4307D4401AF7
:1005C00002D3EFF3008010BDEFF3008010BD081AD6
:1005D00003D3EFF30080904305E0EFF300800121A7
:1005E0009043C907084380F3008810BD0D231B0406
:1005F0001A4204D01146002000F02DF810BD00F082
:1006000041F810BD00000090754600F043F8AE467A
:10061000050069465346C008C000854618B020B59D
:10062000FFF7ACFD60BCB64600260027C0C5C0C5BC
:10063000C0C5C0C5C0C5C0C5C0C5C0C5403D4908CE
:1006400049008D46704710B50446C046C046204656
:10065000FFF785FD10BDC80212D54803400F0028E2
:1006600004D0C803C043012188407047EFF30080E5
:100670000001000903210907084380F3008870473F
:100680000020704710B5024800F008F810BD0000C7
:100690000000C07F004870470000202010B50C46C5
:1006A0001107090F092904D00A290AD008290CD1F9
:1006B00004E011460820FFF7CEFF06E0510606D5FC
:1006C00001E0510601D50120C007214610BDD10629
:1006D00007D501010909CC084907000E00060443AB
:1006E00009E0410F20024907000A0143200E0006DD
:1006F0001D22D14101430846E7E7000001491820C7
:10070000ABBEFEE726000200704700004248002111
:1007100001704348017041480160134801807047EF
:100720003D480078411F484248417047B0B50446F3
:100730003A48002505603A48047000F081F8012C21
:1007400006D0032C07D0022C0BD10425002005E095
:100750003220254602E004480088042500B200F05B
:100760008BF82D480570B0BD58012020F0B581B040
:100770000446294E307800282ED005282CD020465B
:1007800000F07EF8254F3868002800D13C6000F06A
:1007900063F82349097801291ED13178032911D042
:1007A00002291BD0012917D1093080B21E49132814
:1007B0000DB21CD2284600F05FF83C600220307079
:1007C000204615E03868201AFF21F631884203D30D
:1007D0000520307000F02AF801B0F0BD093080B279
:1007E00013280FD23C600320307020460BE038689D
:1007F000201A0C498842EFD9284600F03DF83C60A9
:10080000022006E03868201A06498842E4D93C6094
:100810000320307001B0F0BD280120209C01202071
:1008200099012020B80B0000CEFF000080B546499A
:100830000020087003F05EFD03F044FD80BDC0465B
:1008400080B54548002101603F48012202704148BF
:10085000016003F03BFD80BD00203D49085E70470C
:100860003B4800210180394801803B4801603948FC
:100870000160354801707047344908807047C046B0
:10088000F0B581B004463048007801285AD100F014
:10089000E3F805466421204600F0EAF800284ED02F
:1008A00028882A490988081A2949088000B2FFF7D0
:1008B0006DFE04462748016800910460264D2868B3
:1008C000214604F05BF90746244E314604F032F924
:1008D000002800D13E46224F3046394604F042F906
:1008E000002800D137462F601E49384604F0E0F951
:1008F00006461D49204604F0DBF9314604F03EF976
:1009000006462046009904F02BFA014604F036F919
:10091000314604F033F90546144C214604F00AF937
:10092000002800D12C46124D2046294604F01AF921
:10093000002800D125462846FFF7DEFD00E0002014
:1009400003F0D8FC01B0F0BD60012020DC012020C4
:1009500062012020A40120206C0120200000FA4325
:100960000000FAC3CDCCCC3D0000A04000803B4548
:1009700000803BC5002801D0002070473549087829
:1009800000220A707047C0462D48002101602E48A1
:1009900001702F4801602F480170274800682B4ADA
:1009A00011704003C00F2749087024490870704730
:1009B00010B5214909684903C90F204A13789942A3
:1009C0001AD1204B1A7891421DD01D4C2468041B6B
:1009D0001E2C17D31970002915D1002A13D01A49DB
:1009E0000A78FF2A01D0521C0A70184901220A70A5
:1009F00017490860002106E0114B18601170114979
:100A0000097800E01146114A1378012B13D100290F
:100A100011D10F490968401A80084B280BD30020D8
:100A2000107009490A780870012A01D8012000E0F5
:100A300002200849087010BD80130A4030012020B0
:100A4000340120202C0120203801202040012020CA
:100A50003C012020440120200D4870470C48002113
:100A6000416081700180014801707047C8012020F9
:100A700010B50246064B9878441EA0415B68D21A16
:100A80008A4202D30021084010BD0121084010BD58
:100A900050012020544800687047C04653480078F1
:100AA0007047C0464E4800787047C0464C48002109
:100AB00001704E4801704B4801604B48016070471F
:100AC000F0B581B0054600263046FFF753FF0446D7
:100AD000434F387802283DD0012823D0002848D140
:100AE000022C48D0012C44D13F4806603D480560A7
:100AF0000120387000F0F0F83C480078042838D81D
:100B000078440079400087440262424B57003B48DA
:100B100000F0F0F8022000F0FBF8012000F0A8FE41
:100B200001B0F0BD2F480068281A2F4908602846F8
:100B300000F0B8FE2846FFF719FE00F093FE0028EB
:100B40000DD0002000F0E4F8FFF770FE02203870AE
:100B500001B0F0BD012C0CD13E7001B0F0BD2348B6
:100B60000078012803D1FFF7DBFD0028E9D1012C33
:100B7000E7D001B0F0BD1D480178491C1C4A4A432A
:100B8000120C05235343C91A017001B0F0BD1A4875
:100B900000F0B0F80224204600F0BAF8204607E042
:100BA000144800F0A7F80224204600F0B1F8012014
:100BB00000F05EFE20460EE00E4800F09BF802209A
:100BC00000F0A6F8012000F053FE032003E000200F
:100BD00000F09EF80120FFF7A9FD01B0F0BDC0466E
:100BE000D0012020CC0120205C0120209701202072
:100BF00034330000E6A57E42B7AF90429A8FCA42D6
:100C00003A4800687047C046264800687047C046AA
:100C1000294800687047C0462B4800687047C046A6
:100C2000334800687047C0461F4800687047C04698
:100C3000224800687047C046244800687047C04694
:100C400080B53F4900200870304908603D49086080
:100C50003D49086025490860254908601149086038
:100C6000114908601149086011490860114908706C
:100C7000114908601149086011490860114908606C
:100C800011490860314908603149086031490860FC
:100C90000E4908600E4908800E49086001F008F806
:100CA00080BDC04680012020BC012020840120207E
:100CB000C0012020C901202088012020C40120205B
:100CC00078012020B401202090012020480120201C
:100CD000940120204C012020EFF3108072B6EB48E5
:100CE00000210160EA48016062B67047740120206B
:100CF000B001202010B50446002103F01BFF00289E
:100D000000D104460148046010BDC04624012020E3
:100D100080B5E7490A7882420AD00A4A0023136064
:100D2000094A1360094A1360E24A1360094A1360D2
:100D30000870002800D080BD00F0BAFF80BDC0461A
:100D40009A0120207C012020B8012020AC01202025
:100D5000A801202070012020F0B587B0CA480168A2
:100D6000491C016000F0AAFE06A805A900F010FDCC
:100D7000C64A1068059940181060C54B1868069A55
:100D8000801A1860C34B186840181860C24D286854
:100D9000801A2860C14E3078401C3070C0B20328E1
:100DA00029D3BC4800681E24214600F0CFFCBC4E6D
:100DB00030602868214600F0C9FCBA4F38603068BE
:100DC000002103F0ACFE002804D10120C0073168E7
:100DD0004140316038680024214603F0A0FE00281D
:100DE00004D10120C007396841403960A948046036
:100DF0002C60AA4E347004A800F0C8FDAA4F3870C9
:100E00003878002808D0049C0021204603F0AAFE70
:100E1000002805D13F2004E000200490044606E0AD
:100E2000BF200106204603F0A9FEFFF765FB9F499E
:100E300008609F480178002928D0007801283AD11D
:100E40009248006892490968441A9A480668046002
:100E50002046FFF79BFB0546A01BFFF797FB964933
:100E600003F026FF04469549284603F021FF21465A
:100E700003F084FE0446924E3068214603F070FF72
:100E800005463068214603F079FE97E08D48002141
:100E900001608D4801608D4801608D4801608D487A
:100EA00001608D4801607B4801602960317000F06D
:100EB000FFFE07B0F0BD3878002835D0FD48016846
:100EC0000460204603F04CFF4121090603F0F0FEC8
:100ED0000546F949204603F0EBFE294603F04EFE95
:100EE0000646F64D294603F025FE00282C4600D183
:100EF0003446F34E2046314603F01CFE002800D154
:100F00003446F04806682046314603F029FF07467C
:100F1000294603F01AFE00281AD1E849304603F0AA
:100F20002DFE0446E74D1FE0E7480188E74A91425D
:100F300002D00188491C01800088E24D2C680628F7
:100F400016D3E349204603F0B3FE28602C680FE077
:100F5000DB49384603F0E3FD0028DA4D04D1D849D7
:100F6000304603F00BFE04462C60D7480021018078
:100F70000120C10720468843D049FFF70DFAD54923
:100F800003F096FE7F21C90503F0F8FD0646D24D19
:100F9000294603F0E7FD002800D13546CF48006818
:100FA000294603F085FECE4E30603168204603F0BE
:100FB000E5FD05463068214603F0D2FE07460026CF
:100FC0002846314603F0B6FD002800D10546C54845
:100FD00005603846314603F0ADFD002800D10746D4
:100FE000C1480760B74C2068314603F0BBFD266856
:100FF0000028039702D00120C00746404120070681
:101000003046394603F08BFDA7490C780443601E37
:1010100084413046394603F0A5FD002815D1B34F71
:101020003868B54E314603F043FE3860B54F386836
:10103000314603F03DFE38609C480168284603F0C5
:101040008FFE0646A948076809E0984801682846C7
:1010500003F086FE0646A5480768002C3ED0A74947
:10106000304603F025FE064621204106284603F0BF
:101070001FFE314603F082FD05469F49384603F0C6
:1010800017FE294676E0C046480120207401202042
:10109000B001202084012020C0012020C90120208F
:1010A00080012020BC0120209601202090012020DA
:1010B0009A012020A80120203333333FCDCC4C3E71
:1010C000240120207C012020B8012020880120203C
:1010D000C401202078012020B4012020016830467E
:1010E00003F04CFD0746824903F024FD00288048A8
:1010F00000D138467F49074603F01CFD002800D187
:101100007C4F7D490197384603F0D2FD02907B4920
:10111000304603F0CDFD074621204106284603F066
:10112000C7FD394603F02AFD07460298394603F009
:1011300025FD0546724903F015FD002805D1002163
:10114000304603F0F7FC00280ED10021284603F0BA
:10115000F1FC002805D10021304603F003FD0028F2
:1011600002D162480199016060480068624903F059
:101170009FFD394603F002FD0646039F604D294658
:1011800003F0D8FC002800D135460021284603F0A2
:10119000D1FC002800D105462846FFF7ADF95A4991
:1011A000086043480168384603F0DAFD05465548B3
:1011B0000668002C10D05149284603F079FD0546F9
:1011C00021204106384603F073FD294603F0D6FC82
:1011D00004464949304647E00168284603F0CEFC02
:1011E0000746434E314603F0A5FC002800D13E4699
:1011F000404F3046394603F09DFC002800D13E4662
:101200003D49304603F054FD07463C49284603F06B
:101210004FFD044621204106039803F049FD214675
:1012200003F0ACFC04463846214603F0A7FC074611
:10123000334903F097FC002805D10021284603F02C
:1012400079FC00280DD10021384603F073FC0028FA
:1012500005D10021284603F085FC002801D129484A
:10126000066028480068244903F022FD214603F067
:1012700085FC0546244E224C214603F05BFC0028E9
:1012800000D12C460021204603F054FC002800D158
:1012900004462046FFF730F91C49086030680968A9
:1012A00000F0C0FC07B0F0BDC90120208001202063
:1012B000BC012020AC012020000040410000C841BA
:1012C0000000C8C17001202094012020FFFF000011
:1012D0009A99593F6666E6BECDCC0C3F240120208A
:1012E0004C01202088012020C40120207C012020E6
:1012F0000000C8430000C8C36666663F0000704136
:1013000000C0F345B801202078012020B40120203E
:10131000B0B50A78032313400B4A84580B4D25407F
:10132000EB18A92424061B198350072212064B68C8
:1013300013401124240205599543EA18025100195B
:1013400049780161B0BDC04608080000FCFFFF00FD
:10135000811E091F00BFFCD2704770B50A780C23AC
:101360001A400124240305196E689E43B2186A606E
:10137000497807221140035993435918015170BD10
:10138000F0B584B0012422022A4B196803929143DC
:10139000196035490D686D04FCD5457E25409E6970
:1013A000A64374199C612024045D03252C40DE694A
:1013B000AE433419DC61204C256805262660466A58
:1013C00037681F6276685E6207262E402660C46911
:1013D0007F252D02DE69AE436406640C3419DC619E
:1013E0000768456882680092C6680269019242698E
:1013F00002929A69114C14403A07120B2D03ADB2B8
:10140000AA183243009D2D072D0D1543019A15434F
:10141000029A1543007E2843094A02401019986138
:101420001868039A1043186008688005FCD504B05A
:10143000F0BDC04608010B40001340408D00F0FF96
:1014400072FF0F0007498860074802689202FCD5C6
:10145000012212040B6813430B600168C906FCD516
:101460007047C04604010B4004020B4070B582B0C7
:101470000B794A79002A25D0184A202B02D005245E
:10148000E40100E0434C8218002B00D18824156C45
:101490003F4E35402D191564556C35402C19546458
:1014A00014687A4D2C40146054682C405460002419
:1014B000146254628F24E443156D25401565556D03
:1014C000254055656A4613718B79537109680091FF
:1014D000114600F005F802B070BDC0463818000093
:1014E000F0B5684A8218294BC318087920280DD016
:1014F00000281DD10C68641E5460D56E244C254014
:101500008835D5661646703688251DE00C68641E41
:101510005460D46E1E4D2C401E4EA419D466146F18
:101520002C40A4191467012465071B4C16460BE0D8
:101530000C6864085460D66E154C26400525ED01F4
:101540007619D66616467036376827402F433760BF
:10155000D46A4E4D2C40D462146B2C40146300248A
:10156000D46414658F24E443D56F2540D5671D6886
:1015700025401D6049790143BD2008401168074B93
:101580000B40C018801C1060F0BDC04684180000DD
:1015900024493E0001040000FFFFFFCF4000FFCFC1
:1015A000B0B54A68364BC250364A80180A78222AAB
:1015B00058D8930001A4E3589F46C0465B1600002C
:1015C000651600005B160000651600006516000039
:1015D000651600006516000065160000651600001F
:1015E000651600006516000065160000651600000F
:1015F000651600006516000065160000491600001B
:10160000651600004916000065160000651600000A
:1016100065160000651600006516000065160000DE
:1016200065160000651600006516000065160000CE
:1016300065160000651600006516000049160000DA
:10164000651600004916000003231B0704689C432D
:1016500001235B07E318036004E003231B0704680E
:101660009C4304600B69C360CB68074C1C40C36A91
:10167000064D1D402B19C362097A11430160B0BDAC
:101680000818000004180000777702008888FDFF22
:1016900010B507239B04194092008018024A845811
:1016A0009C436118815010BD3018000010B5029C99
:1016B000A400001911431943014A815010BDC046CE
:1016C0005018000092008018014A81507047C046AF
:1016D0001018000010B50122120383180C789C60CA
:1016E0004B7883508978014A815010BD0C1100005D
:1016F000B0B51122120283580124A34383500B88F2
:101700008C781C438B882343094C1C408358094D1B
:101710001D40631983508B79CC791C43097A21438E
:101720007E231940801842689A4351184160B0BD29
:1017300018670000E798FDFF10B501221203831817
:101740000C789C604978815010BD0000B0B500292C
:1017500011D00C46FEF71AFF084903F0A9FA054616
:101760002046FEF71BFF064903F0A2FA0146284671
:10177000FEF712FEB0BD0020B0BDC04600606A4753
:101780000000434431480021016031480160704746
:10179000EFF3108272B62D4A136803602C48036879
:1017A0000B6000211160016062B67047F0B5012442
:1017B000A706244910390E6835463D400021CA432A
:1017C000214B103B1B68B601BA4E08D53068384231
:1017D000174600D027461D48016879180160002D82
:1017E0000AD060063168014201D0144600E00124AD
:1017F000164801686118016001242606D802AE4D22
:1018000008D528683042174600D02746104801689E
:1018100079180160334208D020052968014200D1BF
:1018200001220B4801685118016003204006054A57
:1018300011680143116011200005034A116801433A
:101840001160F0BD48100A4048300A401C012020B9
:10185000200120204548002101704648017046487B
:101860000160704741480078011F48424841704775
:1018700010B53E4901220A703E490870022803D083
:101880000024012803D003E0044C012800D1044CBB
:10189000FFF722FA3848046010BDC0460000164326
:1018A00000801944F0B581B0304F3878FB210842F0
:1018B00025D0FFF7A5F90446FFF7B2F90019FEF7A6
:1018C00065FE3F21090603F0F3F9294903F0F0F919
:1018D000044600F0CBF8397803290BD0022910D048
:1018E00001290CD12849204603F024F9002806D00C
:1018F000022103E00020FFF70BFA0421397001B048
:10190000F0BD1C490978022923D00129F7D11E21F5
:1019100008401E3841424141009117480668184965
:10192000304603F0C5F90146204603F003F90546A9
:10193000401E85411349304603F0BAF9014620465E
:1019400003F0F8F803210028D8D100980540D6D03C
:10195000D4E709480068094903F0AAF9014620467E
:1019600003F000F90028CAD10321C7E78C01202029
:10197000F3C3D93C98012020D80120203333733F92
:10198000CDCC4C3FCDCC8C3F0000F041F0B581B0C8
:10199000002817D004460020206094490A78002AC5
:1019A00013D03F2A53D0082616409106C9170423A6
:1019B0009943202313405D09D70609D4002E14D182
:1019C0005B090AE0002001B0F0BD104601B0F0BD97
:1019D0006D1CC91E0123002E09D1560714D4002BFB
:1019E0001ED11E4697070AD51DE0002B30D16D1C75
:1019F000491E53070AD401263346970713D4002BF8
:101A000008D1D20709D116E0002B21D16D1C491C49
:101A100093070AD40126D2070DD0002E18D108E072
:101A200001269707EBD5002E12D16D1CC91CD007DB
:101A300001D06D1C491D0846FEF7A8FD0646284644
:101A4000FEF7A4FD01463046FEF7A6FC206001200B
:101A500001B0F0BD6648002141710171C170817013
:101A600041700170614801707047C0465F4800785E
:101A70007047C0465B480168490C20220A40016853
:101A8000090D10230B4099180268120E0823134009
:101A9000C9180268D20904231340C9180068C00A93
:101AA00002220240881850490968C903C90F40182A
:101AB0007047C04680130A4080330A40F0B582B0B8
:101AC000484804680768066805680068009046484A
:101AD0000068019045480178454A1378640208D4AB
:101AE000002B03D05B1E13701B060BD1DF231940A4
:101AF00007E0022B03D85C1C1470022B02D12023B8
:101B0000194301705378FC0108D4002B03D05B1EED
:101B100053701B060BD1EF23194007E0022B03D8AB
:101B20005C1C5470022B02D110231943017093786E
:101B3000340108D4002B03D05B1E93701B060BD11D
:101B4000F723194007E0022B03D85C1C9470022B8A
:101B500002D1082319430170D378AC0508D4002BB7
:101B600003D05B1ED3701B060BD1FB23194007E08B
:101B7000022B03D85C1CD470022B02D1042319431E
:101B800001701379009CE40408D4002B03D05B1E81
:101B900013711B060BD1FD23194007E0022B03D85C
:101BA0005C1C1471022B02D102231943017053797A
:101BB000019CE40307D4002B0ED05B1E53711A0660
:101BC0000AD002B0F0BD022B03D85C1C5471022B6A
:101BD000F7D10122114301E0FE221140017002B051
:101BE000F0BDC04680130A4080330A406A012020BD
:101BF0006401202070B53A4C0025204629462A462B
:101C0000FFF760FD0126204629463246FFF75AFDC0
:101C1000B0039349086070030860300408607004E2
:101C2000086070BDF0B581B01F4B994200DC1946C9
:101C30001E4CA1420A4600DB2246984200DC1846B0
:101C4000A042054600DB254601246603A703844B1A
:101C5000012903DB194610390F6002E01F60002ADA
:101C60001ED41E6026046104012803DB18461038C8
:101C7000066003E01E60002D00D5103B1960D017F0
:101C80004240111A164C00222046FFF71BFDE817B0
:101C90004540291A01222046FFF714FD01B0F0BD8E
:101CA000194610390E60DDE788E1FFFF781E00005D
:101CB00070B50B4C0025204629462A46FFF702FD49
:101CC0000126204629463246FFF7FCFCB003644952
:101CD000086070030860300408607004086070BD1C
:101CE00000208640F0B587B0012007070490C507A3
:101CF00000245B4E204605E00298401C019907290C
:101D000000D3AAE00290C1B22046019102F084FB08
:101D1000204606E0176062B60398401C40B20028D7
:101D2000EAD40390EFF3108172B60498C1034D48D2
:101D30000160234604E08B1C049801430729E9D283
:101D40001946376035600594059A172A1BD800BFDD
:101D5000059A521C0592059A172A14D800BF059AB5
:101D6000521C0592059A172A0DD800BF059A521CDD
:101D70000592059A172A06D800BF059A521C0592AB
:101D8000059A182AE3D33246103A176000230693C7
:101D9000069817281BD800BF0698401C0690069886
:101DA000172814D800BF0698401C069006981728DC
:101DB0000DD800BF0698401C06900698172806D834
:101DC00000BF0698401C069006981828E3D3376099
:101DD00035600593059817281BD800BF0598401C4F
:101DE00005900598172814D800BF0598401C059049
:101DF000059817280DD800BF0598401C0590059838
:101E0000172806D800BF0598401C0590059818288B
:101E1000E3D317600693069817288CD800BF06985E
:101E2000401C06900698172885D800BF0698401CCD
:101E300006900698172800D97DE700BF0698401C39
:101E400006900698172800D975E700BF0698401C31
:101E5000069006981828E1D36DE707B0F0BDC0469C
:101E6000A0120A4090320A40F0B583B0E04D103D18
:101E70000126B7032F60DF4C2046FFF769FA2046A2
:101E8000FFF766FA2046FFF763FA2046FFF760FA8D
:101E90002046FFF75DFA2046FFF75AFA2046FFF783
:101EA00057FA2046FFF754FA2046FFF751FA20462A
:101EB000FFF74EFACE4807602046FFF749FA204662
:101EC000FFF746FA2046FFF743FA2046FFF740FAAD
:101ED0002046FFF73DFA2046FFF73AFA2046FFF783
:101EE00037FA2046FFF734FA2046FFF731FA20464A
:101EF000FFF72EFA2046FFF72BFA2046FFF728FAC5
:101F00002046FFF725FA2046FFF722FA2046FFF782
:101F10001FFA2046FFF71CFA2046FFF719FA204661
:101F2000FFF716FA2046FFF713FA2046FFF710FADC
:101F30002F602046FFF70CFA2046FFF709FA2046EB
:101F4000FFF706FA2046FFF703FA2046FFF700FAEC
:101F50002046FFF7FDF92046FFF7FAF92046FFF784
:101F6000F7F92046FFF7F4F92046FFF7F1F920468C
:101F7000FFF7EEF92046FFF7EBF92046FFF7E8F907
:101F80002046FFF7E5F92046FFF7E2F92046FFF784
:101F9000DFF92046FFF7DCF92046FFF7D9F92046A4
:101FA000FFF7D6F92046FFF7D3F9EFF3108072B6AA
:101FB000F00301908E4908603007F107AE24002736
:101FC0008D4A03E05F1C6400072B4AD23B46106138
:101FD00065B2002D01D4116100E011600025029569
:101FE000029F172F1BD800BF029F7F1C0297029FE2
:101FF000172F14D800BF029F7F1C0297029F172F34
:102000000DD800BF029F7F1C0297029F172F06D892
:1020100000BF029F7F1C0297029F182FE3D310601E
:102020000295029F172FCDD800BF029F7F1C0297F9
:10203000029F172FC6D800BF029F7F1C0297029FE6
:10204000172FBFD800BF029F7F1C0297029F172F38
:10205000B8D800BF029F7F1C0297029F182FE3D3BE
:10206000B0E7106062B6EFF3108372B6604B019C6C
:102070001C60202403E05D1C6400072B4AD22B4621
:10208000106165B2002D01D4116100E011600027DC
:102090000297029D172D1BD800BF029D6D1C029553
:1020A000029D172D14D800BF029D6D1C0295029D44
:1020B000172D0DD800BF029D6D1C0295029D172D96
:1020C00006D800BF029D6D1C0295029D182DE3D31A
:1020D00010600297029D172DCDD800BF029D6D1C88
:1020E0000295029D172DC6D800BF029D6D1C02955A
:1020F000029D172DBFD800BF029D6D1C0295029D49
:10210000172DB8D800BF029D6D1C0295029D182D99
:10211000E3D3B0E7106062B6EFF3108372B6344BCE
:10212000019C1C60102403E05F1C6400072B4AD252
:102130003B46106165B2002D01D4116100E01160D1
:1021400000250295029F172F1BD800BF029F7F1CFE
:102150000297029F172F14D800BF029F7F1C02977F
:10216000029F172F0DD800BF029F7F1C0297029F6E
:10217000172F06D800BF029F7F1C0297029F182FBF
:10218000E3D310600295029F172FCDD800BF029FA6
:102190007F1C0297029F172FC6D800BF029F7F1C8B
:1021A0000297029F172FBFD800BF029F7F1C029784
:1021B000029F172FB8D800BF029F7F1C0297029F73
:1021C000182FE3D3B0E7106062B6EFF3108372B656
:1021D000074B019C1C60B02403E05D1C6400072BCE
:1021E00050D22B46106165B2002D07D4116106E074
:1021F000A0320A408038010090120A401160002786
:102200000297029D172D1BD800BF029D6D1C0295E1
:10221000029D172D14D800BF029D6D1C0295029DD2
:10222000172D0DD800BF029D6D1C0295029D172D24
:1022300006D800BF029D6D1C0295029D182DE3D3A8
:1022400010600297029D172DC7D800BF029D6D1C1C
:102250000295029D172DC0D800BF029D6D1C0295EE
:10226000029D172DB9D800BF029D6D1C0295029DDD
:10227000172DB2D800BF029D6D1C0295029D182D2E
:10228000E3D3AAE7106062B6EFF3108372B6DA4BBD
:10229000019C1C60C82503E05F1C6D00072B4AD21F
:1022A0003B4610616CB2002C01D4116100E011605A
:1022B00000240294029F172F1BD800BF029F7F1C8F
:1022C0000297029F172F14D800BF029F7F1C02970E
:1022D000029F172F0DD800BF029F7F1C0297029FFD
:1022E000172F06D800BF029F7F1C0297029F182F4E
:1022F000E3D310600294029F172FCDD800BF029F36
:102300007F1C0297029F172FC6D800BF029F7F1C19
:102310000297029F172FBFD800BF029F7F1C029712
:10232000029F172FB8D800BF029F7F1C0297029F01
:10233000182FE3D3B0E7106062B6EFF3108372B6E4
:10234000AD4B019D1D60234604E0BB1C3743072FA6
:1023500000D38AE01F46106111610294029B172B83
:102360001BD800BF029B5B1C0293029B172B14D847
:1023700000BF029B5B1C0293029B172B0DD800BF72
:10238000029B5B1C0293029B172B06D800BF029B8B
:102390005B1C0293029B182BE3D31060002502956F
:1023A000029B172B1BD800BF029B5B1C0293029B56
:1023B000172B14D800BF029B5B1C0293029B172BA8
:1023C0000DD800BF029B5B1C0293029B172B06D803
:1023D00000BF029B5B1C0293029B182BE3D310618E
:1023E00011610295029B172B1BD800BF029B5B1C3F
:1023F0000293029B172B14D800BF029B5B1C029315
:10240000029B172B0DD800BF029B5B1C0293029B03
:10241000172B06D800BF029B5B1C0293029B182B54
:10242000E3D310600295029B172B8ED800BF029B4E
:102430005B1C0293029B172B87D800BF029B5B1C7F
:102440000293029B172B00D97FE700BF029B5B1C06
:102450000293029B172B00D977E700BF029B5B1CFE
:102460000293029B182BE1D36FE7106062B6EFF383
:10247000108372B6604B019C1C60102403E05D1C4D
:102480006400072B4AD22B46106165B2002D01D49F
:10249000116100E0116000270297029D172D1BD8E3
:1024A00000BF029D6D1C0295029D172D14D800BF20
:1024B000029D6D1C0295029D172D0DD800BF029D37
:1024C0006D1C0295029D172D06D800BF029D6D1C44
:1024D0000295029D182DE3D310600297029D172DDF
:1024E000CDD800BF029D6D1C0295029D172DC6D848
:1024F00000BF029D6D1C0295029D172DBFD800BF25
:10250000029D6D1C0295029D172DB8D800BF029D3B
:102510006D1C0295029D182DE3D3B0E7106062B6E2
:10252000EFF3108372B6344B019C1C60402403E02F
:102530005F1C6400072B4AD23B46106165B2002D38
:1025400001D4116100E0116000250295029F172F50
:102550001BD800BF029F7F1C0297029F172F14D821
:1025600000BF029F7F1C0297029F172F0DD800BF4C
:10257000029F7F1C0297029F172F06D800BF029F61
:102580007F1C0297029F182FE3D310600295029FD1
:10259000172FCDD800BF029F7F1C0297029F172FD5
:1025A000C6D800BF029F7F1C0297029F172FBFD87B
:1025B00000BF029F7F1C0297029F172FB8D800BF51
:1025C000029F7F1C0297029F182FE3D3B0E7106091
:1025D00062B6EFF3108372B6074B019C1C60812436
:1025E00003E05D1C6400072B4CD22B46106165B2E2
:1025F000002D03D4116102E0A0320A4011600027CF
:102600000297029D172D1BD800BF029D6D1C0295DD
:10261000029D172D14D800BF029D6D1C0295029DCE
:10262000172D0DD800BF029D6D1C0295029D172D20
:1026300006D800BF029D6D1C0295029D182DE3D3A4
:1026400010600297029D172DCBD800BF029D6D1C14
:102650000295029D172DC4D800BF029D6D1C0295E6
:10266000029D172DBDD800BF029D6D1C0295029DD5
:10267000172DB6D800BF029D6D1C0295029D182D26
:10268000E3D3AEE7106062B6EFF3108372B6E64BA9
:10269000019C1C607F2403E05F1C6400072B4AD26E
:1026A0003B46106165B2002D01D4116100E011605C
:1026B00000250295029F172F1BD800BF029F7F1C89
:1026C0000297029F172F14D800BF029F7F1C02970A
:1026D000029F172F0DD800BF029F7F1C0297029FF9
:1026E000172F06D800BF029F7F1C0297029F182F4A
:1026F000E3D310600295029F172FCDD800BF029F31
:102700007F1C0297029F172FC6D800BF029F7F1C15
:102710000297029F172FBFD800BF029F7F1C02970E
:10272000029F172FB8D800BF029F7F1C0297029FFD
:10273000182FE3D3B0E7106062B6EFF3108372B6E0
:10274000B94B019C1C60A12403E05D1C6400072BB5
:102750004AD22B46106165B2002D01D4116100E010
:10276000116000270297029D172D1BD800BF029D04
:102770006D1C0295029D172D14D800BF029D6D1C83
:102780000295029D172D0DD800BF029D6D1C02956C
:10279000029D172D06D800BF029D6D1C0295029D5B
:1027A000182DE3D310600297029D172DCDD800BFDE
:1027B000029D6D1C0295029D172DC6D800BF029D7B
:1027C0006D1C0295029D172DBFD800BF029D6D1C88
:1027D0000295029D172DB8D800BF029D6D1C029571
:1027E000029D182DE3D3B0E7106062B6EFF31083BB
:1027F00072B68D4B019C1C60A62403E05F1C640034
:10280000072B4AD23B46106165B2002D01D41161FD
:1028100000E0116000250295029F172F1BD800BF12
:10282000029F7F1C0297029F172F14D800BF029FA0
:102830007F1C0297029F172F0DD800BF029F7F1C9D
:102840000297029F172F06D800BF029F7F1C029796
:10285000029F182FE3D310600295029F172FCDD847
:1028600000BF029F7F1C0297029F172FC6D800BF90
:10287000029F7F1C0297029F172FBFD800BF029FA5
:102880007F1C0297029F172FB8D800BF029F7F1CA2
:102890000297029F182FE3D3B0E7106062B6EFF300
:1028A000108372B6604B019C1C60A82403E05D1C81
:1028B0006400072B4AD22B46106165B2002D01D46B
:1028C000116100E0116000270297029D172D1BD8AF
:1028D00000BF029D6D1C0295029D172D14D800BFEC
:1028E000029D6D1C0295029D172D0DD800BF029D03
:1028F0006D1C0295029D172D06D800BF029D6D1C10
:102900000295029D182DE3D310600297029D172DAA
:10291000CDD800BF029D6D1C0295029D172DC6D813
:1029200000BF029D6D1C0295029D172DBFD800BFF0
:10293000029D6D1C0295029D172DB8D800BF029D07
:102940006D1C0295029D182DE3D3B0E7106062B6AE
:10295000EFF3108372B6344B019C1C603F2403E0FC
:102960005F1C6400072B4AD23B46106165B2002D04
:1029700001D4116100E0116000250295029F172F1C
:102980001BD800BF029F7F1C0297029F172F14D8ED
:1029900000BF029F7F1C0297029F172F0DD800BF18
:1029A000029F7F1C0297029F172F06D800BF029F2D
:1029B0007F1C0297029F182FE3D310600295029F9D
:1029C000172FCDD800BF029F7F1C0297029F172FA1
:1029D000C6D800BF029F7F1C0297029F172FBFD847
:1029E00000BF029F7F1C0297029F172FB8D800BF1D
:1029F000029F7F1C0297029F182FE3D3B0E710605D
:102A000062B6EFF3108372B6074B019C1C60A424DE
:102A100003E05D1C6400072B4CD22B46106165B2AD
:102A2000002D03D4116102E0A0320A40116000279A
:102A30000297029D172D1BD800BF029D6D1C0295A9
:102A4000029D172D14D800BF029D6D1C0295029D9A
:102A5000172D0DD800BF029D6D1C0295029D172DEC
:102A600006D800BF029D6D1C0295029D182DE3D370
:102A700010600297029D172DCBD800BF029D6D1CE0
:102A80000295029D172DC4D800BF029D6D1C0295B2
:102A9000029D172DBDD800BF029D6D1C0295029DA1
:102AA000172DB6D800BF029D6D1C0295029D182DF2
:102AB000E3D3AEE7106062B6EFF3108372B6DA4B81
:102AC000019C1C60D32503E05F1C6D00072B4AD2DC
:102AD0003B4610616CB2002C01D4116100E0116022
:102AE00000240294029F172F1BD800BF029F7F1C57
:102AF0000297029F172F14D800BF029F7F1C0297D6
:102B0000029F172F0DD800BF029F7F1C0297029FC4
:102B1000172F06D800BF029F7F1C0297029F182F15
:102B2000E3D310600294029F172FCDD800BF029FFD
:102B30007F1C0297029F172FC6D800BF029F7F1CE1
:102B40000297029F172FBFD800BF029F7F1C0297DA
:102B5000029F172FB8D800BF029F7F1C0297029FC9
:102B6000182FE3D3B0E7106062B6EFF3108372B6AC
:102B7000AD4B019D1D60234604E0BB1C3743072F6E
:102B800000D38AE01F46106111610294029B172B4B
:102B90001BD800BF029B5B1C0293029B172B14D80F
:102BA00000BF029B5B1C0293029B172B0DD800BF3A
:102BB000029B5B1C0293029B172B06D800BF029B53
:102BC0005B1C0293029B182BE3D310600025029537
:102BD000029B172B1BD800BF029B5B1C0293029B1E
:102BE000172B14D800BF029B5B1C0293029B172B70
:102BF0000DD800BF029B5B1C0293029B172B06D8CB
:102C000000BF029B5B1C0293029B182BE3D3106155
:102C100011610295029B172B1BD800BF029B5B1C06
:102C20000293029B172B14D800BF029B5B1C0293DC
:102C3000029B172B0DD800BF029B5B1C0293029BCB
:102C4000172B06D800BF029B5B1C0293029B182B1C
:102C5000E3D310600295029B172B8ED800BF029B16
:102C60005B1C0293029B172B87D800BF029B5B1C47
:102C70000293029B172B00D97FE700BF029B5B1CCE
:102C80000293029B172B00D977E700BF029B5B1CC6
:102C90000293029B182BE1D36FE7106062B6EFF34B
:102CA000108372B6604B019C1C60D52403E05D1C50
:102CB0006400072B4AD22B46106165B2002D01D467
:102CC000116100E0116000270297029D172D1BD8AB
:102CD00000BF029D6D1C0295029D172D14D800BFE8
:102CE000029D6D1C0295029D172D0DD800BF029DFF
:102CF0006D1C0295029D172D06D800BF029D6D1C0C
:102D00000295029D182DE3D310600297029D172DA6
:102D1000CDD800BF029D6D1C0295029D172DC6D80F
:102D200000BF029D6D1C0295029D172DBFD800BFEC
:102D3000029D6D1C0295029D172DB8D800BF029D03
:102D40006D1C0295029D182DE3D3B0E7106062B6AA
:102D5000EFF3108372B6344B019C1C603D4603E0D8
:102D6000671C072C354649D23C461061EB0701D061
:102D7000116100E0116000230293029D172D1BD802
:102D800000BF029D6D1C0295029D172D14D800BF37
:102D9000029D6D1C0295029D172D0DD800BF029D4E
:102DA0006D1C0295029D172D06D800BF029D6D1C5B
:102DB0000295029D182DE3D310600293029D172DFA
:102DC000CED800BF029D6D1C0295029D172DC7D85D
:102DD00000BF029D6D1C0295029D172DC0D800BF3B
:102DE000029D6D1C0295029D172DB9D800BF029D52
:102DF0006D1C0295029D182DE3D3B1E7106062B6F9
:102E0000EFF3108472B6084C019D2560D92403E0CD
:102E1000731C6400072E4DD21E46106163B2002B56
:102E200004D4116103E0C046A0320A4011600025BD
:102E30000295029B172B1BD800BF029B5B1C0293C1
:102E4000029B172B14D800BF029B5B1C0293029BB2
:102E5000172B0DD800BF029B5B1C0293029B172B04
:102E600006D800BF029B5B1C0293029B182BE3D386
:102E700010600295029B172BCAD800BF029B5B1CF7
:102E80000293029B172BC3D800BF029B5B1C0293CB
:102E9000029B172BBCD800BF029B5B1C0293029BBA
:102EA000172BB5D800BF029B5B1C0293029B182B0B
:102EB000E3D3ADE7106062B6EFF3108372B6E64B72
:102EC000019C1C60222403E05D1C6400072B4AD295
:102ED0002B46106165B2002D01D4116100E0116034
:102EE00000260296029D172D1BD800BF029D6D1C67
:102EF0000295029D172D14D800BF029D6D1C0295EE
:102F0000029D172D0DD800BF029D6D1C0295029DDC
:102F1000172D06D800BF029D6D1C0295029D182D2D
:102F2000E3D310600296029D172DCDD800BF029DFD
:102F30006D1C0295029D172DC6D800BF029D6D1C09
:102F40000295029D172DBFD800BF029D6D1C0295F2
:102F5000029D172DB8D800BF029D6D1C0295029DE1
:102F6000182DE3D3B0E7106062B6EFF3108372B6AA
:102F7000B94B019C1C60DA2403E05E1C6400072B43
:102F80004AD23346106165B2002D01D4116100E0D0
:102F9000116000250295029E172E1BD800BF029ECD
:102FA000761C0296029E172E14D800BF029E761C35
:102FB0000296029E172E0DD800BF029E761C029626
:102FC000029E172E06D800BF029E761C0296029E15
:102FD000182EE3D310600295029E172ECDD800BFA5
:102FE000029E761C0296029E172EC6D800BF029E35
:102FF000761C0296029E172EBFD800BF029E761C3A
:103000000296029E172EB8D800BF029E761C02962A
:10301000029E182EE3D3B0E7106062B6EFF3108380
:1030200072B68D4B019C1C60122403E05D1C640091
:10303000072B4AD22B46106165B2002D01D41161D5
:1030400000E0116000260296029D172D1BD800BFDC
:10305000029D6D1C0295029D172D14D800BF029D84
:103060006D1C0295029D172D0DD800BF029D6D1C91
:103070000295029D172D06D800BF029D6D1C02957A
:10308000029D182DE3D310600296029D172DCDD816
:1030900000BF029D6D1C0295029D172DC6D800BF72
:1030A000029D6D1C0295029D172DBFD800BF029D89
:1030B0006D1C0295029D172DB8D800BF029D6D1C96
:1030C0000295029D182DE3D3B0E7106062B6EFF3CE
:1030D000108372B6DE4B019C1C60DB2403E05E1C97
:1030E0006400072B4AD23346106165B2002D01D42B
:1030F000116100E0116000250295029E172E1BD879
:1031000000BF029E761C0296029E172E14D800BFA6
:10311000029E761C0296029E172E0DD800BF029EBC
:10312000761C0296029E172E06D800BF029E761CC1
:103130000296029E182EE3D310600295029E172E6F
:10314000CDD800BF029E761C0296029E172EC6D8CE
:1031500000BF029E761C0296029E172EBFD800BFAB
:10316000029E761C0296029E172EB8D800BF029EC1
:10317000761C0296029E182EE3D3B0E7106062B66A
:10318000EFF3108372B6B24B019C1C60202403E065
:103190005D1C6400072B4AD22B46106165B2002DDE
:1031A00001D4116100E0116000260296029D172DE6
:1031B0001BD800BF029D6D1C0295029D172D14D8CF
:1031C00000BF029D6D1C0295029D172D0DD800BFFA
:1031D000029D6D1C0295029D172D06D800BF029D11
:1031E0006D1C0295029D182DE3D310600296029D7E
:1031F000172DCDD800BF029D6D1C0295029D172D85
:10320000C6D800BF029D6D1C0295029D172DBFD828
:1032100000BF029D6D1C0295029D172DB8D800BFFE
:10322000029D6D1C0295029D182DE3D3B0E710603E
:1032300062B6EFF3108372B6854B019C1C608D243F
:1032400003E05E1C6400072B4CD23346106165B26C
:10325000002D03D4116102E0A0320A401160002564
:103260000295029E172E1BD800BF029E761C029666
:10327000029E172E14D800BF029E761C0296029E54
:10328000172E0DD800BF029E761C0296029E172EA6
:1032900006D800BF029E761C0296029E182EE3D32B
:1032A00010600295029E172ECBD800BF029E761C9E
:1032B0000296029E172EC4D800BF029E761C02966C
:1032C000029E172EBDD800BF029E761C0296029E5B
:1032D000172EB6D800BF029E761C0296029E182EAC
:1032E000E3D3AEE7106062B6EFF3108372B6584BCB
:1032F000019C1C60142403E05D1C6400072B4AD26F
:103300002B46106165B2002D01D4116100E01160FF
:1033100000260296029D172D1BD800BF029D6D1C32
:103320000295029D172D14D800BF029D6D1C0295B9
:10333000029D172D0DD800BF029D6D1C0295029DA8
:10334000172D06D800BF029D6D1C0295029D182DF9
:10335000E3D310600296029D172DCDD800BF029DC9
:103360006D1C0295029D172DC6D800BF029D6D1CD5
:103370000295029D172DBFD800BF029D6D1C0295BE
:10338000029D172DB8D800BF029D6D1C0295029DAD
:10339000182DE3D3B0E7106062B6EFF3108372B676
:1033A0002B4B019C1C60AF2303E0661C5B00072CC9
:1033B0004AD2344610615DB2002D01D4116100E0A3
:1033C000116000250295029E172E1BD800BF029E99
:1033D000761C0296029E172E14D800BF029E761C01
:1033E0000296029E172E0DD800BF029E761C0296F2
:1033F000029E172E06D800BF029E761C0296029EE1
:10340000182EE3D310600295029D172DCDD800BF72
:10341000029D6D1C0295029D172DC6D800BF029D0E
:103420006D1C0295029D172DBFD800BF029D6D1C1B
:103430000295029D172DB8D800BF029D6D1C029504
:10344000029D182DE3D3B0E7106062B603B0F0BD63
:10345000A0320A40F0B585B01346303BDBB2092BF1
:1034600003D805225A43A44B08E01346413BDBB284
:10347000192B00D900E105225A439E4B9A1802925B
:103480000CE1196062B6401C052858D0029C255CEE
:10349000EFF3108472B6039C994E3460019E03E0F2
:1034A0007E1C6D00072FECD2374619616CB2002CE0
:1034B00001D41A6100E01A6000240494049E172EBF
:1034C0001BD800BF049E761C0496049E172E14D8A9
:1034D00000BF049E761C0496049E172E0DD800BFD4
:1034E000049E761C0496049E172E06D800BF049EE8
:1034F000761C0496049E182EE3D319600494049E4F
:10350000172ECDD800BF049E761C0496049E172E5D
:10351000C6D800BF049E761C0496049E172EBFD802
:1035200000BF049E761C0496049E172EB8D800BFD8
:10353000049E761C0496049E182EE3D3B0E7EFF3A6
:10354000108072B603986E4D28602046009F04E0FC
:10355000A81C3D43072D00D38AE0054619611A6176
:103560000494049817281BD800BF0498401C0490AA
:103570000498172814D800BF0498401C049004989D
:1035800017280DD800BF0498401C049004981728F1
:1035900006D800BF0498401C049004981828E3D370
:1035A000196000200490049E172E1BD800BF049EB3
:1035B000761C0496049E172E14D800BF049E761C19
:1035C0000496049E172E0DD800BF049E761C049608
:1035D000049E172E06D800BF049E761C0496049EF7
:1035E000182EE3D319611A610490049E172E1BD87C
:1035F00000BF049E761C0496049E172E14D800BFAC
:10360000049E761C0496049E172E0DD800BF049EBF
:10361000761C0496049E172E06D800BF049E761CC6
:103620000496049E182EE3D319600490049817287A
:103630008ED800BF0498401C04900498172887D89F
:1036400000BF0498401C04900498172800D97FE715
:1036500000BF0498401C04900498172800D977E70D
:1036600000BF0498401C049004981828E1D36FE729
:10367000196062B605B0F0BD2B3A0F2A1CD812A310
:103680000293C0467A4412795200974413151719D1
:103690001B151515151515151515150700F0BCFE8C
:1036A0000120C103039101070090C2070020134BC2
:1036B0000190EBE606A2E2E60D4AE0E606A2DEE6AF
:1036C00009A2DCE606A2DAE60036360000000000B9
:1036D00008083E0808000000080808080800000064
:1036E00020100804020000000060600000000000DC
:1036F000704E0000A74E0000754E000090120A4068
:1037000090320A40F0B591B00493002A02910390E0
:1037100001D42B2000E02D200EAD2870D0174240A0
:10372000171A0A263846314601F0FEF84643B91BFF
:1037300030242143697001230A2F03D21E46029DC3
:10374000049963E00D930A21FCF726FD21430EA89E
:103750008170642F54D36421384601F0E5F80A21C2
:10376000FCF71AFD21430EA8C170F8087D2849D343
:103770007D20C100384601F0D7F80A21FCF70CFD86
:1037800021430EA801710023B748874200D225E1EA
:103790000D93B549384601F0C7F80A21FCF7FCFC47
:1037A00021430EA84171B148874200D255E1AF498B
:1037B000384601F0B9F80A21FCF7EEFC21430EA8C7
:1037C0008171AB48874200D249E1A949384601F0EE
:1037D000ABF80A21FCF7E0FC21430EA8C171A54813
:1037E0008742029D00D23CE1A249384601F09CF894
:1037F0000A21FCF7D1FC21430EA80172082603E040
:10380000022600E00326029D04990D9B0A2F039FC8
:1038100027D30EA8815D4278417082557008012837
:1038200000D80120002B04991BD10EA97218521E3A
:1038300013788C788B7004991470022811D00EA91B
:103840007218921E1378CC78CB70049914700328E8
:1038500007D00EA83118C91E0A780F9B02710B7091
:1038600004998E4212D28B1B01241A462240701EEC
:103870000B90F043C84201920AD1002430460199CE
:10388000002900D091E0029D039FCAE03146C9E0C3
:103890000694A3430EA8401C059000243046214600
:1038A00007930CE00EA9089A4A700A99891C0C9C8F
:1038B000A41C0D9EB61C801C079B9942DFD00A9168
:1038C0000321054609910D403746014617D00EA940
:1038D0008F19895D7970771E012D01D1411E0EE08F
:1038E0000EA9CF5D8F55B71E022D01D1811E06E0B6
:1038F0000EA9CD5D7118491E0D70F71EC11E0D96E3
:103900000B9A0C941519EDB2032D10D3059AD51905
:103910006F1E3A782A70AA1E1478EE1E3378137040
:103920003C702D1F2A783270091F0A06F0D10EA9AB
:1039300020224A70411C099E0E400D9B5D1C002EEA
:10394000089210D00EA95A18495D9170012E1F4699
:1039500001460C9C0FD00EA9CA5C4A555F1E022E70
:1039600004D1411E07E02F460C9C04E00EA9CA5D5D
:10397000CA549F1E811E2246069B1A430B9B9A180F
:10398000D2B2032A8ED3059AD3195A1E14781C700A
:103990009C1E2578DE1E3778277015701B1F1A783D
:1039A0003270091F0A06F0D17CE7032303400B990C
:1039B0000919002B08D00EAA9419925D6270721E2C
:1039C000012B03D1401E12E0324610E00EACA25C87
:1039D000A255B21E022B03D1801E08E00426AEE6DB
:1039E0000EAB9A5CF3185B1E1A70F21EC01E039F8A
:1039F000C9B2032911D30EA95118491C4A1E1378C4
:103A00000B708B1E1C78CD1E2E781E701470091F33
:103A10000A782A70001F0206F0D10EA820214170FA
:103A2000029D04990EA8091800224A70142F12D87A
:103A3000007800280FD00EA94C1CFEB2C2B230464E
:103A40002946FFF707FD132E05D8611C7F1C20783F
:103A500000280C46F1D111B0F0BD0526D3E60626AC
:103A6000D1E60726D0E6C04610270000A086010058
:103A700040420F0080969800F0B581B0054610785E
:103A8000002810D0142D0ED80C46571CEEB2C2B22E
:103A900030462146FFF7DEFC3878002803D07F1C33
:103AA0006D1C142EF2D301B0F0BD0000F0B593B040
:103AB0000593154603910746002A01D4002404E02B
:103AC0000FA82D2101706D4201240A262846314697
:103AD00000F02AFF019002963146FCF75DFB0FA82B
:103AE00000193026314301700120642D0D94069594
:103AF00004960E9002D22246054644E064212846F0
:103B000000F012FF0A21FCF747FB0D9A0FA81018CE
:103B100031434170E8087D2830D37D20C10028461C
:103B200000F002FF0A21FCF737FB0D9A0FA880185E
:103B300031438170B048854222D3AF49284600F016
:103B4000F3FE0A21FCF728FB049B0D9A0FA810181E
:103B50001943C17000200E90A848854212D3A7498E
:103B600028461C4600F0E0FE0A21FCF715FB0D9AE2
:103B70000FA8801821430171052504E0022502E009
:103B8000032500E004250698642818D30FA90D9892
:103B90000A1813780D9840194118491E0C781470B2
:103BA0000D9A0B700E99002909D10FA90D9A521880
:103BB00053784018801E017851700D9A0370059952
:103BC0008D4200D3ECE04C1B012620463040009093
:103BD0006B1EE843C84208D100200E902846009989
:103BE000002900D098E0059DDAE00996B4430FA8BB
:103BF0001018001F0890002128460E910E460797C6
:103C00000C930A940EE00FA90D9A89180B700B9E65
:103C1000B61C0E99891C0E91AD1C801C0A9CA642F4
:103C20000C9BDCD00B960326044634402A46014602
:103C30001FD00D9B59190FAA57187F1E3F78575454
:103C40006A1E012C01D1411E12E099180FAA5718C3
:103C50007F1E3F785754AA1E022C01D1811E07E017
:103C600099180FAA5418641E24785454EA1EC11ED1
:103C70000C9B0E9C1C19E4B2032C0DD3089CA218BB
:103C8000D4781471947857789770D47014785470ED
:103C9000121F091F0C06F3D10FA90D9A89182023B2
:103CA0000B70411C0E406C1C002E13D011195219C0
:103CB0000FACA75C6754012E2C460146079F14D019
:103CC0000FA98C18641E24788C546C1E022E03D10C
:103CD000411E0AE0079F08E00D9909190FAA541820
:103CE000641E24785454AC1E811E0E9A099E3243E1
:103CF0000C9EB218D2B2032A85D3089A1419E2781E
:103D00002271A2786678A670E27022786270241F11
:103D1000091F0A06F3D176E7032404400E995918C7
:103D2000002C0CD00E91114652190FAB9E18761E26
:103D300036789E546A1E012C04D1401E15E02A4696
:103D4000059D14E08A180FAB9E18761E36789E5497
:103D5000AA1E022C01D1801E07E08A180FAB9C1806
:103D6000641E24789C54EA1EC01E059D0E99C9B29B
:103D7000032910D30D9951180FAA8918091FCA7861
:103D80000A718A784B788B70CA700A784A70091F5A
:103D9000001F0206F3D10FA80D9A80182021017090
:103DA000A918CAB20FA82E238354029B019A534329
:103DB000069AD21A049B1A434B1CDBB2C254891CCC
:103DC000C9B200224254142F039D12D80078002853
:103DD0000FD00FA94C1CFEB2C2B230462946FFF7E5
:103DE00039FB132E05D8611C7F1C207800280C4657
:103DF000F1D113B0F0BDC04610270000A08601002D
:103E000080B507480749FDF783FA0748002101609C
:103E1000064807494161016801220A43026080BDEA
:103E2000002000402C4F0000803100400031004055
:103E30007102000010B51B4C1B492046FDF77CFCAD
:103E40001A492046FDF754FC0320C10318480268B4
:103E50008A4302600169EC4A0A40412189005118F5
:103E6000016141691B220A4324218A43426142685D
:103E700001210A4043688B439A1842604A04036850
:103E800013430360C2682023134350229343C3604B
:103E9000C2680223134305229343C36002680A43A6
:103EA000026010BD00001040344F0000364F00008B
:103EB00000111040B0B5304988228A632F4804238E
:103EC0000360CA63082202602D4A931C0B604B609A
:103ED00001235B060C681C430C604C681C434C605F
:103EE00082240C65551C4D658C65CD65254B9C6207
:103EF000DD62254CDC61254D0D6681244C664A63EC
:103F0000DC609C605C619C619D659D66DD63DD6439
:103F10008C67CC678C604C619A635A65DA66CA64B8
:103F20005A601A600C674C670C641949194A0A6098
:103F30000A6305218904184A13680B43136003219F
:103F40004906164A136A0B43136213680B43136046
:103F500001463039124A0A60026012480168124A6A
:103F60000A4302601120000510490A6A02430A62EE
:103F70000A6802430A60B0BD04804240D0320A4061
:103F80008100040084804240810005008100060019
:103F9000A0120A4000600390A0130A4028100A40B3
:103FA00010F20000A0330A400001010028300A404E
:103FB00080B511481149FDF7D0F90320410210489E
:103FC00002680A43026001210A0203681343036086
:103FD0000022426127224262826B07239A43826356
:103FE0001A02836B93438363826A042313438362BD
:103FF000826A0A43826280BD00000F40404F000089
:1040000000120F4010B51A4C1A492046FDF794FBD8
:1040100019492046FDF76CFB0320C10317480268CD
:104020008A4302600169784A0A4015320261416997
:104030002D220A4312218A434261426801210A402B
:1040400043688B439A1842604A0403681343036031
:10405000C2682023134350229343C360C2680223E3
:10406000134305229343C36002680A43026010BDF4
:1040700000201040424F0000444F0000003110402B
:1040800070B582B0194C1A492046FDF723FB194937
:104090002046FDF7EBF900250095204629462A46E3
:1040A0002B46FDF703FB204629462A46FDF7F0FA8A
:1040B000204629462A46FDF705FB012600962046A4
:1040C00029462A462B46FDF7F1FA20462946324674
:1040D000FDF7DEFA204629463246FDF7F3FA064898
:1040E00086600321016002B070BDC046002086409A
:1040F0004E4F0000544F00000031864070B5184804
:10410000002404600F200002164D29688143012617
:104110007002081828600320C043291F0A68024063
:104120000A606868B043686030026968814369600A
:104130000D48FDF725F9286810210143202081430F
:10414000296030032968014329602046FDF77AF988
:10415000FF20000205490A6882430A6070BDC0461C
:1041600008030B4004010B405C4F000000E400E03A
:104170007047000010B5084C08492046FDF7AAFA20
:1041800007492046FDF70CFA064801680122114351
:1041900001600548026010BD00400840844F0000E7
:1041A000884F0000285008400851084010B5124CB4
:1041B00012492046FDF7C0FA11492046FDF798FA4A
:1041C0000320C1030F4802688A43026001690E4A56
:1041D0000A401532026141692D220A4312218A43A5
:1041E000426141680122114043689343591841607C
:1041F00001681143016010BD008010409C4F000019
:104200009E4F0000009110400000FFFF80B500F0BD
:104210001BF8FFF74FFEFFF771FFFFF731FFFFF7C6
:10422000A9FFFFF7C5FEFFF7C1FFFFF703FEFFF78A
:10423000E9FEFFF7E5FDFFF79BFFB82001490022EB
:104240000A5480BD60002020F0B581B01248134AA6
:1042500042601348426013484260134C6260134D41
:104260006A60134E7260134F7A6013494A601348B4
:104270004260134A084B1A60094B1A60094B1A60D6
:1042800022602A6032603A600A6002601020FDF706
:104290005FF801B0F0BDC04600080A40030000B15D
:1042A00000280A40002886400048084000080F40C7
:1042B00000881040000810400028104000280040EE
:1042C000010000262048102101607047E3481021BA
:1042D00001607047064800210160194801601948D3
:1042E00001601B4801601848102101607047C046FA
:1042F000A001202080B501461148016001290EDB94
:1043000001204003104A1060104800F00DFB0D49D9
:1043100008600868002808D10120086005E000292D
:1043200007D40848002101600068094800210160A5
:1043300080BD01204003044A10614942E4E7C046C1
:10434000E0012020D401202090320A4010270000F4
:10435000E401202080B504480068C0B2012801D1E2
:10436000FCF7FAFC80BDC04620500840FFF74EFF26
:1043700025480168012421430160FDF76BFBFDF72F
:1043800001FAFDF737FCFCF75BFCFFF7A3FFFCF736
:1043900065FBFCF765FAFCF7F7FAFDF75BFAFCF74B
:1043A000B5F9FCF783FBFDF75FFDFDF79BFC00F023
:1043B00059F9164902220A60154802600A60026033
:1043C00022040A600260A102124A13680B431360C0
:1043D000A103016000252E4600E030BFFCF72CFC55
:1043E0000A244443601B0A2803D32046FCF7E0FA62
:1043F00025462046FCF764FBA01B80084B28ECD325
:1044000000F030F92646E8E70438864080E200E014
:1044100000E100E028301040F0B582B0EFF31082E8
:1044200072B60122D3038D4C00932360072900D379
:1044300007214F23DF430F431107D2070024884B86
:1044400003E06C1C7F00072D4AD2254619617CB21F
:10445000002C01D41A6100E01A6000260196019C2C
:10446000172C1BD800BF019C641C0194019C172CC5
:1044700014D800BF019C641C0194019C172C0DD81A
:1044800000BF019C641C0194019C172C06D800BF3E
:10449000019C641C0194019C182CE3D319600196C3
:1044A000019C172CCDD800BF019C641C0194019C79
:1044B000172CC6D800BF019C641C0194019C172CCA
:1044C000BFD800BF019C641C0194019C172CB8D874
:1044D00000BF019C641C0194019C182CE3D3B0E73D
:1044E000196062B6EFF3108472B6009C5B4D2C60CD
:1044F000142800D31420062747430E253D4003E02F
:10450000661C6D00072C4AD23446196168B2002837
:1045100001D41A6100E01A6000200190019E172E5C
:104520001BD800BF019E761C0196019E172E14D841
:1045300000BF019E761C0196019E172E0DD800BF6C
:10454000019E761C0196019E172E06D800BF019E83
:10455000761C0196019E182EE3D319600190019EEE
:10456000172ECDD800BF019E761C0196019E172EF6
:10457000C6D800BF019E761C0196019E172EBFD89B
:1045800000BF019E761C0196019E172EB8D800BF71
:10459000019E761C0196019E182EE3D3B0E71960A8
:1045A00062B6EFF3108472B6009C2C4D2C60FCB206
:1045B0002409103403E0681C6400072D4AD2054624
:1045C000196160B2002801D41A6100E01A6000206D
:1045D0000190019E172E1BD800BF019E761C0196EC
:1045E000019E172E14D800BF019E761C0196019ED5
:1045F000172E0DD800BF019E761C0196019E172E26
:1046000006D800BF019E761C0196019E182EE3D3AA
:104610001960019001981728CDD800BF0198401C5F
:10462000019001981728C6D800BF0198401C01903E
:1046300001981728BFD800BF0198401C019001982D
:104640001728B8D800BF0198401C0190019818287D
:10465000E3D3B0E7196062B602B0F0BDA0320A4001
:1046600090120A40F0B587B0FCF718FA0446FCF740
:1046700019FA0546FCF70EFA019000208DA20146BA
:10468000FFF7FAF9042C07D860B280008DA10A5810
:1046900000200221FFF7F0F9022D049504D868B23A
:1046A00080008FA10A5800E08BA20026032130462B
:1046B000FFF7E2F904248DA230462146FFF7DCF92A
:1046C000FCF7A2FA8A4900F0F3FA8A4900F0F0FAFE
:1046D0008949FBF761FE0546314600F020FA3F218B
:1046E0000A06BF210906059100280692114600D14D
:1046F0000599284600F042FAFBF7FEFE0246022525
:10470000284621462B46FFF7D1F908207B4A039023
:104710002146FFF7B1F9FCF77BFA754900F0C8FABA
:10472000744900F0C5FA7449FBF736FE0746314676
:1047300000F0F5F90028069900D10599384600F0F7
:104740001DFAFBF7D9FE02460A20029021462B46AD
:10475000FFF7ACF905246AA230462146FFF78CF931
:10476000FCF762FA624900F0A3FA624900F0A0FA8D
:104770006149FBF711FE0746314600F0D0F90028E9
:10478000069900D10599384600F0F8F9FBF7B4FE18
:104790000246284621462B46FFF788F90398214612
:1047A000564AFFF769F9FCF743FA514900F080FADD
:1047B000504900F07DFA5049FBF7EEFD07463146BF
:1047C00000F0ADF9002801D1059806903846069909
:1047D00000F0D4F9FBF790FE0246029821462B46E2
:1047E000FFF764F90498401EC0B2012813D80020D6
:1047F0000624424A2146FFF73FF96421019800F060
:1048000093F80246022003232146FFF74FF90820C0
:1048100041A2214602E0002006213AA2FFF72CF92E
:10482000FDF728F90546002007243DA22146FFF7A1
:1048300023F930263127A806324600D53A46032010
:104840002146FEF707FEE806324600D53A46042028
:104850002146FEF7FFFD2807324600D53A460520DF
:104860002146FEF7F7FD6807324600D53A46062096
:104870002146FEF7EFFDA807324600D53A4620460E
:104880002146FEF7E7FDE80700D03E460820214616
:104890003246FEF7DFFD0A2022A22146FFF7ECF8A0
:1048A000FCF7BAF902460C2002232146FEF72AFF44
:1048B00007B0F0BD482042414C414E4345204341A2
:1048C00052000000CA4F0000E44F0000BD4F00003E
:1048D000F14F0000D74F00003F3F3F202020000055
:1048E000AF4F0000A84F0000B64F00004C3A000048
:1048F00042E0A5410000204100007042FE4F000050
:10490000523A000031434C4B3A52554E2032434C00
:104910004B3A535700000000532020202020200055
:1049200049523A00453A000043088B421AD300220C
:1049300003098B4279D3030A8B425ED3030B8B426C
:1049400042D3030C8B4227D30902FF2212BA030C75
:104950008B4202D31212090203D0030B8B4233D3D2
:104960001AE0D3E0411A8041401C704703460B43D4
:1049700071D443088B42F5D3002203098B4254D3F0
:10498000030A8B4239D3030B8B421DD3030C8B429A
:1049900002D394466EE0090AC30B8B4201D3CB03CA
:1049A000C01A5241830B8B4201D38B03C01A524170
:1049B000430B8B4201D34B03C01A5241030B8B4272
:1049C00001D30B03C01A5241C30A8B4201D3CB025D
:1049D000C01A5241830A8B4201D38B02C01A524142
:1049E000430A8B4201D34B02C01A5241030A8B4245
:1049F00001D30B02C01A5241CDD2C3098B4201D35D
:104A0000CB01C01A524183098B4201D38B01C01ADA
:104A1000524143098B4201D34B01C01A5241030951
:104A20008B4201D30B01C01A5241C3088B4201D300
:104A3000CB00C01A524183088B4201D38B00C01AAD
:104A4000524143088B4201D34B00C01A5241411AD4
:104A5000524110007047CA0F00D04942031000D3E2
:104A60004042534000229C4603098B422DD3030A47
:104A70008B4212D38901FC2212BA030A8B420CD357
:104A8000890192118B4208D3890192118B4204D380
:104A9000890137D0921100E08909C3098B4201D303
:104AA000CB01C01A524183098B4201D38B01C01A3A
:104AB000524143098B4201D34B01C01A52410309B1
:104AC0008B4201D30B01C01A5241C3088B4201D360
:104AD000CB00C01A524183088B4201D38B00C01A0D
:104AE0005241D9D243088B4201D34B00C01A5241E4
:104AF000411A00D201465241104663465B1000D372
:104B00004042704763465B1000D3404201B500212C
:104B1000004201D0C9430846C046C04602BD10B598
:104B200000F072F8EFF30080800001D5012010BD85
:104B3000002010BD10B500F067F8EFF300804000D2
:104B4000800F012800D0002010BD10B500F086F8BD
:104B5000EFF300804000800F012801D0012010BD3C
:104B6000002010BD10B500F079F8EFF30080800050
:104B700001D4012010BD002010BD000070B501253A
:104B8000ED0704004C4020D4441A01D2001B09193F
:104B9000C60D4B00F2B2FF2A29D01B0E2CD000020A
:104BA0000C0228432C43D31ADC40051910D2280AE2
:104BB00002D3401C6D0611D0761EF6058019FF2A1F
:104BC00000DA70BDC00DC00570BD694000F0CEF8C0
:104BD00001200543C541521C761CE8E764089C404F
:104BE000C90161408900E7D10124A043E4E71B0E1D
:104BF000440200D0034870BD002AFCD1C00FC0079A
:104C000070BD00BF0000C07F0123DB0502000A4326
:104C10000DD4DA4203D49A4207D488427047D8426E
:104C200014D4D94212D48842704780427047DA4285
:104C300003D59A42F9D5814270475B004200DA42BF
:104C400004D24A00DA4201D28142704710B5024ACA
:104C5000FBF7A8FC10BD00BF090013040123DB050E
:104C600002000A430DD4DA4203D49A4207D48842A0
:104C70007047D84214D4D94212D488427047804237
:104C80007047DA4203D59A42F9D5814270475B00FA
:104C90004200DA4204D24A00DA4201D2814270472D
:104CA00010B5024AFBF77EFC10BD00BF09001604D8
:104CB00070B5420064414B005C41120E39D01B0EAE
:104CC00038D0FF2A3CD0FF2B3AD0D2187F3A40028E
:104CD0004902400A490A4518ED0106004E43000A00
:104CE000090A48430104731A4019190C4318990F13
:104CF00004D05B08012149075B1A521CD80904D370
:104D0000401CF50301D19D0607D0FF2A08D2D50526
:104D100006D0E4072043401970BD0125A843F4E7FD
:104D2000002A01DCE00770BD2402FF202043C005FB
:104D300070BD1B0EFF2A03D0FF2B01D0E00770BD12
:104D4000FF2636064500B54206D84D00B54203D8C9
:104D5000D218FF2A00D0E7E7004870BD0000C07FEE
:104D600070B50125ED0704004C4022D4441A02D24C
:104D70006C40001B0919C60D4B00F2B2FF2A4BD044
:104D80001B0E50D000020C02A8432C43D31ADC4067
:104D9000051B05D5AD0019D36D08761E521E37D000
:104DA000F605280A01D2801970BD70416D0603D046
:104DB00070BD6940FFF7E8FE9C4009026140490070
:104DC00001D0401E70BD0124A04370BD6D081DD0F0
:104DD00001202B0C01D12D0410302B0E01D12D02FE
:104DE00008302B0F01D12D01001DAB0F01D1AD00FB
:104DF000801CEB0F01D16D00401C361A121A6D0099
:104E0000680AF5054019012A02DB70BD002070BD5B
:104E1000C036300AC00770BD1B0E440201D1FF2B03
:104E200000D1024870BD002AF0D070BD0000C07FE4
:104E30008182838485868788898B8C8D8E8F9192E1
:104E400093959697999A9C9D9FA0A2A3A5A7A8AA7F
:104E5000ACAEB0B2B3B5B7B9BCBEC0C2C5C7C9CCA1
:104E6000CED1D4D7D9DCDFE2E6E9ECF0F3F7FAFEF5
:104E700000000000003E5149453E00427F40004294
:104E8000615149462141454B311814127F10274585
:104E90004545393C4A4949300171090503364949BC
:104EA0004936064949291E7E1111117E7F4949491B
:104EB000363E414141227F4141221C7F49494941BF
:104EC0007F090909013E4149497A7F0808087F00A6
:104ED000417F41002040413F017F081422417F4033
:104EE0004040407F020C027F7F0408107F3E41411A
:104EF000413E7F090909063E4151215E7F0919297A
:104F000046464949493101017F01013F4040403F48
:104F10001F2040201F3F4038403F631408146307A0
:104F20000870080761514945430000000006000071
:104F3000000000030800000018000000003000001E
:104F40000800080000001800000000300000080001
:104F500000000000401F00002000010001000000D0
:104F60000000000000000000400000000000000001
:104F7000000000000200000004000000010000002A
:104F80002C00C44108001F0002000000D3300000C4
:104F90000100000000000000000000000800000008
:104FA000180000000030000052554E20202000491B
:104FB000444C45202000444F4E4520200051343AB7
:104FC00041422B42414C4C20200051323A4C41503E
:104FD0002032305320200051363A4C41502B504F54
:104FE0005320200051333A42414C4C202B2D352088
:104FF0000051353A4C41502B42414C4C2000543A20
:1050000000000000000000001850000000002020F8
:08501000E80500002801000082
:04000005000000C136
:00000001FF
