:020000040000FA
:10000000D80220206D010000710100007301000082
:1000100000000000000000000000000000000000E0
:10002000000000000000000000000000750100005A
:1000300000000000000000007701000079010000CE
:100040007B010000A11500007B0100007B01000086
:100050007B0100007B0100007B0100007B010000B0
:10006000000000007B0100007B0100000000000098
:10007000000000007B0100007B0100007B0100000C
:10008000653D00007B0100007B0100007B0100005A
:100090007B0100007B010000000000000000000068
:1000A0007B0100007B010000000000000000000058
:1000B0007B010000000000007B0100007B010000CC
:1000C00000F002F800F042F812A030C808382418F6
:1000D0002D18AC4201D100F039F80FCCA246AB4646
:1000E0000CA730CF2D1B083F3F197C427F1E544484
:1000F0002D090426F441641EAC4201D300F026F819
:100100000126334200D0FB1A3343984754465D46DC
:10011000DFE7000034470000444700000000000013
:100120007047000000000000002300240025002686
:10013000103A01D378C1FBD8520700D330C100D5A3
:100140000B6070471FB51FBD10B510BD00F05CFA05
:100150001146FFF7F7FF03F011FE00F074FA03B445
:10016000FFF7F2FF03BC00F0C9FA000006480047A1
:10017000FEE7FEE7FEE7FEE7FEE7FEE70348044989
:10018000024A044B70470000C1000000D801202043
:10019000D8022020D8012020002203098B4273D3EB
:1001A000030A8B4258D3030B8B423CD3030C8B4284
:1001B00021D312E003460B437FD4002243088B4235
:1001C00074D303098B425FD3030A8B4244D3030BDE
:1001D0008B4228D3030C8B420DD30902FF2212BAA3
:1001E000030C8B4202D31212090265D0030B8B421F
:1001F00019D300E0090AC30B8B4201D3CB03C01A09
:100200005241830B8B4201D38B03C01A5241430BE3
:100210008B4201D34B03C01A5241030B8B4201D3D3
:100220000B03C01A5241C30A8B4201D3CB02C01A3E
:100230005241830A8B4201D38B02C01A5241430AB6
:100240008B4201D34B02C01A5241030A8B4201D3A5
:100250000B02C01A5241CDD2C3098B4201D3CB014C
:10026000C01A524183098B4201D38B01C01A5241FB
:1002700043098B4201D34B01C01A524103098B42FF
:1002800001D30B01C01A5241C3088B4201D3CB00EA
:10029000C01A524183088B4201D38B00C01A5241CD
:1002A00043088B4201D34B00C01A5241411A00D27D
:1002B00001465241104670475DE0CA0F00D04942E6
:1002C000031000D3404253409C46002203098B4256
:1002D0002DD3030A8B4212D38901FC2212BA030ADE
:1002E0008B420CD3890192118B4208D38901921160
:1002F0008B4204D389013AD0921100E08909C309E5
:100300008B4201D3CB01C01A524183098B4201D3E6
:100310008B01C01A524143098B4201D34B01C01AD1
:10032000524103098B4201D30B01C01A5241C30849
:100330008B4201D3CB00C01A524183088B4201D3B8
:100340008B00C01A5241D9D243088B4201D34B00D3
:10035000C01A5241411A00D201465241104663462A
:100360005B1001D34042002B00D5494270476346E1
:100370005B1000D3404201B50449002802DC491C4F
:10038000084000E00846C046C04602BDFFFFFF7FB0
:100390007047704770470000F0B5FF252D04C6096F
:1003A000C209FF2704462E400137CB093E4348408F
:1003B0002A402B400746002A6BD0002B69D0AA4266
:1003C00067D0AB4265D0002800DA32460125ED0542
:1003D00029432C4309022002090AD21A4B0C7F241C
:1003E000E31A434C000A7C44E35C7D242404121984
:1003F00014145B00A218884201D3521C00E0400094
:1004000049420C465C4324115C43DB016415E3184C
:10041000040A5C43C502200D0C4644436419250AB6
:100420005D432303EC0C0D46654300030019EB18F4
:100430004C42A34201D35B18401CD4052018002B6A
:1004400007D05B00C91804D3401C002901D1400823
:1004500040003F2189048A4209D3002A08DC1106A2
:10046000090F04D0032149074018C00FC007F0BD91
:1004700001224100120689187F2252069142F6D2CB
:1004800005214907C84201D59010F0BDFF20C005E5
:10049000F0BD002F00DA32461648AA4207D2AB421E
:1004A00005D21902090E17D0F80FC007F0BDFF25BD
:1004B00063002D06AB42F9D84900A942F6D8AB42F9
:1004C00001D1A942F2D0A94201D1002101E061008D
:1004D0004908D0050843F0BD1102090EFBD0FF20EA
:1004E0000243D005F0BD0A460146104654E700001D
:1004F000BE4200000000C07F10B501469E240002ED
:10050000CA15A307002A02D01843002A04DBA21A46
:10051000002A0CDDD04010BD1206120E01D14000A1
:100520004008A21A03D4D04040420028F3DDFF2245
:1005300048001206904201D9002010BDC817C043E0
:10054000584010BD1F22030C02D10F2200041CD002
:10055000030E01D10002083A030F01D10001121F5E
:10056000830F01D18000921E002801DB4000521E43
:10057000D2055118021251181922904004D3491C77
:10058000002801D14908490008467047C10FC90732
:1005900000D04042012292071143D3E7012189078D
:1005A000D0E7000010B5FF231B0644009C421DD875
:1005B0004C009C421AD80346124A0B4307D4401AF7
:1005C00002D3EFF3008010BDEFF3008010BD081AD6
:1005D00003D3EFF30080904305E0EFF300800121A7
:1005E0009043C907084380F3008810BD0D231B0406
:1005F0001A4204D01146002000F02DF810BD00F082
:1006000041F810BD00000090754600F043F8AE467A
:10061000050069465346C008C000854618B020B59D
:10062000FFF7ACFD60BCB64600260027C0C5C0C5BC
:10063000C0C5C0C5C0C5C0C5C0C5C0C5403D4908CE
:1006400049008D46704710B50446C046C046204656
:10065000FFF785FD10BDC80212D54803400F0028E2
:1006600004D0C803C043012188407047EFF30080E5
:100670000001000903210907084380F3008870473F
:100680000020704710B5024800F008F810BD0000C7
:100690000000C07F004870470000202010B50C46C5
:1006A0001107090F092904D00A290AD008290CD1F9
:1006B00004E011460820FFF7CEFF06E0510606D5FC
:1006C00001E0510601D50120C007214610BDD10629
:1006D00007D501010909CC084907000E00060443AB
:1006E00009E0410F20024907000A0143200E0006DD
:1006F0001D22D14101430846E7E7000001491820C7
:10070000ABBEFEE726000200704700004248002111
:1007100001704348017041480160134801807047EF
:100720003D480078411F484248417047B0B50446F3
:100730003A48002505603A48047000F081F8012C21
:1007400006D0032C07D0022C0BD10425002005E095
:100750003220254602E004480088042500B200F05B
:100760008BF82D480570B0BD48012020F0B581B050
:100770000446294E307800282ED005282CD020465B
:1007800000F07EF8254F3868002800D13C6000F06A
:1007900063F82349097801291ED13178032911D042
:1007A00002291BD0012917D1093080B21E49132814
:1007B0000DB21CD2284600F05FF83C600220307079
:1007C000204615E03868201AFF21F631884203D30D
:1007D0000520307000F02AF801B0F0BD093080B279
:1007E00013280FD23C600320307020460BE038689D
:1007F000201A0C498842EFD9284600F03DF83C60A9
:10080000022006E03868201A06498842E4D93C6094
:100810000320307001B0F0BD280120208801202085
:1008200086012020B80B0000CEFF000080B54649AD
:100830000020087003F066FA03F04AFA80BDC04653
:1008400080B54548002101603F48012202704148BF
:10085000016003F041FA80BD00203D49085E704709
:100860003B4800210180394801803B4801603948FC
:100870000160354801707047344908807047C046B0
:10088000F0B581B004463048007801285AD100F014
:10089000D5F805466421204600F0DCF800284ED04B
:1008A00028882A490988081A2949088000B2FFF7D0
:1008B0006DFE04462748016800910460264D2868B3
:1008C000214603F097FD0746244E314603F06EFDA6
:1008D000002800D13E46224F3046394603F07EFDC7
:1008E000002800D137462F601E49384603F01CFE11
:1008F00006461D49204603F017FE314603F07AFDF7
:1009000006462046009903F067FE014603F072FD9B
:10091000314603F06FFD0546144C214603F046FDB9
:10092000002800D12C46124D2046294603F056FDE2
:10093000002800D125462846FFF7DEFD00E0002014
:1009400003F0E0F901B0F0BD50012020CC012020DF
:1009500052012020900120205C0120200000FA4359
:100960000000FAC3CDCCCC3D0000A04000803B4548
:1009700000803BC5002801D0002070472E49087830
:1009800000220A707047C04628480021017025489F
:1009900001702548018027480170254801602648DC
:1009A0000170704710B51E4909684903C90F1D4AF7
:1009B0001378994217D11C4B1A88012A03D8541C6A
:1009C0001C80012A13D1194B1A7891420FD019704B
:1009D00000290CD1002A0AD01549086015490A7867
:1009E000521C0A7003E0104B00241C801170114A45
:1009F0001178002912D00D4B1B78002B0ED10C4B17
:100A00001B68C01A0009192808D30020107001299A
:100A100001D8012000E002200749087010BDC0463F
:100A200080130A402C012020300120202E0120209C
:100A30003401202032012020380120200D48704749
:100A40000C480021416081700180014801707047AD
:100A5000B401202010B50246064B9878441EA041F0
:100A60005B68D21A8A4202D30021084010BD0121DE
:100A7000084010BD400120205E4800687047C04615
:100A80005D4800787047C046584800787047C046B7
:100A9000564800210170584801705548016055487A
:100AA00001607047F0B581B0054600263046FFF77B
:100AB00061FF04464D4F3878032867D878440079A1
:100AC00040008744010F315F022C61D14A48017810
:100AD000491C4D4A4A43120C05235343C91A01705D
:100AE00001B0F0BD022C50D0012C4FD1414806601E
:100AF0003F4805600220387000F0D8F83E48007882
:100B0000042843D8784400794000874402474C5574
:100B100061003C4800F0D8F8022000F0E3F8012022
:100B200000F0A4FD01B0F0BD31480068281A314939
:100B30000860284600F0B2FD2846FFF717FE00F0D7
:100B40008FFD002806D0002000F0CCF8FFF76EFEE5
:100B5000032038702848007801280AD1FFF7E0FD0B
:100B6000002806D0002000F0BDF8FFF75FFE03204C
:100B70003870012C0AD1002000F0B4F8FFF756FEBF
:100B8000032008E0601E012800D83E7001B0F0BDCF
:100B9000012CFBD10120387001B0F0BD002000F025
:100BA000A1F801201EE0164800F08EF8022420462D
:100BB00000F098F8204607E0104800F085F802247D
:100BC000204600F08FF8012000F050FD204609E09B
:100BD0000A4800F079F8022000F084F8012000F0C3
:100BE00045FD0320FFF7A2FD01B0F0BDBC012020B0
:100BF000B80120204C01202084012020E6A57E425F
:100C0000B7AF90429A8FCA42343300002C48006834
:100C10007047C0462B4800687047C04622480068AD
:100C20007047C04680B53B49002008702C490860D9
:100C3000394908603949086021490860214908603C
:100C40000F4908600F4908600F4908600F490860A4
:100C50000F4908700F4908600F4908600F49086084
:100C60000F4908600F4908602D4908602D49086048
:100C70002D4908600C49086000F0F4FE80BDC046B4
:100C800070012020A801202074012020AC01202028
:100C9000B501202078012020B0012020680120200B
:100CA000A0012020800120203C012020EFF31080B3
:100CB00072B60348002101600248016062B67047C5
:100CC000640120209C01202010B50446002103F07F
:100CD0006DFB002800D104460148046010BDC046E9
:100CE0002401202080B50B490A7882420AD00A4AA2
:100CF00000231360094A1360094A1360094A13600C
:100D0000094A13600870002800D080BD00F0AAFED8
:100D100080BDC046870120206C012020A401202036
:100D2000980120209401202060012020F0B585B09A
:100D3000D6480168491C016000F09AFD04A803A987
:100D400000F020FCD24B1868039940181860D14C71
:100D50002068049A801A2060CF4E306840183060B6
:100D6000CE4D2868801A2860CD4F3878401C3870E6
:100D7000C0B205282AD330683224214600F0E0FBB7
:100D8000C84F38602868214600F0DAFBC64C206066
:100D90003868002103F0FFFA002804D10120C007C1
:100DA000396841403960206827460024214603F015
:100DB000F2FA002804D10120C007396841403960A7
:100DC00034602C60EF4F3C70EC4BED4CF0480178F8
:100DD000002926D00078012837D118682168441AE4
:100DE000F448066804602046FFF7D0FB0546A01BC8
:100DF000FFF7CCFBF04903F097FB0446EF49284688
:100E000003F092FB214603F0F5FA0446E84E306801
:100E1000214603F0E1FB05463068214603F0EAFA7B
:100E200083E0E94800210160EE480160E448016088
:100E3000E4480160EA480160EC48016031602960E3
:100E4000397000F00FFE05B0F0BD02A800F09EFC66
:100E5000002808D0029C0021204603F0BFFA002899
:100E60000CD13F200BE0CB4800210160CA48016053
:100E7000CD480160CE480568066857E0BF200106EE
:100E8000204603F0B7FAFFF737FBC2490860C248B3
:100E900001680460204603F09FFBFF21890503F0F1
:100EA00043FB0646BD49204603F03EFB314603F0B6
:100EB000A1FA0646BA4C214603F078FA002800D180
:100EC00034463D46B74E2046314603F06FFA0028BF
:100ED00000D13446B44806682046314603F07CFB16
:100EE0000746AE4903F06DFA002806D1AB493046FB
:100EF00003F080FA04462F460BE0AC49384603F075
:100F00004AFA00282F4604D1A849304603F072FA65
:100F10000446A5480460A64E3168204603F06AFAEC
:100F200005463068214603F057FB06460024284654
:100F3000214603F03BFA002800D10546A048056091
:100F40003046214603F032FA002800D106469D487B
:100F5000019606608C480168284603F03DFB064672
:100F6000387899490F68002812D08D49304603F02F
:100F7000DBFA04469549284603F0D6FA214603F0E9
:100F800039FA04469249384603F0CEFA21464AE03F
:100F90000968304603F02EFA04468E4F394603F0B6
:100FA00005FA002800D127468B4C3846214603F02D
:100FB000FDF9002800D1274685490097384603F0FF
:100FC000B3FA04467649304603F0AEFA07467F4945
:100FD000284603F0A9FA394603F00CFA07462046E2
:100FE000394603F007FA05467C4903F0F7F9002873
:100FF000754C05D10021304603F0D8F900280DD1F9
:101000000021284603F0D2F9002805D100213046FE
:1010100003F0E4F9002801D10098206020686C49B1
:1010200003F082FA394603F0E5F90446554E6B4D5C
:10103000294603F0BBF9002800D1254600212846A7
:1010400003F0B4F9002800D105462846FFF754FA0A
:10105000634908604D480168019F384603F0BCFAB7
:10106000054630785F490E6800281FD04C49284655
:1010700003F05AFA04465C49384603F055FA214613
:1010800003F0B8F904465249304656E03C012020AE
:10109000640120209C01202074012020AC0120202C
:1010A000B501202070012020A801202009682846D1
:1010B00003F0A0F90446474E314603F077F90028C3
:1010C00000D12646444C3046214603F06FF90028F3
:1010D00000D126463E49304603F026FA07463049FD
:1010E000284603F021FA04463F49019803F01CFA10
:1010F000214603F07FF904463846214603F07AF989
:101100000746364903F06AF9002805D10021284630
:1011100003F04CF900280DD10021384603F046F9C0
:10112000002805D10021284603F058F9002801D1F4
:101130002C4806602B480068254903F0F5F9214644
:1011400003F058F90546254C214603F02FF90028F5
:1011500000D12C460021204603F028F9002800D1B8
:1011600004462046FFF7C8F9204908601C4800687B
:10117000096800F031FC05B0F0BDC04664012020D4
:101180009C012020B501202070012020A8012020F2
:10119000870120208001202098012020000040406D
:1011A00000002041000020C160012020000040C05C
:1011B00024012020940120203333333FCDCC4C3EFA
:1011C00078012020B00120206C0120200000824204
:1011D0003333B33E0080BB440080BBC400C0F34542
:1011E00068012020A401202000006842A0012020E6
:1011F000B0B50A78032313400B4A84580B4D2540A1
:10120000EB18A92424061B198350072212064B68E9
:1012100013401124240205599543EA18025100197C
:1012200049780161B0BDC04608080000FCFFFF001E
:10123000811E091F00BFFCD2704770B50A780C23CD
:101240001A400124240305196E689E43B2186A608F
:10125000497807221140035993435918015170BD31
:1012600070B582B00B794A79002A25D0184A202B14
:1012700002D00524E40100E0434C8218002B00D189
:101280008824156C3F4E35402D191564556C35403A
:101290002C19546414687A4D2C40146054682C4006
:1012A00054600024146254628F24E443156D254079
:1012B0001565556D254055656A4613718B795371D7
:1012C00009680091114600F005F802B070BDC046F3
:1012D00038180000F0B5684A8218294BC3180879FD
:1012E00020280DD000281DD10C68641E5460D56ED6
:1012F000244C25408835D5661646703688251DE075
:101300000C68641E5460D46E1E4D2C401E4EA419F1
:10131000D466146F2C40A4191467012465071B4C74
:1013200016460BE00C6864085460D66E154C2640D7
:101330000525ED017619D6661646703637682740C2
:101340002F433760D46A4E4D2C40D462146B2C402E
:1013500014630024D46414658F24E443D56F2540BE
:10136000D5671D6825401D6049790143BD200840AF
:101370001168074B0B40C018801C1060F0BDC046C0
:101380008418000024493E0001040000FFFFFFCF45
:101390004000FFCFB0B54A68364BC250364A80187D
:1013A0000A78222A58D8930001A4E3589F46C046E1
:1013B0004F140000591400004F140000591400008D
:1013C0005914000059140000591400005914000069
:1013D0005914000059140000591400005914000059
:1013E0005914000059140000591400005914000049
:1013F0003D140000591400003D1400005914000071
:101400005914000059140000591400005914000028
:101410005914000059140000591400005914000018
:101420005914000059140000591400005914000008
:101430003D140000591400003D14000003231B0755
:1014400004689C4301235B07E318036004E0032363
:101450001B0704689C4304600B69C360CB68074C9E
:101460001C40C36A064D1D402B19C362097A114303
:101470000160B0BD08180000041800007777020072
:101480008888FDFF10B507239B041940920080183F
:10149000024A84589C436118815010BD30180000E6
:1014A00010B5029CA400001911431943014A815050
:1014B00010BDC0465018000092008018014A8150AB
:1014C0007047C0461018000010B50122120383189F
:1014D0000C789C604B7883508978014A815010BD0C
:1014E0000C110000B0B51122120283580124A3434D
:1014F00083500B888C781C438B882343094C1C40F9
:101500008358094D1D40631983508B79CC791C4356
:10151000097A21437E231940801842689A43511862
:101520004160B0BD18670000E798FDFF10B50122CB
:10153000120383180C789C604978815010BD00001C
:10154000B0B5002911D00C46FFF720F8084902F089
:10155000EBFF05462046FFF721F8064902F0E4FFBD
:1015600001462846FEF718FFB0BD0020B0BDC046BA
:1015700000606A470000434432480021016032485D
:1015800001607047EFF3108272B62E4A1368036051
:101590002D4803680B6000211160016062B670473E
:1015A000F0B50124A706244910390E6835463D40A0
:1015B0000021CA43214B103B1B68B601204E08D5C1
:1015C00030683842174600D027461E48016879180F
:1015D0000160002D0AD060063168014201D0144636
:1015E00000E0012417480168611801600124260603
:1015F000D802EA4D08D528683042174600D0274661
:101600001148016879180160334208D02005296823
:10161000014200D101220C480168511801600320E9
:101620004006054A11680143116011200005034A74
:10163000116801431160F0BD48100A4048300A406B
:1016400080130A401C012020200120204648002150
:101650000170474801704748016049480170704770
:1016600041480078011F48424841704710B53E4943
:1016700001220A703E490870414900240C7002287A
:1016800000D1044C012800D1034CFFF70FFB39486F
:10169000046010BD0000164300801944F0B581B00D
:1016A000314F3878FB21084249D0FFF7AFFA0446A2
:1016B000FFF7B0FA0019FEF769FF3F21090602F0B3
:1016C00033FF2A4902F030FF044600F0CDF805460A
:1016D000387803280BD002280ED001282FD12A49B0
:1016E000204602F063FE002829D0022039E00020C5
:1016F000FFF7F8FA042034E01D480078022813D0E0
:1017000001281CD11B4806681C49304602F00CFF1A
:101710000146204602F055FE002817D118483F2DFB
:101720000FD10121017011E012480068124902F046
:10173000FBFE0146204602F051FE002810D001B009
:10174000F0BD0078012801D1032038700D493046E2
:1017500002F0EAFE0146204602F028FE0028EED004
:101760000320387001B0F0BD7C012020F3C3D93CC8
:1017700085012020C80120203333733FCDCC4C3F5E
:10178000C4012020CDCC8C3F0000F041F0B581B0E9
:10179000002817D004460020206081490A78002ADA
:1017A00053D03F2A51D0082616409106C91704236A
:1017B0009943202313405D09D70606D4002E11D18A
:1017C0005B0907E0002001B0F0BD6D1CC91E0123BC
:1017D000002E09D1560714D4002B1ED11E469707A0
:1017E0000AD51DE0002B30D16D1C491E53070AD4C9
:1017F00001263346970713D4002B08D1D20709D10D
:1018000016E0002B21D16D1C491C93070AD4012638
:10181000D2070DD0002E18D108E001269707EBD58E
:10182000002E12D16D1CC91CD00701D06D1C491DA2
:101830000846FEF7ABFE06462846FEF7A7FE014621
:101840003046FEF7A9FD2060012001B0F0BDC04682
:101850005448002141710171C17081704170017063
:101860004F4801707047C0464D4800787047C046E9
:10187000F0B582B0484804680768066805680068E3
:10188000009046480068019045480178454A137821
:10189000640208D4002B03D05B1E13701B060BD10F
:1018A000DF23194007E0022B03D85C1C1470022BC5
:1018B00002D12023194301705378FC0108D4002B76
:1018C00003D05B1E53701B060BD1EF23194007E0BA
:1018D000022B03D85C1C5470022B02D11023194335
:1018E00001709378340108D4002B03D05B1E9370F1
:1018F0001B060BD1F723194007E0022B03D85C1C11
:101900009470022B02D1082319430170D378AC05DF
:1019100008D4002B03D05B1ED3701B060BD1FB2316
:10192000194007E0022B03D85C1CD470022B02D1B3
:101930000423194301701379009CE40408D4002B9C
:1019400003D05B1E13711B060BD1FD23194007E06A
:10195000022B03D85C1C1471022B02D10223194301
:1019600001705379019CE40307D4002B0ED05B1E59
:1019700053711A060AD002B0F0BD022B03D85C1CCA
:101980005471022BF7D10122114301E0FE221140D4
:10199000017002B0F0BDC04680130A4080330A4097
:1019A0005A0120205401202070B53A4C00252046D1
:1019B00029462A46FFF780FD012620462946324661
:1019C000FFF77AFDB00393490860700308603004A4
:1019D00008607004086070BDF0B581B01F4B99427B
:1019E00000DC19461E4CA1420A4600DB2246984202
:1019F00000DC1846A042054600DB254601246603AC
:101A0000A703844B012903DB194610390F6002E05C
:101A10001F60002A1ED41E6026046104012803DB17
:101A200018461038066003E01E60002D00D5103BFC
:101A30001960D0174240111A164C00222046FFF7B9
:101A40003BFDE8174540291A01222046FFF734FDE7
:101A500001B0F0BD194610390E60DDE788E1FFFFE7
:101A6000781E000070B50B4C0025204629462A46FA
:101A7000FFF722FD0126204629463246FFF71CFDCE
:101A8000B0036449086070030860300408607004A3
:101A9000086070BD00208640F0B587B001200707C0
:101AA0000490C50700245B4E204605E00298401CC8
:101AB0000199072900D3AAE00290C1B22046019102
:101AC00002F048FA204606E0176062B60398401C10
:101AD00040B20028EAD40390EFF3108172B6049864
:101AE000C1034D480160234604E08B1C0498014368
:101AF0000729E9D21946376035600594059A172AF7
:101B00001BD800BF059A521C0592059A172A14D8B3
:101B100000BF059A521C0592059A172A0DD800BFDE
:101B2000059A521C0592059A172A06D800BF059AF5
:101B3000521C0592059A182AE3D33246103A1760D0
:101B400000230693069817281BD800BF0698401C50
:101B500006900698172814D800BF0698401C0690D7
:101B6000069817280DD800BF0698401C06900698C6
:101B7000172806D800BF0698401C0690069818281B
:101B8000E3D3376035600593059817281BD800BF4D
:101B90000598401C05900598172814D800BF059893
:101BA000401C0590059817280DD800BF0598401CCB
:101BB00005900598172806D800BF0598401C059089
:101BC00005981828E3D317600693069817288CD831
:101BD00000BF0698401C06900698172885D800BFBD
:101BE0000698401C06900698172800D97DE700BF8C
:101BF0000698401C06900698172800D975E700BF84
:101C00000698401C069006981828E1D36DE707B0A7
:101C1000F0BDC046A0120A4090320A40F0B583B031
:101C2000E14D103D0126B7032F607D2004022046C0
:101C3000FFF7FEFA2046FFF7FBFA2046FFF7F8FA17
:101C40002046FFF7F5FA2046FFF7F2FA2046FFF7A5
:101C5000EFFA2046FFF7ECFA2046FFF7E9FA2046B4
:101C6000FFF7E6FA2046FFF7E3FACF480760204681
:101C7000FFF7DEFA2046FFF7DBFA2046FFF7D8FA37
:101C80002046FFF7D5FA2046FFF7D2FA2046FFF7A5
:101C9000CFFA2046FFF7CCFA2046FFF7C9FA2046D4
:101CA000FFF7C6FA2046FFF7C3FA2046FFF7C0FA4F
:101CB0002046FFF7BDFA2046FFF7BAFA2046FFF7A5
:101CC000B7FA2046FFF7B4FA2046FFF7B1FA2046EC
:101CD000FFF7AEFA2046FFF7ABFA2046FFF7A8FA67
:101CE0002046FFF7A5FA2F602046FFF7A1FA20460D
:101CF000FFF79EFA2046FFF79BFA2046FFF798FA77
:101D00002046FFF795FA2046FFF792FA2046FFF7A4
:101D10008FFA2046FFF78CFA2046FFF789FA204613
:101D2000FFF786FA2046FFF783FA2046FFF780FA8E
:101D30002046FFF77DFA2046FFF77AFA2046FFF7A4
:101D400077FA2046FFF774FA2046FFF771FA20462B
:101D5000FFF76EFA2046FFF76BFA2046FFF768FAA6
:101D6000EFF3108072B6F00301908F4908603007DE
:101D7000F107AE2400278D4A03E05F1C6400072BA7
:101D80004AD23B46106165B2002D01D4116100E0DA
:101D9000116000250295029F172F1BD800BF029FDC
:101DA0007F1C0297029F172F14D800BF029F7F1C31
:101DB0000297029F172F0DD800BF029F7F1C02972A
:101DC000029F172F06D800BF029F7F1C0297029F19
:101DD000182FE3D310600295029F172FCDD800BFB4
:101DE000029F7F1C0297029F172FC6D800BF029F39
:101DF0007F1C0297029F172FBFD800BF029F7F1C36
:101E00000297029F172FB8D800BF029F7F1C02972E
:101E1000029F182FE3D3B0E7106062B6EFF3108390
:101E200072B6614B019C1C60202403E05D1C6400C1
:101E3000072B4AD22B46106165B2002D01D41161E7
:101E400000E0116000270297029D172D1BD800BFEC
:101E5000029D6D1C0295029D172D14D800BF029D96
:101E60006D1C0295029D172D0DD800BF029D6D1CA3
:101E70000295029D172D06D800BF029D6D1C02958C
:101E8000029D182DE3D310600297029D172DCDD827
:101E900000BF029D6D1C0295029D172DC6D800BF84
:101EA000029D6D1C0295029D172DBFD800BF029D9B
:101EB0006D1C0295029D172DB8D800BF029D6D1CA8
:101EC0000295029D182DE3D3B0E7106062B6EFF3E0
:101ED000108372B6344B019C1C60102403E05F1C1D
:101EE0006400072B4AD23B46106165B2002D01D435
:101EF000116100E0116000250295029F172F1BD889
:101F000000BF029F7F1C0297029F172F14D800BFAB
:101F1000029F7F1C0297029F172F0DD800BF029FC0
:101F20007F1C0297029F172F06D800BF029F7F1CBD
:101F30000297029F182FE3D310600295029F172F7C
:101F4000CDD800BF029F7F1C0297029F172FC6D8D3
:101F500000BF029F7F1C0297029F172FBFD800BFB0
:101F6000029F7F1C0297029F172FB8D800BF029FC5
:101F70007F1C0297029F182FE3D3B0E7106062B670
:101F8000EFF3108372B6084B019C1C60B02403E091
:101F90005D1C6400072B4FD22B46106165B2002DEB
:101FA00006D4116105E0C046A0320A4090120A40F2
:101FB000116000270297029D172D1BD800BF029DBC
:101FC0006D1C0295029D172D14D800BF029D6D1C3B
:101FD0000295029D172D0DD800BF029D6D1C029524
:101FE000029D172D06D800BF029D6D1C0295029D13
:101FF000182DE3D310600297029D172DC8D800BF9B
:10200000029D6D1C0295029D172DC1D800BF029D37
:102010006D1C0295029D172DBAD800BF029D6D1C44
:102020000295029D172DB3D800BF029D6D1C02952D
:10203000029D182DE3D3ABE7106062B6EFF3108377
:1020400072B6DA4B019C1C60C82503E05F1C6D0072
:10205000072B4AD23B4610616CB2002C01D41161AF
:1020600000E0116000240294029F172F1BD800BFCC
:10207000029F7F1C0297029F172F14D800BF029F58
:102080007F1C0297029F172F0DD800BF029F7F1C55
:102090000297029F172F06D800BF029F7F1C02974E
:1020A000029F182FE3D310600294029F172FCDD800
:1020B00000BF029F7F1C0297029F172FC6D800BF48
:1020C000029F7F1C0297029F172FBFD800BF029F5D
:1020D0007F1C0297029F172FB8D800BF029F7F1C5A
:1020E0000297029F182FE3D3B0E7106062B6EFF3B8
:1020F000108372B6AD4B019D1D60234604E0BB1CEE
:102100003743072F00D38AE01F4610611161029404
:10211000029B172B1BD800BF029B5B1C0293029BE8
:10212000172B14D800BF029B5B1C0293029B172B3A
:102130000DD800BF029B5B1C0293029B172B06D895
:1021400000BF029B5B1C0293029B182BE3D3106021
:1021500000250295029B172B1BD800BF029B5B1C1E
:102160000293029B172B14D800BF029B5B1C0293A7
:10217000029B172B0DD800BF029B5B1C0293029B96
:10218000172B06D800BF029B5B1C0293029B182BE7
:10219000E3D3106111610295029B172B1BD800BF7E
:1021A000029B5B1C0293029B172B14D800BF029B5F
:1021B0005B1C0293029B172B0DD800BF029B5B1C7C
:1021C0000293029B172B06D800BF029B5B1C029355
:1021D000029B182BE3D310600295029B172B8ED81D
:1021E00000BF029B5B1C0293029B172B87D800BF8A
:1021F000029B5B1C0293029B172B00D97FE700BF59
:10220000029B5B1C0293029B172B00D977E700BF50
:10221000029B5B1C0293029B182BE1D36FE71060BB
:1022200062B6EFF3108372B6604B019C1C60102401
:1022300003E05D1C6400072B4AD22B46106165B297
:10224000002D01D4116100E0116000270297029D6A
:10225000172D1BD800BF029D6D1C0295029D172DE6
:1022600014D800BF029D6D1C0295029D172D0DD83C
:1022700000BF029D6D1C0295029D172D06D800BF60
:10228000029D6D1C0295029D182DE3D310600297EC
:10229000029D172DCDD800BF029D6D1C0295029D99
:1022A000172DC6D800BF029D6D1C0295029D172DEB
:1022B000BFD800BF029D6D1C0295029D172DB8D896
:1022C00000BF029D6D1C0295029D182DE3D3B0E75F
:1022D000106062B6EFF3108372B6344B019C1C6041
:1022E000402403E05F1C6400072B4AD23B46106188
:1022F00065B2002D01D4116100E011600025029546
:10230000029F172F1BD800BF029F7F1C0297029FBE
:10231000172F14D800BF029F7F1C0297029F172F10
:102320000DD800BF029F7F1C0297029F172F06D86F
:1023300000BF029F7F1C0297029F182FE3D31060FB
:102340000295029F172FCDD800BF029F7F1C0297D6
:10235000029F172FC6D800BF029F7F1C0297029FC3
:10236000172FBFD800BF029F7F1C0297029F172F15
:10237000B8D800BF029F7F1C0297029F182FE3D39B
:10238000B0E7106062B6EFF3108372B6074B019CA2
:102390001C60812403E05D1C6400072B4CD22B469B
:1023A000106165B2002D03D4116102E0A0320A4031
:1023B000116000270297029D172D1BD800BF029DB8
:1023C0006D1C0295029D172D14D800BF029D6D1C37
:1023D0000295029D172D0DD800BF029D6D1C029520
:1023E000029D172D06D800BF029D6D1C0295029D0F
:1023F000182DE3D310600297029D172DCBD800BF94
:10240000029D6D1C0295029D172DC4D800BF029D30
:102410006D1C0295029D172DBDD800BF029D6D1C3D
:102420000295029D172DB6D800BF029D6D1C029526
:10243000029D182DE3D3AEE7106062B6EFF3108370
:1024400072B6E64B019C1C607F2403E05F1C6400B5
:10245000072B4AD23B46106165B2002D01D41161B1
:1024600000E0116000250295029F172F1BD800BFC6
:10247000029F7F1C0297029F172F14D800BF029F54
:102480007F1C0297029F172F0DD800BF029F7F1C51
:102490000297029F172F06D800BF029F7F1C02974A
:1024A000029F182FE3D310600295029F172FCDD8FB
:1024B00000BF029F7F1C0297029F172FC6D800BF44
:1024C000029F7F1C0297029F172FBFD800BF029F59
:1024D0007F1C0297029F172FB8D800BF029F7F1C56
:1024E0000297029F182FE3D3B0E7106062B6EFF3B4
:1024F000108372B6B94B019C1C60A12403E05D1CE3
:102500006400072B4AD22B46106165B2002D01D41E
:10251000116100E0116000270297029D172D1BD862
:1025200000BF029D6D1C0295029D172D14D800BF9F
:10253000029D6D1C0295029D172D0DD800BF029DB6
:102540006D1C0295029D172D06D800BF029D6D1CC3
:102550000295029D182DE3D310600297029D172D5E
:10256000CDD800BF029D6D1C0295029D172DC6D8C7
:1025700000BF029D6D1C0295029D172DBFD800BFA4
:10258000029D6D1C0295029D172DB8D800BF029DBB
:102590006D1C0295029D182DE3D3B0E7106062B662
:1025A000EFF3108372B68D4B019C1C60A62403E0F0
:1025B0005F1C6400072B4AD23B46106165B2002DB8
:1025C00001D4116100E0116000250295029F172FD0
:1025D0001BD800BF029F7F1C0297029F172F14D8A1
:1025E00000BF029F7F1C0297029F172F0DD800BFCC
:1025F000029F7F1C0297029F172F06D800BF029FE1
:102600007F1C0297029F182FE3D310600295029F50
:10261000172FCDD800BF029F7F1C0297029F172F54
:10262000C6D800BF029F7F1C0297029F172FBFD8FA
:1026300000BF029F7F1C0297029F172FB8D800BFD0
:10264000029F7F1C0297029F182FE3D3B0E7106010
:1026500062B6EFF3108372B6604B019C1C60A82435
:1026600003E05D1C6400072B4AD22B46106165B263
:10267000002D01D4116100E0116000270297029D36
:10268000172D1BD800BF029D6D1C0295029D172DB2
:1026900014D800BF029D6D1C0295029D172D0DD808
:1026A00000BF029D6D1C0295029D172D06D800BF2C
:1026B000029D6D1C0295029D182DE3D310600297B8
:1026C000029D172DCDD800BF029D6D1C0295029D65
:1026D000172DC6D800BF029D6D1C0295029D172DB7
:1026E000BFD800BF029D6D1C0295029D172DB8D862
:1026F00000BF029D6D1C0295029D182DE3D3B0E72B
:10270000106062B6EFF3108372B6344B019C1C600C
:102710003F2403E05F1C6400072B4AD23B46106154
:1027200065B2002D01D4116100E011600025029511
:10273000029F172F1BD800BF029F7F1C0297029F8A
:10274000172F14D800BF029F7F1C0297029F172FDC
:102750000DD800BF029F7F1C0297029F172F06D83B
:1027600000BF029F7F1C0297029F182FE3D31060C7
:102770000295029F172FCDD800BF029F7F1C0297A2
:10278000029F172FC6D800BF029F7F1C0297029F8F
:10279000172FBFD800BF029F7F1C0297029F172FE1
:1027A000B8D800BF029F7F1C0297029F182FE3D367
:1027B000B0E7106062B6EFF3108372B6074B019C6E
:1027C0001C60A42403E05D1C6400072B4CD22B4644
:1027D000106165B2002D03D4116102E0A0320A40FD
:1027E000116000270297029D172D1BD800BF029D84
:1027F0006D1C0295029D172D14D800BF029D6D1C03
:102800000295029D172D0DD800BF029D6D1C0295EB
:10281000029D172D06D800BF029D6D1C0295029DDA
:10282000182DE3D310600297029D172DCBD800BF5F
:10283000029D6D1C0295029D172DC4D800BF029DFC
:102840006D1C0295029D172DBDD800BF029D6D1C09
:102850000295029D172DB6D800BF029D6D1C0295F2
:10286000029D182DE3D3AEE7106062B6EFF310833C
:1028700072B6DA4B019C1C60D32503E05F1C6D002F
:10288000072B4AD23B4610616CB2002C01D4116177
:1028900000E0116000240294029F172F1BD800BF94
:1028A000029F7F1C0297029F172F14D800BF029F20
:1028B0007F1C0297029F172F0DD800BF029F7F1C1D
:1028C0000297029F172F06D800BF029F7F1C029716
:1028D000029F182FE3D310600294029F172FCDD8C8
:1028E00000BF029F7F1C0297029F172FC6D800BF10
:1028F000029F7F1C0297029F172FBFD800BF029F25
:102900007F1C0297029F172FB8D800BF029F7F1C21
:102910000297029F182FE3D3B0E7106062B6EFF37F
:10292000108372B6AD4B019D1D60234604E0BB1CB5
:102930003743072F00D38AE01F46106111610294CC
:10294000029B172B1BD800BF029B5B1C0293029BB0
:10295000172B14D800BF029B5B1C0293029B172B02
:102960000DD800BF029B5B1C0293029B172B06D85D
:1029700000BF029B5B1C0293029B182BE3D31060E9
:1029800000250295029B172B1BD800BF029B5B1CE6
:102990000293029B172B14D800BF029B5B1C02936F
:1029A000029B172B0DD800BF029B5B1C0293029B5E
:1029B000172B06D800BF029B5B1C0293029B182BAF
:1029C000E3D3106111610295029B172B1BD800BF46
:1029D000029B5B1C0293029B172B14D800BF029B27
:1029E0005B1C0293029B172B0DD800BF029B5B1C44
:1029F0000293029B172B06D800BF029B5B1C02931D
:102A0000029B182BE3D310600295029B172B8ED8E4
:102A100000BF029B5B1C0293029B172B87D800BF51
:102A2000029B5B1C0293029B172B00D97FE700BF20
:102A3000029B5B1C0293029B172B00D977E700BF18
:102A4000029B5B1C0293029B182BE1D36FE7106083
:102A500062B6EFF3108372B6604B019C1C60D52404
:102A600003E05D1C6400072B4AD22B46106165B25F
:102A7000002D01D4116100E0116000270297029D32
:102A8000172D1BD800BF029D6D1C0295029D172DAE
:102A900014D800BF029D6D1C0295029D172D0DD804
:102AA00000BF029D6D1C0295029D172D06D800BF28
:102AB000029D6D1C0295029D182DE3D310600297B4
:102AC000029D172DCDD800BF029D6D1C0295029D61
:102AD000172DC6D800BF029D6D1C0295029D172DB3
:102AE000BFD800BF029D6D1C0295029D172DB8D85E
:102AF00000BF029D6D1C0295029D182DE3D3B0E727
:102B0000106062B6EFF3108372B6344B019C1C6008
:102B10003D4603E0671C072C354649D23C46106110
:102B2000EB0701D0116100E0116000230293029DC8
:102B3000172D1BD800BF029D6D1C0295029D172DFD
:102B400014D800BF029D6D1C0295029D172D0DD853
:102B500000BF029D6D1C0295029D172D06D800BF77
:102B6000029D6D1C0295029D182DE3D31060029307
:102B7000029D172DCED800BF029D6D1C0295029DAF
:102B8000172DC7D800BF029D6D1C0295029D172D01
:102B9000C0D800BF029D6D1C0295029D172DB9D8AB
:102BA00000BF029D6D1C0295029D182DE3D3B1E775
:102BB000106062B6EFF3108472B6084C019D256078
:102BC000D92403E0731C6400072E4DD21E46106109
:102BD00063B2002B04D4116103E0C046A0320A4066
:102BE000116000250295029B172B1BD800BF029B8A
:102BF0005B1C0293029B172B14D800BF029B5B1C2B
:102C00000293029B172B0DD800BF029B5B1C029303
:102C1000029B172B06D800BF029B5B1C0293029BF2
:102C2000182BE3D310600295029B172BCAD800BF64
:102C3000029B5B1C0293029B172BC3D800BF029B15
:102C40005B1C0293029B172BBCD800BF029B5B1C32
:102C50000293029B172BB5D800BF029B5B1C02930B
:102C6000029B182BE3D3ADE7106062B6EFF310833D
:102C700072B6E64B019C1C60222403E05D1C6400DC
:102C8000072B4AD22B46106165B2002D01D4116189
:102C900000E0116000260296029D172D1BD800BF90
:102CA000029D6D1C0295029D172D14D800BF029D38
:102CB0006D1C0295029D172D0DD800BF029D6D1C45
:102CC0000295029D172D06D800BF029D6D1C02952E
:102CD000029D182DE3D310600296029D172DCDD8CA
:102CE00000BF029D6D1C0295029D172DC6D800BF26
:102CF000029D6D1C0295029D172DBFD800BF029D3D
:102D00006D1C0295029D172DB8D800BF029D6D1C49
:102D10000295029D182DE3D3B0E7106062B6EFF381
:102D2000108372B6B94B019C1C60DA2403E05E1C70
:102D30006400072B4AD23346106165B2002D01D4DE
:102D4000116100E0116000250295029E172E1BD82C
:102D500000BF029E761C0296029E172E14D800BF5A
:102D6000029E761C0296029E172E0DD800BF029E70
:102D7000761C0296029E172E06D800BF029E761C75
:102D80000296029E182EE3D310600295029E172E23
:102D9000CDD800BF029E761C0296029E172EC6D882
:102DA00000BF029E761C0296029E172EBFD800BF5F
:102DB000029E761C0296029E172EB8D800BF029E75
:102DC000761C0296029E182EE3D3B0E7106062B61E
:102DD000EFF3108372B68D4B019C1C60122403E04C
:102DE0005D1C6400072B4AD22B46106165B2002D92
:102DF00001D4116100E0116000260296029D172D9A
:102E00001BD800BF029D6D1C0295029D172D14D882
:102E100000BF029D6D1C0295029D172D0DD800BFAD
:102E2000029D6D1C0295029D172D06D800BF029DC4
:102E30006D1C0295029D182DE3D310600296029D31
:102E4000172DCDD800BF029D6D1C0295029D172D38
:102E5000C6D800BF029D6D1C0295029D172DBFD8DC
:102E600000BF029D6D1C0295029D172DB8D800BFB2
:102E7000029D6D1C0295029D182DE3D3B0E71060F2
:102E800062B6EFF3108372B6DE4B019C1C60DB244C
:102E900003E05E1C6400072B4AD23346106165B222
:102EA000002D01D4116100E0116000250295029E01
:102EB000172E1BD800BF029E761C0296029E172E6C
:102EC00014D800BF029E761C0296029E172E0DD8C3
:102ED00000BF029E761C0296029E172E06D800BFE7
:102EE000029E761C0296029E182EE3D31060029575
:102EF000029E172ECDD800BF029E761C0296029E1F
:102F0000172EC6D800BF029E761C0296029E172E70
:102F1000BFD800BF029E761C0296029E172EB8D81C
:102F200000BF029E761C0296029E182EE3D3B0E7E5
:102F3000106062B6EFF3108372B6B24B019C1C6056
:102F4000202403E05D1C6400072B4AD22B4610614D
:102F500065B2002D01D4116100E0116000260296D7
:102F6000029D172D1BD800BF029D6D1C0295029D6E
:102F7000172D14D800BF029D6D1C0295029D172DC0
:102F80000DD800BF029D6D1C0295029D172D06D81D
:102F900000BF029D6D1C0295029D182DE3D31060A9
:102FA0000296029D172DCDD800BF029D6D1C029583
:102FB000029D172DC6D800BF029D6D1C0295029D73
:102FC000172DBFD800BF029D6D1C0295029D172DC5
:102FD000B8D800BF029D6D1C0295029D182DE3D349
:102FE000B0E7106062B6EFF3108372B6854B019CB8
:102FF0001C608D2403E05E1C6400072B4CD233461A
:10300000106165B2002D03D4116102E0A0320A40C4
:10301000116000250295029E172E1BD800BF029E4C
:10302000761C0296029E172E14D800BF029E761CB4
:103030000296029E172E0DD800BF029E761C0296A5
:10304000029E172E06D800BF029E761C0296029E94
:10305000182EE3D310600295029E172ECBD800BF26
:10306000029E761C0296029E172EC4D800BF029EB6
:10307000761C0296029E172EBDD800BF029E761CBB
:103080000296029E172EB6D800BF029E761C0296AC
:10309000029E182EE3D3AEE7106062B6EFF3108302
:1030A00072B6584B019C1C60142403E05D1C640044
:1030B000072B4AD22B46106165B2002D01D4116155
:1030C00000E0116000260296029D172D1BD800BF5C
:1030D000029D6D1C0295029D172D14D800BF029D04
:1030E0006D1C0295029D172D0DD800BF029D6D1C11
:1030F0000295029D172D06D800BF029D6D1C0295FA
:10310000029D182DE3D310600296029D172DCDD895
:1031100000BF029D6D1C0295029D172DC6D800BFF1
:10312000029D6D1C0295029D172DBFD800BF029D08
:103130006D1C0295029D172DB8D800BF029D6D1C15
:103140000295029D182DE3D3B0E7106062B6EFF34D
:10315000108372B62B4B019C1C60AF2303E0661CEE
:103160005B00072C4AD2344610615DB2002D01D4B9
:10317000116100E0116000250295029E172E1BD8F8
:1031800000BF029E761C0296029E172E14D800BF26
:10319000029E761C0296029E172E0DD800BF029E3C
:1031A000761C0296029E172E06D800BF029E761C41
:1031B0000296029E182EE3D310600295029D172DF1
:1031C000CDD800BF029D6D1C0295029D172DC6D85B
:1031D00000BF029D6D1C0295029D172DBFD800BF38
:1031E000029D6D1C0295029D172DB8D800BF029D4F
:1031F0006D1C0295029D182DE3D3B0E7106062B6F6
:1032000003B0F0BDA0320A40F0B585B01346303BA4
:10321000DBB2092B03D805225A43A44B08E013461E
:10322000413BDBB2192B00D900E105225A439E4BEA
:103230009A1802920CE1196062B6401C052858D019
:10324000029C255CEFF3108472B6039C994E3460A7
:10325000019E03E07E1C6D00072FECD237461961FA
:103260006CB2002C01D41A6100E01A6000240494AE
:10327000049E172E1BD800BF049E761C0496049E45
:10328000172E14D800BF049E761C0496049E172E99
:103290000DD800BF049E761C0496049E172E06D8F7
:1032A00000BF049E761C0496049E182EE3D319607A
:1032B0000494049E172ECDD800BF049E761C04965D
:1032C000049E172EC6D800BF049E761C0496049E4A
:1032D000172EBFD800BF049E761C0496049E172E9E
:1032E000B8D800BF049E761C0496049E182EE3D323
:1032F000B0E7EFF3108072B603986E4D2860204659
:10330000009F04E0A81C3D43072D00D38AE005463A
:1033100019611A610494049817281BD800BF0498F7
:10332000401C04900498172814D800BF0498401C2F
:103330000490049817280DD800BF0498401C0490EE
:103340000498172806D800BF0498401C04900498DD
:103350001828E3D3196000200490049E172E1BD870
:1033600000BF049E761C0496049E172E14D800BF3E
:10337000049E761C0496049E172E0DD800BF049E52
:10338000761C0496049E172E06D800BF049E761C59
:103390000496049E182EE3D319611A610490049ECA
:1033A000172E1BD800BF049E761C0496049E172E71
:1033B00014D800BF049E761C0496049E172E0DD8C8
:1033C00000BF049E761C0496049E172E06D800BFEC
:1033D000049E761C0496049E182EE3D31960049074
:1033E000049817288ED800BF0498401C04900498B5
:1033F000172887D800BF0498401C04900498172809
:1034000000D97FE700BF0498401C04900498172857
:1034100000D977E700BF0498401C0490049818284E
:10342000E1D36FE7196062B605B0F0BD2B3A0F2A01
:103430001CD812A30293C0467A44127952009744D2
:10344000131517191B151515151515151515150730
:1034500000F080FD0120C103039101070090C20725
:103460000020134B0190EBE606A2E2E60D4AE0E6EF
:1034700006A2DEE609A2DCE606A2DAE6003636009F
:103480000000000008083E080800000008080808BE
:103490000800000020100804020000000060600026
:1034A00000000000E84600001F470000ED46000055
:1034B00090120A4090320A40F0B581B0054610786B
:1034C000002810D0142D0ED80C46571CEEB2C2B2F4
:1034D00030462146FFF798FE3878002803D07F1C3D
:1034E0006D1C142EF2D301B0F0BD0000F0B593B006
:1034F0000593154603910746002A01D4002404E0F1
:103500000FA82D2101706D4201240A26284631465C
:1035100000F046FE019002963146FCF73DFE0FA8F2
:1035200000193026314301700120642D0D94069559
:1035300004960E9002D22246054644E064212846B5
:1035400000F02EFE0A21FCF727FE0D9A0FA8101896
:1035500031434170E8087D2830D37D20C1002846E2
:1035600000F01EFE0A21FCF717FE0D9A0FA8801826
:1035700031438170B048854222D3AF49284600F0DC
:103580000FFE0A21FCF708FE049B0D9A0FA81018E5
:103590001943C17000200E90A848854212D3A74954
:1035A00028461C4600F0FCFD0A21FCF7F5FD0D9AAB
:1035B0000FA8801821430171052504E0022502E0CF
:1035C000032500E004250698642818D30FA90D9858
:1035D0000A1813780D9840194118491E0C78147078
:1035E0000D9A0B700E99002909D10FA90D9A521846
:1035F00053784018801E017851700D9A0370059918
:103600008D4200D3ECE04C1B012620463040009058
:103610006B1EE843C84208D100200E90284600994E
:10362000002900D098E0059DDAE00996B4430FA880
:103630001018001F0890002128460E910E4607978B
:103640000C930A940EE00FA90D9A89180B700B9E2B
:10365000B61C0E99891C0E91AD1C801C0A9CA642BA
:103660000C9BDCD00B960326044634402A460146C8
:103670001FD00D9B59190FAA57187F1E3F7857541A
:103680006A1E012C01D1411E12E099180FAA571889
:103690007F1E3F785754AA1E022C01D1811E07E0DD
:1036A00099180FAA5418641E24785454EA1EC11E97
:1036B0000C9B0E9C1C19E4B2032C0DD3089CA21881
:1036C000D4781471947857789770D47014785470B3
:1036D000121F091F0C06F3D10FA90D9A8918202378
:1036E0000B70411C0E406C1C002E13D01119521986
:1036F0000FACA75C6754012E2C460146079F14D0DF
:103700000FA98C18641E24788C546C1E022E03D1D1
:10371000411E0AE0079F08E00D9909190FAA5418E5
:10372000641E24785454AC1E811E0E9A099E3243A6
:103730000C9EB218D2B2032A85D3089A1419E278E3
:103740002271A2786678A670E27022786270241FD7
:10375000091F0A06F3D176E7032404400E9959188D
:10376000002C0CD00E91114652190FAB9E18761EEC
:1037700036789E546A1E012C04D1401E15E02A465C
:10378000059D14E08A180FAB9E18761E36789E545D
:10379000AA1E022C01D1801E07E08A180FAB9C18CC
:1037A000641E24789C54EA1EC01E059D0E99C9B261
:1037B000032910D30D9951180FAA8918091FCA7827
:1037C0000A718A784B788B70CA700A784A70091F20
:1037D000001F0206F3D10FA80D9A80182021017056
:1037E000A918CAB20FA82E238354029B019A5343EF
:1037F000069AD21A049B1A434B1CDBB2C254891C92
:10380000C9B200224254142F039D12D80078002818
:103810000FD00FA94C1CFEB2C2B230462946FFF7AA
:10382000F3FC132E05D8611C7F1C207800280C4661
:10383000F1D113B0F0BDC04610270000A0860100F2
:1038400080B508480849FDF7D3FC0848002101600D
:103850007D208000064948610868012202430A6011
:1038600080BDC04600200040A447000080310040D9
:103870000031004010B51A4C1A492046FDF756FE9B
:1038800019492046FDF72EFE0320C10317480268A0
:103890008A4302600169DF4A0A40D032026141690D
:1038A00015220A432A218A434261426801210A40C3
:1038B00043688B439A1842604A04036813430360C9
:1038C000C2682023134350229343C360C26802237B
:1038D000134305229343C36002680A43026010BD8C
:1038E00000001040AC470000AE470000001110403F
:1038F000B0B5304988228A632F4804230360CA6325
:10390000082202602D4A931C0B604B6001235B066A
:103910000C681C430C604C681C434C6082240C6592
:10392000551C4D658C65CD65254B9C62DD62254C33
:10393000DC61254C0C6681244C664A63DC609C602B
:103940005C619C619A659A66DA63DA648C67CC671D
:103950008C604C619A635A65DA66CA645A601A6070
:103960000C674C670C641949194A0A600A630F21F5
:103970008904184A13680B43136003214906164A49
:10398000136A0B43136213680B431360014630390B
:10399000124A0A60026012480168124A0A43026031
:1039A0001120000510490A6A02430A620A680243AC
:1039B0000A60B0BD04804240D0320A408100040059
:1039C000848042408100050081000600A0120A4068
:1039D00000600390A0130A4028100A4010F2000073
:1039E000A0330A400003030028300A4080B5114884
:1039F0001149FDF722FC03204102104802680A43E6
:103A0000026001210A02036813430360002242613D
:103A10001F224262826B07239A4382631A02836BDE
:103A200093438363826A042313438362826A0A4353
:103A3000826280BD00000F40B847000000120F40B6
:103A400010B51A4C1A492046FDF770FD1949204659
:103A5000FDF748FD0320C103174802688A4302604E
:103A600001696C4A0A4011320261416917220A4316
:103A700028218A434261426801210A4043688B43FE
:103A80009A1842604A04036813430360C268202303
:103A9000134350229343C360C26802231343052299
:103AA0009343C36002680A43026010BD00201040C7
:103AB000BA470000BC47000000311040F0B581B0AB
:103AC0001A4C1B492046FDF7FFFC1A492046FDF71A
:103AD000C7FB00250095204629462A462B46FDF7C0
:103AE000DFFC204629462A46FDF7CCFC7D208601D6
:103AF000204631462A46FDF7DFFC01270097204685
:103B000029462A462B46FDF7CBFC204629463A4655
:103B1000FDF7B8FC204631463A46FDF7CDFC064895
:103B200087600321016001B0F0BDC04600208640DF
:103B3000C6470000CC470000003186400D480021F8
:103B400001600320C1430C48021F13680B4013603F
:103B50004168012291434160110242688A434260F8
:103B6000016830229143016001680F229143016096
:103B70007047C04608030B4004010B40704700002B
:103B800010B5084C08492046FDF79EFC0749204621
:103B9000FDF700FC06480168012211430160054859
:103BA000026010BD00400840D4470000D847000024
:103BB000285008400851084010B5124C12492046C0
:103BC000FDF7B4FC11492046FDF78CFC0320C1032E
:103BD0000F4802688A43026001690E4A0A401132A6
:103BE0000261416917220A4328218A4342614168E0
:103BF0000122114043689343591841600168114301
:103C0000016010BD00801040EC470000EE4700004E
:103C1000009110400000FFFF80B500F01BF8FFF797
:103C200067FEFFF78BFFFFF749FFFFF7A9FFFFF7DD
:103C3000DDFEFFF7C1FFFFF71DFEFFF701FFFFF7F6
:103C4000FFFDFFF79BFFB820014900220A5480BD09
:103C500060002020F0B581B01248134A426013483A
:103C6000426013484260134C6260134D6A60134E09
:103C70007260134F7A6013494A6013484260134AD6
:103C8000084B1A60094B1A60094B1A6022602A60BF
:103C900032603A600A6002601020FDF7C9FA01B094
:103CA000F0BDC04600080A40030000B100280A40E9
:103CB000002886400048084000080F400088104057
:103CC0000008104000281040002800400100002695
:103CD00021481021016070470148102101607047A0
:103CE000A0320A40064800210160194801601948C5
:103CF00001601B4801601848102101607047C046F0
:103D00008C01202080B501461148016001290EDB9D
:103D100001204003104A1060104800F041FA0D499C
:103D200008600868002808D10120086005E0002923
:103D300007D408480021016000680948002101609B
:103D400080BD01204003044A10614942E4E7C046B7
:103D5000D0012020C001202090320A40102700000E
:103D6000D401202080B504480068C0B2012801D1E8
:103D7000FCF7DCFF80BDC0462050084082B0FFF752
:103D80004BFF56480168012529430160FDF760FD9E
:103D9000FDF7F2FBFDF708FEFCF744FFFFF7A2FF7B
:103DA000FCF74EFEFCF75CFDFCF7EEFDFDF74EFC6C
:103DB000FCF7ACFCFCF76CFEFDF730FFFDF76CFE8A
:103DC0000027474A38463946FFF776FB022445A2CA
:103DD00038462146FFF770FB44490C6044480460B4
:103DE0000C6004602A040A600260A902414A136858
:103DF0000B431360A90301603C4616E00020062631
:103E0000314652A2FFF758FB6421009800F0C8F930
:103E10000246022003233146FFF768FB08203146A3
:103E20004BA2FFF749FB2C4630BFFCF7F7FE0A25F3
:103E30004543E81B0A2803D32846FCF7B3FD2F4669
:103E40002846FCF72FFE281BC828EDD30197FCF766
:103E500017FE0746FCF718FE0646FCF70DFE00901D
:103E60000024204621461E4AFFF726FB0221204659
:103E700021A2FFF721FB042F07D878B2800020A1F0
:103E80000A5805200221FFF717FB032E17D821A29D
:103E900022A3C0467E4436797600B7440908020161
:103EA00020A200200421FFF707FB019FA6E71FA324
:103EB000002004211A46FFF7FFFA019F09E00020C5
:103EC00004211CA2FFF7F8FAFE200640022E019FF3
:103ED00094D00020062119A2A3E7C04604388640EA
:103EE00034480000494E4954204F4B0080E200E026
:103EF00000E100E0283010404D4F44453A000000FA
:103F00001C480000F847000010480000044800006A
:103F10002848000052554E202020000053454C45B3
:103F200043540000444F4E45202000005245414478
:103F3000592000003F3F3F202020000031434C4BE0
:103F40003A474F2032434C4B3A535700543A000003
:103F500053000000F0B582B0EFF3108272B6012278
:103F6000D3038D4C00932360072900D307214F23EF
:103F7000DF430F431107D2070024884B03E06C1C7A
:103F80007F00072D4AD2254619617CB2002C01D44E
:103F90001A6100E01A6000260196019C172C1BD8BC
:103FA00000BF019C641C0194019C172C14D800BF15
:103FB000019C641C0194019C172C0DD800BF019C2E
:103FC000641C0194019C172C06D800BF019C641C42
:103FD0000194019C182CE3D319600196019C172CC5
:103FE000CDD800BF019C641C0194019C172CC6D83D
:103FF00000BF019C641C0194019C172CBFD800BF1A
:10400000019C641C0194019C172CB8D800BF019C32
:10401000641C0194019C182CE3D3B0E7196062B6CC
:10402000EFF3108472B6009C5B4D2C60142800D313
:104030001420062747430E253D4003E0661C6D0013
:10404000072C4AD23446196168B2002801D41A619B
:1040500000E01A6000200190019E172E1BD800BFBF
:10406000019E761C0196019E172E14D800BF019E5A
:10407000761C0196019E172E0DD800BF019E761C5E
:104080000196019E172E06D800BF019E761C019650
:10409000019E182EE3D319600190019E172ECDD8F2
:1040A00000BF019E761C0196019E172EC6D800BF48
:1040B000019E761C0196019E172EBFD800BF019E5F
:1040C000761C0196019E172EB8D800BF019E761C63
:1040D0000196019E182EE3D3B0E7196062B6EFF3A4
:1040E000108472B6009C2C4D2C60FCB22409103454
:1040F00003E0681C6400072D4AD20546196160B2CE
:10410000002801D41A6100E01A6000200190019E8D
:10411000172E1BD800BF019E761C0196019E172EFC
:1041200014D800BF019E761C0196019E172E0DD853
:1041300000BF019E761C0196019E172E06D800BF77
:10414000019E761C0196019E182EE3D31960019002
:1041500001981728CDD800BF0198401C0190019804
:104160001728C6D800BF0198401C01900198172855
:10417000BFD800BF0198401C019001981728B8D8FB
:1041800000BF0198401C019001981828E3D3B0E7C4
:10419000196062B602B0F0BDA0320A4090120A4027
:1041A00043088B421AD3002203098B4279D3030AB6
:1041B0008B425ED3030B8B4242D3030C8B4227D33B
:1041C0000902FF2212BA030C8B4202D31212090217
:1041D00003D0030B8B4233D31AE0D3E0411A804162
:1041E000401C704703460B4371D443088B42F5D300
:1041F000002203098B4254D3030A8B4239D3030BA9
:104200008B421DD3030C8B4202D394466EE0090A05
:10421000C30B8B4201D3CB03C01A5241830B8B4299
:1042200001D38B03C01A5241430B8B4201D34B0382
:10423000C01A5241030B8B4201D30B03C01A5241E7
:10424000C30A8B4201D3CB02C01A5241830A8B426C
:1042500001D38B02C01A5241430A8B4201D34B0255
:10426000C01A5241030A8B4201D30B02C01A5241B9
:10427000CDD2C3098B4201D3CB01C01A524183096D
:104280008B4201D38B01C01A524143098B4201D3A7
:104290004B01C01A524103098B4201D30B01C01AD2
:1042A0005241C3088B4201D3CB00C01A524183084C
:1042B0008B4201D38B00C01A524143088B4201D379
:1042C0004B00C01A5241411A524110007047CA0FA8
:1042D00000D04942031000D34042534000229C4684
:1042E00003098B422DD3030A8B4212D38901FC228E
:1042F00012BA030A8B420CD3890192118B4208D364
:10430000890192118B4204D3890137D0921100E0C8
:104310008909C3098B4201D3CB01C01A52418309D9
:104320008B4201D38B01C01A524143098B4201D306
:104330004B01C01A524103098B4201D30B01C01A31
:104340005241C3088B4201D3CB00C01A52418308AB
:104350008B4201D38B00C01A5241D9D243088B4201
:1043600001D34B00C01A5241411A00D201465241BA
:10437000104663465B1000D34042704763465B10B3
:1043800000D3404201B50021004201D0C943084694
:10439000C046C04602BD10B500F072F8EFF30080D1
:1043A000800001D5012010BD002010BD10B500F027
:1043B00067F8EFF300804000800F012800D0002054
:1043C00010BD10B500F086F8EFF300804000800FBC
:1043D000012801D0012010BD002010BD10B500F053
:1043E00079F8EFF30080800001D4012010BD002097
:1043F00010BD000070B50125ED0704004C4020D42D
:10440000441A01D2001B0919C60D4B00F2B2FF2A53
:1044100029D01B0E2CD000020C0228432C43D31AA7
:10442000DC40051910D2280A02D3401C6D0611D0B9
:10443000761EF6058019FF2A00DA70BDC00DC00592
:1044400070BD694000F0CEF801200543C541521C03
:10445000761CE8E764089C40C90161408900E7D107
:104460000124A043E4E71B0E440200D0034870BDC2
:10447000002AFCD1C00FC00770BD00BF0000C07F84
:104480000123DB0502000A430DD4DA4203D49A4229
:1044900007D488427047D84214D4D94212D48842F3
:1044A000704780427047DA4203D59A42F9D581427B
:1044B00070475B004200DA4204D24A00DA4201D27D
:1044C0008142704710B5024AFCF76CF810BD00BF7E
:1044D000090013040123DB0502000A430DD4DA426C
:1044E00003D49A4207D488427047D84214D4D942A0
:1044F00012D48842704780427047DA4203D59A420C
:10450000F9D5814270475B004200DA4204D24A008A
:10451000DA4201D28142704710B5024AFCF742F8F4
:1045200010BD00BF0900160470B5420064414B0085
:104530005C41120E39D01B0E38D0FF2A3CD0FF2B25
:104540003AD0D2187F3A40024902400A490A451837
:10455000ED0106004E43000A090A48430104731A9C
:104560004019190C4318990F04D05B080121490721
:104570005B1A521CD80904D3401CF50301D19D06D7
:1045800007D0FF2A08D2D50506D0E40720434019FA
:1045900070BD0125A843F4E7002A01DCE00770BDE7
:1045A0002402FF202043C00570BD1B0EFF2A03D04C
:1045B000FF2B01D0E00770BDFF2636064500B5424F
:1045C00006D84D00B54203D8D218FF2A00D0E7E73D
:1045D000004870BD0000C07F70B50125ED070400E4
:1045E0004C4022D4441A02D26C40001B0919C60D5B
:1045F0004B00F2B2FF2A4BD01B0E50D000020C022F
:10460000A8432C43D31ADC40051B05D5AD0019D3B4
:104610006D08761E521E37D0F605280A01D2801981
:1046200070BD70416D0603D070BD6940FFF7E8FEB4
:104630009C4009026140490001D0401E70BD012428
:10464000A04370BD6D081DD001202B0C01D12D049D
:1046500010302B0E01D12D0208302B0F01D12D016E
:10466000001DAB0F01D1AD00801CEB0F01D16D001F
:10467000401C361A121A6D00680AF5054019012A05
:1046800002DB70BD002070BDC036300AC00770BDAF
:104690001B0E440201D1FF2B00D1024870BD002A3D
:1046A000F0D070BD0000C07F8182838485868788BA
:1046B000898B8C8D8E8F919293959697999A9C9DCC
:1046C0009FA0A2A3A5A7A8AAACAEB0B2B3B5B7B934
:1046D000BCBEC0C2C5C7C9CCCED1D4D7D9DCDFE2FD
:1046E000E6E9ECF0F3F7FAFE00000000003E514965
:1046F000453E00427F400042615149462141454BC1
:10470000311814127F1027454545393C4A49493034
:1047100001710905033649494936064949291E7E72
:104720001111117E7F494949363E414141227F4165
:1047300041221C7F494949417F090909013E4149FC
:10474000497A7F0808087F00417F41002040413FAF
:10475000017F081422417F404040407F020C027FCD
:104760007F0408107F3E4141413E7F090909063E12
:104770004151215E7F0919294646494949310101C4
:104780007F01013F4040403F1F2040201F3F4038F5
:10479000403F6314081463070870080761514945D6
:1047A00043000000000500000000000308000000B6
:1047B0001800000000300000080008000000180089
:1047C000000000300000080000000000401F000052
:1047D0000000000008001F00020000000F2700007A
:1047E00001000000000000000000000008000000C0
:1047F000180000000030000051333A42414C4C2B6D
:104800002D35200051353A4C41502B42414C20006F
:1048100051343A41422B42414C4C200051323A4CE7
:10482000415020323053200051363A4C41502B50E9
:104830004F532000483A2042414C414E43452043CB
:1048400041520000000000005848000000002020F5
:08485000D8020000280100005D
:04000005000000C136
:00000001FF
