:020000040000FA
:10000000980220206D0100007101000073010000C2
:1000100000000000000000000000000000000000E0
:10002000000000000000000000000000750100005A
:1000300000000000000000007701000079010000CE
:100040007B010000311500007B0100007B010000F6
:100050007B0100007B0100007B0100007B010000B0
:10006000000000007B0100007B0100000000000098
:10007000000000007B0100007B0100007B0100000C
:100080006D3F00007B0100007B0100007B01000050
:100090007B0100007B010000000000000000000068
:1000A0007B0100007B010000000000000000000058
:1000B0007B010000000000007B0100007B010000CC
:1000C00000F002F800F042F812A030C808382418F6
:1000D0002D18AC4201D100F039F80FCCA246AB4646
:1000E0000CA730CF2D1B083F3F197C427F1E544484
:1000F0002D090426F441641EAC4201D300F026F819
:100100000126334200D0FB1A3343984754465D46DC
:10011000DFE70000CC490000DC49000000000000DF
:100120007047000000000000002300240025002686
:10013000103A01D378C1FBD8520700D330C100D5A3
:100140000B6070471FB51FBD10B510BD00F05CFA05
:100150001146FFF7F7FF03F015FF00F074FA03B440
:10016000FFF7F2FF03BC00F0C9FA000006480047A1
:10017000FEE7FEE7FEE7FEE7FEE7FEE70348044989
:10018000024A044B70470000C10000009801202083
:100190009802202098012020002203098B4273D36B
:1001A000030A8B4258D3030B8B423CD3030C8B4284
:1001B00021D312E003460B437FD4002243088B4235
:1001C00074D303098B425FD3030A8B4244D3030BDE
:1001D0008B4228D3030C8B420DD30902FF2212BAA3
:1001E000030C8B4202D31212090265D0030B8B421F
:1001F00019D300E0090AC30B8B4201D3CB03C01A09
:100200005241830B8B4201D38B03C01A5241430BE3
:100210008B4201D34B03C01A5241030B8B4201D3D3
:100220000B03C01A5241C30A8B4201D3CB02C01A3E
:100230005241830A8B4201D38B02C01A5241430AB6
:100240008B4201D34B02C01A5241030A8B4201D3A5
:100250000B02C01A5241CDD2C3098B4201D3CB014C
:10026000C01A524183098B4201D38B01C01A5241FB
:1002700043098B4201D34B01C01A524103098B42FF
:1002800001D30B01C01A5241C3088B4201D3CB00EA
:10029000C01A524183088B4201D38B00C01A5241CD
:1002A00043088B4201D34B00C01A5241411A00D27D
:1002B00001465241104670475DE0CA0F00D04942E6
:1002C000031000D3404253409C46002203098B4256
:1002D0002DD3030A8B4212D38901FC2212BA030ADE
:1002E0008B420CD3890192118B4208D38901921160
:1002F0008B4204D389013AD0921100E08909C309E5
:100300008B4201D3CB01C01A524183098B4201D3E6
:100310008B01C01A524143098B4201D34B01C01AD1
:10032000524103098B4201D30B01C01A5241C30849
:100330008B4201D3CB00C01A524183088B4201D3B8
:100340008B00C01A5241D9D243088B4201D34B00D3
:10035000C01A5241411A00D201465241104663462A
:100360005B1001D34042002B00D5494270476346E1
:100370005B1000D3404201B50449002802DC491C4F
:10038000084000E00846C046C04602BDFFFFFF7FB0
:100390007047704770470000F0B5FF252D04C6096F
:1003A000C209FF2704462E400137CB093E4348408F
:1003B0002A402B400746002A6BD0002B69D0AA4266
:1003C00067D0AB4265D0002800DA32460125ED0542
:1003D00029432C4309022002090AD21A4B0C7F241C
:1003E000E31A434C000A7C44E35C7D242404121984
:1003F00014145B00A218884201D3521C00E0400094
:1004000049420C465C4324115C43DB016415E3184C
:10041000040A5C43C502200D0C4644436419250AB6
:100420005D432303EC0C0D46654300030019EB18F4
:100430004C42A34201D35B18401CD4052018002B6A
:1004400007D05B00C91804D3401C002901D1400823
:1004500040003F2189048A4209D3002A08DC1106A2
:10046000090F04D0032149074018C00FC007F0BD91
:1004700001224100120689187F2252069142F6D2CB
:1004800005214907C84201D59010F0BDFF20C005E5
:10049000F0BD002F00DA32461648AA4207D2AB421E
:1004A00005D21902090E17D0F80FC007F0BDFF25BD
:1004B00063002D06AB42F9D84900A942F6D8AB42F9
:1004C00001D1A942F2D0A94201D1002101E061008D
:1004D0004908D0050843F0BD1102090EFBD0FF20EA
:1004E0000243D005F0BD0A460146104654E700001D
:1004F000EE4400000000C07F10B501469E240002BB
:10050000CA15A307002A02D01843002A04DBA21A46
:10051000002A0CDDD04010BD1206120E01D14000A1
:100520004008A21A03D4D04040420028F3DDFF2245
:1005300048001206904201D9002010BDC817C043E0
:10054000584010BD1F22030C02D10F2200041CD002
:10055000030E01D10002083A030F01D10001121F5E
:10056000830F01D18000921E002801DB4000521E43
:10057000D2055118021251181922904004D3491C77
:10058000002801D14908490008467047C10FC90732
:1005900000D04042012292071143D3E7012189078D
:1005A000D0E7000010B5FF231B0644009C421DD875
:1005B0004C009C421AD80346124A0B4307D4401AF7
:1005C00002D3EFF3008010BDEFF3008010BD081AD6
:1005D00003D3EFF30080904305E0EFF300800121A7
:1005E0009043C907084380F3008810BD0D231B0406
:1005F0001A4204D01146002000F02DF810BD00F082
:1006000041F810BD00000090754600F043F8AE467A
:10061000050069465346C008C000854618B020B59D
:10062000FFF7ACFD60BCB64600260027C0C5C0C5BC
:10063000C0C5C0C5C0C5C0C5C0C5C0C5403D4908CE
:1006400049008D46704710B50446C046C046204656
:10065000FFF785FD10BDC80212D54803400F0028E2
:1006600004D0C803C043012188407047EFF30080E5
:100670000001000903210907084380F3008870473F
:100680000020704710B5024800F008F810BD0000C7
:100690000000C07F004870470000202010B50C46C5
:1006A0001107090F092904D00A290AD008290CD1F9
:1006B00004E011460820FFF7CEFF06E0510606D5FC
:1006C00001E0510601D50120C007214610BDD10629
:1006D00007D501010909CC084907000E00060443AB
:1006E00009E0410F20024907000A0143200E0006DD
:1006F0001D22D14101430846E7E7000001491820C7
:10070000ABBEFEE72600020070470000054800214E
:1007100001707047034801210170704701480021B2
:1007200001707047910120207047000010B5044609
:1007300000F05AF805480121017005480460054899
:1007400000F0B2FE04A000F071F810BD43012020BB
:1007500044012020934A00004341525F4D415354CD
:1007600045523A424F4F540D0A000000B0B582B0D6
:1007700004460F480078012817D101A800F048F876
:10078000002805D001AD287800F088FE2846F5E75E
:1007900008480168611AC9087D2906D3046006A0CB
:1007A00000F044F809A000F07FFE02B0B0BDC046E2
:1007B00043012020440120204341525F4D415354C6
:1007C00045523A48454C4C4F0D0A00005B425420BC
:1007D00054585D204341525F4D41535445523A486D
:1007E000454C4C4F0D0A00000F48016849070DD4D5
:1007F000C1690168490709D4C1690168490705D47D
:10080000C1690168490701D4C169EEE77047C04674
:1008100001460020002906D0034A13685B0702D472
:10082000D06908700120704708111040B0B5002849
:100830000DD0017800290AD0451C054CC9B22046CC
:1008400000F022FE681C297800290546F6D1B0BDCB
:100850000000104015490860124800684003C00FAE
:1008600013490870104908707047C04610B50D490B
:1008700009684903CA0F0C490B78934202D00B4B0D
:1008800018600A700A4B1C780021944207D0074C6C
:100890002468001B1E2802D31A700121514008460B
:1008A00010BDC04680130A403001202034012020B2
:1008B0002C01202086B003F0FDFA60480168012475
:1008C0002143016000F008FF00F01EFE00F0CCFFA5
:1008D00000F0D4F800F0CEF80A256843FFF726FFB1
:1008E00001F0FCF801F038F8554802210160554A42
:1008F000116001601160009421040160116000F03A
:100900006BFEFFF703FF00F0B5F805956843FFF7AE
:10091000A1FF00263046314603F060FCAF204000C6
:10092000019000F0A7F8049035460296039601E086
:1009300030BF264600F09EF80746059847433846E4
:10094000FFF794FF29061BD0384600F061FE3846B9
:10095000FFF7EAFE344600F08DF805994843FFF7AB
:1009600005FF00F087F80499401A3228E0D300F020
:1009700081F804900398C0B2E9B203F02FFCD7E7E6
:10098000C00702D13446029A1DE0029800283C4676
:10099000009A18D0B81B0199491C88423C46009A1D
:1009A00011D20398C0B2401C27494143090C0522CB
:1009B0004A43801A039080B20025294603F00EFCBA
:1009C00034460295C7E70025002A1BD0381B019941
:1009D000884217D900F012FEFFF7A0FE0398C6B2B6
:1009E000042E23D8B00001A108588746010A000050
:1009F0001F0A0000090A0000270A0000130A00006D
:100A0000002011E00292A6E70020FFF783FE0120FC
:100A10000AE003252846FFF77DFE284604E0002073
:100A2000FFF778FE02E0022000F0DAFD01253046F3
:100A3000294603F0D3FB002002908CE7043886405F
:100A400080E200E000E100E0343300002648006866
:100A50007047C046294800687047C0462B48006868
:100A60007047C046214800687047C0462448006867
:100A70007047C046264800687047C04680B5384970
:100A80000020087029490860144908603549086049
:100A90003549086012490860124908601249086027
:100AA000124908601249086012490860124908702A
:100AB000124908601249086012490860124908602A
:100AC00012490860294908602949086029490860D5
:100AD0000F49086000F026FF80BDC0466401202059
:100AE0004C01202078012020580120208401202062
:100AF0005C0120208801202090012020600120201E
:100B00008C012020500120207C0120206801202021
:100B10003801202010B50446002103F05FFD0028B5
:100B200000D104460148046010BDC04628012020C1
:100B300080B50B490A7882420AD00A4A0023136022
:100B4000094A1360094A1360094A1360094A13608D
:100B50000870002800D080BD00F0E4FE80BDC046D3
:100B60006C012020540120208001202074012020CD
:100B70007001202048012020F0B585B0D8480168D8
:100B8000491C016000F0D4FD04A803A900F0C2FCD8
:100B9000D44B1868039940181860D34C2068049A05
:100BA000801A2060D14E306840183060D04D2868DF
:100BB000801A2860CF4F3878401C3870C0B20528A2
:100BC0002AD330683224214600F082FCFE4F386080
:100BD0002868214600F07CFCFC4C2060386800212D
:100BE00003F0F1FC002804D10120C007396841401E
:100BF0003960206827460024214603F0E4FC0028E1
:100C000004D10120C00739684140396034602C604C
:100C1000F14F3C70EE4BEF4CF2480178002927D0A1
:100C20000078012838D118682168441AF848066805
:100C300004602046FFF7AAFC0546A01BFFF7A6FCB0
:100C4000F44903F089FD0446F349284603F084FD86
:100C5000214603F0E7FC0446EB4E3068214603F0E2
:100C6000D3FD05463068214603F0DCFC064686E0ED
:100C7000EC4800210160F2480160E8480160E84862
:100C80000160EE480160F048016031602960397010
:100C900000F048FE05B0F0BD02A800F0BBFC002843
:100CA0000AD0029C0021204603F0B0FC3F210D0633
:100CB00000280CD129460CE0CB4800210160CB482C
:100CC0000160CE480160D0480568066857E0BF2043
:100CD0000106204603F0A6FCFFF70EFCC24908609F
:100CE000C24801680460204603F08EFD294603F0E7
:100CF00033FD0546BE49204603F02EFD294603F08C
:100D000091FC0546BB4C214603F068FC002800D14D
:100D10002C46B94D2046294603F060FC002800D13E
:100D20002C46B64F3D682046294603F06DFD064629
:100D3000B34903F05EFC002801D1B14906E0B14996
:100D4000304603F040FC002804D1AE49284603F0A9
:100D500069FC04463C60AC4E3068AC4F396803F027
:100D600061FC0146204603F05DFC054630683968A9
:100D700003F04AFD214603F047FD0646964F002446
:100D80002846214603F02AFC002800D10546A34846
:100D900005603046214603F021FC002800D10646BC
:100DA0009F48019606608D480168284603F02CFD97
:100DB000064638789B490F68002812D08D49304686
:100DC00003F0CAFC04469849284603F0C5FC2146B6
:100DD00003F028FC04469549384603F0BDFC214643
:100DE0004AE00968304603F01DFC0446904F39463E
:100DF00003F0F4FB002800D127468E4C38462146EC
:100E000003F0ECFB002800D12746884900973846BC
:100E100003F0A2FC04467749304603F09DFC0746E8
:100E20008149284603F098FC394603F0FBFB07464E
:100E30002046394603F0F6FB05467F4903F0E6FB02
:100E40000028784C05D10021304603F0C7FB00286C
:100E50000DD10021284603F0C1FB002805D1002157
:100E6000304603F0D3FB002801D1009820602068B1
:100E70006E4903F071FC394603F0D4FB0446564E2C
:100E80006D4D294603F0AAFB002800D1254600211C
:100E9000284603F0A3FB002800D105462846FFF7AB
:100EA0002BFB664908604E480168019F384603F0F5
:100EB000ABFC0546307862490E6800281CD04D49CD
:100EC000284603F049FC04465E49384603F044FCDA
:100ED000214603F0A7FB04465449304653E0C04680
:100EE000380120204C012020780120205C012020A6
:100EF00088012020900120200968284603F092FBF9
:100F000004464B4E314603F069FB002800D12646CB
:100F1000484C3046214603F061FB002800D12646AC
:100F20004249304603F018FC07463249284603F090
:100F300013FC04464349019803F00EFC214603F0DC
:100F400071FB04463846214603F06CFB07463A49DC
:100F500003F05CFB002805D10021284603F03EFB8E
:100F600000280DD10021384603F038FB002805D1B8
:100F70000021284603F04AFB002801D130480660D2
:100F80002F480068294903F0E7FB214603F04AFB9C
:100F90000546294C214603F021FB002800D12C46B0
:100FA0000021204603F01AFB002800D10446204609
:100FB000FFF7A2FA2449086020480068096800F099
:100FC0006BFC05B0F0BDC0465801202084012020F4
:100FD0004C01202078012020900120205801202061
:100FE000840120206C012020680120207401202031
:100FF0006666E63F00002041000020C14801202035
:1010000000004040000040C0280120206401202052
:10101000700120203333333FCDCC4C3E6001202083
:101020008C01202054012020000082423333B33E43
:101030000080BB440080BBC400C0F34550012020A9
:1010400080012020000068427C012020B0B50A7891
:10105000032313400B4A84580B4D2540EB18A92459
:1010600024061B198350072212064B6813401124D3
:10107000240205599543EA18025100194978016183
:10108000B0BDC04608080000FCFFFF00811E091F1C
:1010900000BFFCD2704770B50A780C231A400124B7
:1010A000240305196E689E43B2186A6049780722C6
:1010B0001140035993435918015170BDF0B584B0E4
:1010C000012422022A4B1968039291431960354981
:1010D0000D686D04FCD5457E25409E69A6437419B4
:1010E0009C612024045D03252C40DE69AE43341945
:1010F000DC61204C256805262660466A37681F6239
:1011000076685E6207262E402660C4697F252D0220
:10111000DE69AE436406640C3419DC610768456817
:1011200082680092C66802690192426902929A69D5
:10113000114C14403A07120B2D03ADB2AA183243DA
:10114000009D2D072D0D1543019A1543029A154355
:10115000007E2843094A0240101998611868039AD2
:101160001043186008688005FCD504B0F0BDC04687
:1011700008010B40001340408D00F0FF72FF0F008C
:1011800007498860074802689202FCD501221204D0
:101190000B6813430B600168C906FCD57047C04655
:1011A00004010B4004020B4070B582B00B794A7900
:1011B000002A25D0184A202B02D00524E40100E0A3
:1011C000434C8218002B00D18824156C3F4E3540CB
:1011D0002D191564556C35402C19546414687A4DDA
:1011E0002C40146054682C405460002414625462F3
:1011F0008F24E443156D25401565556D25405565D3
:101200006A4613718B79537109680091114600F099
:1012100005F802B070BDC04638180000F0B5684A45
:101220008218294BC318087920280DD000281DD119
:101230000C68641E5460D56E244C25408835D566F4
:101240001646703688251DE00C68641E5460D46E06
:101250001E4D2C401E4EA419D466146F2C40A419A8
:101260001467012465071B4C16460BE00C686408E4
:101270005460D66E154C26400525ED017619D666CC
:1012800016467036376827402F433760D46A4E4D74
:101290002C40D462146B2C4014630024D464146575
:1012A0008F24E443D56F2540D5671D6825401D6018
:1012B00049790143BD2008401168074B0B40C01815
:1012C000801C1060F0BDC0468418000024493E0018
:1012D00001040000FFFFFFCF4000FFCFB0B54A6818
:1012E000364BC250364A80180A78222A58D89300C2
:1012F00001A4E3589F46C04697130000A1130000C5
:1013000097130000A1130000A1130000A113000017
:10131000A1130000A1130000A1130000A1130000FD
:10132000A1130000A1130000A1130000A1130000ED
:10133000A1130000A113000085130000A1130000F9
:1013400085130000A1130000A1130000A1130000E9
:10135000A1130000A1130000A1130000A1130000BD
:10136000A1130000A1130000A1130000A1130000AD
:10137000A1130000A113000085130000A1130000B9
:101380008513000003231B0704689C4301235B07AC
:10139000E318036004E003231B0704689C43046014
:1013A0000B69C360CB68074C1C40C36A064D1D40E7
:1013B0002B19C362097A11430160B0BD08180000FF
:1013C00004180000777702008888FDFF10B5072316
:1013D0009B04194092008018024A84589C4361186B
:1013E000815010BD3018000010B5029CA4000019F7
:1013F00011431943014A815010BDC04650180000E6
:1014000092008018014A81507047C04610180000B1
:1014100010B50122120383180C789C604B7883501E
:101420008978014A815010BD0C110000B0B511221D
:10143000120283580124A34383500B888C781C43E9
:101440008B882343094C1C408358094D1D40631968
:1014500083508B79CC791C43097A21437E23194030
:10146000801842689A4351184160B0BD1867000067
:10147000E798FDFF10B50122120383180C789C60D9
:101480004978815010BD0000034A80180268120696
:10149000FCD481617047C0460811000080B5014648
:1014A0000A48FFF7F1FF80BDB0B500280DD00178E4
:1014B00000290AD0451C054CC9B22046FFF7E4FFBD
:1014C000681C297800290546F6D1B0BD008010407F
:1014D000B0B5002911D00C46FFF758F8084903F0C1
:1014E0003BF905462046FFF759F8064903F034F961
:1014F00001462846FEF750FFB0BD0020B0BDC046F3
:1015000000606A47000043443148002101603148CF
:1015100001607047EFF3108272B62D4A13680360C2
:101520002C4803680B6000211160016062B67047AF
:10153000F0B50124A706244910390E6835463D4010
:101540000021CA43214B103B1B68B601C24E08D58F
:1015500030683842174600D027461D480168791880
:101560000160002D0AD060063168014201D01446A6
:1015700000E0012416480168611801600124260674
:10158000D802B64D08D528683042174600D0274605
:101590001048016879180160334208D02005296895
:1015A000014200D101220B4801685118016003205B
:1015B0004006054A11680143116011200005034AE5
:1015C000116801431160F0BD48100A4048300A40DC
:1015D0001C012020200120200C48002101707047B0
:1015E00080B50A48012101700348FFF793FA0220F1
:1015F000FFF79EFA80BDC0468B7F674180B50349E7
:1016000000200870FFF794FA80BDC0462401202016
:1016100070470000F0B581B0002817D004460020C4
:1016200020608F490A78002A53D03F2A51D00826DB
:1016300016409106C91704239943202313405D09DE
:10164000D70606D4002E11D15B0907E0002001B0B7
:10165000F0BD6D1CC91E0123002E09D1560714D4FC
:10166000002B1ED11E4697070AD51DE0002B30D156
:101670006D1C491E53070AD401263346970713D41D
:10168000002B08D1D20709D116E0002B21D16D1C07
:10169000491C93070AD40126D2070DD0002E18D179
:1016A00008E001269707EBD5002E12D16D1CC91C4E
:1016B000D00701D06D1C491D0846FEF767FF06469E
:1016C0002846FEF763FF01463046FEF765FE2060C0
:1016D000012001B0F0BDC046624800214171017196
:1016E000C1708170417001705D4801707047C046E3
:1016F00059480168490C20220A400168090D10234D
:101700000B4099180268120E08231340C91802688A
:10171000D20904231340C9180068C00A02220240FB
:1017200088184E490968C903C90F40187047C04658
:10173000F0B582B048480468076806680568006824
:10174000009046480068019045480178454A137862
:10175000640208D4002B03D05B1E13701B060BD150
:10176000DF23194007E0022B03D85C1C1470022B06
:1017700002D12023194301705378FC0108D4002BB7
:1017800003D05B1E53701B060BD1EF23194007E0FB
:10179000022B03D85C1C5470022B02D11023194376
:1017A00001709378340108D4002B03D05B1E937032
:1017B0001B060BD1F723194007E0022B03D85C1C52
:1017C0009470022B02D1082319430170D378AC0521
:1017D00008D4002B03D05B1ED3701B060BD1FB2358
:1017E000194007E0022B03D85C1CD470022B02D1F5
:1017F0000423194301701379009CE40408D4002BDE
:1018000003D05B1E13711B060BD1FD23194007E0AB
:10181000022B03D85C1C1471022B02D10223194342
:1018200001705379019CE40307D4002B0ED05B1E9A
:1018300053711A060AD002B0F0BD022B03D85C1C0B
:101840005471022BF7D10122114301E0FE22114015
:10185000017002B0F0BDC04680130A4080330A40D8
:10186000420120203C01202070B53A4C0025204642
:1018700029462A46FFF7C4FD01262046294632465E
:10188000FFF7BEFDB00393490860700308603004A1
:1018900008607004086070BDF0B581B01F4B9942BC
:1018A00000DC19461E4CA1420A4600DB2246984243
:1018B00000DC1846A042054600DB254601246603ED
:1018C000A703844B012903DB194610390F6002E09E
:1018D0001F60002A1ED41E6026046104012803DB59
:1018E00018461038066003E01E60002D00D5103B3E
:1018F0001960D0174240111A164C00222046FFF7FB
:101900007FFDE8174540291A01222046FFF778FDA0
:1019100001B0F0BD194610390E60DDE788E1FFFF28
:10192000781E000070B50B4C0025204629462A463B
:10193000FFF766FD0126204629463246FFF760FD87
:10194000B0036449086070030860300408607004E4
:10195000086070BD00208640F0B587B00120070701
:101960000490C50700245B4E204605E00298401C09
:101970000199072900D3AAE00290C1B22046019143
:1019800002F006FB204606E0176062B60398401C92
:1019900040B20028EAD40390EFF3108172B60498A5
:1019A000C1034D480160234604E08B1C04980143A9
:1019B0000729E9D21946376035600594059A172A38
:1019C0001BD800BF059A521C0592059A172A14D8F5
:1019D00000BF059A521C0592059A172A0DD800BF20
:1019E000059A521C0592059A172A06D800BF059A37
:1019F000521C0592059A182AE3D33246103A176012
:101A000000230693069817281BD800BF0698401C91
:101A100006900698172814D800BF0698401C069018
:101A2000069817280DD800BF0698401C0690069807
:101A3000172806D800BF0698401C0690069818285C
:101A4000E3D3376035600593059817281BD800BF8E
:101A50000598401C05900598172814D800BF0598D4
:101A6000401C0590059817280DD800BF0598401C0C
:101A700005900598172806D800BF0598401C0590CA
:101A800005981828E3D317600693069817288CD872
:101A900000BF0698401C06900698172885D800BFFE
:101AA0000698401C06900698172800D97DE700BFCD
:101AB0000698401C06900698172800D975E700BFC5
:101AC0000698401C069006981828E1D36DE707B0E9
:101AD000F0BDC046A0120A4090320A40F0B583B073
:101AE000E04D103D0126B7032F60DF4C2046FFF785
:101AF000CDFA2046FFF7CAFA2046FFF7C7FA20467C
:101B0000FFF7C4FA2046FFF7C1FA2046FFF7BEFAF6
:101B10002046FFF7BBFA2046FFF7B8FA2046FFF74A
:101B2000B5FA2046FFF7B2FACE4807602046FFF725
:101B3000ADFA2046FFF7AAFA2046FFF7A7FA20469B
:101B4000FFF7A4FA2046FFF7A1FA2046FFF79EFA16
:101B50002046FFF79BFA2046FFF798FA2046FFF74A
:101B600095FA2046FFF792FA2046FFF78FFA2046B3
:101B7000FFF78CFA2046FFF789FA2046FFF786FA2E
:101B80002046FFF783FA2046FFF780FA2046FFF74A
:101B90007DFA2046FFF77AFA2046FFF777FA2046CB
:101BA000FFF774FA2F602046FFF770FA2046FFF720
:101BB0006DFA2046FFF76AFA2046FFF767FA2046DB
:101BC000FFF764FA2046FFF761FA2046FFF75EFA56
:101BD0002046FFF75BFA2046FFF758FA2046FFF74A
:101BE00055FA2046FFF752FA2046FFF74FFA2046F3
:101BF000FFF74CFA2046FFF749FA2046FFF746FA6E
:101C00002046FFF743FA2046FFF740FA2046FFF749
:101C10003DFA2046FFF73AFA2046FFF737FAEFF38E
:101C2000108072B6F00301908E4908603007F1070A
:101C3000AE2400278D4A03E05F1C6400072B4AD2C4
:101C40003B46106165B2002D01D4116100E01160C6
:101C500000250295029F172F1BD800BF029F7F1CF3
:101C60000297029F172F14D800BF029F7F1C029774
:101C7000029F172F0DD800BF029F7F1C0297029F63
:101C8000172F06D800BF029F7F1C0297029F182FB4
:101C9000E3D310600295029F172FCDD800BF029F9B
:101CA0007F1C0297029F172FC6D800BF029F7F1C80
:101CB0000297029F172FBFD800BF029F7F1C029779
:101CC000029F172FB8D800BF029F7F1C0297029F68
:101CD000182FE3D3B0E7106062B6EFF3108372B64B
:101CE000604B019C1C60202403E05D1C6400072BFA
:101CF0004AD22B46106165B2002D01D4116100E07B
:101D0000116000270297029D172D1BD800BF029D6E
:101D10006D1C0295029D172D14D800BF029D6D1CED
:101D20000295029D172D0DD800BF029D6D1C0295D6
:101D3000029D172D06D800BF029D6D1C0295029DC5
:101D4000182DE3D310600297029D172DCDD800BF48
:101D5000029D6D1C0295029D172DC6D800BF029DE5
:101D60006D1C0295029D172DBFD800BF029D6D1CF2
:101D70000295029D172DB8D800BF029D6D1C0295DB
:101D8000029D182DE3D3B0E7106062B6EFF3108325
:101D900072B6344B019C1C60102403E05F1C64008D
:101DA000072B4AD23B46106165B2002D01D4116168
:101DB00000E0116000250295029F172F1BD800BF7D
:101DC000029F7F1C0297029F172F14D800BF029F0B
:101DD0007F1C0297029F172F0DD800BF029F7F1C08
:101DE0000297029F172F06D800BF029F7F1C029701
:101DF000029F182FE3D310600295029F172FCDD8B2
:101E000000BF029F7F1C0297029F172FC6D800BFFA
:101E1000029F7F1C0297029F172FBFD800BF029F0F
:101E20007F1C0297029F172FB8D800BF029F7F1C0C
:101E30000297029F182FE3D3B0E7106062B6EFF36A
:101E4000108372B6074B019C1C60B02403E05D1C3C
:101E50006400072B50D22B46106165B2002D07D4C9
:101E6000116106E0A0320A408038010090120A4059
:101E7000116000270297029D172D1BD800BF029DFD
:101E80006D1C0295029D172D14D800BF029D6D1C7C
:101E90000295029D172D0DD800BF029D6D1C029565
:101EA000029D172D06D800BF029D6D1C0295029D54
:101EB000182DE3D310600297029D172DC7D800BFDD
:101EC000029D6D1C0295029D172DC0D800BF029D7A
:101ED0006D1C0295029D172DB9D800BF029D6D1C87
:101EE0000295029D172DB2D800BF029D6D1C029570
:101EF000029D182DE3D3AAE7106062B6EFF31083BA
:101F000072B6DA4B019C1C60C82503E05F1C6D00B3
:101F1000072B4AD23B4610616CB2002C01D41161F0
:101F200000E0116000240294029F172F1BD800BF0D
:101F3000029F7F1C0297029F172F14D800BF029F99
:101F40007F1C0297029F172F0DD800BF029F7F1C96
:101F50000297029F172F06D800BF029F7F1C02978F
:101F6000029F182FE3D310600294029F172FCDD841
:101F700000BF029F7F1C0297029F172FC6D800BF89
:101F8000029F7F1C0297029F172FBFD800BF029F9E
:101F90007F1C0297029F172FB8D800BF029F7F1C9B
:101FA0000297029F182FE3D3B0E7106062B6EFF3F9
:101FB000108372B6AD4B019D1D60234604E0BB1C2F
:101FC0003743072F00D38AE01F4610611161029446
:101FD000029B172B1BD800BF029B5B1C0293029B2A
:101FE000172B14D800BF029B5B1C0293029B172B7C
:101FF0000DD800BF029B5B1C0293029B172B06D8D7
:1020000000BF029B5B1C0293029B182BE3D3106062
:1020100000250295029B172B1BD800BF029B5B1C5F
:102020000293029B172B14D800BF029B5B1C0293E8
:10203000029B172B0DD800BF029B5B1C0293029BD7
:10204000172B06D800BF029B5B1C0293029B182B28
:10205000E3D3106111610295029B172B1BD800BFBF
:10206000029B5B1C0293029B172B14D800BF029BA0
:102070005B1C0293029B172B0DD800BF029B5B1CBD
:102080000293029B172B06D800BF029B5B1C029396
:10209000029B182BE3D310600295029B172B8ED85E
:1020A00000BF029B5B1C0293029B172B87D800BFCB
:1020B000029B5B1C0293029B172B00D97FE700BF9A
:1020C000029B5B1C0293029B172B00D977E700BF92
:1020D000029B5B1C0293029B182BE1D36FE71060FD
:1020E00062B6EFF3108372B6604B019C1C60102443
:1020F00003E05D1C6400072B4AD22B46106165B2D9
:10210000002D01D4116100E0116000270297029DAB
:10211000172D1BD800BF029D6D1C0295029D172D27
:1021200014D800BF029D6D1C0295029D172D0DD87D
:1021300000BF029D6D1C0295029D172D06D800BFA1
:10214000029D6D1C0295029D182DE3D3106002972D
:10215000029D172DCDD800BF029D6D1C0295029DDA
:10216000172DC6D800BF029D6D1C0295029D172D2C
:10217000BFD800BF029D6D1C0295029D172DB8D8D7
:1021800000BF029D6D1C0295029D182DE3D3B0E7A0
:10219000106062B6EFF3108372B6344B019C1C6082
:1021A000402403E05F1C6400072B4AD23B461061C9
:1021B00065B2002D01D4116100E011600025029587
:1021C000029F172F1BD800BF029F7F1C0297029F00
:1021D000172F14D800BF029F7F1C0297029F172F52
:1021E0000DD800BF029F7F1C0297029F172F06D8B1
:1021F00000BF029F7F1C0297029F182FE3D310603D
:102200000295029F172FCDD800BF029F7F1C029717
:10221000029F172FC6D800BF029F7F1C0297029F04
:10222000172FBFD800BF029F7F1C0297029F172F56
:10223000B8D800BF029F7F1C0297029F182FE3D3DC
:10224000B0E7106062B6EFF3108372B6074B019CE3
:102250001C60812403E05D1C6400072B4CD22B46DC
:10226000106165B2002D03D4116102E0A0320A4072
:10227000116000270297029D172D1BD800BF029DF9
:102280006D1C0295029D172D14D800BF029D6D1C78
:102290000295029D172D0DD800BF029D6D1C029561
:1022A000029D172D06D800BF029D6D1C0295029D50
:1022B000182DE3D310600297029D172DCBD800BFD5
:1022C000029D6D1C0295029D172DC4D800BF029D72
:1022D0006D1C0295029D172DBDD800BF029D6D1C7F
:1022E0000295029D172DB6D800BF029D6D1C029568
:1022F000029D182DE3D3AEE7106062B6EFF31083B2
:1023000072B6E64B019C1C607F2403E05F1C6400F6
:10231000072B4AD23B46106165B2002D01D41161F2
:1023200000E0116000250295029F172F1BD800BF07
:10233000029F7F1C0297029F172F14D800BF029F95
:102340007F1C0297029F172F0DD800BF029F7F1C92
:102350000297029F172F06D800BF029F7F1C02978B
:10236000029F182FE3D310600295029F172FCDD83C
:1023700000BF029F7F1C0297029F172FC6D800BF85
:10238000029F7F1C0297029F172FBFD800BF029F9A
:102390007F1C0297029F172FB8D800BF029F7F1C97
:1023A0000297029F182FE3D3B0E7106062B6EFF3F5
:1023B000108372B6B94B019C1C60A12403E05D1C24
:1023C0006400072B4AD22B46106165B2002D01D460
:1023D000116100E0116000270297029D172D1BD8A4
:1023E00000BF029D6D1C0295029D172D14D800BFE1
:1023F000029D6D1C0295029D172D0DD800BF029DF8
:102400006D1C0295029D172D06D800BF029D6D1C04
:102410000295029D182DE3D310600297029D172D9F
:10242000CDD800BF029D6D1C0295029D172DC6D808
:1024300000BF029D6D1C0295029D172DBFD800BFE5
:10244000029D6D1C0295029D172DB8D800BF029DFC
:102450006D1C0295029D182DE3D3B0E7106062B6A3
:10246000EFF3108372B68D4B019C1C60A62403E031
:102470005F1C6400072B4AD23B46106165B2002DF9
:1024800001D4116100E0116000250295029F172F11
:102490001BD800BF029F7F1C0297029F172F14D8E2
:1024A00000BF029F7F1C0297029F172F0DD800BF0D
:1024B000029F7F1C0297029F172F06D800BF029F22
:1024C0007F1C0297029F182FE3D310600295029F92
:1024D000172FCDD800BF029F7F1C0297029F172F96
:1024E000C6D800BF029F7F1C0297029F172FBFD83C
:1024F00000BF029F7F1C0297029F172FB8D800BF12
:10250000029F7F1C0297029F182FE3D3B0E7106051
:1025100062B6EFF3108372B6604B019C1C60A82476
:1025200003E05D1C6400072B4AD22B46106165B2A4
:10253000002D01D4116100E0116000270297029D77
:10254000172D1BD800BF029D6D1C0295029D172DF3
:1025500014D800BF029D6D1C0295029D172D0DD849
:1025600000BF029D6D1C0295029D172D06D800BF6D
:10257000029D6D1C0295029D182DE3D310600297F9
:10258000029D172DCDD800BF029D6D1C0295029DA6
:10259000172DC6D800BF029D6D1C0295029D172DF8
:1025A000BFD800BF029D6D1C0295029D172DB8D8A3
:1025B00000BF029D6D1C0295029D182DE3D3B0E76C
:1025C000106062B6EFF3108372B6344B019C1C604E
:1025D0003F2403E05F1C6400072B4AD23B46106196
:1025E00065B2002D01D4116100E011600025029553
:1025F000029F172F1BD800BF029F7F1C0297029FCC
:10260000172F14D800BF029F7F1C0297029F172F1D
:102610000DD800BF029F7F1C0297029F172F06D87C
:1026200000BF029F7F1C0297029F182FE3D3106008
:102630000295029F172FCDD800BF029F7F1C0297E3
:10264000029F172FC6D800BF029F7F1C0297029FD0
:10265000172FBFD800BF029F7F1C0297029F172F22
:10266000B8D800BF029F7F1C0297029F182FE3D3A8
:10267000B0E7106062B6EFF3108372B6074B019CAF
:102680001C60A42403E05D1C6400072B4CD22B4685
:10269000106165B2002D03D4116102E0A0320A403E
:1026A000116000270297029D172D1BD800BF029DC5
:1026B0006D1C0295029D172D14D800BF029D6D1C44
:1026C0000295029D172D0DD800BF029D6D1C02952D
:1026D000029D172D06D800BF029D6D1C0295029D1C
:1026E000182DE3D310600297029D172DCBD800BFA1
:1026F000029D6D1C0295029D172DC4D800BF029D3E
:102700006D1C0295029D172DBDD800BF029D6D1C4A
:102710000295029D172DB6D800BF029D6D1C029533
:10272000029D182DE3D3AEE7106062B6EFF310837D
:1027300072B6DA4B019C1C60D32503E05F1C6D0070
:10274000072B4AD23B4610616CB2002C01D41161B8
:1027500000E0116000240294029F172F1BD800BFD5
:10276000029F7F1C0297029F172F14D800BF029F61
:102770007F1C0297029F172F0DD800BF029F7F1C5E
:102780000297029F172F06D800BF029F7F1C029757
:10279000029F182FE3D310600294029F172FCDD809
:1027A00000BF029F7F1C0297029F172FC6D800BF51
:1027B000029F7F1C0297029F172FBFD800BF029F66
:1027C0007F1C0297029F172FB8D800BF029F7F1C63
:1027D0000297029F182FE3D3B0E7106062B6EFF3C1
:1027E000108372B6AD4B019D1D60234604E0BB1CF7
:1027F0003743072F00D38AE01F461061116102940E
:10280000029B172B1BD800BF029B5B1C0293029BF1
:10281000172B14D800BF029B5B1C0293029B172B43
:102820000DD800BF029B5B1C0293029B172B06D89E
:1028300000BF029B5B1C0293029B182BE3D310602A
:1028400000250295029B172B1BD800BF029B5B1C27
:102850000293029B172B14D800BF029B5B1C0293B0
:10286000029B172B0DD800BF029B5B1C0293029B9F
:10287000172B06D800BF029B5B1C0293029B182BF0
:10288000E3D3106111610295029B172B1BD800BF87
:10289000029B5B1C0293029B172B14D800BF029B68
:1028A0005B1C0293029B172B0DD800BF029B5B1C85
:1028B0000293029B172B06D800BF029B5B1C02935E
:1028C000029B182BE3D310600295029B172B8ED826
:1028D00000BF029B5B1C0293029B172B87D800BF93
:1028E000029B5B1C0293029B172B00D97FE700BF62
:1028F000029B5B1C0293029B172B00D977E700BF5A
:10290000029B5B1C0293029B182BE1D36FE71060C4
:1029100062B6EFF3108372B6604B019C1C60D52445
:1029200003E05D1C6400072B4AD22B46106165B2A0
:10293000002D01D4116100E0116000270297029D73
:10294000172D1BD800BF029D6D1C0295029D172DEF
:1029500014D800BF029D6D1C0295029D172D0DD845
:1029600000BF029D6D1C0295029D172D06D800BF69
:10297000029D6D1C0295029D182DE3D310600297F5
:10298000029D172DCDD800BF029D6D1C0295029DA2
:10299000172DC6D800BF029D6D1C0295029D172DF4
:1029A000BFD800BF029D6D1C0295029D172DB8D89F
:1029B00000BF029D6D1C0295029D182DE3D3B0E768
:1029C000106062B6EFF3108372B6344B019C1C604A
:1029D0003D4603E0671C072C354649D23C46106152
:1029E000EB0701D0116100E0116000230293029D0A
:1029F000172D1BD800BF029D6D1C0295029D172D3F
:102A000014D800BF029D6D1C0295029D172D0DD894
:102A100000BF029D6D1C0295029D172D06D800BFB8
:102A2000029D6D1C0295029D182DE3D31060029348
:102A3000029D172DCED800BF029D6D1C0295029DF0
:102A4000172DC7D800BF029D6D1C0295029D172D42
:102A5000C0D800BF029D6D1C0295029D172DB9D8EC
:102A600000BF029D6D1C0295029D182DE3D3B1E7B6
:102A7000106062B6EFF3108472B6084C019D2560B9
:102A8000D92403E0731C6400072E4DD21E4610614A
:102A900063B2002B04D4116103E0C046A0320A40A7
:102AA000116000250295029B172B1BD800BF029BCB
:102AB0005B1C0293029B172B14D800BF029B5B1C6C
:102AC0000293029B172B0DD800BF029B5B1C029345
:102AD000029B172B06D800BF029B5B1C0293029B34
:102AE000182BE3D310600295029B172BCAD800BFA6
:102AF000029B5B1C0293029B172BC3D800BF029B57
:102B00005B1C0293029B172BBCD800BF029B5B1C73
:102B10000293029B172BB5D800BF029B5B1C02934C
:102B2000029B182BE3D3ADE7106062B6EFF310837E
:102B300072B6E64B019C1C60222403E05D1C64001D
:102B4000072B4AD22B46106165B2002D01D41161CA
:102B500000E0116000260296029D172D1BD800BFD1
:102B6000029D6D1C0295029D172D14D800BF029D79
:102B70006D1C0295029D172D0DD800BF029D6D1C86
:102B80000295029D172D06D800BF029D6D1C02956F
:102B9000029D182DE3D310600296029D172DCDD80B
:102BA00000BF029D6D1C0295029D172DC6D800BF67
:102BB000029D6D1C0295029D172DBFD800BF029D7E
:102BC0006D1C0295029D172DB8D800BF029D6D1C8B
:102BD0000295029D182DE3D3B0E7106062B6EFF3C3
:102BE000108372B6B94B019C1C60DA2403E05E1CB2
:102BF0006400072B4AD23346106165B2002D01D420
:102C0000116100E0116000250295029E172E1BD86D
:102C100000BF029E761C0296029E172E14D800BF9B
:102C2000029E761C0296029E172E0DD800BF029EB1
:102C3000761C0296029E172E06D800BF029E761CB6
:102C40000296029E182EE3D310600295029E172E64
:102C5000CDD800BF029E761C0296029E172EC6D8C3
:102C600000BF029E761C0296029E172EBFD800BFA0
:102C7000029E761C0296029E172EB8D800BF029EB6
:102C8000761C0296029E182EE3D3B0E7106062B65F
:102C9000EFF3108372B68D4B019C1C60122403E08D
:102CA0005D1C6400072B4AD22B46106165B2002DD3
:102CB00001D4116100E0116000260296029D172DDB
:102CC0001BD800BF029D6D1C0295029D172D14D8C4
:102CD00000BF029D6D1C0295029D172D0DD800BFEF
:102CE000029D6D1C0295029D172D06D800BF029D06
:102CF0006D1C0295029D182DE3D310600296029D73
:102D0000172DCDD800BF029D6D1C0295029D172D79
:102D1000C6D800BF029D6D1C0295029D172DBFD81D
:102D200000BF029D6D1C0295029D172DB8D800BFF3
:102D3000029D6D1C0295029D182DE3D3B0E7106033
:102D400062B6EFF3108372B6DE4B019C1C60DB248D
:102D500003E05E1C6400072B4AD23346106165B263
:102D6000002D01D4116100E0116000250295029E42
:102D7000172E1BD800BF029E761C0296029E172EAD
:102D800014D800BF029E761C0296029E172E0DD804
:102D900000BF029E761C0296029E172E06D800BF28
:102DA000029E761C0296029E182EE3D310600295B6
:102DB000029E172ECDD800BF029E761C0296029E60
:102DC000172EC6D800BF029E761C0296029E172EB2
:102DD000BFD800BF029E761C0296029E172EB8D85E
:102DE00000BF029E761C0296029E182EE3D3B0E727
:102DF000106062B6EFF3108372B6B24B019C1C6098
:102E0000202403E05D1C6400072B4AD22B4610618E
:102E100065B2002D01D4116100E011600026029618
:102E2000029D172D1BD800BF029D6D1C0295029DAF
:102E3000172D14D800BF029D6D1C0295029D172D01
:102E40000DD800BF029D6D1C0295029D172D06D85E
:102E500000BF029D6D1C0295029D182DE3D31060EA
:102E60000296029D172DCDD800BF029D6D1C0295C4
:102E7000029D172DC6D800BF029D6D1C0295029DB4
:102E8000172DBFD800BF029D6D1C0295029D172D06
:102E9000B8D800BF029D6D1C0295029D182DE3D38A
:102EA000B0E7106062B6EFF3108372B6854B019CF9
:102EB0001C608D2403E05E1C6400072B4CD233465B
:102EC000106165B2002D03D4116102E0A0320A4006
:102ED000116000250295029E172E1BD800BF029E8E
:102EE000761C0296029E172E14D800BF029E761CF6
:102EF0000296029E172E0DD800BF029E761C0296E7
:102F0000029E172E06D800BF029E761C0296029ED5
:102F1000182EE3D310600295029E172ECBD800BF67
:102F2000029E761C0296029E172EC4D800BF029EF7
:102F3000761C0296029E172EBDD800BF029E761CFC
:102F40000296029E172EB6D800BF029E761C0296ED
:102F5000029E182EE3D3AEE7106062B6EFF3108343
:102F600072B6584B019C1C60142403E05D1C640085
:102F7000072B4AD22B46106165B2002D01D4116196
:102F800000E0116000260296029D172D1BD800BF9D
:102F9000029D6D1C0295029D172D14D800BF029D45
:102FA0006D1C0295029D172D0DD800BF029D6D1C52
:102FB0000295029D172D06D800BF029D6D1C02953B
:102FC000029D182DE3D310600296029D172DCDD8D7
:102FD00000BF029D6D1C0295029D172DC6D800BF33
:102FE000029D6D1C0295029D172DBFD800BF029D4A
:102FF0006D1C0295029D172DB8D800BF029D6D1C57
:103000000295029D182DE3D3B0E7106062B6EFF38E
:10301000108372B62B4B019C1C60AF2303E0661C2F
:103020005B00072C4AD2344610615DB2002D01D4FA
:10303000116100E0116000250295029E172E1BD839
:1030400000BF029E761C0296029E172E14D800BF67
:10305000029E761C0296029E172E0DD800BF029E7D
:10306000761C0296029E172E06D800BF029E761C82
:103070000296029E182EE3D310600295029D172D32
:10308000CDD800BF029D6D1C0295029D172DC6D89C
:1030900000BF029D6D1C0295029D172DBFD800BF79
:1030A000029D6D1C0295029D172DB8D800BF029D90
:1030B0006D1C0295029D182DE3D3B0E7106062B637
:1030C00003B0F0BDA0320A40F0B585B01346303BE6
:1030D000DBB2092B03D805225A43A44B08E0134660
:1030E000413BDBB2192B00D900E105225A439E4B2C
:1030F0009A1802920CE1196062B6401C052858D05B
:10310000029C255CEFF3108472B6039C994E3460E8
:10311000019E03E07E1C6D00072FECD2374619613B
:103120006CB2002C01D41A6100E01A6000240494EF
:10313000049E172E1BD800BF049E761C0496049E86
:10314000172E14D800BF049E761C0496049E172EDA
:103150000DD800BF049E761C0496049E172E06D838
:1031600000BF049E761C0496049E182EE3D31960BB
:103170000494049E172ECDD800BF049E761C04969E
:10318000049E172EC6D800BF049E761C0496049E8B
:10319000172EBFD800BF049E761C0496049E172EDF
:1031A000B8D800BF049E761C0496049E182EE3D364
:1031B000B0E7EFF3108072B603986E4D286020469A
:1031C000009F04E0A81C3D43072D00D38AE005467C
:1031D00019611A610494049817281BD800BF049839
:1031E000401C04900498172814D800BF0498401C71
:1031F0000490049817280DD800BF0498401C049030
:103200000498172806D800BF0498401C049004981E
:103210001828E3D3196000200490049E172E1BD8B1
:1032200000BF049E761C0496049E172E14D800BF7F
:10323000049E761C0496049E172E0DD800BF049E93
:10324000761C0496049E172E06D800BF049E761C9A
:103250000496049E182EE3D319611A610490049E0B
:10326000172E1BD800BF049E761C0496049E172EB2
:1032700014D800BF049E761C0496049E172E0DD809
:1032800000BF049E761C0496049E172E06D800BF2D
:10329000049E761C0496049E182EE3D319600490B5
:1032A000049817288ED800BF0498401C04900498F6
:1032B000172887D800BF0498401C0490049817284A
:1032C00000D97FE700BF0498401C04900498172899
:1032D00000D977E700BF0498401C04900498182890
:1032E000E1D36FE7196062B605B0F0BD2B3A0F2A43
:1032F0001CD812A30293C0467A4412795200974414
:10330000131517191B151515151515151515150771
:1033100000F03EFE0120C103039101070090C207A7
:103320000020134B0190EBE606A2E2E60D4AE0E630
:1033300006A2DEE609A2DCE606A2DAE600363600E0
:103340000000000008083E080800000008080808FF
:103350000800000020100804020000000060600067
:1033600000000000184900004F4900001D490000FE
:1033700090120A4090320A40F0B591B00493002AAE
:103380000291039001D42B2000E02D200EAD287077
:10339000D0174240171A0A263846314601F018F86D
:1033A0004643B91B30242143697001230A2F03D2FD
:1033B0001E46029D049963E00D930A21FCF7ECFE82
:1033C00021430EA88170642F54D36421384600F045
:1033D000FFFF0A21FCF7E0FE21430EA8C170F808A8
:1033E0007D2849D37D20C100384600F0F1FF0A2135
:1033F000FCF7D2FE21430EA801710023B748874293
:1034000000D225E10D93B549384600F0E1FF0A21CD
:10341000FCF7C2FE21430EA84171B148874200D299
:1034200055E1AF49384600F0D3FF0A21FCF7B4FE5E
:1034300021430EA88171AB48874200D249E1A949D6
:10344000384600F0C5FF0A21FCF7A6FE21430EA86E
:10345000C171A5488742029D00D23CE1A24938468D
:1034600000F0B6FF0A21FCF797FE21430EA8017277
:10347000082603E0022600E00326029D04990D9B26
:103480000A2F039F27D30EA8815D42784170825591
:103490007008012800D80120002B04991BD10EA927
:1034A0007218521E13788C788B700499147002284D
:1034B00011D00EA97218921E1378CC78CB70049993
:1034C0001470032807D00EA83118C91E0A780F9B64
:1034D00002710B7004998E4212D28B1B01241A4682
:1034E0002240701E0B90F043C84201920AD1002482
:1034F00030460199002900D091E0029D039FCAE067
:103500003146C9E00694A3430EA8401C0590002450
:103510003046214607930CE00EA9089A4A700A9992
:10352000891C0C9CA41C0D9EB61C801C079B9942F8
:10353000DFD00A910321054609910D403746014627
:1035400017D00EA98F19895D7970771E012D01D1D1
:10355000411E0EE00EA9CF5D8F55B71E022D01D181
:10356000811E06E00EA9CD5D7118491E0D70F71E73
:10357000C11E0D960B9A0C941519EDB2032D10D3A4
:10358000059AD5196F1E3A782A70AA1E1478EE1E75
:10359000337813703C702D1F2A783270091F0A0689
:1035A000F0D10EA920224A70411C099E0E400D9BAD
:1035B0005D1C002E089210D00EA95A18495D91701A
:1035C000012E1F4601460C9C0FD00EA9CA5C4A551D
:1035D0005F1E022E04D1411E07E02F460C9C04E022
:1035E0000EA9CA5DCA549F1E811E2246069B1A431D
:1035F0000B9B9A18D2B2032A8ED3059AD3195A1E5E
:1036000014781C709C1E2578DE1E37782770157084
:103610001B1F1A783270091F0A06F0D17CE70323BA
:1036200003400B990919002B08D00EAA9419925D3A
:103630006270721E012B03D1401E12E0324610E070
:103640000EACA25CA255B21E022B03D1801E08E074
:103650000426AEE60EAB9A5CF3185B1E1A70F21EDF
:10366000C01E039FC9B2032911D30EA95118491CCA
:103670004A1E13780B708B1E1C78CD1E2E781E7080
:103680001470091F0A782A70001F0206F0D10EA8D4
:1036900020214170029D04990EA8091800224A7049
:1036A000142F12D8007800280FD00EA94C1CFEB29F
:1036B000C2B230462946FFF707FD132E05D8611C1C
:1036C0007F1C207800280C46F1D111B0F0BD0526F2
:1036D000D3E60626D1E60726D0E6C046102700002E
:1036E000A086010040420F0080969800F0B581B09E
:1036F00005461078002810D0142D0ED80C46571C03
:10370000EEB2C2B230462146FFF7DEFC3878002820
:1037100003D07F1C6D1C142EF2D301B0F0BD00004D
:10372000F0B593B00593154603910746002A01D4DE
:10373000002404E00FA82D2101706D4201240A2607
:103740002846314600F044FE019002963146FCF7CF
:1037500023FD0FA800193026314301700120642D8C
:103760000D94069504960E9002D22246054644E03A
:103770006421284600F02CFE0A21FCF70DFD0D9A6D
:103780000FA8101831434170E8087D2830D37D2000
:10379000C100284600F01CFE0A21FCF7FDFC0D9A32
:1037A0000FA8801831438170B048854222D3AF49B9
:1037B000284600F00DFE0A21FCF7EEFC049B0D9A52
:1037C0000FA810181943C17000200E90A848854218
:1037D00012D3A74928461C4600F0FAFD0A21FCF73F
:1037E000DBFC0D9A0FA8801821430171052504E028
:1037F000022502E0032500E004250698642818D37A
:103800000FA90D980A1813780D9840194118491EF0
:103810000C7814700D9A0B700E99002909D10FA91C
:103820000D9A521853784018801E017851700D9AE5
:10383000037005998D4200D3ECE04C1B0126204615
:10384000304000906B1EE843C84208D100200E9023
:1038500028460099002900D098E0059DDAE00996F5
:10386000B4430FA81018001F0890002128460E919D
:103870000E4607970C930A940EE00FA90D9A89182B
:103880000B700B9EB61C0E99891C0E91AD1C801CF2
:103890000A9CA6420C9BDCD00B96032604463440BF
:1038A0002A4601461FD00D9B59190FAA57187F1E93
:1038B0003F7857546A1E012C01D1411E12E099181D
:1038C0000FAA57187F1E3F785754AA1E022C01D109
:1038D000811E07E099180FAA5418641E24785454C6
:1038E000EA1EC11E0C9B0E9C1C19E4B2032C0DD3C6
:1038F000089CA218D4781471947857789770D47073
:1039000014785470121F091F0C06F3D10FA90D9AD9
:10391000891820230B70411C0E406C1C002E13D004
:10392000111952190FACA75C6754012E2C460146A1
:10393000079F14D00FA98C18641E24788C546C1E19
:10394000022E03D1411E0AE0079F08E00D990919D4
:103950000FAA5418641E24785454AC1E811E0E9A6B
:10396000099E32430C9EB218D2B2032A85D3089A1C
:103970001419E2782271A2786678A670E270227833
:103980006270241F091F0A06F3D176E7032404405E
:103990000E995918002C0CD00E91114652190FABEC
:1039A0009E18761E36789E546A1E012C04D1401E45
:1039B00015E02A46059D14E08A180FAB9E18761E66
:1039C00036789E54AA1E022C01D1801E07E08A1868
:1039D0000FAB9C18641E24789C54EA1EC01E059DE3
:1039E0000E99C9B2032910D30D9951180FAA89183D
:1039F000091FCA780A718A784B788B70CA700A7866
:103A00004A70091F001F0206F3D10FA80D9A8018F3
:103A100020210170A918CAB20FA82E238354029B3B
:103A2000019A5343069AD21A049B1A434B1CDBB2E9
:103A3000C254891CC9B200224254142F039D12D8CB
:103A4000007800280FD00FA94C1CFEB2C2B230463D
:103A50002946FFF739FB132E05D8611C7F1C2078FF
:103A600000280C46F1D113B0F0BDC046102700006D
:103A7000A086010080B507480749FDF7E7FA074827
:103A800000210160064807494161016801220A439B
:103A9000026080BD00200040D44900008031004019
:103AA000003100407102000010B51B4C1B4920463C
:103AB000FDF7E0FC1A492046FDF7B8FC0320C103DE
:103AC000184802688A4302600169F94A0A404121A4
:103AD00089005118016141691B220A4324218A434C
:103AE0004261426801210A4043688B439A18426050
:103AF0004A04036813430360C2682023134350221F
:103B00009343C360C2680223134305229343C360F7
:103B100002680A43026010BD00001040DC4900004A
:103B2000DE49000000111040B0B52F4988228A6399
:103B30002E4804230360CA63082202602C4B5A1CDF
:103B40000A604A60012252060C6814430C604C68FB
:103B500014434C6082240C654B658C65CB65254A0B
:103B60009462D362244CD461244B0B6681254D664C
:103B70004C63D56095605561956193659366D36399
:103B8000D3648D67CD678D604D6193635365D36654
:103B9000CB64536013601A491A4A0A600A6305210C
:103BA0008904194A13680B43136003214906174A15
:103BB000136A0B43136213680B43136001463039D9
:103BC000612252020A60026011480168114A0A43E8
:103BD00002601120000510490A6A02430A620A685D
:103BE00002430A60B0BDC04604804240D0320A4061
:103BF00082000400848042408100050081000600AC
:103C0000A0120A4000600390A0130A4028100A4046
:103C1000A0330A400001010028300A4080B5114855
:103C20001149FDF738FA03204102104802680A439F
:103C3000026001210A02036813430360002242610B
:103C400027224262826B07239A4382631A02836BA4
:103C500093438363826A042313438362826A0A4321
:103C6000826280BD00000F40E849000000120F4052
:103C700010B51A4C1A492046FDF7FCFB194920469D
:103C8000FDF7D4FB0320C103174802688A43026092
:103C90000169874A0A401532026141692D220A43AF
:103CA00012218A434261426801210A4043688B43E2
:103CB0009A1842604A04036813430360C2682023D1
:103CC000134350229343C360C26802231343052267
:103CD0009343C36002680A43026010BD0020104095
:103CE000EA490000EC4900000031104070B582B094
:103CF000194C1A492046FDF78BFB19492046FDF760
:103D000053FA00250095204629462A462B46FDF702
:103D10006BFB204629462A46FDF758FB20462946DC
:103D20002A46FDF76DFB01260096204629462A46C5
:103D30002B46FDF759FB204629463246FDF746FB48
:103D4000204629463246FDF75BFB06488660032184
:103D5000016002B070BDC04600208640F6490000F8
:103D6000FC4900000031864070B51848002404600A
:103D70000F200002164D29688143012670020818A1
:103D800028600320C043291F0A6802400A6068684F
:103D9000B043686030026968814369600D48FDF78F
:103DA0008DF92868102101432020814329603003C8
:103DB0002968014329602046FDF7E2F9FF2000024F
:103DC00005490A6882430A6070BDC04608030B407B
:103DD00004010B40044A000000E400E0054804210F
:103DE00001600549416000218160016805220A43A4
:103DF0000260704710E000E0FFFFFF0010B5084CC4
:103E000008492046FDF704FB07492046FDF766FAFE
:103E1000064801680122114301600548026010BD97
:103E2000004008402C4A0000304A0000285008405A
:103E30000851084010B51A4C1A492046FDF71AFBE4
:103E400019492046FDF7F2FA0320C103174802681A
:103E50008A4302600169164A0A40153202614169CB
:103E60002D220A4312218A434261426801210A40FD
:103E700043688B439A1842604A0403681343036003
:103E8000C2682023134350229343C360C2680223B5
:103E9000134305229343C36002680A43026010BDC6
:103EA00000801040444A0000464A00000091104043
:103EB0000000FFFF80B500F01BF8FFF735FEFFF7AD
:103EC00053FFFFF713FFFFF799FFFFF7A7FEFFF779
:103ED000B1FFFFF7E9FDFFF7CBFEFFF7CBFDFFF7E3
:103EE0007DFFB820014900220A5480BD60002020D7
:103EF000F0B581B01248134A42601348426013483B
:103F00004260134C6260134D6A60134E7260134F2F
:103F10007A6013494A6013484260134A084B1A609A
:103F2000094B1A60094B1A6022602A6032603A60BD
:103F30000A6002601020FDF7A9F801B0F0BDC0468C
:103F400000080A40030000B100280A40002886400B
:103F50000048084000080F4000881040000810404A
:103F600000281040002800400100002680B50448C9
:103F70000068C0B2012801D1FCF7FEFD80BDC0463B
:103F80002050084080B5FCF795FC002080BD000063
:103F9000F0B582B0EFF3108272B60122D3038D4CDC
:103FA00000932360072900D307214F23DF430F43EA
:103FB0001107D2070024884B03E06C1C7F00072DFB
:103FC0004AD2254619617CB2002C01D41A6100E066
:103FD0001A6000260196019C172C1BD800BF019C7B
:103FE000641C0194019C172C14D800BF019C641C14
:103FF0000194019C172C0DD800BF019C641C0194F6
:10400000019C172C06D800BF019C641C0194019CE4
:10401000182CE3D319600196019C172CCDD800BF52
:10402000019C641C0194019C172CC6D800BF019C04
:10403000641C0194019C172CBFD800BF019C641C18
:104040000194019C172CB8D800BF019C641C0194FA
:10405000019C182CE3D3B0E7196062B6EFF310842B
:1040600072B6009C5B4D2C60142800D314200627E8
:1040700047430E253D4003E0661C6D00072C4AD2E5
:104080003446196168B2002801D41A6100E01A6050
:1040900000200190019E172E1BD800BF019E761CA8
:1040A0000196019E172E14D800BF019E761C019622
:1040B000019E172E0DD800BF019E761C0196019E11
:1040C000172E06D800BF019E761C0196019E182E61
:1040D000E3D319600190019E172ECDD800BF019E39
:1040E000761C0196019E172EC6D800BF019E761C35
:1040F0000196019E172EBFD800BF019E761C019627
:10410000019E172EB8D800BF019E761C0196019E15
:10411000182EE3D3B0E7196062B6EFF3108472B6DD
:10412000009C2C4D2C60FCB22409103403E0681C68
:104130006400072D4AD20546196160B2002801D4F7
:104140001A6100E01A6000200190019E172E1BD812
:1041500000BF019E761C0196019E172E14D800BF49
:10416000019E761C0196019E172E0DD800BF019E60
:10417000761C0196019E172E06D800BF019E761C64
:104180000196019E182EE3D319600190019817281B
:10419000CDD800BF0198401C019001981728C6D8BF
:1041A00000BF0198401C019001981728BFD800BF9C
:1041B0000198401C019001981728B8D800BF0198B9
:1041C000401C019001981828E3D3B0E7196062B64B
:1041D00002B0F0BDA0320A4090120A40F0B585B09E
:1041E00001918400FDF784FA04906BA00259002528
:1041F00028462946FFF77AFAFCF728FC6B4900F0BD
:10420000ABFA6B4900F0A8FA6A49FCF7C5F8044616
:104210000395294600F0D7F93F210F06BF21090673
:1042200002910028394600D10299204600F0FAF99F
:10423000FCF762F9024601240225284621462B4656
:10424000FFF76EFAFCF706FC584900F085FA58496A
:1042500000F082FA5749FCF79FF80646039900F0F0
:10426000B2F90028394600D10299304600F0DAF957
:10427000FCF742F902460926304621462B46FFF755
:104280004FFAFCF7EFFB494900F066FA484900F0A5
:1042900063FA4849FCF780F80446039900F093F963
:1042A0000028394600D10299204600F0BBF9FCF7FE
:1042B00023F90246284629462B46FFF731FAFCF738
:1042C000D5FB3A4900F048FA394900F045FA394936
:1042D000FCF762F80446039900F075F9002800D154
:1042E000029F2046394600F09DF9FCF705F9024689
:1042F000304629462B46FFF713FAFCF7AFFB024680
:1043000004240325284621462B46FFF735F830269E
:10431000312704988006324600D53A462846294679
:10432000FEF7D2FE0498C006324600D53A46204633
:104330002946FEF7C9FE04980007324600D53A46E2
:1043400005202946FEF7C0FE04984007324600D5F6
:104350003A4606202946FEF7B7FE04988007324603
:1043600000D53A46072420462946FEF7ADFE0498BC
:10437000C00700D03E46082029463246FEF7A4FE7C
:104380000198002801D011A200E00BA20398214659
:10439000FFF7ACF905B0F0BD784A0000504A0000C4
:1043A0005E4A00006A4A0000844A000042E0A541DB
:1043B0000000204100007042424C533120535441D0
:1043C000525420322053454C0000000052554E00FC
:1043D00043088B421AD3002203098B4279D3030A84
:1043E0008B425ED3030B8B4242D3030C8B4227D309
:1043F0000902FF2212BA030C8B4202D312120902E5
:1044000003D0030B8B4233D31AE0D3E0411A80412F
:10441000401C704703460B4371D443088B42F5D3CD
:10442000002203098B4254D3030A8B4239D3030B76
:104430008B421DD3030C8B4202D394466EE0090AD3
:10444000C30B8B4201D3CB03C01A5241830B8B4267
:1044500001D38B03C01A5241430B8B4201D34B0350
:10446000C01A5241030B8B4201D30B03C01A5241B5
:10447000C30A8B4201D3CB02C01A5241830A8B423A
:1044800001D38B02C01A5241430A8B4201D34B0223
:10449000C01A5241030A8B4201D30B02C01A524187
:1044A000CDD2C3098B4201D3CB01C01A524183093B
:1044B0008B4201D38B01C01A524143098B4201D375
:1044C0004B01C01A524103098B4201D30B01C01AA0
:1044D0005241C3088B4201D3CB00C01A524183081A
:1044E0008B4201D38B00C01A524143088B4201D347
:1044F0004B00C01A5241411A524110007047CA0F76
:1045000000D04942031000D34042534000229C4651
:1045100003098B422DD3030A8B4212D38901FC225B
:1045200012BA030A8B420CD3890192118B4208D331
:10453000890192118B4204D3890137D0921100E096
:104540008909C3098B4201D3CB01C01A52418309A7
:104550008B4201D38B01C01A524143098B4201D3D4
:104560004B01C01A524103098B4201D30B01C01AFF
:104570005241C3088B4201D3CB00C01A5241830879
:104580008B4201D38B00C01A5241D9D243088B42CF
:1045900001D34B00C01A5241411A00D20146524188
:1045A000104663465B1000D34042704763465B1081
:1045B00000D3404201B50021004201D0C943084662
:1045C000C046C04602BD10B500F072F8EFF300809F
:1045D000800001D5012010BD002010BD10B500F0F5
:1045E00067F8EFF300804000800F012800D0002022
:1045F00010BD10B500F086F8EFF300804000800F8A
:10460000012801D0012010BD002010BD10B500F020
:1046100079F8EFF30080800001D4012010BD002064
:1046200010BD000070B50125ED0704004C4020D4FA
:10463000441A01D2001B0919C60D4B00F2B2FF2A21
:1046400029D01B0E2CD000020C0228432C43D31A75
:10465000DC40051910D2280A02D3401C6D0611D087
:10466000761EF6058019FF2A00DA70BDC00DC00560
:1046700070BD694000F0CEF801200543C541521CD1
:10468000761CE8E764089C40C90161408900E7D1D5
:104690000124A043E4E71B0E440200D0034870BD90
:1046A000002AFCD1C00FC00770BD00BF0000C07F52
:1046B0000123DB0502000A430DD4DA4203D49A42F7
:1046C00007D488427047D84214D4D94212D48842C1
:1046D000704780427047DA4203D59A42F9D5814249
:1046E00070475B004200DA4204D24A00DA4201D24B
:1046F0008142704710B5024AFBF754FF10BD00BF5E
:10470000090013040123DB0502000A430DD4DA4239
:1047100003D49A4207D488427047D84214D4D9426D
:1047200012D48842704780427047DA4203D59A42D9
:10473000F9D5814270475B004200DA4204D24A0058
:10474000DA4201D28142704710B5024AFBF72AFFD4
:1047500010BD00BF0900160470B5420064414B0053
:104760005C41120E39D01B0E38D0FF2A3CD0FF2BF3
:104770003AD0D2187F3A40024902400A490A451805
:10478000ED0106004E43000A090A48430104731A6A
:104790004019190C4318990F04D05B0801214907EF
:1047A0005B1A521CD80904D3401CF50301D19D06A5
:1047B00007D0FF2A08D2D50506D0E40720434019C8
:1047C00070BD0125A843F4E7002A01DCE00770BDB5
:1047D0002402FF202043C00570BD1B0EFF2A03D01A
:1047E000FF2B01D0E00770BDFF2636064500B5421D
:1047F00006D84D00B54203D8D218FF2A00D0E7E70B
:10480000004870BD0000C07F70B50125ED070400B1
:104810004C4022D4441A02D26C40001B0919C60D28
:104820004B00F2B2FF2A4BD01B0E50D000020C02FC
:10483000A8432C43D31ADC40051B05D5AD0019D382
:104840006D08761E521E37D0F605280A01D280194F
:1048500070BD70416D0603D070BD6940FFF7E8FE82
:104860009C4009026140490001D0401E70BD0124F6
:10487000A04370BD6D081DD001202B0C01D12D046B
:1048800010302B0E01D12D0208302B0F01D12D013C
:10489000001DAB0F01D1AD00801CEB0F01D16D00ED
:1048A000401C361A121A6D00680AF5054019012AD3
:1048B00002DB70BD002070BDC036300AC00770BD7D
:1048C0001B0E440201D1FF2B00D1024870BD002A0B
:1048D000F0D070BD0000C07F818283848586878888
:1048E000898B8C8D8E8F919293959697999A9C9D9A
:1048F0009FA0A2A3A5A7A8AAACAEB0B2B3B5B7B902
:10490000BCBEC0C2C5C7C9CCCED1D4D7D9DCDFE2CA
:10491000E6E9ECF0F3F7FAFE00000000003E514932
:10492000453E00427F400042615149462141454B8E
:10493000311814127F1027454545393C4A49493002
:1049400001710905033649494936064949291E7E40
:104950001111117E7F494949363E414141227F4133
:1049600041221C7F494949417F090909013E4149CA
:10497000497A7F0808087F00417F41002040413F7D
:10498000017F081422417F404040407F020C027F9B
:104990007F0408107F3E4141413E7F090909063EE0
:1049A0004151215E7F091929464649494931010192
:1049B0007F01013F4040403F1F2040201F3F4038C3
:1049C000403F6314081463070870080761514945A4
:1049D0004300000000060000000000030800000083
:1049E0001800000000300000080008000000180057
:1049F000000000300000080000000000401F000020
:104A00002000010001000000000000000000000084
:104A10004000000000000000000000000200000054
:104A200004000000010000002C00C44108001F0029
:104A300002000000D3300000010000000000000070
:104A40000000000008000000180000000030000016
:104A500051332042414C2053544154494300513476
:104A6000204C494E452B424C43005135204C494E79
:104A7000452041204C4150005132204C494E4520A8
:104A80004C4150005136204C494E452B5441524721
:104A90004554000D0A4330374120426C7565746FF0
:104AA0006F7468205541525420696E746567726155
:104AB0007465642E0D0A55415254313A20504236E5
:104AC000285458292C20504237285258292C203954
:104AD0003630302D382D4E2D312E0D0A00000000BD
:104AE000F04A000000002020980200002801000089
:04000005000000C136
:00000001FF
